{
  "_format": "hh-sol-artifact-1",
  "contractName": "ValcoreV1",
  "sourceName": "contracts/ValcoreV1.sol",
  "abi": [
    {
      "inputs": [
        {
          "internalType": "address",
          "name": "stablecoinToken",
          "type": "address"
        },
        {
          "internalType": "uint16",
          "name": "principalRatio",
          "type": "uint16"
        },
        {
          "internalType": "uint16",
          "name": "fee",
          "type": "uint16"
        },
        {
          "internalType": "uint256",
          "name": "minDepositAmount",
          "type": "uint256"
        },
        {
          "internalType": "address",
          "name": "admin",
          "type": "address"
        },
        {
          "internalType": "address",
          "name": "treasuryAddress",
          "type": "address"
        },
        {
          "internalType": "address",
          "name": "pauser",
          "type": "address"
        },
        {
          "internalType": "address",
          "name": "auditor",
          "type": "address"
        }
      ],
      "stateMutability": "nonpayable",
      "type": "constructor"
    },
    {
      "inputs": [],
      "name": "AccessControlBadConfirmation",
      "type": "error"
    },
    {
      "inputs": [
        {
          "internalType": "address",
          "name": "account",
          "type": "address"
        },
        {
          "internalType": "bytes32",
          "name": "neededRole",
          "type": "bytes32"
        }
      ],
      "name": "AccessControlUnauthorizedAccount",
      "type": "error"
    },
    {
      "inputs": [
        {
          "internalType": "address",
          "name": "target",
          "type": "address"
        }
      ],
      "name": "AddressEmptyCode",
      "type": "error"
    },
    {
      "inputs": [
        {
          "internalType": "address",
          "name": "account",
          "type": "address"
        }
      ],
      "name": "AddressInsufficientBalance",
      "type": "error"
    },
    {
      "inputs": [],
      "name": "AlreadyClaimed",
      "type": "error"
    },
    {
      "inputs": [],
      "name": "BelowMinDeposit",
      "type": "error"
    },
    {
      "inputs": [],
      "name": "DepositTooLarge",
      "type": "error"
    },
    {
      "inputs": [],
      "name": "DraftClosed",
      "type": "error"
    },
    {
      "inputs": [],
      "name": "DraftNotOpen",
      "type": "error"
    },
    {
      "inputs": [],
      "name": "EmergencyExitNotAllowed",
      "type": "error"
    },
    {
      "inputs": [],
      "name": "EndTimeNotReached",
      "type": "error"
    },
    {
      "inputs": [],
      "name": "EnforcedPause",
      "type": "error"
    },
    {
      "inputs": [],
      "name": "ExpectedPause",
      "type": "error"
    },
    {
      "inputs": [],
      "name": "FailedInnerCall",
      "type": "error"
    },
    {
      "inputs": [],
      "name": "IntentAlreadyExecuted",
      "type": "error"
    },
    {
      "inputs": [],
      "name": "InvalidAddress",
      "type": "error"
    },
    {
      "inputs": [],
      "name": "InvalidDeposit",
      "type": "error"
    },
    {
      "inputs": [],
      "name": "InvalidFee",
      "type": "error"
    },
    {
      "inputs": [],
      "name": "InvalidHash",
      "type": "error"
    },
    {
      "inputs": [],
      "name": "InvalidMerkleRoot",
      "type": "error"
    },
    {
      "inputs": [],
      "name": "InvalidMinDeposit",
      "type": "error"
    },
    {
      "inputs": [],
      "name": "InvalidProof",
      "type": "error"
    },
    {
      "inputs": [],
      "name": "InvalidRatio",
      "type": "error"
    },
    {
      "inputs": [],
      "name": "InvalidTimeRange",
      "type": "error"
    },
    {
      "inputs": [],
      "name": "InvalidTreasuryAddress",
      "type": "error"
    },
    {
      "inputs": [],
      "name": "LockTimeNotReached",
      "type": "error"
    },
    {
      "inputs": [],
      "name": "NoCommittedStrategies",
      "type": "error"
    },
    {
      "inputs": [],
      "name": "NoLineup",
      "type": "error"
    },
    {
      "inputs": [],
      "name": "NoSweepableReward",
      "type": "error"
    },
    {
      "inputs": [],
      "name": "ReentrancyGuardReentrantCall",
      "type": "error"
    },
    {
      "inputs": [],
      "name": "RewardAlreadySwept",
      "type": "error"
    },
    {
      "inputs": [],
      "name": "RewardSweepNotAvailable",
      "type": "error"
    },
    {
      "inputs": [
        {
          "internalType": "address",
          "name": "token",
          "type": "address"
        }
      ],
      "name": "SafeERC20FailedOperation",
      "type": "error"
    },
    {
      "inputs": [],
      "name": "StartTimeNotReached",
      "type": "error"
    },
    {
      "inputs": [],
      "name": "SwapLimitReached",
      "type": "error"
    },
    {
      "inputs": [],
      "name": "WeekAlreadyExists",
      "type": "error"
    },
    {
      "inputs": [],
      "name": "WeekEnded",
      "type": "error"
    },
    {
      "inputs": [],
      "name": "WeekNotActive",
      "type": "error"
    },
    {
      "inputs": [],
      "name": "WeekNotFinalizePending",
      "type": "error"
    },
    {
      "inputs": [],
      "name": "WeekNotFinalized",
      "type": "error"
    },
    {
      "inputs": [],
      "name": "WeekNotLocked",
      "type": "error"
    },
    {
      "anonymous": false,
      "inputs": [
        {
          "indexed": true,
          "internalType": "uint256",
          "name": "weekId",
          "type": "uint256"
        },
        {
          "indexed": true,
          "internalType": "address",
          "name": "user",
          "type": "address"
        },
        {
          "indexed": false,
          "internalType": "uint256",
          "name": "amount",
          "type": "uint256"
        }
      ],
      "name": "Claimed",
      "type": "event"
    },
    {
      "anonymous": false,
      "inputs": [
        {
          "indexed": true,
          "internalType": "uint256",
          "name": "weekId",
          "type": "uint256"
        },
        {
          "indexed": true,
          "internalType": "address",
          "name": "user",
          "type": "address"
        },
        {
          "indexed": false,
          "internalType": "uint256",
          "name": "amount",
          "type": "uint256"
        }
      ],
      "name": "EmergencyExit",
      "type": "event"
    },
    {
      "anonymous": false,
      "inputs": [
        {
          "indexed": true,
          "internalType": "bytes32",
          "name": "intentId",
          "type": "bytes32"
        },
        {
          "indexed": true,
          "internalType": "uint8",
          "name": "action",
          "type": "uint8"
        },
        {
          "indexed": true,
          "internalType": "uint256",
          "name": "weekId",
          "type": "uint256"
        },
        {
          "indexed": false,
          "internalType": "address",
          "name": "caller",
          "type": "address"
        }
      ],
      "name": "LifecycleIntentConsumed",
      "type": "event"
    },
    {
      "anonymous": false,
      "inputs": [
        {
          "indexed": true,
          "internalType": "uint256",
          "name": "weekId",
          "type": "uint256"
        },
        {
          "indexed": true,
          "internalType": "address",
          "name": "user",
          "type": "address"
        },
        {
          "indexed": false,
          "internalType": "bytes32",
          "name": "lineupHash",
          "type": "bytes32"
        },
        {
          "indexed": false,
          "internalType": "uint256",
          "name": "deposit",
          "type": "uint256"
        }
      ],
      "name": "LineupCommitted",
      "type": "event"
    },
    {
      "anonymous": false,
      "inputs": [
        {
          "indexed": true,
          "internalType": "uint256",
          "name": "weekId",
          "type": "uint256"
        },
        {
          "indexed": true,
          "internalType": "address",
          "name": "user",
          "type": "address"
        },
        {
          "indexed": false,
          "internalType": "bytes32",
          "name": "lineupHash",
          "type": "bytes32"
        },
        {
          "indexed": false,
          "internalType": "uint8",
          "name": "swapsUsed",
          "type": "uint8"
        }
      ],
      "name": "LineupSwapped",
      "type": "event"
    },
    {
      "anonymous": false,
      "inputs": [
        {
          "indexed": true,
          "internalType": "uint256",
          "name": "weekId",
          "type": "uint256"
        },
        {
          "indexed": true,
          "internalType": "address",
          "name": "user",
          "type": "address"
        },
        {
          "indexed": false,
          "internalType": "bytes32",
          "name": "lineupHash",
          "type": "bytes32"
        },
        {
          "indexed": false,
          "internalType": "uint256",
          "name": "deposit",
          "type": "uint256"
        }
      ],
      "name": "LineupUpdated",
      "type": "event"
    },
    {
      "anonymous": false,
      "inputs": [
        {
          "indexed": false,
          "internalType": "address",
          "name": "account",
          "type": "address"
        }
      ],
      "name": "Paused",
      "type": "event"
    },
    {
      "anonymous": false,
      "inputs": [
        {
          "indexed": true,
          "internalType": "uint256",
          "name": "weekId",
          "type": "uint256"
        },
        {
          "indexed": true,
          "internalType": "address",
          "name": "treasury",
          "type": "address"
        },
        {
          "indexed": false,
          "internalType": "uint256",
          "name": "amount",
          "type": "uint256"
        }
      ],
      "name": "ProtocolFeeTransferred",
      "type": "event"
    },
    {
      "anonymous": false,
      "inputs": [
        {
          "indexed": true,
          "internalType": "uint256",
          "name": "weekId",
          "type": "uint256"
        },
        {
          "indexed": true,
          "internalType": "address",
          "name": "user",
          "type": "address"
        },
        {
          "indexed": true,
          "internalType": "address",
          "name": "caller",
          "type": "address"
        },
        {
          "indexed": false,
          "internalType": "uint256",
          "name": "amount",
          "type": "uint256"
        }
      ],
      "name": "RewardSwept",
      "type": "event"
    },
    {
      "anonymous": false,
      "inputs": [
        {
          "indexed": true,
          "internalType": "bytes32",
          "name": "role",
          "type": "bytes32"
        },
        {
          "indexed": true,
          "internalType": "bytes32",
          "name": "previousAdminRole",
          "type": "bytes32"
        },
        {
          "indexed": true,
          "internalType": "bytes32",
          "name": "newAdminRole",
          "type": "bytes32"
        }
      ],
      "name": "RoleAdminChanged",
      "type": "event"
    },
    {
      "anonymous": false,
      "inputs": [
        {
          "indexed": true,
          "internalType": "bytes32",
          "name": "role",
          "type": "bytes32"
        },
        {
          "indexed": true,
          "internalType": "address",
          "name": "account",
          "type": "address"
        },
        {
          "indexed": true,
          "internalType": "address",
          "name": "sender",
          "type": "address"
        }
      ],
      "name": "RoleGranted",
      "type": "event"
    },
    {
      "anonymous": false,
      "inputs": [
        {
          "indexed": true,
          "internalType": "bytes32",
          "name": "role",
          "type": "bytes32"
        },
        {
          "indexed": true,
          "internalType": "address",
          "name": "account",
          "type": "address"
        },
        {
          "indexed": true,
          "internalType": "address",
          "name": "sender",
          "type": "address"
        }
      ],
      "name": "RoleRevoked",
      "type": "event"
    },
    {
      "anonymous": false,
      "inputs": [
        {
          "indexed": false,
          "internalType": "bool",
          "name": "enabled",
          "type": "bool"
        }
      ],
      "name": "TestModeChanged",
      "type": "event"
    },
    {
      "anonymous": false,
      "inputs": [
        {
          "indexed": false,
          "internalType": "address",
          "name": "account",
          "type": "address"
        }
      ],
      "name": "Unpaused",
      "type": "event"
    },
    {
      "anonymous": false,
      "inputs": [
        {
          "indexed": true,
          "internalType": "uint256",
          "name": "weekId",
          "type": "uint256"
        },
        {
          "indexed": false,
          "internalType": "uint64",
          "name": "startAt",
          "type": "uint64"
        },
        {
          "indexed": false,
          "internalType": "uint64",
          "name": "lockAt",
          "type": "uint64"
        },
        {
          "indexed": false,
          "internalType": "uint64",
          "name": "endAt",
          "type": "uint64"
        }
      ],
      "name": "WeekCreated",
      "type": "event"
    },
    {
      "anonymous": false,
      "inputs": [
        {
          "indexed": true,
          "internalType": "uint256",
          "name": "weekId",
          "type": "uint256"
        }
      ],
      "name": "WeekFinalizationRejected",
      "type": "event"
    },
    {
      "anonymous": false,
      "inputs": [
        {
          "indexed": true,
          "internalType": "uint256",
          "name": "weekId",
          "type": "uint256"
        },
        {
          "indexed": false,
          "internalType": "bytes32",
          "name": "merkleRoot",
          "type": "bytes32"
        },
        {
          "indexed": false,
          "internalType": "bytes32",
          "name": "metadataHash",
          "type": "bytes32"
        },
        {
          "indexed": false,
          "internalType": "uint256",
          "name": "retainedFee",
          "type": "uint256"
        }
      ],
      "name": "WeekFinalizePending",
      "type": "event"
    },
    {
      "anonymous": false,
      "inputs": [
        {
          "indexed": true,
          "internalType": "uint256",
          "name": "weekId",
          "type": "uint256"
        },
        {
          "indexed": false,
          "internalType": "bytes32",
          "name": "merkleRoot",
          "type": "bytes32"
        },
        {
          "indexed": false,
          "internalType": "bytes32",
          "name": "metadataHash",
          "type": "bytes32"
        }
      ],
      "name": "WeekFinalized",
      "type": "event"
    },
    {
      "anonymous": false,
      "inputs": [
        {
          "indexed": true,
          "internalType": "uint256",
          "name": "weekId",
          "type": "uint256"
        }
      ],
      "name": "WeekLocked",
      "type": "event"
    },
    {
      "anonymous": false,
      "inputs": [
        {
          "indexed": true,
          "internalType": "uint256",
          "name": "weekId",
          "type": "uint256"
        }
      ],
      "name": "WeekStarted",
      "type": "event"
    },
    {
      "inputs": [],
      "name": "AUDITOR_ROLE",
      "outputs": [
        {
          "internalType": "bytes32",
          "name": "",
          "type": "bytes32"
        }
      ],
      "stateMutability": "view",
      "type": "function"
    },
    {
      "inputs": [],
      "name": "BPS",
      "outputs": [
        {
          "internalType": "uint256",
          "name": "",
          "type": "uint256"
        }
      ],
      "stateMutability": "view",
      "type": "function"
    },
    {
      "inputs": [],
      "name": "DEFAULT_ADMIN_ROLE",
      "outputs": [
        {
          "internalType": "bytes32",
          "name": "",
          "type": "bytes32"
        }
      ],
      "stateMutability": "view",
      "type": "function"
    },
    {
      "inputs": [],
      "name": "MAX_SWAPS",
      "outputs": [
        {
          "internalType": "uint8",
          "name": "",
          "type": "uint8"
        }
      ],
      "stateMutability": "view",
      "type": "function"
    },
    {
      "inputs": [],
      "name": "ORACLE_ROLE",
      "outputs": [
        {
          "internalType": "bytes32",
          "name": "",
          "type": "bytes32"
        }
      ],
      "stateMutability": "view",
      "type": "function"
    },
    {
      "inputs": [],
      "name": "PAUSER_ROLE",
      "outputs": [
        {
          "internalType": "bytes32",
          "name": "",
          "type": "bytes32"
        }
      ],
      "stateMutability": "view",
      "type": "function"
    },
    {
      "inputs": [],
      "name": "REWARD_SWEEP_DELAY",
      "outputs": [
        {
          "internalType": "uint256",
          "name": "",
          "type": "uint256"
        }
      ],
      "stateMutability": "view",
      "type": "function"
    },
    {
      "inputs": [
        {
          "internalType": "uint256",
          "name": "weekId",
          "type": "uint256"
        }
      ],
      "name": "approveFinalization",
      "outputs": [],
      "stateMutability": "nonpayable",
      "type": "function"
    },
    {
      "inputs": [
        {
          "internalType": "bytes32",
          "name": "intentId",
          "type": "bytes32"
        },
        {
          "internalType": "uint256",
          "name": "weekId",
          "type": "uint256"
        }
      ],
      "name": "approveFinalizationWithIntent",
      "outputs": [],
      "stateMutability": "nonpayable",
      "type": "function"
    },
    {
      "inputs": [
        {
          "internalType": "uint256",
          "name": "weekId",
          "type": "uint256"
        },
        {
          "internalType": "uint256",
          "name": "principal",
          "type": "uint256"
        },
        {
          "internalType": "uint256",
          "name": "riskPayout",
          "type": "uint256"
        },
        {
          "internalType": "uint256",
          "name": "totalWithdraw",
          "type": "uint256"
        },
        {
          "internalType": "bytes32[]",
          "name": "proof",
          "type": "bytes32[]"
        }
      ],
      "name": "claim",
      "outputs": [],
      "stateMutability": "nonpayable",
      "type": "function"
    },
    {
      "inputs": [
        {
          "internalType": "uint256",
          "name": "weekId",
          "type": "uint256"
        },
        {
          "internalType": "bytes32",
          "name": "lineupHash",
          "type": "bytes32"
        },
        {
          "internalType": "uint256",
          "name": "depositAmount",
          "type": "uint256"
        }
      ],
      "name": "commitLineup",
      "outputs": [],
      "stateMutability": "nonpayable",
      "type": "function"
    },
    {
      "inputs": [
        {
          "internalType": "uint256",
          "name": "weekId",
          "type": "uint256"
        },
        {
          "internalType": "uint64",
          "name": "startAt",
          "type": "uint64"
        },
        {
          "internalType": "uint64",
          "name": "lockAt",
          "type": "uint64"
        },
        {
          "internalType": "uint64",
          "name": "endAt",
          "type": "uint64"
        }
      ],
      "name": "createWeek",
      "outputs": [],
      "stateMutability": "nonpayable",
      "type": "function"
    },
    {
      "inputs": [
        {
          "internalType": "bytes32",
          "name": "intentId",
          "type": "bytes32"
        },
        {
          "internalType": "uint256",
          "name": "weekId",
          "type": "uint256"
        },
        {
          "internalType": "uint64",
          "name": "startAt",
          "type": "uint64"
        },
        {
          "internalType": "uint64",
          "name": "lockAt",
          "type": "uint64"
        },
        {
          "internalType": "uint64",
          "name": "endAt",
          "type": "uint64"
        }
      ],
      "name": "createWeekWithIntent",
      "outputs": [],
      "stateMutability": "nonpayable",
      "type": "function"
    },
    {
      "inputs": [
        {
          "internalType": "uint256",
          "name": "weekId",
          "type": "uint256"
        }
      ],
      "name": "emergencyExit",
      "outputs": [],
      "stateMutability": "nonpayable",
      "type": "function"
    },
    {
      "inputs": [],
      "name": "feeBps",
      "outputs": [
        {
          "internalType": "uint16",
          "name": "",
          "type": "uint16"
        }
      ],
      "stateMutability": "view",
      "type": "function"
    },
    {
      "inputs": [
        {
          "internalType": "uint256",
          "name": "weekId",
          "type": "uint256"
        },
        {
          "internalType": "bytes32",
          "name": "merkleRoot",
          "type": "bytes32"
        },
        {
          "internalType": "bytes32",
          "name": "metadataHash",
          "type": "bytes32"
        },
        {
          "internalType": "uint256",
          "name": "retainedFee",
          "type": "uint256"
        }
      ],
      "name": "finalizeWeek",
      "outputs": [],
      "stateMutability": "nonpayable",
      "type": "function"
    },
    {
      "inputs": [
        {
          "internalType": "bytes32",
          "name": "intentId",
          "type": "bytes32"
        },
        {
          "internalType": "uint256",
          "name": "weekId",
          "type": "uint256"
        },
        {
          "internalType": "bytes32",
          "name": "merkleRoot",
          "type": "bytes32"
        },
        {
          "internalType": "bytes32",
          "name": "metadataHash",
          "type": "bytes32"
        },
        {
          "internalType": "uint256",
          "name": "retainedFee",
          "type": "uint256"
        }
      ],
      "name": "finalizeWeekWithIntent",
      "outputs": [],
      "stateMutability": "nonpayable",
      "type": "function"
    },
    {
      "inputs": [
        {
          "internalType": "uint256",
          "name": "weekId",
          "type": "uint256"
        },
        {
          "internalType": "bytes32",
          "name": "merkleRoot",
          "type": "bytes32"
        },
        {
          "internalType": "bytes32",
          "name": "metadataHash",
          "type": "bytes32"
        },
        {
          "internalType": "uint256",
          "name": "retainedFee",
          "type": "uint256"
        }
      ],
      "name": "forceFinalizeWeek",
      "outputs": [],
      "stateMutability": "nonpayable",
      "type": "function"
    },
    {
      "inputs": [
        {
          "internalType": "bytes32",
          "name": "intentId",
          "type": "bytes32"
        },
        {
          "internalType": "uint256",
          "name": "weekId",
          "type": "uint256"
        },
        {
          "internalType": "bytes32",
          "name": "merkleRoot",
          "type": "bytes32"
        },
        {
          "internalType": "bytes32",
          "name": "metadataHash",
          "type": "bytes32"
        },
        {
          "internalType": "uint256",
          "name": "retainedFee",
          "type": "uint256"
        }
      ],
      "name": "forceFinalizeWeekWithIntent",
      "outputs": [],
      "stateMutability": "nonpayable",
      "type": "function"
    },
    {
      "inputs": [
        {
          "internalType": "uint256",
          "name": "weekId",
          "type": "uint256"
        }
      ],
      "name": "forceLockWeek",
      "outputs": [],
      "stateMutability": "nonpayable",
      "type": "function"
    },
    {
      "inputs": [
        {
          "internalType": "bytes32",
          "name": "intentId",
          "type": "bytes32"
        },
        {
          "internalType": "uint256",
          "name": "weekId",
          "type": "uint256"
        }
      ],
      "name": "forceLockWeekWithIntent",
      "outputs": [],
      "stateMutability": "nonpayable",
      "type": "function"
    },
    {
      "inputs": [
        {
          "internalType": "uint256",
          "name": "weekId",
          "type": "uint256"
        }
      ],
      "name": "forceStartWeek",
      "outputs": [],
      "stateMutability": "nonpayable",
      "type": "function"
    },
    {
      "inputs": [
        {
          "internalType": "bytes32",
          "name": "intentId",
          "type": "bytes32"
        },
        {
          "internalType": "uint256",
          "name": "weekId",
          "type": "uint256"
        }
      ],
      "name": "forceStartWeekWithIntent",
      "outputs": [],
      "stateMutability": "nonpayable",
      "type": "function"
    },
    {
      "inputs": [
        {
          "internalType": "bytes32",
          "name": "role",
          "type": "bytes32"
        }
      ],
      "name": "getRoleAdmin",
      "outputs": [
        {
          "internalType": "bytes32",
          "name": "",
          "type": "bytes32"
        }
      ],
      "stateMutability": "view",
      "type": "function"
    },
    {
      "inputs": [
        {
          "internalType": "bytes32",
          "name": "role",
          "type": "bytes32"
        },
        {
          "internalType": "address",
          "name": "account",
          "type": "address"
        }
      ],
      "name": "grantRole",
      "outputs": [],
      "stateMutability": "nonpayable",
      "type": "function"
    },
    {
      "inputs": [
        {
          "internalType": "bytes32",
          "name": "role",
          "type": "bytes32"
        },
        {
          "internalType": "address",
          "name": "account",
          "type": "address"
        }
      ],
      "name": "hasRole",
      "outputs": [
        {
          "internalType": "bool",
          "name": "",
          "type": "bool"
        }
      ],
      "stateMutability": "view",
      "type": "function"
    },
    {
      "inputs": [
        {
          "internalType": "bytes32",
          "name": "",
          "type": "bytes32"
        }
      ],
      "name": "lifecycleIntentExecuted",
      "outputs": [
        {
          "internalType": "bool",
          "name": "",
          "type": "bool"
        }
      ],
      "stateMutability": "view",
      "type": "function"
    },
    {
      "inputs": [
        {
          "internalType": "uint256",
          "name": "weekId",
          "type": "uint256"
        }
      ],
      "name": "lockWeek",
      "outputs": [],
      "stateMutability": "nonpayable",
      "type": "function"
    },
    {
      "inputs": [
        {
          "internalType": "bytes32",
          "name": "intentId",
          "type": "bytes32"
        },
        {
          "internalType": "uint256",
          "name": "weekId",
          "type": "uint256"
        }
      ],
      "name": "lockWeekWithIntent",
      "outputs": [],
      "stateMutability": "nonpayable",
      "type": "function"
    },
    {
      "inputs": [],
      "name": "minDeposit",
      "outputs": [
        {
          "internalType": "uint256",
          "name": "",
          "type": "uint256"
        }
      ],
      "stateMutability": "view",
      "type": "function"
    },
    {
      "inputs": [],
      "name": "pause",
      "outputs": [],
      "stateMutability": "nonpayable",
      "type": "function"
    },
    {
      "inputs": [],
      "name": "paused",
      "outputs": [
        {
          "internalType": "bool",
          "name": "",
          "type": "bool"
        }
      ],
      "stateMutability": "view",
      "type": "function"
    },
    {
      "inputs": [
        {
          "internalType": "uint256",
          "name": "",
          "type": "uint256"
        },
        {
          "internalType": "address",
          "name": "",
          "type": "address"
        }
      ],
      "name": "positions",
      "outputs": [
        {
          "internalType": "uint128",
          "name": "principal",
          "type": "uint128"
        },
        {
          "internalType": "uint128",
          "name": "risk",
          "type": "uint128"
        },
        {
          "internalType": "uint128",
          "name": "forfeitedReward",
          "type": "uint128"
        },
        {
          "internalType": "bytes32",
          "name": "lineupHash",
          "type": "bytes32"
        },
        {
          "internalType": "uint8",
          "name": "swaps",
          "type": "uint8"
        },
        {
          "internalType": "bool",
          "name": "claimed",
          "type": "bool"
        }
      ],
      "stateMutability": "view",
      "type": "function"
    },
    {
      "inputs": [],
      "name": "principalRatioBps",
      "outputs": [
        {
          "internalType": "uint16",
          "name": "",
          "type": "uint16"
        }
      ],
      "stateMutability": "view",
      "type": "function"
    },
    {
      "inputs": [
        {
          "internalType": "uint256",
          "name": "weekId",
          "type": "uint256"
        }
      ],
      "name": "rejectFinalization",
      "outputs": [],
      "stateMutability": "nonpayable",
      "type": "function"
    },
    {
      "inputs": [
        {
          "internalType": "bytes32",
          "name": "intentId",
          "type": "bytes32"
        },
        {
          "internalType": "uint256",
          "name": "weekId",
          "type": "uint256"
        }
      ],
      "name": "rejectFinalizationWithIntent",
      "outputs": [],
      "stateMutability": "nonpayable",
      "type": "function"
    },
    {
      "inputs": [
        {
          "internalType": "bytes32",
          "name": "role",
          "type": "bytes32"
        },
        {
          "internalType": "address",
          "name": "callerConfirmation",
          "type": "address"
        }
      ],
      "name": "renounceRole",
      "outputs": [],
      "stateMutability": "nonpayable",
      "type": "function"
    },
    {
      "inputs": [
        {
          "internalType": "bytes32",
          "name": "role",
          "type": "bytes32"
        },
        {
          "internalType": "address",
          "name": "account",
          "type": "address"
        }
      ],
      "name": "revokeRole",
      "outputs": [],
      "stateMutability": "nonpayable",
      "type": "function"
    },
    {
      "inputs": [
        {
          "internalType": "uint256",
          "name": "weekId",
          "type": "uint256"
        }
      ],
      "name": "rewardSweepAvailableAt",
      "outputs": [
        {
          "internalType": "uint256",
          "name": "",
          "type": "uint256"
        }
      ],
      "stateMutability": "view",
      "type": "function"
    },
    {
      "inputs": [
        {
          "internalType": "bool",
          "name": "enabled",
          "type": "bool"
        }
      ],
      "name": "setTestMode",
      "outputs": [],
      "stateMutability": "nonpayable",
      "type": "function"
    },
    {
      "inputs": [],
      "name": "stablecoin",
      "outputs": [
        {
          "internalType": "contract IERC20",
          "name": "",
          "type": "address"
        }
      ],
      "stateMutability": "view",
      "type": "function"
    },
    {
      "inputs": [
        {
          "internalType": "uint256",
          "name": "weekId",
          "type": "uint256"
        }
      ],
      "name": "startWeek",
      "outputs": [],
      "stateMutability": "nonpayable",
      "type": "function"
    },
    {
      "inputs": [
        {
          "internalType": "bytes32",
          "name": "intentId",
          "type": "bytes32"
        },
        {
          "internalType": "uint256",
          "name": "weekId",
          "type": "uint256"
        }
      ],
      "name": "startWeekWithIntent",
      "outputs": [],
      "stateMutability": "nonpayable",
      "type": "function"
    },
    {
      "inputs": [
        {
          "internalType": "bytes4",
          "name": "interfaceId",
          "type": "bytes4"
        }
      ],
      "name": "supportsInterface",
      "outputs": [
        {
          "internalType": "bool",
          "name": "",
          "type": "bool"
        }
      ],
      "stateMutability": "view",
      "type": "function"
    },
    {
      "inputs": [
        {
          "internalType": "uint256",
          "name": "weekId",
          "type": "uint256"
        },
        {
          "internalType": "bytes32",
          "name": "newHash",
          "type": "bytes32"
        }
      ],
      "name": "swapLineup",
      "outputs": [],
      "stateMutability": "nonpayable",
      "type": "function"
    },
    {
      "inputs": [
        {
          "internalType": "uint256",
          "name": "weekId",
          "type": "uint256"
        },
        {
          "internalType": "address",
          "name": "user",
          "type": "address"
        },
        {
          "internalType": "uint256",
          "name": "principal",
          "type": "uint256"
        },
        {
          "internalType": "uint256",
          "name": "riskPayout",
          "type": "uint256"
        },
        {
          "internalType": "uint256",
          "name": "totalWithdraw",
          "type": "uint256"
        },
        {
          "internalType": "bytes32[]",
          "name": "proof",
          "type": "bytes32[]"
        }
      ],
      "name": "sweepExpiredReward",
      "outputs": [],
      "stateMutability": "nonpayable",
      "type": "function"
    },
    {
      "inputs": [],
      "name": "testMode",
      "outputs": [
        {
          "internalType": "bool",
          "name": "",
          "type": "bool"
        }
      ],
      "stateMutability": "view",
      "type": "function"
    },
    {
      "inputs": [],
      "name": "treasury",
      "outputs": [
        {
          "internalType": "address",
          "name": "",
          "type": "address"
        }
      ],
      "stateMutability": "view",
      "type": "function"
    },
    {
      "inputs": [],
      "name": "unpause",
      "outputs": [],
      "stateMutability": "nonpayable",
      "type": "function"
    },
    {
      "inputs": [
        {
          "internalType": "uint256",
          "name": "",
          "type": "uint256"
        }
      ],
      "name": "weekStates",
      "outputs": [
        {
          "internalType": "uint64",
          "name": "startAt",
          "type": "uint64"
        },
        {
          "internalType": "uint64",
          "name": "lockAt",
          "type": "uint64"
        },
        {
          "internalType": "uint64",
          "name": "endAt",
          "type": "uint64"
        },
        {
          "internalType": "uint64",
          "name": "finalizedAt",
          "type": "uint64"
        },
        {
          "internalType": "uint8",
          "name": "status",
          "type": "uint8"
        },
        {
          "internalType": "uint128",
          "name": "riskCommitted",
          "type": "uint128"
        },
        {
          "internalType": "uint128",
          "name": "retainedFee",
          "type": "uint128"
        },
        {
          "internalType": "bytes32",
          "name": "merkleRoot",
          "type": "bytes32"
        },
        {
          "internalType": "bytes32",
          "name": "metadataHash",
          "type": "bytes32"
        }
      ],
      "stateMutability": "view",
      "type": "function"
    }
  ],
  "bytecode": "0x6101206040523480156200001257600080fd5b506040516200372638038062003726833981016040819052620000359162000325565b6001805460ff191681556002556001600160a01b0388166200006a5760405163e6c4247b60e01b815260040160405180910390fd5b6127108761ffff161115620000925760405163648564d360e01b815260040160405180910390fd5b6127108661ffff161115620000ba576040516358d620b360e01b815260040160405180910390fd5b84600003620000dc57604051634f4940eb60e11b815260040160405180910390fd5b6001600160a01b038416620001045760405163e6c4247b60e01b815260040160405180910390fd5b6001600160a01b0383166200012c5760405163cfe2ea6360e01b815260040160405180910390fd5b6001600160a01b038216620001545760405163e6c4247b60e01b815260040160405180910390fd5b6001600160a01b0381166200017c5760405163e6c4247b60e01b815260040160405180910390fd5b6001600160a01b03808916608052831660a05261ffff80881660c052861660e052610100859052620001b060008562000246565b50620001dd7f68e79a7bf1e0bc45d0a330c573bc367f9cf464fd326078812f301165fbda4ef18562000246565b506200020a7f65d7a28e3265b37a6474929f336521b332c1681b933f6cb9f3376673440d862a8362000246565b50620002377f59a1c48e5837ad7a7f3dcedcbe129bf3249ec4fbf651fd4f5e2600ead39fe2f58262000246565b505050505050505050620003c4565b6000828152602081815260408083206001600160a01b038516845290915281205460ff16620002eb576000838152602081815260408083206001600160a01b03861684529091529020805460ff19166001179055620002a23390565b6001600160a01b0316826001600160a01b0316847f2f8788117e7eff1d82e926ec794901d17c78024a50270940304540a733656f0d60405160405180910390a4506001620002ef565b5060005b92915050565b80516001600160a01b03811681146200030d57600080fd5b919050565b805161ffff811681146200030d57600080fd5b600080600080600080600080610100898b0312156200034357600080fd5b6200034e89620002f5565b97506200035e60208a0162000312565b96506200036e60408a0162000312565b9550606089015194506200038560808a01620002f5565b93506200039560a08a01620002f5565b9250620003a560c08a01620002f5565b9150620003b560e08a01620002f5565b90509295985092959890939650565b60805160a05160c05160e051610100516132ad620004796000396000818161056701526115fa015260006103d201526000818161058e01526117420152600081816105f9015281816111db015281816114570152818161147e01528181611c7901528181611ec60152611eed01526000818161085c01528181610fa5015281816111b10152818161127101528181611435015281816116c10152818161170e01528181611c4f0152611ea401526132ad6000f3fe608060405234801561001057600080fd5b50600436106102d65760003560e01c806363a9c0f811610182578063b692d265116100e9578063dda062d4116100a2578063e81248d21161007c578063e81248d214610844578063e9cbd82214610857578063ef8b2af51461087e578063f0a5e1431461089157600080fd5b8063dda062d41461076f578063e63ab1e914610779578063e684d718146107a057600080fd5b8063b692d26514610703578063c839d8dc14610716578063ca752a8214610729578063cd9ea3421461073c578063d19d1a0a14610749578063d547741f1461075c57600080fd5b80638016a1081161013b5780638016a108146106a75780638197eba8146106ba5780638456cb59146106cd5780638cd3b5e8146106d557806391d14854146106e8578063a217fddf146106fb57600080fd5b806363a9c0f814610633578063686c3db41461064657806368807391146106595780636e1d616e1461066c5780636e4322e5146106815780636eb14d3b1461069457600080fd5b80633145c3cd1161024157806341b3d185116101fa5780635463c3e8116101d45780635463c3e8146105c35780635c975abb146105d6578063601ee229146105e157806361d027b3146105f457600080fd5b806341b3d18514610562578063421e3cd6146105895780634231b0bd146105b057600080fd5b80633145c3cd1461041a5780633160c0811461042d578063316a65e51461045057806336568abe1461053457806336cb2920146105475780633f4ba83a1461055a57600080fd5b80631ff1292f116102935780631ff1292f1461037b57806324891c551461038e578063248a9ca3146103a1578063249d39e9146103c457806324a9d853146103cd5780632f2ff15d1461040757600080fd5b806301ffc9a7146102db578063062761211461030357806307e2cea51461031d578063161d263e146103405780631baa77f2146103555780631cd249e614610368575b600080fd5b6102ee6102e9366004612d71565b6108a4565b60405190151581526020015b60405180910390f35b61030b600a81565b60405160ff90911681526020016102fa565b61033260008051602061323883398151915281565b6040519081526020016102fa565b61035361034e366004612d9b565b6108db565b005b610353610363366004612db4565b61099a565b610353610376366004612d9b565b610a5f565b610353610389366004612de4565b610aec565b61035361039c366004612d9b565b610b3f565b6103326103af366004612d9b565b60009081526020819052604090206001015490565b61033261271081565b6103f47f000000000000000000000000000000000000000000000000000000000000000081565b60405161ffff90911681526020016102fa565b610353610415366004612e1d565b610bf0565b610353610428366004612d9b565b610c1b565b6102ee61043b366004612d9b565b60066020526000908152604090205460ff1681565b6104ce61045e366004612d9b565b6004602081905260009182526040909120805460018201546002830154600384015493909401546001600160401b0380841695600160401b8504821695600160801b8604831695600160c01b90049092169360ff8116936101009091046001600160801b03908116939216919089565b604080516001600160401b039a8b168152988a1660208a01529689169688019690965296909316606086015260ff90911660808501526001600160801b0390811660a08501521660c083015260e0820192909252610100810191909152610120016102fa565b610353610542366004612e1d565b610c94565b610353610555366004612e60565b610ccc565b610353610e07565b6103327f000000000000000000000000000000000000000000000000000000000000000081565b6103f47f000000000000000000000000000000000000000000000000000000000000000081565b6103536105be366004612d9b565b610e3c565b6103536105d1366004612ef8565b611011565b60015460ff166102ee565b6103536105ef366004612d9b565b6112e6565b61061b7f000000000000000000000000000000000000000000000000000000000000000081565b6040516001600160a01b0390911681526020016102fa565b610353610641366004612db4565b6113a6565b610353610654366004612f61565b611533565b610353610667366004612f8d565b61197a565b61033260008051602061325883398151915281565b61035361068f366004612fc8565b611a63565b6103536106a2366004612db4565b611cfa565b6103536106b5366004612db4565b611d54565b6103536106c8366004612d9b565b611e21565b610353611fa1565b6103536106e3366004612db4565b611fd3565b6102ee6106f6366004612e1d565b61213a565b610332600081565b610332610711366004612d9b565b612163565b610353610724366004613042565b6121cc565b610353610737366004612db4565b6122a0565b6003546102ee9060ff1681565b610353610757366004612f8d565b61236c565b61035361076a366004612e1d565b6123f8565b61033262ed4e0081565b6103327f65d7a28e3265b37a6474929f336521b332c1681b933f6cb9f3376673440d862a81565b6108036107ae366004612e1d565b600560209081526000928352604080842090915290825290208054600182015460028301546003909301546001600160801b0380841694600160801b9094048116939216919060ff8082169161010090041686565b604080516001600160801b03978816815295871660208701529390951692840192909252606083015260ff16608082015290151560a082015260c0016102fa565b610353610852366004613042565b61241d565b61061b7f000000000000000000000000000000000000000000000000000000000000000081565b61035361088c366004613074565b61249d565b61035361089f366004612db4565b6125e5565b60006001600160e01b03198216637965db0b60e01b14806108d557506301ffc9a760e01b6001600160e01b03198316145b92915050565b6000805160206132388339815191526108f3816126a2565b600082815260046020526040902060018082015460ff1614610928576040516363e0f9cf60e11b815260040160405180910390fd5b600181015461010090046001600160801b031660000361095b57604051630f2b655960e41b815260040160405180910390fd5b60018101805460ff1916600217905560405183907f4847a6ddbf4c912f1f99f61aa3f7abd920b5c1d300f4ed628dee038ef7ddefcb90600090a2505050565b6000805160206132388339815191526109b2816126a2565b6109be836003846126ac565b6000828152600460205260409020600181015460ff166002146109f45760405163f6c42cb560e01b815260040160405180910390fd5b80546001600160401b0316421015610a1f5760405163047ce04160e21b815260040160405180910390fd5b60018101805460ff1916600317905560405183907fac603d57c7726546b797af9d2815978752f98539d10067c831d5330c3bfc1aea90600090a250505050565b600080516020613238833981519152610a77816126a2565b6000828152600460205260409020600181015460ff16600214610aad5760405163f6c42cb560e01b815260040160405180910390fd5b60018101805460ff1916600317905560405183907fac603d57c7726546b797af9d2815978752f98539d10067c831d5330c3bfc1aea90600090a2505050565b6000610af7816126a2565b6003805460ff19168315159081179091556040519081527f3aa6186db6afba61ec3731f16e23fdea8dfa0dfe10d7c05942d11fdb365db0319060200160405180910390a15050565b600080516020613238833981519152610b57816126a2565b600082815260046020526040902060018082015460ff1614610b8c576040516363e0f9cf60e11b815260040160405180910390fd5b600181015461010090046001600160801b0316600003610bbf57604051630f2b655960e41b815260040160405180910390fd5b8054600160401b90046001600160401b031642101561095b576040516214930960e01b815260040160405180910390fd5b600082815260208190526040902060010154610c0b816126a2565b610c158383612754565b50505050565b600080516020613238833981519152610c33816126a2565b6000828152600460205260409020600181015460ff16600214610c695760405163f6c42cb560e01b815260040160405180910390fd5b80546001600160401b0316421015610aad5760405163047ce04160e21b815260040160405180910390fd5b6001600160a01b0381163314610cbd5760405163334bd91960e11b815260040160405180910390fd5b610cc782826127e6565b505050565b600080516020613238833981519152610ce4816126a2565b6000858152600460205260409020600181015460ff1615610d18576040516325c6d65760e11b815260040160405180910390fd5b846001600160401b0316846001600160401b03161180610d4a5750826001600160401b0316856001600160401b031610155b15610d685760405163536a71af60e01b815260040160405180910390fd5b80546001600160401b038681166001600160801b03199092168217600160401b8783169081029190911767ffffffffffffffff60801b1916600160801b9287169283021784556001808501805460ff1916909117905560408051938452602084019190915282015286907f5d5aab8af204a4135004372eb568fb9048bfea2555b25c1c5db092b56013ea589060600160405180910390a2505050505050565b7f65d7a28e3265b37a6474929f336521b332c1681b933f6cb9f3376673440d862a610e31816126a2565b610e39612851565b50565b610e446128a3565b610e4c6128c8565b6000818152600460205260409020600181015460ff1660041901610e835760405163121c1cb560e21b815260040160405180910390fd5b600082815260056020908152604080832033845290915290206003810154610100900460ff1615610ec757604051630c8d9eab60e31b815260040160405180910390fd5b8054600090610ee8906001600160801b03600160801b8204811691166130e1565b905080600003610f0b57604051635e096daf60e01b815260040160405180910390fd5b8154600160801b90046001600160801b03168015610f6b5760018481018054839290610f4690849061010090046001600160801b03166130f4565b92506101000a8154816001600160801b0302191690836001600160801b031602179055505b60008084556001840180546001600160801b0319169055600284015560038301805461ffff1916610100179055610fcc6001600160a01b037f00000000000000000000000000000000000000000000000000000000000000001633846128f0565b604051828152339086907f0782d17757ef22b6d49078e7415f30225d972d06ec6433e96ea382674493af429060200160405180910390a350505050610e396001600255565b6110196128c8565b6000868152600460205260409020600181015460ff1660051461104f576040516365e1a11160e11b815260040160405180910390fd5b600087815260056020908152604080832033845290915290206003810154610100900460ff161561109357604051630c8d9eab60e31b815260040160405180910390fd5b600030468a338b8b8b6040516020016110b2979695949392919061311b565b60405160208183030381529060405280519060200120905061110b85858080602002602001604051908101604052809392919081815260200183836020028082843760009201919091525050505060038501548361294f565b611128576040516309bde33960e01b815260040160405180910390fd5b600182015486906001600160801b03168015801561114a575061114a85612965565b1561123c57600061115c858c8b6129b1565b9050801561123a576001600160801b0381111561118c5760405163c56d46d360e01b815260040160405180910390fd5b6001850180546001600160801b0319166001600160801b0383161790559050806112007f00000000000000000000000000000000000000000000000000000000000000006001600160a01b03167f0000000000000000000000000000000000000000000000000000000000000000836128f0565b604051818152339081908e907ff2d8b3e55fc163d23dc20f735eafa12caa3f0f65c229d1e0398493935755949d9060200160405180910390a45b505b818111156112475750805b6112518183613169565b60038501805461ff00191661010017905591506112986001600160a01b037f00000000000000000000000000000000000000000000000000000000000000001633846128f0565b60405182815233908c907f4ec90e965519d92681267467f775ada5bd214aa92c0dc93d90a5e880ce9ed0269060200160405180910390a350505050506112de6001600255565b505050505050565b6000805160206132588339815191526112fe816126a2565b60008281526004602081905260409091206001810154909160ff909116146113395760405163c50c9a7f60e01b815260040160405180910390fd5b60018101805460ff1916600390811790915581546001600160c01b031682556002820180546001600160801b031916905560009082018190556004820181905560405184917f262bb819c866f92fbce469b11aff93b1cc683adaba550cb35045cf48671d6cfa91a2505050565b6000805160206132588339815191526113be816126a2565b6113ca836005846126ac565b60008281526004602081905260409091206001810154909160ff909116146114055760405163c50c9a7f60e01b815260040160405180910390fd5b60018101805460ff1916600517905560028101546001600160801b031680156114e15761147c6001600160a01b037f0000000000000000000000000000000000000000000000000000000000000000167f0000000000000000000000000000000000000000000000000000000000000000836128f0565b7f00000000000000000000000000000000000000000000000000000000000000006001600160a01b0316847f0e19f21371647f79bb7c3f1e363266315b211fcca3836e7a71425cc0c4ab6a8e836040516114d891815260200190565b60405180910390a35b837fe3ae6d591c9a33e364ec2f64a44c0f22b39c7408f4c24b7b6a330cdff31e63a583600301548460040154604051611524929190918252602082015260400190565b60405180910390a25050505050565b61153b6129f8565b6115436128c8565b600083815260046020526040902060018082015460ff1614611578576040516363e0f9cf60e11b815260040160405180910390fd5b60035460ff1615801561159c57508054600160401b90046001600160401b03164210155b156115ba576040516370fe87b160e01b815260040160405180910390fd5b826115d7576040516257c03760e51b815260040160405180910390fd5b816000036115f857604051635972996f60e11b815260040160405180910390fd5b7f0000000000000000000000000000000000000000000000000000000000000000821015611639576040516325bb239560e21b815260040160405180910390fd5b600084815260056020908152604080832033845290915290206003810154610100900460ff161561167d57604051630c8d9eab60e31b815260040160405180910390fd5b805460009061169e906001600160801b03600160801b8204811691166130e1565b9050808411156116ee576116e933306116b78488613169565b6001600160a01b037f000000000000000000000000000000000000000000000000000000000000000016929190612a1c565b611735565b8084101561173557611735336117048684613169565b6001600160a01b037f00000000000000000000000000000000000000000000000000000000000000001691906128f0565b600061271061176861ffff7f0000000000000000000000000000000000000000000000000000000000000000168761317c565b6117729190613193565b905060006117808287613169565b90506001600160801b0382118061179d57506001600160801b0381115b156117bb5760405163c56d46d360e01b815260040160405180910390fd5b8354600160801b90046001600160801b031680821115611836576117e86001600160801b03821683613169565b8660010160018282829054906101000a90046001600160801b031661180d91906131b5565b92506101000a8154816001600160801b0302191690836001600160801b031602179055506118a4565b806001600160801b03168210156118a45761185a826001600160801b038316613169565b8660010160018282829054906101000a90046001600160801b031661187f91906130f4565b92506101000a8154816001600160801b0302191690836001600160801b031602179055505b6001600160801b03828116600160801b029084161785556001850180546001600160801b03191690556002850188905560038501805461ffff19169055600084900361192c57604080518981526020810189905233918b917f80911c202f290b865d2f04d188438939370585fe8970854f13309adaebf28a8a910160405180910390a361196a565b604080518981526020810189905233918b917f645958708f60ea0b47fa2c9c64bae144d7111035c5f9bb13ac45022c6f018651910160405180910390a35b505050505050610cc76001600255565b600080516020613238833981519152611992816126a2565b61199e866004876126ac565b6000858152600460205260409020600181015460ff166003146119d457604051633e6881c560e01b815260040160405180910390fd5b846119f257604051639dd854d360e01b815260040160405180910390fd5b6001600160801b03831115611a1a5760405163c56d46d360e01b815260040160405180910390fd5b600181015461010090046001600160801b0316831115611a4d576040516358d620b360e01b815260040160405180910390fd5b611a5a8187878787612a55565b50505050505050565b611a6b6128c8565b6000878152600460205260409020600181015460ff16600514611aa1576040516365e1a11160e11b815260040160405180910390fd5b611aaa81612965565b611ac757604051632718eac760e01b815260040160405180910390fd5b60008881526005602090815260408083206001600160a01b038b16845290915290206003810154610100900460ff1615611b1457604051630c8d9eab60e31b815260040160405180910390fd5b60018101546001600160801b031615611b4057604051636caabf8f60e11b815260040160405180910390fd5b600030468b8b8b8b8b604051602001611b5f979695949392919061311b565b604051602081830303815290604052805190602001209050611bb885858080602002602001604051908101604052809392919081815260200183836020028082843760009201919091525050505060038501548361294f565b611bd5576040516309bde33960e01b815260040160405180910390fd5b6000611be2838a896129b1565b905080600003611c0557604051631557f70960e01b815260040160405180910390fd5b6001600160801b03811115611c2d5760405163c56d46d360e01b815260040160405180910390fd5b6001830180546001600160801b0319166001600160801b038316179055611c9e7f00000000000000000000000000000000000000000000000000000000000000006001600160a01b03167f0000000000000000000000000000000000000000000000000000000000000000836128f0565b336001600160a01b03168a6001600160a01b03168c7ff2d8b3e55fc163d23dc20f735eafa12caa3f0f65c229d1e0398493935755949d84604051611ce491815260200190565b60405180910390a450505050611a5a6001600255565b600080516020613238833981519152611d12816126a2565b611d1e836003846126ac565b6000828152600460205260409020600181015460ff16600214610a1f5760405163f6c42cb560e01b815260040160405180910390fd5b600080516020613258833981519152611d6c816126a2565b611d78836006846126ac565b60008281526004602081905260409091206001810154909160ff90911614611db35760405163c50c9a7f60e01b815260040160405180910390fd5b60018101805460ff1916600390811790915581546001600160c01b031682556002820180546001600160801b031916905560009082018190556004820181905560405184917f262bb819c866f92fbce469b11aff93b1cc683adaba550cb35045cf48671d6cfa91a250505050565b600080516020613258833981519152611e39816126a2565b60008281526004602081905260409091206001810154909160ff90911614611e745760405163c50c9a7f60e01b815260040160405180910390fd5b60018101805460ff1916600517905560028101546001600160801b03168015611f5057611eeb6001600160a01b037f0000000000000000000000000000000000000000000000000000000000000000167f0000000000000000000000000000000000000000000000000000000000000000836128f0565b7f00000000000000000000000000000000000000000000000000000000000000006001600160a01b0316847f0e19f21371647f79bb7c3f1e363266315b211fcca3836e7a71425cc0c4ab6a8e83604051611f4791815260200190565b60405180910390a35b837fe3ae6d591c9a33e364ec2f64a44c0f22b39c7408f4c24b7b6a330cdff31e63a583600301548460040154604051611f93929190918252602082015260400190565b60405180910390a250505050565b7f65d7a28e3265b37a6474929f336521b332c1681b933f6cb9f3376673440d862a611fcb816126a2565b610e39612aef565b611fdb6129f8565b6000828152600460205260409020600181015460ff1660031461201157604051633e6881c560e01b815260040160405180910390fd5b60035460ff1615801561203557508054600160801b90046001600160401b03164210155b156120535760405163cae73d4560e01b815260040160405180910390fd5b60008381526005602090815260408083203384529091529020600281015461208e57604051635e096daf60e01b815260040160405180910390fd5b6003810154600a60ff909116106120b85760405163a3869ab760e01b815260040160405180910390fd5b826120d5576040516257c03760e51b815260040160405180910390fd5b6002810183905560038101805460ff8082166001011660ff199091168117909155604080518581526020810192909252339186917ff13a4df72601c50daaff7ebb4317c336455ac45e70cba3146db7ffd8104cb17c910160405180910390a350505050565b6000918252602082815260408084206001600160a01b0393909316845291905290205460ff1690565b6000818152600460205260408120600181015460ff16600514158061219757508054600160c01b90046001600160401b0316155b156121a55750600092915050565b80546121c59062ed4e0090600160c01b90046001600160401b03166130e1565b9392505050565b6000805160206132388339815191526121e4816126a2565b6000858152600460205260409020600181015460ff1660031461221a57604051633e6881c560e01b815260040160405180910390fd5b8461223857604051639dd854d360e01b815260040160405180910390fd5b6001600160801b038311156122605760405163c56d46d360e01b815260040160405180910390fd5b600181015461010090046001600160801b0316831115612293576040516358d620b360e01b815260040160405180910390fd5b6112de8187878787612a55565b6000805160206132388339815191526122b8816126a2565b6122c4836002846126ac565b600082815260046020526040902060018082015460ff16146122f9576040516363e0f9cf60e11b815260040160405180910390fd5b600181015461010090046001600160801b031660000361232c57604051630f2b655960e41b815260040160405180910390fd5b60018101805460ff1916600217905560405183907f4847a6ddbf4c912f1f99f61aa3f7abd920b5c1d300f4ed628dee038ef7ddefcb90600090a250505050565b600080516020613238833981519152612384816126a2565b612390866004876126ac565b6000858152600460205260409020600181015460ff166003146123c657604051633e6881c560e01b815260040160405180910390fd5b8054600160801b90046001600160401b03164210156119d4576040516307cd705b60e41b815260040160405180910390fd5b600082815260208190526040902060010154612413816126a2565b610c1583836127e6565b600080516020613238833981519152612435816126a2565b6000858152600460205260409020600181015460ff1660031461246b57604051633e6881c560e01b815260040160405180910390fd5b8054600160801b90046001600160401b031642101561221a576040516307cd705b60e41b815260040160405180910390fd5b6000805160206132388339815191526124b5816126a2565b6124c1866001876126ac565b6000858152600460205260409020600181015460ff16156124f5576040516325c6d65760e11b815260040160405180910390fd5b846001600160401b0316846001600160401b031611806125275750826001600160401b0316856001600160401b031610155b156125455760405163536a71af60e01b815260040160405180910390fd5b80546001600160401b038681166001600160801b03199092168217600160401b8783169081029190911767ffffffffffffffff60801b1916600160801b9287169283021784556001808501805460ff1916909117905560408051938452602084019190915282015286907f5d5aab8af204a4135004372eb568fb9048bfea2555b25c1c5db092b56013ea589060600160405180910390a250505050505050565b6000805160206132388339815191526125fd816126a2565b612609836002846126ac565b600082815260046020526040902060018082015460ff161461263e576040516363e0f9cf60e11b815260040160405180910390fd5b600181015461010090046001600160801b031660000361267157604051630f2b655960e41b815260040160405180910390fd5b8054600160401b90046001600160401b031642101561232c576040516214930960e01b815260040160405180910390fd5b610e398133612b2a565b826126c9576040516257c03760e51b815260040160405180910390fd5b60008381526006602052604090205460ff16156126f957604051633b68b0fd60e01b815260040160405180910390fd5b600083815260066020908152604091829020805460ff191660011790559051338152829160ff85169186917f121fd9492d7f257411c5cf9171f742f0647d83ce66809d7b04c249687f4fd0d7910160405180910390a4505050565b6000612760838361213a565b6127de576000838152602081815260408083206001600160a01b03861684529091529020805460ff191660011790556127963390565b6001600160a01b0316826001600160a01b0316847f2f8788117e7eff1d82e926ec794901d17c78024a50270940304540a733656f0d60405160405180910390a45060016108d5565b5060006108d5565b60006127f2838361213a565b156127de576000838152602081815260408083206001600160a01b0386168085529252808320805460ff1916905551339286917ff6391f5c32d9c69d2a47ea670b442974b53935d1edc7fd64eb21e047a839171b9190a45060016108d5565b6128596128a3565b6001805460ff191690557f5db9ee0a495bf2e6ff9c91a7834c1ba4fdd244a5e8aa4e537bd38aeae4b073aa335b6040516001600160a01b03909116815260200160405180910390a1565b60015460ff166128c657604051638dfc202b60e01b815260040160405180910390fd5b565b60028054036128ea57604051633ee5aeb560e01b815260040160405180910390fd5b60028055565b6040516001600160a01b03838116602483015260448201839052610cc791859182169063a9059cbb906064015b604051602081830303815290604052915060e01b6020820180516001600160e01b038381831617835250505050612b6c565b60008261295c8584612bcf565b14949350505050565b8054600090600160c01b90046001600160401b0316810361298857506000919050565b81546129a89062ed4e0090600160c01b90046001600160401b03166130e1565b42101592915050565b825460009081906129d290600160801b90046001600160801b0316856130e1565b90508083116129e55760009150506121c5565b6129ef8184613169565b95945050505050565b60015460ff16156128c65760405163d93c066560e01b815260040160405180910390fd5b6040516001600160a01b038481166024830152838116604483015260648201839052610c159186918216906323b872dd9060840161291d565b600185018054600460ff19909116811790915585546001600160c01b0316600160c01b426001600160401b0316021786556002860180546001600160801b0319166001600160801b038416179055600386018490558501829055604080518481526020810184905290810182905284907f6faa1c6974b01d1466668718128c05788426c37fd3f11667f2cf4bc79a7cb7d690606001611524565b612af76129f8565b6001805460ff1916811790557f62e78cea01bee320cd4e420270b5ea74000d11b0c9f74754ebdbfc544b05a25833612886565b612b34828261213a565b612b685760405163e2517d3f60e01b81526001600160a01b0382166004820152602481018390526044015b60405180910390fd5b5050565b6000612b816001600160a01b03841683612c12565b90508051600014158015612ba6575080806020019051810190612ba491906131d5565b155b15610cc757604051635274afe760e01b81526001600160a01b0384166004820152602401612b5f565b600081815b8451811015612c0a57612c0082868381518110612bf357612bf36131f2565b6020026020010151612c20565b9150600101612bd4565b509392505050565b60606121c583836000612c4f565b6000818310612c3c5760008281526020849052604090206121c5565b60008381526020839052604090206121c5565b606081471015612c745760405163cd78605960e01b8152306004820152602401612b5f565b600080856001600160a01b03168486604051612c909190613208565b60006040518083038185875af1925050503d8060008114612ccd576040519150601f19603f3d011682016040523d82523d6000602084013e612cd2565b606091505b5091509150612ce2868383612cec565b9695505050505050565b606082612d0157612cfc82612d48565b6121c5565b8151158015612d1857506001600160a01b0384163b155b15612d4157604051639996b31560e01b81526001600160a01b0385166004820152602401612b5f565b50806121c5565b805115612d585780518082602001fd5b604051630a12f52160e11b815260040160405180910390fd5b600060208284031215612d8357600080fd5b81356001600160e01b0319811681146121c557600080fd5b600060208284031215612dad57600080fd5b5035919050565b60008060408385031215612dc757600080fd5b50508035926020909101359150565b8015158114610e3957600080fd5b600060208284031215612df657600080fd5b81356121c581612dd6565b80356001600160a01b0381168114612e1857600080fd5b919050565b60008060408385031215612e3057600080fd5b82359150612e4060208401612e01565b90509250929050565b80356001600160401b0381168114612e1857600080fd5b60008060008060808587031215612e7657600080fd5b84359350612e8660208601612e49565b9250612e9460408601612e49565b9150612ea260608601612e49565b905092959194509250565b60008083601f840112612ebf57600080fd5b5081356001600160401b03811115612ed657600080fd5b6020830191508360208260051b8501011115612ef157600080fd5b9250929050565b60008060008060008060a08789031215612f1157600080fd5b8635955060208701359450604087013593506060870135925060808701356001600160401b03811115612f4357600080fd5b612f4f89828a01612ead565b979a9699509497509295939492505050565b600080600060608486031215612f7657600080fd5b505081359360208301359350604090920135919050565b600080600080600060a08688031215612fa557600080fd5b505083359560208501359550604085013594606081013594506080013592509050565b600080600080600080600060c0888a031215612fe357600080fd5b87359650612ff360208901612e01565b955060408801359450606088013593506080880135925060a08801356001600160401b0381111561302357600080fd5b61302f8a828b01612ead565b989b979a50959850939692959293505050565b6000806000806080858703121561305857600080fd5b5050823594602084013594506040840135936060013592509050565b600080600080600060a0868803121561308c57600080fd5b85359450602086013593506130a360408701612e49565b92506130b160608701612e49565b91506130bf60808701612e49565b90509295509295909350565b634e487b7160e01b600052601160045260246000fd5b808201808211156108d5576108d56130cb565b6001600160801b03828116828216039080821115613114576131146130cb565b5092915050565b6bffffffffffffffffffffffff19606098891b81168252601482019790975260348101959095529290951b90931660548301526068820192909252608881019290925260a882015260c80190565b818103818111156108d5576108d56130cb565b80820281158282048414176108d5576108d56130cb565b6000826131b057634e487b7160e01b600052601260045260246000fd5b500490565b6001600160801b03818116838216019080821115613114576131146130cb565b6000602082840312156131e757600080fd5b81516121c581612dd6565b634e487b7160e01b600052603260045260246000fd5b6000825160005b81811015613229576020818601810151858301520161320f565b50600092019182525091905056fe68e79a7bf1e0bc45d0a330c573bc367f9cf464fd326078812f301165fbda4ef159a1c48e5837ad7a7f3dcedcbe129bf3249ec4fbf651fd4f5e2600ead39fe2f5a264697066735822122047afc1309c81e2f2add08ef7cfaba4d4bf999bf6f5aa183bd7e900f214f78b2a64736f6c63430008180033",
  "linkReferences": {},
  "deployedLinkReferences": {}
}