{
  "_format": "hh-sol-artifact-1",
  "contractName": "ValcoreReactiveReceiver",
  "sourceName": "contracts/ValcoreReactiveReceiver.sol",
  "abi": [
    {
      "inputs": [
        {
          "internalType": "address",
          "name": "callbackProxyAddress",
          "type": "address"
        },
        {
          "internalType": "address",
          "name": "valcoreAddress",
          "type": "address"
        },
        {
          "internalType": "address",
          "name": "initialReactiveSender",
          "type": "address"
        }
      ],
      "stateMutability": "payable",
      "type": "constructor"
    },
    {
      "inputs": [],
      "name": "InvalidAddress",
      "type": "error"
    },
    {
      "inputs": [],
      "name": "InvalidReactiveSender",
      "type": "error"
    },
    {
      "inputs": [],
      "name": "InvalidTransitionAction",
      "type": "error"
    },
    {
      "inputs": [],
      "name": "UnauthorizedCallbackSender",
      "type": "error"
    },
    {
      "inputs": [],
      "name": "UnauthorizedOwner",
      "type": "error"
    },
    {
      "inputs": [],
      "name": "UnauthorizedReactiveSender",
      "type": "error"
    },
    {
      "anonymous": false,
      "inputs": [
        {
          "indexed": true,
          "internalType": "address",
          "name": "sender",
          "type": "address"
        },
        {
          "indexed": false,
          "internalType": "bool",
          "name": "allowed",
          "type": "bool"
        }
      ],
      "name": "AuthorizedSenderUpdated",
      "type": "event"
    },
    {
      "anonymous": false,
      "inputs": [
        {
          "indexed": true,
          "internalType": "address",
          "name": "previousOwner",
          "type": "address"
        },
        {
          "indexed": true,
          "internalType": "address",
          "name": "newOwner",
          "type": "address"
        }
      ],
      "name": "OwnershipTransferred",
      "type": "event"
    },
    {
      "anonymous": false,
      "inputs": [
        {
          "indexed": true,
          "internalType": "bytes32",
          "name": "intentId",
          "type": "bytes32"
        },
        {
          "indexed": true,
          "internalType": "uint8",
          "name": "action",
          "type": "uint8"
        },
        {
          "indexed": true,
          "internalType": "uint256",
          "name": "weekId",
          "type": "uint256"
        }
      ],
      "name": "ReactiveLifecycleDuplicate",
      "type": "event"
    },
    {
      "anonymous": false,
      "inputs": [
        {
          "indexed": true,
          "internalType": "bytes32",
          "name": "intentId",
          "type": "bytes32"
        },
        {
          "indexed": true,
          "internalType": "uint8",
          "name": "action",
          "type": "uint8"
        },
        {
          "indexed": true,
          "internalType": "uint256",
          "name": "weekId",
          "type": "uint256"
        }
      ],
      "name": "ReactiveLifecycleExecuted",
      "type": "event"
    },
    {
      "anonymous": false,
      "inputs": [
        {
          "indexed": true,
          "internalType": "address",
          "name": "previousSender",
          "type": "address"
        },
        {
          "indexed": true,
          "internalType": "address",
          "name": "newSender",
          "type": "address"
        }
      ],
      "name": "ReactiveSenderUpdated",
      "type": "event"
    },
    {
      "inputs": [],
      "name": "coverDebt",
      "outputs": [],
      "stateMutability": "nonpayable",
      "type": "function"
    },
    {
      "inputs": [],
      "name": "owner",
      "outputs": [
        {
          "internalType": "address",
          "name": "",
          "type": "address"
        }
      ],
      "stateMutability": "view",
      "type": "function"
    },
    {
      "inputs": [
        {
          "internalType": "uint256",
          "name": "amount",
          "type": "uint256"
        }
      ],
      "name": "pay",
      "outputs": [],
      "stateMutability": "nonpayable",
      "type": "function"
    },
    {
      "inputs": [
        {
          "internalType": "bytes32",
          "name": "",
          "type": "bytes32"
        }
      ],
      "name": "processedIntents",
      "outputs": [
        {
          "internalType": "bool",
          "name": "",
          "type": "bool"
        }
      ],
      "stateMutability": "view",
      "type": "function"
    },
    {
      "inputs": [],
      "name": "reactiveSender",
      "outputs": [
        {
          "internalType": "address",
          "name": "",
          "type": "address"
        }
      ],
      "stateMutability": "view",
      "type": "function"
    },
    {
      "inputs": [
        {
          "internalType": "address",
          "name": "sender",
          "type": "address"
        },
        {
          "internalType": "bytes32",
          "name": "intentId",
          "type": "bytes32"
        },
        {
          "internalType": "uint256",
          "name": "weekId",
          "type": "uint256"
        }
      ],
      "name": "rxApprove",
      "outputs": [],
      "stateMutability": "nonpayable",
      "type": "function"
    },
    {
      "inputs": [
        {
          "internalType": "address",
          "name": "sender",
          "type": "address"
        },
        {
          "internalType": "bytes32",
          "name": "intentId",
          "type": "bytes32"
        },
        {
          "internalType": "uint256",
          "name": "weekId",
          "type": "uint256"
        },
        {
          "internalType": "uint64",
          "name": "startAt",
          "type": "uint64"
        },
        {
          "internalType": "uint64",
          "name": "lockAt",
          "type": "uint64"
        },
        {
          "internalType": "uint64",
          "name": "endAt",
          "type": "uint64"
        }
      ],
      "name": "rxCreateWeek",
      "outputs": [],
      "stateMutability": "nonpayable",
      "type": "function"
    },
    {
      "inputs": [
        {
          "internalType": "address",
          "name": "sender",
          "type": "address"
        },
        {
          "internalType": "bytes32",
          "name": "intentId",
          "type": "bytes32"
        },
        {
          "internalType": "uint256",
          "name": "weekId",
          "type": "uint256"
        },
        {
          "internalType": "bytes32",
          "name": "merkleRoot",
          "type": "bytes32"
        },
        {
          "internalType": "bytes32",
          "name": "metadataHash",
          "type": "bytes32"
        },
        {
          "internalType": "uint256",
          "name": "retainedFee",
          "type": "uint256"
        },
        {
          "internalType": "bool",
          "name": "useForce",
          "type": "bool"
        }
      ],
      "name": "rxFinalize",
      "outputs": [],
      "stateMutability": "nonpayable",
      "type": "function"
    },
    {
      "inputs": [
        {
          "internalType": "address",
          "name": "sender",
          "type": "address"
        },
        {
          "internalType": "bytes32",
          "name": "intentId",
          "type": "bytes32"
        },
        {
          "internalType": "uint256",
          "name": "weekId",
          "type": "uint256"
        }
      ],
      "name": "rxReject",
      "outputs": [],
      "stateMutability": "nonpayable",
      "type": "function"
    },
    {
      "inputs": [
        {
          "internalType": "address",
          "name": "sender",
          "type": "address"
        },
        {
          "internalType": "bytes32",
          "name": "intentId",
          "type": "bytes32"
        },
        {
          "internalType": "uint8",
          "name": "action",
          "type": "uint8"
        },
        {
          "internalType": "uint256",
          "name": "weekId",
          "type": "uint256"
        },
        {
          "internalType": "bool",
          "name": "useForce",
          "type": "bool"
        }
      ],
      "name": "rxTransition",
      "outputs": [],
      "stateMutability": "nonpayable",
      "type": "function"
    },
    {
      "inputs": [
        {
          "internalType": "address",
          "name": "sender",
          "type": "address"
        },
        {
          "internalType": "bool",
          "name": "allowed",
          "type": "bool"
        }
      ],
      "name": "setAuthorizedSender",
      "outputs": [],
      "stateMutability": "nonpayable",
      "type": "function"
    },
    {
      "inputs": [
        {
          "internalType": "address",
          "name": "newReactiveSender",
          "type": "address"
        }
      ],
      "name": "setReactiveSender",
      "outputs": [],
      "stateMutability": "nonpayable",
      "type": "function"
    },
    {
      "inputs": [
        {
          "internalType": "address",
          "name": "newOwner",
          "type": "address"
        }
      ],
      "name": "transferOwnership",
      "outputs": [],
      "stateMutability": "nonpayable",
      "type": "function"
    },
    {
      "inputs": [],
      "name": "valcore",
      "outputs": [
        {
          "internalType": "contract IValcoreLifecycle",
          "name": "",
          "type": "address"
        }
      ],
      "stateMutability": "view",
      "type": "function"
    },
    {
      "stateMutability": "payable",
      "type": "receive"
    }
  ],
  "bytecode": "0x60a060405260405162001426380380620014268339810160408190526200002691620001b4565b600280546001600160a01b03199081163317909155600080546001600160a01b038616921682178155908152600160208190526040909120805460ff191690911790556001600160a01b03831615806200008757506001600160a01b038216155b806200009a57506001600160a01b038116155b15620000b95760405163e6c4247b60e01b815260040160405180910390fd5b6001600160a01b0382811660805260048054336001600160a01b0319918216811790925560028054909116928416929092179091556040516000907f8be0079c531659141344cd1fd0a4f28419497f9722a3daafe3b4186f6b6457e0908290a36040516001600160a01b038216906000907f53daf07ee0d544a6f1351b3ffd1ae53c39ab35c7dbe66d472bf8ecfb1036c9cf908290a3604051600181526001600160a01b038416907f9316df45c3226259b8d7f2d32687edb5a88141d5f47d0d6b67b927f3030c66d19060200160405180910390a2505050620001fe565b80516001600160a01b0381168114620001af57600080fd5b919050565b600080600060608486031215620001ca57600080fd5b620001d58462000197565b9250620001e56020850162000197565b9150620001f56040850162000197565b90509250925092565b6080516111cd6200025960003960008181610161015281816104250152818161054d015281816105d40152818161063a0152818161068e0152818161081e0152818161095401528181610af00152610b8b01526111cd6000f3fe6080604052600436106100e15760003560e01c8063a502e62d1161007f578063c2c8a00811610059578063c2c8a00814610253578063c8a1265114610293578063f2fde38b146102b3578063f3dfc2a9146102d357600080fd5b8063a502e62d146101f3578063be0fa6d414610213578063c290d6911461023357600080fd5b806376351266116100bb578063763512661461014f5780637a90b990146101a05780638da5cb5b146101b557806395e09b01146101d557600080fd5b806356f20512146100ed5780635d73d02a1461010f578063668b3a4a1461012f57600080fd5b366100e857005b600080fd5b3480156100f957600080fd5b5061010d610108366004610f45565b6102f3565b005b34801561011b57600080fd5b5061010d61012a366004610f60565b610397565b34801561013b57600080fd5b5061010d61014a366004610fa3565b6104ae565b34801561015b57600080fd5b506101837f000000000000000000000000000000000000000000000000000000000000000081565b6040516001600160a01b0390911681526020015b60405180910390f35b3480156101ac57600080fd5b5061010d610707565b3480156101c157600080fd5b50600454610183906001600160a01b031681565b3480156101e157600080fd5b506002546001600160a01b0316610183565b3480156101ff57600080fd5b5061010d61020e366004610f60565b610790565b34801561021f57600080fd5b5061010d61022e36600461101a565b6108a6565b34801561023f57600080fd5b5061010d61024e366004611080565b6109e0565b34801561025f57600080fd5b5061028361026e366004611080565b60036020526000908152604090205460ff1681565b6040519015158152602001610197565b34801561029f57600080fd5b5061010d6102ae366004611099565b610a47565b3480156102bf57600080fd5b5061010d6102ce366004610f45565b610c19565b3480156102df57600080fd5b5061010d6102ee3660046110fc565b610cbd565b6004546001600160a01b0316331461031e5760405163de271cf560e01b815260040160405180910390fd5b6001600160a01b03811661034557604051637f03d77360e01b815260040160405180910390fd5b600280546001600160a01b038381166001600160a01b0319831681179093556040519116919082907f53daf07ee0d544a6f1351b3ffd1ae53c39ab35c7dbe66d472bf8ecfb1036c9cf90600090a35050565b33600090815260016020526040902054839060ff166103c957604051631a3a608b60e01b815260040160405180910390fd5b6002546001600160a01b038281169116146103f75760405163b5281f9560e01b815260040160405180910390fd5b61040383600584610db3565b156104a857604051630c75381f60e31b815260048101849052602481018390527f00000000000000000000000000000000000000000000000000000000000000006001600160a01b0316906363a9c0f890604401600060405180830381600087803b15801561047157600080fd5b505af1158015610485573d6000803e3d6000fd5b505060405184925060059150859060008051602061117883398151915290600090a45b50505050565b33600090815260016020526040902054859060ff166104e057604051631a3a608b60e01b815260040160405180910390fd5b6002546001600160a01b0382811691161461050e5760405163b5281f9560e01b815260040160405180910390fd5b610519858585610db3565b156106ff5760011960ff85160161060b5781156105b75760405163653a954160e11b815260048101869052602481018490527f00000000000000000000000000000000000000000000000000000000000000006001600160a01b03169063ca752a82906044015b600060405180830381600087803b15801561059a57600080fd5b505af11580156105ae573d6000803e3d6000fd5b505050506106de565b60405163f0a5e14360e01b815260048101869052602481018490527f00000000000000000000000000000000000000000000000000000000000000006001600160a01b03169063f0a5e14390604401610580565b60021960ff8516016106c557811561067157604051636eb14d3b60e01b815260048101869052602481018490527f00000000000000000000000000000000000000000000000000000000000000006001600160a01b031690636eb14d3b90604401610580565b604051630dd53bf960e11b815260048101869052602481018490527f00000000000000000000000000000000000000000000000000000000000000006001600160a01b031690631baa77f290604401610580565b604051631739050d60e11b815260040160405180910390fd5b828460ff168660008051602061117883398151915260405160405180910390a45b505050505050565b600080546040516326db15bb60e21b81523060048201526001600160a01b0390911690639b6c56ec90602401602060405180830381865afa158015610750573d6000803e3d6000fd5b505050506040513d601f19601f82011682018060405250810190610774919061112f565b60005490915061078d906001600160a01b031682610e29565b50565b33600090815260016020526040902054839060ff166107c257604051631a3a608b60e01b815260040160405180910390fd5b6002546001600160a01b038281169116146107f05760405163b5281f9560e01b815260040160405180910390fd5b6107fc83600684610db3565b156104a857604051631002d42160e31b815260048101849052602481018390527f00000000000000000000000000000000000000000000000000000000000000006001600160a01b031690638016a10890604401600060405180830381600087803b15801561086a57600080fd5b505af115801561087e573d6000803e3d6000fd5b505060405184925060069150859060008051602061117883398151915290600090a450505050565b33600090815260016020526040902054869060ff166108d857604051631a3a608b60e01b815260040160405180910390fd5b6002546001600160a01b038281169116146109065760405163b5281f9560e01b815260040160405180910390fd5b61091286600187610db3565b156109d75760405163ef8b2af560e01b8152600481018790526024810186905267ffffffffffffffff80861660448301528085166064830152831660848201527f00000000000000000000000000000000000000000000000000000000000000006001600160a01b03169063ef8b2af59060a401600060405180830381600087803b1580156109a057600080fd5b505af11580156109b4573d6000803e3d6000fd5b505060405187925060019150889060008051602061117883398151915290600090a45b50505050505050565b3360009081526001602052604090205460ff16610a3d5760405162461bcd60e51b8152602060048201526016602482015275417574686f72697a65642073656e646572206f6e6c7960501b60448201526064015b60405180910390fd5b61078d3382610e29565b33600090815260016020526040902054879060ff16610a7957604051631a3a608b60e01b815260040160405180910390fd5b6002546001600160a01b03828116911614610aa75760405163b5281f9560e01b815260040160405180910390fd5b610ab387600488610db3565b15610c0f578115610b5957604051636880739160e01b815260048101889052602481018790526044810186905260648101859052608481018490527f00000000000000000000000000000000000000000000000000000000000000006001600160a01b03169063688073919060a401600060405180830381600087803b158015610b3c57600080fd5b505af1158015610b50573d6000803e3d6000fd5b50505050610bf0565b6040516368ce8d0560e11b815260048101889052602481018790526044810186905260648101859052608481018490527f00000000000000000000000000000000000000000000000000000000000000006001600160a01b03169063d19d1a0a9060a401600060405180830381600087803b158015610bd757600080fd5b505af1158015610beb573d6000803e3d6000fd5b505050505b6040518690600490899060008051602061117883398151915290600090a45b5050505050505050565b6004546001600160a01b03163314610c445760405163de271cf560e01b815260040160405180910390fd5b6001600160a01b038116610c6b5760405163e6c4247b60e01b815260040160405180910390fd5b600480546001600160a01b038381166001600160a01b0319831681179093556040519116919082907f8be0079c531659141344cd1fd0a4f28419497f9722a3daafe3b4186f6b6457e090600090a35050565b6004546001600160a01b03163314610ce85760405163de271cf560e01b815260040160405180910390fd5b6001600160a01b038216610d0f5760405163e6c4247b60e01b815260040160405180910390fd5b8015610d4557610d40826001600160a01b03166000908152600160208190526040909120805460ff19169091179055565b610d6a565b610d6a826001600160a01b03166000908152600160205260409020805460ff19169055565b816001600160a01b03167f9316df45c3226259b8d7f2d32687edb5a88141d5f47d0d6b67b927f3030c66d182604051610da7911515815260200190565b60405180910390a25050565b60008381526003602052604081205460ff1615610e0457818360ff16857fdbab795c64cb5bb3acf570a18eaf8ec2918af1062a6ac2a9858b96f77189959260405160405180910390a4506000610e22565b506000838152600360205260409020805460ff191660019081179091555b9392505050565b80471015610e6e5760405162461bcd60e51b8152602060048201526012602482015271496e73756666696369656e742066756e647360701b6044820152606401610a34565b8015610f2557604080516000808252602082019092526001600160a01b038416908390604051610e9e9190611148565b60006040518083038185875af1925050503d8060008114610edb576040519150601f19603f3d011682016040523d82523d6000602084013e610ee0565b606091505b5050905080610f235760405162461bcd60e51b815260206004820152600f60248201526e151c985b9cd9995c8819985a5b1959608a1b6044820152606401610a34565b505b5050565b80356001600160a01b0381168114610f4057600080fd5b919050565b600060208284031215610f5757600080fd5b610e2282610f29565b600080600060608486031215610f7557600080fd5b610f7e84610f29565b95602085013595506040909401359392505050565b80358015158114610f4057600080fd5b600080600080600060a08688031215610fbb57600080fd5b610fc486610f29565b945060208601359350604086013560ff81168114610fe157600080fd5b925060608601359150610ff660808701610f93565b90509295509295909350565b803567ffffffffffffffff81168114610f4057600080fd5b60008060008060008060c0878903121561103357600080fd5b61103c87610f29565b9550602087013594506040870135935061105860608801611002565b925061106660808801611002565b915061107460a08801611002565b90509295509295509295565b60006020828403121561109257600080fd5b5035919050565b600080600080600080600060e0888a0312156110b457600080fd5b6110bd88610f29565b96506020880135955060408801359450606088013593506080880135925060a088013591506110ee60c08901610f93565b905092959891949750929550565b6000806040838503121561110f57600080fd5b61111883610f29565b915061112660208401610f93565b90509250929050565b60006020828403121561114157600080fd5b5051919050565b6000825160005b81811015611169576020818601810151858301520161114f565b50600092019182525091905056fef7f5258b38db13c1ad898b91bc1259c309c09d1cdb37314a125400d4c3240fe2a2646970667358221220640d3cc4ede0a4529ef64be49e36be3f3cfe64dd0b4ef1f896bc81e2af27397664736f6c63430008180033",
  "linkReferences": {},
  "deployedLinkReferences": {}
}