{"contracts/ValcoreReactiveReceiver.sol":{"ValcoreReactiveReceiver":{"abi":[{"inputs":[{"internalType":"address","name":"callbackProxyAddress","type":"address"},{"internalType":"address","name":"valcoreAddress","type":"address"},{"internalType":"address","name":"initialReactiveSender","type":"address"}],"stateMutability":"payable","type":"constructor"},{"inputs":[],"name":"InvalidAddress","type":"error"},{"inputs":[],"name":"InvalidReactiveSender","type":"error"},{"inputs":[],"name":"InvalidTransitionAction","type":"error"},{"inputs":[],"name":"UnauthorizedCallbackSender","type":"error"},{"inputs":[],"name":"UnauthorizedOwner","type":"error"},{"inputs":[],"name":"UnauthorizedReactiveSender","type":"error"},{"anonymous":false,"inputs":[{"indexed":true,"internalType":"address","name":"sender","type":"address"},{"indexed":false,"internalType":"bool","name":"allowed","type":"bool"}],"name":"AuthorizedSenderUpdated","type":"event"},{"anonymous":false,"inputs":[{"indexed":true,"internalType":"address","name":"previousOwner","type":"address"},{"indexed":true,"internalType":"address","name":"newOwner","type":"address"}],"name":"OwnershipTransferred","type":"event"},{"anonymous":false,"inputs":[{"indexed":true,"internalType":"bytes32","name":"intentId","type":"bytes32"},{"indexed":true,"internalType":"uint8","name":"action","type":"uint8"},{"indexed":true,"internalType":"uint256","name":"weekId","type":"uint256"}],"name":"ReactiveLifecycleDuplicate","type":"event"},{"anonymous":false,"inputs":[{"indexed":true,"internalType":"bytes32","name":"intentId","type":"bytes32"},{"indexed":true,"internalType":"uint8","name":"action","type":"uint8"},{"indexed":true,"internalType":"uint256","name":"weekId","type":"uint256"}],"name":"ReactiveLifecycleExecuted","type":"event"},{"anonymous":false,"inputs":[{"indexed":true,"internalType":"address","name":"previousSender","type":"address"},{"indexed":true,"internalType":"address","name":"newSender","type":"address"}],"name":"ReactiveSenderUpdated","type":"event"},{"inputs":[],"name":"coverDebt","outputs":[],"stateMutability":"nonpayable","type":"function"},{"inputs":[],"name":"owner","outputs":[{"internalType":"address","name":"","type":"address"}],"stateMutability":"view","type":"function"},{"inputs":[{"internalType":"uint256","name":"amount","type":"uint256"}],"name":"pay","outputs":[],"stateMutability":"nonpayable","type":"function"},{"inputs":[{"internalType":"bytes32","name":"","type":"bytes32"}],"name":"processedIntents","outputs":[{"internalType":"bool","name":"","type":"bool"}],"stateMutability":"view","type":"function"},{"inputs":[],"name":"reactiveSender","outputs":[{"internalType":"address","name":"","type":"address"}],"stateMutability":"view","type":"function"},{"inputs":[{"internalType":"address","name":"sender","type":"address"},{"internalType":"bytes32","name":"intentId","type":"bytes32"},{"internalType":"uint256","name":"weekId","type":"uint256"}],"name":"rxApprove","outputs":[],"stateMutability":"nonpayable","type":"function"},{"inputs":[{"internalType":"address","name":"sender","type":"address"},{"internalType":"bytes32","name":"intentId","type":"bytes32"},{"internalType":"uint256","name":"weekId","type":"uint256"},{"internalType":"uint64","name":"startAt","type":"uint64"},{"internalType":"uint64","name":"lockAt","type":"uint64"},{"internalType":"uint64","name":"endAt","type":"uint64"}],"name":"rxCreateWeek","outputs":[],"stateMutability":"nonpayable","type":"function"},{"inputs":[{"internalType":"address","name":"sender","type":"address"},{"internalType":"bytes32","name":"intentId","type":"bytes32"},{"internalType":"uint256","name":"weekId","type":"uint256"},{"internalType":"bytes32","name":"merkleRoot","type":"bytes32"},{"internalType":"bytes32","name":"metadataHash","type":"bytes32"},{"internalType":"uint256","name":"retainedFee","type":"uint256"},{"internalType":"bool","name":"useForce","type":"bool"}],"name":"rxFinalize","outputs":[],"stateMutability":"nonpayable","type":"function"},{"inputs":[{"internalType":"address","name":"sender","type":"address"},{"internalType":"bytes32","name":"intentId","type":"bytes32"},{"internalType":"uint256","name":"weekId","type":"uint256"}],"name":"rxReject","outputs":[],"stateMutability":"nonpayable","type":"function"},{"inputs":[{"internalType":"address","name":"sender","type":"address"},{"internalType":"bytes32","name":"intentId","type":"bytes32"},{"internalType":"uint8","name":"action","type":"uint8"},{"internalType":"uint256","name":"weekId","type":"uint256"},{"internalType":"bool","name":"useForce","type":"bool"}],"name":"rxTransition","outputs":[],"stateMutability":"nonpayable","type":"function"},{"inputs":[{"internalType":"address","name":"sender","type":"address"},{"internalType":"bool","name":"allowed","type":"bool"}],"name":"setAuthorizedSender","outputs":[],"stateMutability":"nonpayable","type":"function"},{"inputs":[{"internalType":"address","name":"newReactiveSender","type":"address"}],"name":"setReactiveSender","outputs":[],"stateMutability":"nonpayable","type":"function"},{"inputs":[{"internalType":"address","name":"newOwner","type":"address"}],"name":"transferOwnership","outputs":[],"stateMutability":"nonpayable","type":"function"},{"inputs":[],"name":"valcore","outputs":[{"internalType":"contract IValcoreLifecycle","name":"","type":"address"}],"stateMutability":"view","type":"function"},{"stateMutability":"payable","type":"receive"}],"evm":{"bytecode":{"linkReferences":{},"object":"60a060405260405162001426380380620014268339810160408190526200002691620001b4565b600280546001600160a01b03199081163317909155600080546001600160a01b038616921682178155908152600160208190526040909120805460ff191690911790556001600160a01b03831615806200008757506001600160a01b038216155b806200009a57506001600160a01b038116155b15620000b95760405163e6c4247b60e01b815260040160405180910390fd5b6001600160a01b0382811660805260048054336001600160a01b0319918216811790925560028054909116928416929092179091556040516000907f8be0079c531659141344cd1fd0a4f28419497f9722a3daafe3b4186f6b6457e0908290a36040516001600160a01b038216906000907f53daf07ee0d544a6f1351b3ffd1ae53c39ab35c7dbe66d472bf8ecfb1036c9cf908290a3604051600181526001600160a01b038416907f9316df45c3226259b8d7f2d32687edb5a88141d5f47d0d6b67b927f3030c66d19060200160405180910390a2505050620001fe565b80516001600160a01b0381168114620001af57600080fd5b919050565b600080600060608486031215620001ca57600080fd5b620001d58462000197565b9250620001e56020850162000197565b9150620001f56040850162000197565b90509250925092565b6080516111cd6200025960003960008181610161015281816104250152818161054d015281816105d40152818161063a0152818161068e0152818161081e0152818161095401528181610af00152610b8b01526111cd6000f3fe6080604052600436106100e15760003560e01c8063a502e62d1161007f578063c2c8a00811610059578063c2c8a00814610253578063c8a1265114610293578063f2fde38b146102b3578063f3dfc2a9146102d357600080fd5b8063a502e62d146101f3578063be0fa6d414610213578063c290d6911461023357600080fd5b806376351266116100bb578063763512661461014f5780637a90b990146101a05780638da5cb5b146101b557806395e09b01146101d557600080fd5b806356f20512146100ed5780635d73d02a1461010f578063668b3a4a1461012f57600080fd5b366100e857005b600080fd5b3480156100f957600080fd5b5061010d610108366004610f45565b6102f3565b005b34801561011b57600080fd5b5061010d61012a366004610f60565b610397565b34801561013b57600080fd5b5061010d61014a366004610fa3565b6104ae565b34801561015b57600080fd5b506101837f000000000000000000000000000000000000000000000000000000000000000081565b6040516001600160a01b0390911681526020015b60405180910390f35b3480156101ac57600080fd5b5061010d610707565b3480156101c157600080fd5b50600454610183906001600160a01b031681565b3480156101e157600080fd5b506002546001600160a01b0316610183565b3480156101ff57600080fd5b5061010d61020e366004610f60565b610790565b34801561021f57600080fd5b5061010d61022e36600461101a565b6108a6565b34801561023f57600080fd5b5061010d61024e366004611080565b6109e0565b34801561025f57600080fd5b5061028361026e366004611080565b60036020526000908152604090205460ff1681565b6040519015158152602001610197565b34801561029f57600080fd5b5061010d6102ae366004611099565b610a47565b3480156102bf57600080fd5b5061010d6102ce366004610f45565b610c19565b3480156102df57600080fd5b5061010d6102ee3660046110fc565b610cbd565b6004546001600160a01b0316331461031e5760405163de271cf560e01b815260040160405180910390fd5b6001600160a01b03811661034557604051637f03d77360e01b815260040160405180910390fd5b600280546001600160a01b038381166001600160a01b0319831681179093556040519116919082907f53daf07ee0d544a6f1351b3ffd1ae53c39ab35c7dbe66d472bf8ecfb1036c9cf90600090a35050565b33600090815260016020526040902054839060ff166103c957604051631a3a608b60e01b815260040160405180910390fd5b6002546001600160a01b038281169116146103f75760405163b5281f9560e01b815260040160405180910390fd5b61040383600584610db3565b156104a857604051630c75381f60e31b815260048101849052602481018390527f00000000000000000000000000000000000000000000000000000000000000006001600160a01b0316906363a9c0f890604401600060405180830381600087803b15801561047157600080fd5b505af1158015610485573d6000803e3d6000fd5b505060405184925060059150859060008051602061117883398151915290600090a45b50505050565b33600090815260016020526040902054859060ff166104e057604051631a3a608b60e01b815260040160405180910390fd5b6002546001600160a01b0382811691161461050e5760405163b5281f9560e01b815260040160405180910390fd5b610519858585610db3565b156106ff5760011960ff85160161060b5781156105b75760405163653a954160e11b815260048101869052602481018490527f00000000000000000000000000000000000000000000000000000000000000006001600160a01b03169063ca752a82906044015b600060405180830381600087803b15801561059a57600080fd5b505af11580156105ae573d6000803e3d6000fd5b505050506106de565b60405163f0a5e14360e01b815260048101869052602481018490527f00000000000000000000000000000000000000000000000000000000000000006001600160a01b03169063f0a5e14390604401610580565b60021960ff8516016106c557811561067157604051636eb14d3b60e01b815260048101869052602481018490527f00000000000000000000000000000000000000000000000000000000000000006001600160a01b031690636eb14d3b90604401610580565b604051630dd53bf960e11b815260048101869052602481018490527f00000000000000000000000000000000000000000000000000000000000000006001600160a01b031690631baa77f290604401610580565b604051631739050d60e11b815260040160405180910390fd5b828460ff168660008051602061117883398151915260405160405180910390a45b505050505050565b600080546040516326db15bb60e21b81523060048201526001600160a01b0390911690639b6c56ec90602401602060405180830381865afa158015610750573d6000803e3d6000fd5b505050506040513d601f19601f82011682018060405250810190610774919061112f565b60005490915061078d906001600160a01b031682610e29565b50565b33600090815260016020526040902054839060ff166107c257604051631a3a608b60e01b815260040160405180910390fd5b6002546001600160a01b038281169116146107f05760405163b5281f9560e01b815260040160405180910390fd5b6107fc83600684610db3565b156104a857604051631002d42160e31b815260048101849052602481018390527f00000000000000000000000000000000000000000000000000000000000000006001600160a01b031690638016a10890604401600060405180830381600087803b15801561086a57600080fd5b505af115801561087e573d6000803e3d6000fd5b505060405184925060069150859060008051602061117883398151915290600090a450505050565b33600090815260016020526040902054869060ff166108d857604051631a3a608b60e01b815260040160405180910390fd5b6002546001600160a01b038281169116146109065760405163b5281f9560e01b815260040160405180910390fd5b61091286600187610db3565b156109d75760405163ef8b2af560e01b8152600481018790526024810186905267ffffffffffffffff80861660448301528085166064830152831660848201527f00000000000000000000000000000000000000000000000000000000000000006001600160a01b03169063ef8b2af59060a401600060405180830381600087803b1580156109a057600080fd5b505af11580156109b4573d6000803e3d6000fd5b505060405187925060019150889060008051602061117883398151915290600090a45b50505050505050565b3360009081526001602052604090205460ff16610a3d5760405162461bcd60e51b8152602060048201526016602482015275417574686f72697a65642073656e646572206f6e6c7960501b60448201526064015b60405180910390fd5b61078d3382610e29565b33600090815260016020526040902054879060ff16610a7957604051631a3a608b60e01b815260040160405180910390fd5b6002546001600160a01b03828116911614610aa75760405163b5281f9560e01b815260040160405180910390fd5b610ab387600488610db3565b15610c0f578115610b5957604051636880739160e01b815260048101889052602481018790526044810186905260648101859052608481018490527f00000000000000000000000000000000000000000000000000000000000000006001600160a01b03169063688073919060a401600060405180830381600087803b158015610b3c57600080fd5b505af1158015610b50573d6000803e3d6000fd5b50505050610bf0565b6040516368ce8d0560e11b815260048101889052602481018790526044810186905260648101859052608481018490527f00000000000000000000000000000000000000000000000000000000000000006001600160a01b03169063d19d1a0a9060a401600060405180830381600087803b158015610bd757600080fd5b505af1158015610beb573d6000803e3d6000fd5b505050505b6040518690600490899060008051602061117883398151915290600090a45b5050505050505050565b6004546001600160a01b03163314610c445760405163de271cf560e01b815260040160405180910390fd5b6001600160a01b038116610c6b5760405163e6c4247b60e01b815260040160405180910390fd5b600480546001600160a01b038381166001600160a01b0319831681179093556040519116919082907f8be0079c531659141344cd1fd0a4f28419497f9722a3daafe3b4186f6b6457e090600090a35050565b6004546001600160a01b03163314610ce85760405163de271cf560e01b815260040160405180910390fd5b6001600160a01b038216610d0f5760405163e6c4247b60e01b815260040160405180910390fd5b8015610d4557610d40826001600160a01b03166000908152600160208190526040909120805460ff19169091179055565b610d6a565b610d6a826001600160a01b03166000908152600160205260409020805460ff19169055565b816001600160a01b03167f9316df45c3226259b8d7f2d32687edb5a88141d5f47d0d6b67b927f3030c66d182604051610da7911515815260200190565b60405180910390a25050565b60008381526003602052604081205460ff1615610e0457818360ff16857fdbab795c64cb5bb3acf570a18eaf8ec2918af1062a6ac2a9858b96f77189959260405160405180910390a4506000610e22565b506000838152600360205260409020805460ff191660019081179091555b9392505050565b80471015610e6e5760405162461bcd60e51b8152602060048201526012602482015271496e73756666696369656e742066756e647360701b6044820152606401610a34565b8015610f2557604080516000808252602082019092526001600160a01b038416908390604051610e9e9190611148565b60006040518083038185875af1925050503d8060008114610edb576040519150601f19603f3d011682016040523d82523d6000602084013e610ee0565b606091505b5050905080610f235760405162461bcd60e51b815260206004820152600f60248201526e151c985b9cd9995c8819985a5b1959608a1b6044820152606401610a34565b505b5050565b80356001600160a01b0381168114610f4057600080fd5b919050565b600060208284031215610f5757600080fd5b610e2282610f29565b600080600060608486031215610f7557600080fd5b610f7e84610f29565b95602085013595506040909401359392505050565b80358015158114610f4057600080fd5b600080600080600060a08688031215610fbb57600080fd5b610fc486610f29565b945060208601359350604086013560ff81168114610fe157600080fd5b925060608601359150610ff660808701610f93565b90509295509295909350565b803567ffffffffffffffff81168114610f4057600080fd5b60008060008060008060c0878903121561103357600080fd5b61103c87610f29565b9550602087013594506040870135935061105860608801611002565b925061106660808801611002565b915061107460a08801611002565b90509295509295509295565b60006020828403121561109257600080fd5b5035919050565b600080600080600080600060e0888a0312156110b457600080fd5b6110bd88610f29565b96506020880135955060408801359450606088013593506080880135925060a088013591506110ee60c08901610f93565b905092959891949750929550565b6000806040838503121561110f57600080fd5b61111883610f29565b915061112660208401610f93565b90509250929050565b60006020828403121561114157600080fd5b5051919050565b6000825160005b81811015611169576020818601810151858301520161114f565b50600092019182525091905056fef7f5258b38db13c1ad898b91bc1259c309c09d1cdb37314a125400d4c3240fe2a2646970667358221220640d3cc4ede0a4529ef64be49e36be3f3cfe64dd0b4ef1f896bc81e2af27397664736f6c63430008180033","opcodes":"PUSH1 0xA0 PUSH1 0x40 MSTORE PUSH1 0x40 MLOAD PUSH3 0x1426 CODESIZE SUB DUP1 PUSH3 0x1426 DUP4 CODECOPY DUP2 ADD PUSH1 0x40 DUP2 SWAP1 MSTORE PUSH3 0x26 SWAP2 PUSH3 0x1B4 JUMP JUMPDEST PUSH1 0x2 DUP1 SLOAD PUSH1 0x1 PUSH1 0x1 PUSH1 0xA0 SHL SUB NOT SWAP1 DUP2 AND CALLER OR SWAP1 SWAP2 SSTORE PUSH1 0x0 DUP1 SLOAD PUSH1 0x1 PUSH1 0x1 PUSH1 0xA0 SHL SUB DUP7 AND SWAP3 AND DUP3 OR DUP2 SSTORE SWAP1 DUP2 MSTORE PUSH1 0x1 PUSH1 0x20 DUP2 SWAP1 MSTORE PUSH1 0x40 SWAP1 SWAP2 KECCAK256 DUP1 SLOAD PUSH1 0xFF NOT AND SWAP1 SWAP2 OR SWAP1 SSTORE PUSH1 0x1 PUSH1 0x1 PUSH1 0xA0 SHL SUB DUP4 AND ISZERO DUP1 PUSH3 0x87 JUMPI POP PUSH1 0x1 PUSH1 0x1 PUSH1 0xA0 SHL SUB DUP3 AND ISZERO JUMPDEST DUP1 PUSH3 0x9A JUMPI POP PUSH1 0x1 PUSH1 0x1 PUSH1 0xA0 SHL SUB DUP2 AND ISZERO JUMPDEST ISZERO PUSH3 0xB9 JUMPI PUSH1 0x40 MLOAD PUSH4 0xE6C4247B PUSH1 0xE0 SHL DUP2 MSTORE PUSH1 0x4 ADD PUSH1 0x40 MLOAD DUP1 SWAP2 SUB SWAP1 REVERT JUMPDEST PUSH1 0x1 PUSH1 0x1 PUSH1 0xA0 SHL SUB DUP3 DUP2 AND PUSH1 0x80 MSTORE PUSH1 0x4 DUP1 SLOAD CALLER PUSH1 0x1 PUSH1 0x1 PUSH1 0xA0 SHL SUB NOT SWAP2 DUP3 AND DUP2 OR SWAP1 SWAP3 SSTORE PUSH1 0x2 DUP1 SLOAD SWAP1 SWAP2 AND SWAP3 DUP5 AND SWAP3 SWAP1 SWAP3 OR SWAP1 SWAP2 SSTORE PUSH1 0x40 MLOAD PUSH1 0x0 SWAP1 PUSH32 0x8BE0079C531659141344CD1FD0A4F28419497F9722A3DAAFE3B4186F6B6457E0 SWAP1 DUP3 SWAP1 LOG3 PUSH1 0x40 MLOAD PUSH1 0x1 PUSH1 0x1 PUSH1 0xA0 SHL SUB DUP3 AND SWAP1 PUSH1 0x0 SWAP1 PUSH32 0x53DAF07EE0D544A6F1351B3FFD1AE53C39AB35C7DBE66D472BF8ECFB1036C9CF SWAP1 DUP3 SWAP1 LOG3 PUSH1 0x40 MLOAD PUSH1 0x1 DUP2 MSTORE PUSH1 0x1 PUSH1 0x1 PUSH1 0xA0 SHL SUB DUP5 AND SWAP1 PUSH32 0x9316DF45C3226259B8D7F2D32687EDB5A88141D5F47D0D6B67B927F3030C66D1 SWAP1 PUSH1 0x20 ADD PUSH1 0x40 MLOAD DUP1 SWAP2 SUB SWAP1 LOG2 POP POP POP PUSH3 0x1FE JUMP JUMPDEST DUP1 MLOAD PUSH1 0x1 PUSH1 0x1 PUSH1 0xA0 SHL SUB DUP2 AND DUP2 EQ PUSH3 0x1AF JUMPI PUSH1 0x0 DUP1 REVERT JUMPDEST SWAP2 SWAP1 POP JUMP JUMPDEST PUSH1 0x0 DUP1 PUSH1 0x0 PUSH1 0x60 DUP5 DUP7 SUB SLT ISZERO PUSH3 0x1CA JUMPI PUSH1 0x0 DUP1 REVERT JUMPDEST PUSH3 0x1D5 DUP5 PUSH3 0x197 JUMP JUMPDEST SWAP3 POP PUSH3 0x1E5 PUSH1 0x20 DUP6 ADD PUSH3 0x197 JUMP JUMPDEST SWAP2 POP PUSH3 0x1F5 PUSH1 0x40 DUP6 ADD PUSH3 0x197 JUMP JUMPDEST SWAP1 POP SWAP3 POP SWAP3 POP SWAP3 JUMP JUMPDEST PUSH1 0x80 MLOAD PUSH2 0x11CD PUSH3 0x259 PUSH1 0x0 CODECOPY PUSH1 0x0 DUP2 DUP2 PUSH2 0x161 ADD MSTORE DUP2 DUP2 PUSH2 0x425 ADD MSTORE DUP2 DUP2 PUSH2 0x54D ADD MSTORE DUP2 DUP2 PUSH2 0x5D4 ADD MSTORE DUP2 DUP2 PUSH2 0x63A ADD MSTORE DUP2 DUP2 PUSH2 0x68E ADD MSTORE DUP2 DUP2 PUSH2 0x81E ADD MSTORE DUP2 DUP2 PUSH2 0x954 ADD MSTORE DUP2 DUP2 PUSH2 0xAF0 ADD MSTORE PUSH2 0xB8B ADD MSTORE PUSH2 0x11CD PUSH1 0x0 RETURN INVALID PUSH1 0x80 PUSH1 0x40 MSTORE PUSH1 0x4 CALLDATASIZE LT PUSH2 0xE1 JUMPI PUSH1 0x0 CALLDATALOAD PUSH1 0xE0 SHR DUP1 PUSH4 0xA502E62D GT PUSH2 0x7F JUMPI DUP1 PUSH4 0xC2C8A008 GT PUSH2 0x59 JUMPI DUP1 PUSH4 0xC2C8A008 EQ PUSH2 0x253 JUMPI DUP1 PUSH4 0xC8A12651 EQ PUSH2 0x293 JUMPI DUP1 PUSH4 0xF2FDE38B EQ PUSH2 0x2B3 JUMPI DUP1 PUSH4 0xF3DFC2A9 EQ PUSH2 0x2D3 JUMPI PUSH1 0x0 DUP1 REVERT JUMPDEST DUP1 PUSH4 0xA502E62D EQ PUSH2 0x1F3 JUMPI DUP1 PUSH4 0xBE0FA6D4 EQ PUSH2 0x213 JUMPI DUP1 PUSH4 0xC290D691 EQ PUSH2 0x233 JUMPI PUSH1 0x0 DUP1 REVERT JUMPDEST DUP1 PUSH4 0x76351266 GT PUSH2 0xBB JUMPI DUP1 PUSH4 0x76351266 EQ PUSH2 0x14F JUMPI DUP1 PUSH4 0x7A90B990 EQ PUSH2 0x1A0 JUMPI DUP1 PUSH4 0x8DA5CB5B EQ PUSH2 0x1B5 JUMPI DUP1 PUSH4 0x95E09B01 EQ PUSH2 0x1D5 JUMPI PUSH1 0x0 DUP1 REVERT JUMPDEST DUP1 PUSH4 0x56F20512 EQ PUSH2 0xED JUMPI DUP1 PUSH4 0x5D73D02A EQ PUSH2 0x10F JUMPI DUP1 PUSH4 0x668B3A4A EQ PUSH2 0x12F JUMPI PUSH1 0x0 DUP1 REVERT JUMPDEST CALLDATASIZE PUSH2 0xE8 JUMPI STOP JUMPDEST PUSH1 0x0 DUP1 REVERT JUMPDEST CALLVALUE DUP1 ISZERO PUSH2 0xF9 JUMPI PUSH1 0x0 DUP1 REVERT JUMPDEST POP PUSH2 0x10D PUSH2 0x108 CALLDATASIZE PUSH1 0x4 PUSH2 0xF45 JUMP JUMPDEST PUSH2 0x2F3 JUMP JUMPDEST STOP JUMPDEST CALLVALUE DUP1 ISZERO PUSH2 0x11B JUMPI PUSH1 0x0 DUP1 REVERT JUMPDEST POP PUSH2 0x10D PUSH2 0x12A CALLDATASIZE PUSH1 0x4 PUSH2 0xF60 JUMP JUMPDEST PUSH2 0x397 JUMP JUMPDEST CALLVALUE DUP1 ISZERO PUSH2 0x13B JUMPI PUSH1 0x0 DUP1 REVERT JUMPDEST POP PUSH2 0x10D PUSH2 0x14A CALLDATASIZE PUSH1 0x4 PUSH2 0xFA3 JUMP JUMPDEST PUSH2 0x4AE JUMP JUMPDEST CALLVALUE DUP1 ISZERO PUSH2 0x15B JUMPI PUSH1 0x0 DUP1 REVERT JUMPDEST POP PUSH2 0x183 PUSH32 0x0 DUP2 JUMP JUMPDEST PUSH1 0x40 MLOAD PUSH1 0x1 PUSH1 0x1 PUSH1 0xA0 SHL SUB SWAP1 SWAP2 AND DUP2 MSTORE PUSH1 0x20 ADD JUMPDEST PUSH1 0x40 MLOAD DUP1 SWAP2 SUB SWAP1 RETURN JUMPDEST CALLVALUE DUP1 ISZERO PUSH2 0x1AC JUMPI PUSH1 0x0 DUP1 REVERT JUMPDEST POP PUSH2 0x10D PUSH2 0x707 JUMP JUMPDEST CALLVALUE DUP1 ISZERO PUSH2 0x1C1 JUMPI PUSH1 0x0 DUP1 REVERT JUMPDEST POP PUSH1 0x4 SLOAD PUSH2 0x183 SWAP1 PUSH1 0x1 PUSH1 0x1 PUSH1 0xA0 SHL SUB AND DUP2 JUMP JUMPDEST CALLVALUE DUP1 ISZERO PUSH2 0x1E1 JUMPI PUSH1 0x0 DUP1 REVERT JUMPDEST POP PUSH1 0x2 SLOAD PUSH1 0x1 PUSH1 0x1 PUSH1 0xA0 SHL SUB AND PUSH2 0x183 JUMP JUMPDEST CALLVALUE DUP1 ISZERO PUSH2 0x1FF JUMPI PUSH1 0x0 DUP1 REVERT JUMPDEST POP PUSH2 0x10D PUSH2 0x20E CALLDATASIZE PUSH1 0x4 PUSH2 0xF60 JUMP JUMPDEST PUSH2 0x790 JUMP JUMPDEST CALLVALUE DUP1 ISZERO PUSH2 0x21F JUMPI PUSH1 0x0 DUP1 REVERT JUMPDEST POP PUSH2 0x10D PUSH2 0x22E CALLDATASIZE PUSH1 0x4 PUSH2 0x101A JUMP JUMPDEST PUSH2 0x8A6 JUMP JUMPDEST CALLVALUE DUP1 ISZERO PUSH2 0x23F JUMPI PUSH1 0x0 DUP1 REVERT JUMPDEST POP PUSH2 0x10D PUSH2 0x24E CALLDATASIZE PUSH1 0x4 PUSH2 0x1080 JUMP JUMPDEST PUSH2 0x9E0 JUMP JUMPDEST CALLVALUE DUP1 ISZERO PUSH2 0x25F JUMPI PUSH1 0x0 DUP1 REVERT JUMPDEST POP PUSH2 0x283 PUSH2 0x26E CALLDATASIZE PUSH1 0x4 PUSH2 0x1080 JUMP JUMPDEST PUSH1 0x3 PUSH1 0x20 MSTORE PUSH1 0x0 SWAP1 DUP2 MSTORE PUSH1 0x40 SWAP1 KECCAK256 SLOAD PUSH1 0xFF AND DUP2 JUMP JUMPDEST PUSH1 0x40 MLOAD SWAP1 ISZERO ISZERO DUP2 MSTORE PUSH1 0x20 ADD PUSH2 0x197 JUMP JUMPDEST CALLVALUE DUP1 ISZERO PUSH2 0x29F JUMPI PUSH1 0x0 DUP1 REVERT JUMPDEST POP PUSH2 0x10D PUSH2 0x2AE CALLDATASIZE PUSH1 0x4 PUSH2 0x1099 JUMP JUMPDEST PUSH2 0xA47 JUMP JUMPDEST CALLVALUE DUP1 ISZERO PUSH2 0x2BF JUMPI PUSH1 0x0 DUP1 REVERT JUMPDEST POP PUSH2 0x10D PUSH2 0x2CE CALLDATASIZE PUSH1 0x4 PUSH2 0xF45 JUMP JUMPDEST PUSH2 0xC19 JUMP JUMPDEST CALLVALUE DUP1 ISZERO PUSH2 0x2DF JUMPI PUSH1 0x0 DUP1 REVERT JUMPDEST POP PUSH2 0x10D PUSH2 0x2EE CALLDATASIZE PUSH1 0x4 PUSH2 0x10FC JUMP JUMPDEST PUSH2 0xCBD JUMP JUMPDEST PUSH1 0x4 SLOAD PUSH1 0x1 PUSH1 0x1 PUSH1 0xA0 SHL SUB AND CALLER EQ PUSH2 0x31E JUMPI PUSH1 0x40 MLOAD PUSH4 0xDE271CF5 PUSH1 0xE0 SHL DUP2 MSTORE PUSH1 0x4 ADD PUSH1 0x40 MLOAD DUP1 SWAP2 SUB SWAP1 REVERT JUMPDEST PUSH1 0x1 PUSH1 0x1 PUSH1 0xA0 SHL SUB DUP2 AND PUSH2 0x345 JUMPI PUSH1 0x40 MLOAD PUSH4 0x7F03D773 PUSH1 0xE0 SHL DUP2 MSTORE PUSH1 0x4 ADD PUSH1 0x40 MLOAD DUP1 SWAP2 SUB SWAP1 REVERT JUMPDEST PUSH1 0x2 DUP1 SLOAD PUSH1 0x1 PUSH1 0x1 PUSH1 0xA0 SHL SUB DUP4 DUP2 AND PUSH1 0x1 PUSH1 0x1 PUSH1 0xA0 SHL SUB NOT DUP4 AND DUP2 OR SWAP1 SWAP4 SSTORE PUSH1 0x40 MLOAD SWAP2 AND SWAP2 SWAP1 DUP3 SWAP1 PUSH32 0x53DAF07EE0D544A6F1351B3FFD1AE53C39AB35C7DBE66D472BF8ECFB1036C9CF SWAP1 PUSH1 0x0 SWAP1 LOG3 POP POP JUMP JUMPDEST CALLER PUSH1 0x0 SWAP1 DUP2 MSTORE PUSH1 0x1 PUSH1 0x20 MSTORE PUSH1 0x40 SWAP1 KECCAK256 SLOAD DUP4 SWAP1 PUSH1 0xFF AND PUSH2 0x3C9 JUMPI PUSH1 0x40 MLOAD PUSH4 0x1A3A608B PUSH1 0xE0 SHL DUP2 MSTORE PUSH1 0x4 ADD PUSH1 0x40 MLOAD DUP1 SWAP2 SUB SWAP1 REVERT JUMPDEST PUSH1 0x2 SLOAD PUSH1 0x1 PUSH1 0x1 PUSH1 0xA0 SHL SUB DUP3 DUP2 AND SWAP2 AND EQ PUSH2 0x3F7 JUMPI PUSH1 0x40 MLOAD PUSH4 0xB5281F95 PUSH1 0xE0 SHL DUP2 MSTORE PUSH1 0x4 ADD PUSH1 0x40 MLOAD DUP1 SWAP2 SUB SWAP1 REVERT JUMPDEST PUSH2 0x403 DUP4 PUSH1 0x5 DUP5 PUSH2 0xDB3 JUMP JUMPDEST ISZERO PUSH2 0x4A8 JUMPI PUSH1 0x40 MLOAD PUSH4 0xC75381F PUSH1 0xE3 SHL DUP2 MSTORE PUSH1 0x4 DUP2 ADD DUP5 SWAP1 MSTORE PUSH1 0x24 DUP2 ADD DUP4 SWAP1 MSTORE PUSH32 0x0 PUSH1 0x1 PUSH1 0x1 PUSH1 0xA0 SHL SUB AND SWAP1 PUSH4 0x63A9C0F8 SWAP1 PUSH1 0x44 ADD PUSH1 0x0 PUSH1 0x40 MLOAD DUP1 DUP4 SUB DUP2 PUSH1 0x0 DUP8 DUP1 EXTCODESIZE ISZERO DUP1 ISZERO PUSH2 0x471 JUMPI PUSH1 0x0 DUP1 REVERT JUMPDEST POP GAS CALL ISZERO DUP1 ISZERO PUSH2 0x485 JUMPI RETURNDATASIZE PUSH1 0x0 DUP1 RETURNDATACOPY RETURNDATASIZE PUSH1 0x0 REVERT JUMPDEST POP POP PUSH1 0x40 MLOAD DUP5 SWAP3 POP PUSH1 0x5 SWAP2 POP DUP6 SWAP1 PUSH1 0x0 DUP1 MLOAD PUSH1 0x20 PUSH2 0x1178 DUP4 CODECOPY DUP2 MLOAD SWAP2 MSTORE SWAP1 PUSH1 0x0 SWAP1 LOG4 JUMPDEST POP POP POP POP JUMP JUMPDEST CALLER PUSH1 0x0 SWAP1 DUP2 MSTORE PUSH1 0x1 PUSH1 0x20 MSTORE PUSH1 0x40 SWAP1 KECCAK256 SLOAD DUP6 SWAP1 PUSH1 0xFF AND PUSH2 0x4E0 JUMPI PUSH1 0x40 MLOAD PUSH4 0x1A3A608B PUSH1 0xE0 SHL DUP2 MSTORE PUSH1 0x4 ADD PUSH1 0x40 MLOAD DUP1 SWAP2 SUB SWAP1 REVERT JUMPDEST PUSH1 0x2 SLOAD PUSH1 0x1 PUSH1 0x1 PUSH1 0xA0 SHL SUB DUP3 DUP2 AND SWAP2 AND EQ PUSH2 0x50E JUMPI PUSH1 0x40 MLOAD PUSH4 0xB5281F95 PUSH1 0xE0 SHL DUP2 MSTORE PUSH1 0x4 ADD PUSH1 0x40 MLOAD DUP1 SWAP2 SUB SWAP1 REVERT JUMPDEST PUSH2 0x519 DUP6 DUP6 DUP6 PUSH2 0xDB3 JUMP JUMPDEST ISZERO PUSH2 0x6FF JUMPI PUSH1 0x1 NOT PUSH1 0xFF DUP6 AND ADD PUSH2 0x60B JUMPI DUP2 ISZERO PUSH2 0x5B7 JUMPI PUSH1 0x40 MLOAD PUSH4 0x653A9541 PUSH1 0xE1 SHL DUP2 MSTORE PUSH1 0x4 DUP2 ADD DUP7 SWAP1 MSTORE PUSH1 0x24 DUP2 ADD DUP5 SWAP1 MSTORE PUSH32 0x0 PUSH1 0x1 PUSH1 0x1 PUSH1 0xA0 SHL SUB AND SWAP1 PUSH4 0xCA752A82 SWAP1 PUSH1 0x44 ADD JUMPDEST PUSH1 0x0 PUSH1 0x40 MLOAD DUP1 DUP4 SUB DUP2 PUSH1 0x0 DUP8 DUP1 EXTCODESIZE ISZERO DUP1 ISZERO PUSH2 0x59A JUMPI PUSH1 0x0 DUP1 REVERT JUMPDEST POP GAS CALL ISZERO DUP1 ISZERO PUSH2 0x5AE JUMPI RETURNDATASIZE PUSH1 0x0 DUP1 RETURNDATACOPY RETURNDATASIZE PUSH1 0x0 REVERT JUMPDEST POP POP POP POP PUSH2 0x6DE JUMP JUMPDEST PUSH1 0x40 MLOAD PUSH4 0xF0A5E143 PUSH1 0xE0 SHL DUP2 MSTORE PUSH1 0x4 DUP2 ADD DUP7 SWAP1 MSTORE PUSH1 0x24 DUP2 ADD DUP5 SWAP1 MSTORE PUSH32 0x0 PUSH1 0x1 PUSH1 0x1 PUSH1 0xA0 SHL SUB AND SWAP1 PUSH4 0xF0A5E143 SWAP1 PUSH1 0x44 ADD PUSH2 0x580 JUMP JUMPDEST PUSH1 0x2 NOT PUSH1 0xFF DUP6 AND ADD PUSH2 0x6C5 JUMPI DUP2 ISZERO PUSH2 0x671 JUMPI PUSH1 0x40 MLOAD PUSH4 0x6EB14D3B PUSH1 0xE0 SHL DUP2 MSTORE PUSH1 0x4 DUP2 ADD DUP7 SWAP1 MSTORE PUSH1 0x24 DUP2 ADD DUP5 SWAP1 MSTORE PUSH32 0x0 PUSH1 0x1 PUSH1 0x1 PUSH1 0xA0 SHL SUB AND SWAP1 PUSH4 0x6EB14D3B SWAP1 PUSH1 0x44 ADD PUSH2 0x580 JUMP JUMPDEST PUSH1 0x40 MLOAD PUSH4 0xDD53BF9 PUSH1 0xE1 SHL DUP2 MSTORE PUSH1 0x4 DUP2 ADD DUP7 SWAP1 MSTORE PUSH1 0x24 DUP2 ADD DUP5 SWAP1 MSTORE PUSH32 0x0 PUSH1 0x1 PUSH1 0x1 PUSH1 0xA0 SHL SUB AND SWAP1 PUSH4 0x1BAA77F2 SWAP1 PUSH1 0x44 ADD PUSH2 0x580 JUMP JUMPDEST PUSH1 0x40 MLOAD PUSH4 0x1739050D PUSH1 0xE1 SHL DUP2 MSTORE PUSH1 0x4 ADD PUSH1 0x40 MLOAD DUP1 SWAP2 SUB SWAP1 REVERT JUMPDEST DUP3 DUP5 PUSH1 0xFF AND DUP7 PUSH1 0x0 DUP1 MLOAD PUSH1 0x20 PUSH2 0x1178 DUP4 CODECOPY DUP2 MLOAD SWAP2 MSTORE PUSH1 0x40 MLOAD PUSH1 0x40 MLOAD DUP1 SWAP2 SUB SWAP1 LOG4 JUMPDEST POP POP POP POP POP POP JUMP JUMPDEST PUSH1 0x0 DUP1 SLOAD PUSH1 0x40 MLOAD PUSH4 0x26DB15BB PUSH1 0xE2 SHL DUP2 MSTORE ADDRESS PUSH1 0x4 DUP3 ADD MSTORE PUSH1 0x1 PUSH1 0x1 PUSH1 0xA0 SHL SUB SWAP1 SWAP2 AND SWAP1 PUSH4 0x9B6C56EC SWAP1 PUSH1 0x24 ADD PUSH1 0x20 PUSH1 0x40 MLOAD DUP1 DUP4 SUB DUP2 DUP7 GAS STATICCALL ISZERO DUP1 ISZERO PUSH2 0x750 JUMPI RETURNDATASIZE PUSH1 0x0 DUP1 RETURNDATACOPY RETURNDATASIZE PUSH1 0x0 REVERT JUMPDEST POP POP POP POP PUSH1 0x40 MLOAD RETURNDATASIZE PUSH1 0x1F NOT PUSH1 0x1F DUP3 ADD AND DUP3 ADD DUP1 PUSH1 0x40 MSTORE POP DUP2 ADD SWAP1 PUSH2 0x774 SWAP2 SWAP1 PUSH2 0x112F JUMP JUMPDEST PUSH1 0x0 SLOAD SWAP1 SWAP2 POP PUSH2 0x78D SWAP1 PUSH1 0x1 PUSH1 0x1 PUSH1 0xA0 SHL SUB AND DUP3 PUSH2 0xE29 JUMP JUMPDEST POP JUMP JUMPDEST CALLER PUSH1 0x0 SWAP1 DUP2 MSTORE PUSH1 0x1 PUSH1 0x20 MSTORE PUSH1 0x40 SWAP1 KECCAK256 SLOAD DUP4 SWAP1 PUSH1 0xFF AND PUSH2 0x7C2 JUMPI PUSH1 0x40 MLOAD PUSH4 0x1A3A608B PUSH1 0xE0 SHL DUP2 MSTORE PUSH1 0x4 ADD PUSH1 0x40 MLOAD DUP1 SWAP2 SUB SWAP1 REVERT JUMPDEST PUSH1 0x2 SLOAD PUSH1 0x1 PUSH1 0x1 PUSH1 0xA0 SHL SUB DUP3 DUP2 AND SWAP2 AND EQ PUSH2 0x7F0 JUMPI PUSH1 0x40 MLOAD PUSH4 0xB5281F95 PUSH1 0xE0 SHL DUP2 MSTORE PUSH1 0x4 ADD PUSH1 0x40 MLOAD DUP1 SWAP2 SUB SWAP1 REVERT JUMPDEST PUSH2 0x7FC DUP4 PUSH1 0x6 DUP5 PUSH2 0xDB3 JUMP JUMPDEST ISZERO PUSH2 0x4A8 JUMPI PUSH1 0x40 MLOAD PUSH4 0x1002D421 PUSH1 0xE3 SHL DUP2 MSTORE PUSH1 0x4 DUP2 ADD DUP5 SWAP1 MSTORE PUSH1 0x24 DUP2 ADD DUP4 SWAP1 MSTORE PUSH32 0x0 PUSH1 0x1 PUSH1 0x1 PUSH1 0xA0 SHL SUB AND SWAP1 PUSH4 0x8016A108 SWAP1 PUSH1 0x44 ADD PUSH1 0x0 PUSH1 0x40 MLOAD DUP1 DUP4 SUB DUP2 PUSH1 0x0 DUP8 DUP1 EXTCODESIZE ISZERO DUP1 ISZERO PUSH2 0x86A JUMPI PUSH1 0x0 DUP1 REVERT JUMPDEST POP GAS CALL ISZERO DUP1 ISZERO PUSH2 0x87E JUMPI RETURNDATASIZE PUSH1 0x0 DUP1 RETURNDATACOPY RETURNDATASIZE PUSH1 0x0 REVERT JUMPDEST POP POP PUSH1 0x40 MLOAD DUP5 SWAP3 POP PUSH1 0x6 SWAP2 POP DUP6 SWAP1 PUSH1 0x0 DUP1 MLOAD PUSH1 0x20 PUSH2 0x1178 DUP4 CODECOPY DUP2 MLOAD SWAP2 MSTORE SWAP1 PUSH1 0x0 SWAP1 LOG4 POP POP POP POP JUMP JUMPDEST CALLER PUSH1 0x0 SWAP1 DUP2 MSTORE PUSH1 0x1 PUSH1 0x20 MSTORE PUSH1 0x40 SWAP1 KECCAK256 SLOAD DUP7 SWAP1 PUSH1 0xFF AND PUSH2 0x8D8 JUMPI PUSH1 0x40 MLOAD PUSH4 0x1A3A608B PUSH1 0xE0 SHL DUP2 MSTORE PUSH1 0x4 ADD PUSH1 0x40 MLOAD DUP1 SWAP2 SUB SWAP1 REVERT JUMPDEST PUSH1 0x2 SLOAD PUSH1 0x1 PUSH1 0x1 PUSH1 0xA0 SHL SUB DUP3 DUP2 AND SWAP2 AND EQ PUSH2 0x906 JUMPI PUSH1 0x40 MLOAD PUSH4 0xB5281F95 PUSH1 0xE0 SHL DUP2 MSTORE PUSH1 0x4 ADD PUSH1 0x40 MLOAD DUP1 SWAP2 SUB SWAP1 REVERT JUMPDEST PUSH2 0x912 DUP7 PUSH1 0x1 DUP8 PUSH2 0xDB3 JUMP JUMPDEST ISZERO PUSH2 0x9D7 JUMPI PUSH1 0x40 MLOAD PUSH4 0xEF8B2AF5 PUSH1 0xE0 SHL DUP2 MSTORE PUSH1 0x4 DUP2 ADD DUP8 SWAP1 MSTORE PUSH1 0x24 DUP2 ADD DUP7 SWAP1 MSTORE PUSH8 0xFFFFFFFFFFFFFFFF DUP1 DUP7 AND PUSH1 0x44 DUP4 ADD MSTORE DUP1 DUP6 AND PUSH1 0x64 DUP4 ADD MSTORE DUP4 AND PUSH1 0x84 DUP3 ADD MSTORE PUSH32 0x0 PUSH1 0x1 PUSH1 0x1 PUSH1 0xA0 SHL SUB AND SWAP1 PUSH4 0xEF8B2AF5 SWAP1 PUSH1 0xA4 ADD PUSH1 0x0 PUSH1 0x40 MLOAD DUP1 DUP4 SUB DUP2 PUSH1 0x0 DUP8 DUP1 EXTCODESIZE ISZERO DUP1 ISZERO PUSH2 0x9A0 JUMPI PUSH1 0x0 DUP1 REVERT JUMPDEST POP GAS CALL ISZERO DUP1 ISZERO PUSH2 0x9B4 JUMPI RETURNDATASIZE PUSH1 0x0 DUP1 RETURNDATACOPY RETURNDATASIZE PUSH1 0x0 REVERT JUMPDEST POP POP PUSH1 0x40 MLOAD DUP8 SWAP3 POP PUSH1 0x1 SWAP2 POP DUP9 SWAP1 PUSH1 0x0 DUP1 MLOAD PUSH1 0x20 PUSH2 0x1178 DUP4 CODECOPY DUP2 MLOAD SWAP2 MSTORE SWAP1 PUSH1 0x0 SWAP1 LOG4 JUMPDEST POP POP POP POP POP POP POP JUMP JUMPDEST CALLER PUSH1 0x0 SWAP1 DUP2 MSTORE PUSH1 0x1 PUSH1 0x20 MSTORE PUSH1 0x40 SWAP1 KECCAK256 SLOAD PUSH1 0xFF AND PUSH2 0xA3D JUMPI PUSH1 0x40 MLOAD PUSH3 0x461BCD PUSH1 0xE5 SHL DUP2 MSTORE PUSH1 0x20 PUSH1 0x4 DUP3 ADD MSTORE PUSH1 0x16 PUSH1 0x24 DUP3 ADD MSTORE PUSH22 0x417574686F72697A65642073656E646572206F6E6C79 PUSH1 0x50 SHL PUSH1 0x44 DUP3 ADD MSTORE PUSH1 0x64 ADD JUMPDEST PUSH1 0x40 MLOAD DUP1 SWAP2 SUB SWAP1 REVERT JUMPDEST PUSH2 0x78D CALLER DUP3 PUSH2 0xE29 JUMP JUMPDEST CALLER PUSH1 0x0 SWAP1 DUP2 MSTORE PUSH1 0x1 PUSH1 0x20 MSTORE PUSH1 0x40 SWAP1 KECCAK256 SLOAD DUP8 SWAP1 PUSH1 0xFF AND PUSH2 0xA79 JUMPI PUSH1 0x40 MLOAD PUSH4 0x1A3A608B PUSH1 0xE0 SHL DUP2 MSTORE PUSH1 0x4 ADD PUSH1 0x40 MLOAD DUP1 SWAP2 SUB SWAP1 REVERT JUMPDEST PUSH1 0x2 SLOAD PUSH1 0x1 PUSH1 0x1 PUSH1 0xA0 SHL SUB DUP3 DUP2 AND SWAP2 AND EQ PUSH2 0xAA7 JUMPI PUSH1 0x40 MLOAD PUSH4 0xB5281F95 PUSH1 0xE0 SHL DUP2 MSTORE PUSH1 0x4 ADD PUSH1 0x40 MLOAD DUP1 SWAP2 SUB SWAP1 REVERT JUMPDEST PUSH2 0xAB3 DUP8 PUSH1 0x4 DUP9 PUSH2 0xDB3 JUMP JUMPDEST ISZERO PUSH2 0xC0F JUMPI DUP2 ISZERO PUSH2 0xB59 JUMPI PUSH1 0x40 MLOAD PUSH4 0x68807391 PUSH1 0xE0 SHL DUP2 MSTORE PUSH1 0x4 DUP2 ADD DUP9 SWAP1 MSTORE PUSH1 0x24 DUP2 ADD DUP8 SWAP1 MSTORE PUSH1 0x44 DUP2 ADD DUP7 SWAP1 MSTORE PUSH1 0x64 DUP2 ADD DUP6 SWAP1 MSTORE PUSH1 0x84 DUP2 ADD DUP5 SWAP1 MSTORE PUSH32 0x0 PUSH1 0x1 PUSH1 0x1 PUSH1 0xA0 SHL SUB AND SWAP1 PUSH4 0x68807391 SWAP1 PUSH1 0xA4 ADD PUSH1 0x0 PUSH1 0x40 MLOAD DUP1 DUP4 SUB DUP2 PUSH1 0x0 DUP8 DUP1 EXTCODESIZE ISZERO DUP1 ISZERO PUSH2 0xB3C JUMPI PUSH1 0x0 DUP1 REVERT JUMPDEST POP GAS CALL ISZERO DUP1 ISZERO PUSH2 0xB50 JUMPI RETURNDATASIZE PUSH1 0x0 DUP1 RETURNDATACOPY RETURNDATASIZE PUSH1 0x0 REVERT JUMPDEST POP POP POP POP PUSH2 0xBF0 JUMP JUMPDEST PUSH1 0x40 MLOAD PUSH4 0x68CE8D05 PUSH1 0xE1 SHL DUP2 MSTORE PUSH1 0x4 DUP2 ADD DUP9 SWAP1 MSTORE PUSH1 0x24 DUP2 ADD DUP8 SWAP1 MSTORE PUSH1 0x44 DUP2 ADD DUP7 SWAP1 MSTORE PUSH1 0x64 DUP2 ADD DUP6 SWAP1 MSTORE PUSH1 0x84 DUP2 ADD DUP5 SWAP1 MSTORE PUSH32 0x0 PUSH1 0x1 PUSH1 0x1 PUSH1 0xA0 SHL SUB AND SWAP1 PUSH4 0xD19D1A0A SWAP1 PUSH1 0xA4 ADD PUSH1 0x0 PUSH1 0x40 MLOAD DUP1 DUP4 SUB DUP2 PUSH1 0x0 DUP8 DUP1 EXTCODESIZE ISZERO DUP1 ISZERO PUSH2 0xBD7 JUMPI PUSH1 0x0 DUP1 REVERT JUMPDEST POP GAS CALL ISZERO DUP1 ISZERO PUSH2 0xBEB JUMPI RETURNDATASIZE PUSH1 0x0 DUP1 RETURNDATACOPY RETURNDATASIZE PUSH1 0x0 REVERT JUMPDEST POP POP POP POP JUMPDEST PUSH1 0x40 MLOAD DUP7 SWAP1 PUSH1 0x4 SWAP1 DUP10 SWAP1 PUSH1 0x0 DUP1 MLOAD PUSH1 0x20 PUSH2 0x1178 DUP4 CODECOPY DUP2 MLOAD SWAP2 MSTORE SWAP1 PUSH1 0x0 SWAP1 LOG4 JUMPDEST POP POP POP POP POP POP POP POP JUMP JUMPDEST PUSH1 0x4 SLOAD PUSH1 0x1 PUSH1 0x1 PUSH1 0xA0 SHL SUB AND CALLER EQ PUSH2 0xC44 JUMPI PUSH1 0x40 MLOAD PUSH4 0xDE271CF5 PUSH1 0xE0 SHL DUP2 MSTORE PUSH1 0x4 ADD PUSH1 0x40 MLOAD DUP1 SWAP2 SUB SWAP1 REVERT JUMPDEST PUSH1 0x1 PUSH1 0x1 PUSH1 0xA0 SHL SUB DUP2 AND PUSH2 0xC6B JUMPI PUSH1 0x40 MLOAD PUSH4 0xE6C4247B PUSH1 0xE0 SHL DUP2 MSTORE PUSH1 0x4 ADD PUSH1 0x40 MLOAD DUP1 SWAP2 SUB SWAP1 REVERT JUMPDEST PUSH1 0x4 DUP1 SLOAD PUSH1 0x1 PUSH1 0x1 PUSH1 0xA0 SHL SUB DUP4 DUP2 AND PUSH1 0x1 PUSH1 0x1 PUSH1 0xA0 SHL SUB NOT DUP4 AND DUP2 OR SWAP1 SWAP4 SSTORE PUSH1 0x40 MLOAD SWAP2 AND SWAP2 SWAP1 DUP3 SWAP1 PUSH32 0x8BE0079C531659141344CD1FD0A4F28419497F9722A3DAAFE3B4186F6B6457E0 SWAP1 PUSH1 0x0 SWAP1 LOG3 POP POP JUMP JUMPDEST PUSH1 0x4 SLOAD PUSH1 0x1 PUSH1 0x1 PUSH1 0xA0 SHL SUB AND CALLER EQ PUSH2 0xCE8 JUMPI PUSH1 0x40 MLOAD PUSH4 0xDE271CF5 PUSH1 0xE0 SHL DUP2 MSTORE PUSH1 0x4 ADD PUSH1 0x40 MLOAD DUP1 SWAP2 SUB SWAP1 REVERT JUMPDEST PUSH1 0x1 PUSH1 0x1 PUSH1 0xA0 SHL SUB DUP3 AND PUSH2 0xD0F JUMPI PUSH1 0x40 MLOAD PUSH4 0xE6C4247B PUSH1 0xE0 SHL DUP2 MSTORE PUSH1 0x4 ADD PUSH1 0x40 MLOAD DUP1 SWAP2 SUB SWAP1 REVERT JUMPDEST DUP1 ISZERO PUSH2 0xD45 JUMPI PUSH2 0xD40 DUP3 PUSH1 0x1 PUSH1 0x1 PUSH1 0xA0 SHL SUB AND PUSH1 0x0 SWAP1 DUP2 MSTORE PUSH1 0x1 PUSH1 0x20 DUP2 SWAP1 MSTORE PUSH1 0x40 SWAP1 SWAP2 KECCAK256 DUP1 SLOAD PUSH1 0xFF NOT AND SWAP1 SWAP2 OR SWAP1 SSTORE JUMP JUMPDEST PUSH2 0xD6A JUMP JUMPDEST PUSH2 0xD6A DUP3 PUSH1 0x1 PUSH1 0x1 PUSH1 0xA0 SHL SUB AND PUSH1 0x0 SWAP1 DUP2 MSTORE PUSH1 0x1 PUSH1 0x20 MSTORE PUSH1 0x40 SWAP1 KECCAK256 DUP1 SLOAD PUSH1 0xFF NOT AND SWAP1 SSTORE JUMP JUMPDEST DUP2 PUSH1 0x1 PUSH1 0x1 PUSH1 0xA0 SHL SUB AND PUSH32 0x9316DF45C3226259B8D7F2D32687EDB5A88141D5F47D0D6B67B927F3030C66D1 DUP3 PUSH1 0x40 MLOAD PUSH2 0xDA7 SWAP2 ISZERO ISZERO DUP2 MSTORE PUSH1 0x20 ADD SWAP1 JUMP JUMPDEST PUSH1 0x40 MLOAD DUP1 SWAP2 SUB SWAP1 LOG2 POP POP JUMP JUMPDEST PUSH1 0x0 DUP4 DUP2 MSTORE PUSH1 0x3 PUSH1 0x20 MSTORE PUSH1 0x40 DUP2 KECCAK256 SLOAD PUSH1 0xFF AND ISZERO PUSH2 0xE04 JUMPI DUP2 DUP4 PUSH1 0xFF AND DUP6 PUSH32 0xDBAB795C64CB5BB3ACF570A18EAF8EC2918AF1062A6AC2A9858B96F771899592 PUSH1 0x40 MLOAD PUSH1 0x40 MLOAD DUP1 SWAP2 SUB SWAP1 LOG4 POP PUSH1 0x0 PUSH2 0xE22 JUMP JUMPDEST POP PUSH1 0x0 DUP4 DUP2 MSTORE PUSH1 0x3 PUSH1 0x20 MSTORE PUSH1 0x40 SWAP1 KECCAK256 DUP1 SLOAD PUSH1 0xFF NOT AND PUSH1 0x1 SWAP1 DUP2 OR SWAP1 SWAP2 SSTORE JUMPDEST SWAP4 SWAP3 POP POP POP JUMP JUMPDEST DUP1 SELFBALANCE LT ISZERO PUSH2 0xE6E JUMPI PUSH1 0x40 MLOAD PUSH3 0x461BCD PUSH1 0xE5 SHL DUP2 MSTORE PUSH1 0x20 PUSH1 0x4 DUP3 ADD MSTORE PUSH1 0x12 PUSH1 0x24 DUP3 ADD MSTORE PUSH18 0x496E73756666696369656E742066756E6473 PUSH1 0x70 SHL PUSH1 0x44 DUP3 ADD MSTORE PUSH1 0x64 ADD PUSH2 0xA34 JUMP JUMPDEST DUP1 ISZERO PUSH2 0xF25 JUMPI PUSH1 0x40 DUP1 MLOAD PUSH1 0x0 DUP1 DUP3 MSTORE PUSH1 0x20 DUP3 ADD SWAP1 SWAP3 MSTORE PUSH1 0x1 PUSH1 0x1 PUSH1 0xA0 SHL SUB DUP5 AND SWAP1 DUP4 SWAP1 PUSH1 0x40 MLOAD PUSH2 0xE9E SWAP2 SWAP1 PUSH2 0x1148 JUMP JUMPDEST PUSH1 0x0 PUSH1 0x40 MLOAD DUP1 DUP4 SUB DUP2 DUP6 DUP8 GAS CALL SWAP3 POP POP POP RETURNDATASIZE DUP1 PUSH1 0x0 DUP2 EQ PUSH2 0xEDB JUMPI PUSH1 0x40 MLOAD SWAP2 POP PUSH1 0x1F NOT PUSH1 0x3F RETURNDATASIZE ADD AND DUP3 ADD PUSH1 0x40 MSTORE RETURNDATASIZE DUP3 MSTORE RETURNDATASIZE PUSH1 0x0 PUSH1 0x20 DUP5 ADD RETURNDATACOPY PUSH2 0xEE0 JUMP JUMPDEST PUSH1 0x60 SWAP2 POP JUMPDEST POP POP SWAP1 POP DUP1 PUSH2 0xF23 JUMPI PUSH1 0x40 MLOAD PUSH3 0x461BCD PUSH1 0xE5 SHL DUP2 MSTORE PUSH1 0x20 PUSH1 0x4 DUP3 ADD MSTORE PUSH1 0xF PUSH1 0x24 DUP3 ADD MSTORE PUSH15 0x151C985B9CD9995C8819985A5B1959 PUSH1 0x8A SHL PUSH1 0x44 DUP3 ADD MSTORE PUSH1 0x64 ADD PUSH2 0xA34 JUMP JUMPDEST POP JUMPDEST POP POP JUMP JUMPDEST DUP1 CALLDATALOAD PUSH1 0x1 PUSH1 0x1 PUSH1 0xA0 SHL SUB DUP2 AND DUP2 EQ PUSH2 0xF40 JUMPI PUSH1 0x0 DUP1 REVERT JUMPDEST SWAP2 SWAP1 POP JUMP JUMPDEST PUSH1 0x0 PUSH1 0x20 DUP3 DUP5 SUB SLT ISZERO PUSH2 0xF57 JUMPI PUSH1 0x0 DUP1 REVERT JUMPDEST PUSH2 0xE22 DUP3 PUSH2 0xF29 JUMP JUMPDEST PUSH1 0x0 DUP1 PUSH1 0x0 PUSH1 0x60 DUP5 DUP7 SUB SLT ISZERO PUSH2 0xF75 JUMPI PUSH1 0x0 DUP1 REVERT JUMPDEST PUSH2 0xF7E DUP5 PUSH2 0xF29 JUMP JUMPDEST SWAP6 PUSH1 0x20 DUP6 ADD CALLDATALOAD SWAP6 POP PUSH1 0x40 SWAP1 SWAP5 ADD CALLDATALOAD SWAP4 SWAP3 POP POP POP JUMP JUMPDEST DUP1 CALLDATALOAD DUP1 ISZERO ISZERO DUP2 EQ PUSH2 0xF40 JUMPI PUSH1 0x0 DUP1 REVERT JUMPDEST PUSH1 0x0 DUP1 PUSH1 0x0 DUP1 PUSH1 0x0 PUSH1 0xA0 DUP7 DUP9 SUB SLT ISZERO PUSH2 0xFBB JUMPI PUSH1 0x0 DUP1 REVERT JUMPDEST PUSH2 0xFC4 DUP7 PUSH2 0xF29 JUMP JUMPDEST SWAP5 POP PUSH1 0x20 DUP7 ADD CALLDATALOAD SWAP4 POP PUSH1 0x40 DUP7 ADD CALLDATALOAD PUSH1 0xFF DUP2 AND DUP2 EQ PUSH2 0xFE1 JUMPI PUSH1 0x0 DUP1 REVERT JUMPDEST SWAP3 POP PUSH1 0x60 DUP7 ADD CALLDATALOAD SWAP2 POP PUSH2 0xFF6 PUSH1 0x80 DUP8 ADD PUSH2 0xF93 JUMP JUMPDEST SWAP1 POP SWAP3 SWAP6 POP SWAP3 SWAP6 SWAP1 SWAP4 POP JUMP JUMPDEST DUP1 CALLDATALOAD PUSH8 0xFFFFFFFFFFFFFFFF DUP2 AND DUP2 EQ PUSH2 0xF40 JUMPI PUSH1 0x0 DUP1 REVERT JUMPDEST PUSH1 0x0 DUP1 PUSH1 0x0 DUP1 PUSH1 0x0 DUP1 PUSH1 0xC0 DUP8 DUP10 SUB SLT ISZERO PUSH2 0x1033 JUMPI PUSH1 0x0 DUP1 REVERT JUMPDEST PUSH2 0x103C DUP8 PUSH2 0xF29 JUMP JUMPDEST SWAP6 POP PUSH1 0x20 DUP8 ADD CALLDATALOAD SWAP5 POP PUSH1 0x40 DUP8 ADD CALLDATALOAD SWAP4 POP PUSH2 0x1058 PUSH1 0x60 DUP9 ADD PUSH2 0x1002 JUMP JUMPDEST SWAP3 POP PUSH2 0x1066 PUSH1 0x80 DUP9 ADD PUSH2 0x1002 JUMP JUMPDEST SWAP2 POP PUSH2 0x1074 PUSH1 0xA0 DUP9 ADD PUSH2 0x1002 JUMP JUMPDEST SWAP1 POP SWAP3 SWAP6 POP SWAP3 SWAP6 POP SWAP3 SWAP6 JUMP JUMPDEST PUSH1 0x0 PUSH1 0x20 DUP3 DUP5 SUB SLT ISZERO PUSH2 0x1092 JUMPI PUSH1 0x0 DUP1 REVERT JUMPDEST POP CALLDATALOAD SWAP2 SWAP1 POP JUMP JUMPDEST PUSH1 0x0 DUP1 PUSH1 0x0 DUP1 PUSH1 0x0 DUP1 PUSH1 0x0 PUSH1 0xE0 DUP9 DUP11 SUB SLT ISZERO PUSH2 0x10B4 JUMPI PUSH1 0x0 DUP1 REVERT JUMPDEST PUSH2 0x10BD DUP9 PUSH2 0xF29 JUMP JUMPDEST SWAP7 POP PUSH1 0x20 DUP9 ADD CALLDATALOAD SWAP6 POP PUSH1 0x40 DUP9 ADD CALLDATALOAD SWAP5 POP PUSH1 0x60 DUP9 ADD CALLDATALOAD SWAP4 POP PUSH1 0x80 DUP9 ADD CALLDATALOAD SWAP3 POP PUSH1 0xA0 DUP9 ADD CALLDATALOAD SWAP2 POP PUSH2 0x10EE PUSH1 0xC0 DUP10 ADD PUSH2 0xF93 JUMP JUMPDEST SWAP1 POP SWAP3 SWAP6 SWAP9 SWAP2 SWAP5 SWAP8 POP SWAP3 SWAP6 POP JUMP JUMPDEST PUSH1 0x0 DUP1 PUSH1 0x40 DUP4 DUP6 SUB SLT ISZERO PUSH2 0x110F JUMPI PUSH1 0x0 DUP1 REVERT JUMPDEST PUSH2 0x1118 DUP4 PUSH2 0xF29 JUMP JUMPDEST SWAP2 POP PUSH2 0x1126 PUSH1 0x20 DUP5 ADD PUSH2 0xF93 JUMP JUMPDEST SWAP1 POP SWAP3 POP SWAP3 SWAP1 POP JUMP JUMPDEST PUSH1 0x0 PUSH1 0x20 DUP3 DUP5 SUB SLT ISZERO PUSH2 0x1141 JUMPI PUSH1 0x0 DUP1 REVERT JUMPDEST POP MLOAD SWAP2 SWAP1 POP JUMP JUMPDEST PUSH1 0x0 DUP3 MLOAD PUSH1 0x0 JUMPDEST DUP2 DUP2 LT ISZERO PUSH2 0x1169 JUMPI PUSH1 0x20 DUP2 DUP7 ADD DUP2 ADD MLOAD DUP6 DUP4 ADD MSTORE ADD PUSH2 0x114F JUMP JUMPDEST POP PUSH1 0x0 SWAP3 ADD SWAP2 DUP3 MSTORE POP SWAP2 SWAP1 POP JUMP INVALID 0xF7 CREATE2 0x25 DUP12 CODESIZE 0xDB SGT 0xC1 0xAD DUP10 DUP12 SWAP2 0xBC SLT MSIZE 0xC3 MULMOD 0xC0 SWAP14 SHR 0xDB CALLDATACOPY BALANCE BLOBBASEFEE SLT SLOAD STOP 0xD4 0xC3 0x24 0xF 0xE2 LOG2 PUSH5 0x6970667358 0x22 SLT KECCAK256 PUSH5 0xD3CC4EDE0 LOG4 MSTORE SWAP15 0xF6 0x4B 0xE4 SWAP15 CALLDATASIZE 0xBE EXTCODEHASH EXTCODECOPY INVALID PUSH5 0xDD0B4EF1F8 SWAP7 0xBC DUP2 0xE2 0xAF 0x27 CODECOPY PUSH23 0x64736F6C63430008180033000000000000000000000000 "},"methodIdentifiers":{"coverDebt()":"7a90b990","owner()":"8da5cb5b","pay(uint256)":"c290d691","processedIntents(bytes32)":"c2c8a008","reactiveSender()":"95e09b01","rxApprove(address,bytes32,uint256)":"5d73d02a","rxCreateWeek(address,bytes32,uint256,uint64,uint64,uint64)":"be0fa6d4","rxFinalize(address,bytes32,uint256,bytes32,bytes32,uint256,bool)":"c8a12651","rxReject(address,bytes32,uint256)":"a502e62d","rxTransition(address,bytes32,uint8,uint256,bool)":"668b3a4a","setAuthorizedSender(address,bool)":"f3dfc2a9","setReactiveSender(address)":"56f20512","transferOwnership(address)":"f2fde38b","valcore()":"76351266"}}}}}