{"contracts/ValcoreV1.sol":{"ValcoreV1":{"abi":[{"inputs":[{"internalType":"address","name":"stablecoinToken","type":"address"},{"internalType":"uint16","name":"principalRatio","type":"uint16"},{"internalType":"uint16","name":"fee","type":"uint16"},{"internalType":"uint256","name":"minDepositAmount","type":"uint256"},{"internalType":"address","name":"admin","type":"address"},{"internalType":"address","name":"treasuryAddress","type":"address"},{"internalType":"address","name":"pauser","type":"address"},{"internalType":"address","name":"auditor","type":"address"}],"stateMutability":"nonpayable","type":"constructor"},{"inputs":[],"name":"AccessControlBadConfirmation","type":"error"},{"inputs":[{"internalType":"address","name":"account","type":"address"},{"internalType":"bytes32","name":"neededRole","type":"bytes32"}],"name":"AccessControlUnauthorizedAccount","type":"error"},{"inputs":[{"internalType":"address","name":"target","type":"address"}],"name":"AddressEmptyCode","type":"error"},{"inputs":[{"internalType":"address","name":"account","type":"address"}],"name":"AddressInsufficientBalance","type":"error"},{"inputs":[],"name":"AlreadyClaimed","type":"error"},{"inputs":[],"name":"BelowMinDeposit","type":"error"},{"inputs":[],"name":"DepositTooLarge","type":"error"},{"inputs":[],"name":"DraftClosed","type":"error"},{"inputs":[],"name":"DraftNotOpen","type":"error"},{"inputs":[],"name":"EmergencyExitNotAllowed","type":"error"},{"inputs":[],"name":"EndTimeNotReached","type":"error"},{"inputs":[],"name":"EnforcedPause","type":"error"},{"inputs":[],"name":"ExpectedPause","type":"error"},{"inputs":[],"name":"FailedInnerCall","type":"error"},{"inputs":[],"name":"InvalidAddress","type":"error"},{"inputs":[],"name":"InvalidDeposit","type":"error"},{"inputs":[],"name":"InvalidFee","type":"error"},{"inputs":[],"name":"InvalidHash","type":"error"},{"inputs":[],"name":"InvalidMerkleRoot","type":"error"},{"inputs":[],"name":"InvalidMinDeposit","type":"error"},{"inputs":[],"name":"InvalidProof","type":"error"},{"inputs":[],"name":"InvalidRatio","type":"error"},{"inputs":[],"name":"InvalidTimeRange","type":"error"},{"inputs":[],"name":"InvalidTreasuryAddress","type":"error"},{"inputs":[],"name":"LockTimeNotReached","type":"error"},{"inputs":[],"name":"NoLineup","type":"error"},{"inputs":[],"name":"NoSweepableReward","type":"error"},{"inputs":[],"name":"ReentrancyGuardReentrantCall","type":"error"},{"inputs":[],"name":"RewardAlreadySwept","type":"error"},{"inputs":[],"name":"RewardSweepNotAvailable","type":"error"},{"inputs":[{"internalType":"address","name":"token","type":"address"}],"name":"SafeERC20FailedOperation","type":"error"},{"inputs":[],"name":"StartTimeNotReached","type":"error"},{"inputs":[],"name":"SwapLimitReached","type":"error"},{"inputs":[],"name":"WeekAlreadyExists","type":"error"},{"inputs":[],"name":"WeekEnded","type":"error"},{"inputs":[],"name":"WeekNotActive","type":"error"},{"inputs":[],"name":"WeekNotFinalizePending","type":"error"},{"inputs":[],"name":"WeekNotFinalized","type":"error"},{"inputs":[],"name":"WeekNotLocked","type":"error"},{"anonymous":false,"inputs":[{"indexed":true,"internalType":"uint256","name":"weekId","type":"uint256"},{"indexed":true,"internalType":"address","name":"user","type":"address"},{"indexed":false,"internalType":"uint256","name":"amount","type":"uint256"}],"name":"Claimed","type":"event"},{"anonymous":false,"inputs":[{"indexed":true,"internalType":"uint256","name":"weekId","type":"uint256"},{"indexed":true,"internalType":"address","name":"user","type":"address"},{"indexed":false,"internalType":"uint256","name":"amount","type":"uint256"}],"name":"EmergencyExit","type":"event"},{"anonymous":false,"inputs":[{"indexed":true,"internalType":"uint256","name":"weekId","type":"uint256"},{"indexed":true,"internalType":"address","name":"user","type":"address"},{"indexed":false,"internalType":"bytes32","name":"lineupHash","type":"bytes32"},{"indexed":false,"internalType":"uint256","name":"deposit","type":"uint256"}],"name":"LineupCommitted","type":"event"},{"anonymous":false,"inputs":[{"indexed":true,"internalType":"uint256","name":"weekId","type":"uint256"},{"indexed":true,"internalType":"address","name":"user","type":"address"},{"indexed":false,"internalType":"bytes32","name":"lineupHash","type":"bytes32"},{"indexed":false,"internalType":"uint8","name":"swapsUsed","type":"uint8"}],"name":"LineupSwapped","type":"event"},{"anonymous":false,"inputs":[{"indexed":true,"internalType":"uint256","name":"weekId","type":"uint256"},{"indexed":true,"internalType":"address","name":"user","type":"address"},{"indexed":false,"internalType":"bytes32","name":"lineupHash","type":"bytes32"},{"indexed":false,"internalType":"uint256","name":"deposit","type":"uint256"}],"name":"LineupUpdated","type":"event"},{"anonymous":false,"inputs":[{"indexed":false,"internalType":"address","name":"account","type":"address"}],"name":"Paused","type":"event"},{"anonymous":false,"inputs":[{"indexed":true,"internalType":"uint256","name":"weekId","type":"uint256"},{"indexed":true,"internalType":"address","name":"treasury","type":"address"},{"indexed":false,"internalType":"uint256","name":"amount","type":"uint256"}],"name":"ProtocolFeeTransferred","type":"event"},{"anonymous":false,"inputs":[{"indexed":true,"internalType":"uint256","name":"weekId","type":"uint256"},{"indexed":true,"internalType":"address","name":"user","type":"address"},{"indexed":true,"internalType":"address","name":"caller","type":"address"},{"indexed":false,"internalType":"uint256","name":"amount","type":"uint256"}],"name":"RewardSwept","type":"event"},{"anonymous":false,"inputs":[{"indexed":true,"internalType":"bytes32","name":"role","type":"bytes32"},{"indexed":true,"internalType":"bytes32","name":"previousAdminRole","type":"bytes32"},{"indexed":true,"internalType":"bytes32","name":"newAdminRole","type":"bytes32"}],"name":"RoleAdminChanged","type":"event"},{"anonymous":false,"inputs":[{"indexed":true,"internalType":"bytes32","name":"role","type":"bytes32"},{"indexed":true,"internalType":"address","name":"account","type":"address"},{"indexed":true,"internalType":"address","name":"sender","type":"address"}],"name":"RoleGranted","type":"event"},{"anonymous":false,"inputs":[{"indexed":true,"internalType":"bytes32","name":"role","type":"bytes32"},{"indexed":true,"internalType":"address","name":"account","type":"address"},{"indexed":true,"internalType":"address","name":"sender","type":"address"}],"name":"RoleRevoked","type":"event"},{"anonymous":false,"inputs":[{"indexed":false,"internalType":"bool","name":"enabled","type":"bool"}],"name":"TestModeChanged","type":"event"},{"anonymous":false,"inputs":[{"indexed":false,"internalType":"address","name":"account","type":"address"}],"name":"Unpaused","type":"event"},{"anonymous":false,"inputs":[{"indexed":true,"internalType":"uint256","name":"weekId","type":"uint256"},{"indexed":false,"internalType":"uint64","name":"startAt","type":"uint64"},{"indexed":false,"internalType":"uint64","name":"lockAt","type":"uint64"},{"indexed":false,"internalType":"uint64","name":"endAt","type":"uint64"}],"name":"WeekCreated","type":"event"},{"anonymous":false,"inputs":[{"indexed":true,"internalType":"uint256","name":"weekId","type":"uint256"}],"name":"WeekFinalizationRejected","type":"event"},{"anonymous":false,"inputs":[{"indexed":true,"internalType":"uint256","name":"weekId","type":"uint256"},{"indexed":false,"internalType":"bytes32","name":"merkleRoot","type":"bytes32"},{"indexed":false,"internalType":"bytes32","name":"metadataHash","type":"bytes32"},{"indexed":false,"internalType":"uint256","name":"retainedFee","type":"uint256"}],"name":"WeekFinalizePending","type":"event"},{"anonymous":false,"inputs":[{"indexed":true,"internalType":"uint256","name":"weekId","type":"uint256"},{"indexed":false,"internalType":"bytes32","name":"merkleRoot","type":"bytes32"},{"indexed":false,"internalType":"bytes32","name":"metadataHash","type":"bytes32"}],"name":"WeekFinalized","type":"event"},{"anonymous":false,"inputs":[{"indexed":true,"internalType":"uint256","name":"weekId","type":"uint256"}],"name":"WeekLocked","type":"event"},{"anonymous":false,"inputs":[{"indexed":true,"internalType":"uint256","name":"weekId","type":"uint256"}],"name":"WeekStarted","type":"event"},{"inputs":[],"name":"AUDITOR_ROLE","outputs":[{"internalType":"bytes32","name":"","type":"bytes32"}],"stateMutability":"view","type":"function"},{"inputs":[],"name":"BPS","outputs":[{"internalType":"uint256","name":"","type":"uint256"}],"stateMutability":"view","type":"function"},{"inputs":[],"name":"DEFAULT_ADMIN_ROLE","outputs":[{"internalType":"bytes32","name":"","type":"bytes32"}],"stateMutability":"view","type":"function"},{"inputs":[],"name":"MAX_SWAPS","outputs":[{"internalType":"uint8","name":"","type":"uint8"}],"stateMutability":"view","type":"function"},{"inputs":[],"name":"ORACLE_ROLE","outputs":[{"internalType":"bytes32","name":"","type":"bytes32"}],"stateMutability":"view","type":"function"},{"inputs":[],"name":"PAUSER_ROLE","outputs":[{"internalType":"bytes32","name":"","type":"bytes32"}],"stateMutability":"view","type":"function"},{"inputs":[],"name":"REWARD_SWEEP_DELAY","outputs":[{"internalType":"uint256","name":"","type":"uint256"}],"stateMutability":"view","type":"function"},{"inputs":[{"internalType":"uint256","name":"weekId","type":"uint256"}],"name":"approveFinalization","outputs":[],"stateMutability":"nonpayable","type":"function"},{"inputs":[{"internalType":"uint256","name":"weekId","type":"uint256"},{"internalType":"uint256","name":"principal","type":"uint256"},{"internalType":"uint256","name":"riskPayout","type":"uint256"},{"internalType":"uint256","name":"totalWithdraw","type":"uint256"},{"internalType":"bytes32[]","name":"proof","type":"bytes32[]"}],"name":"claim","outputs":[],"stateMutability":"nonpayable","type":"function"},{"inputs":[{"internalType":"uint256","name":"weekId","type":"uint256"},{"internalType":"bytes32","name":"lineupHash","type":"bytes32"},{"internalType":"uint256","name":"depositAmount","type":"uint256"}],"name":"commitLineup","outputs":[],"stateMutability":"nonpayable","type":"function"},{"inputs":[{"internalType":"uint256","name":"weekId","type":"uint256"},{"internalType":"uint64","name":"startAt","type":"uint64"},{"internalType":"uint64","name":"lockAt","type":"uint64"},{"internalType":"uint64","name":"endAt","type":"uint64"}],"name":"createWeek","outputs":[],"stateMutability":"nonpayable","type":"function"},{"inputs":[{"internalType":"uint256","name":"weekId","type":"uint256"}],"name":"emergencyExit","outputs":[],"stateMutability":"nonpayable","type":"function"},{"inputs":[],"name":"feeBps","outputs":[{"internalType":"uint16","name":"","type":"uint16"}],"stateMutability":"view","type":"function"},{"inputs":[{"internalType":"uint256","name":"weekId","type":"uint256"},{"internalType":"bytes32","name":"merkleRoot","type":"bytes32"},{"internalType":"bytes32","name":"metadataHash","type":"bytes32"},{"internalType":"uint256","name":"retainedFee","type":"uint256"}],"name":"finalizeWeek","outputs":[],"stateMutability":"nonpayable","type":"function"},{"inputs":[{"internalType":"uint256","name":"weekId","type":"uint256"},{"internalType":"bytes32","name":"merkleRoot","type":"bytes32"},{"internalType":"bytes32","name":"metadataHash","type":"bytes32"},{"internalType":"uint256","name":"retainedFee","type":"uint256"}],"name":"forceFinalizeWeek","outputs":[],"stateMutability":"nonpayable","type":"function"},{"inputs":[{"internalType":"uint256","name":"weekId","type":"uint256"}],"name":"forceLockWeek","outputs":[],"stateMutability":"nonpayable","type":"function"},{"inputs":[{"internalType":"uint256","name":"weekId","type":"uint256"}],"name":"forceStartWeek","outputs":[],"stateMutability":"nonpayable","type":"function"},{"inputs":[{"internalType":"bytes32","name":"role","type":"bytes32"}],"name":"getRoleAdmin","outputs":[{"internalType":"bytes32","name":"","type":"bytes32"}],"stateMutability":"view","type":"function"},{"inputs":[{"internalType":"bytes32","name":"role","type":"bytes32"},{"internalType":"address","name":"account","type":"address"}],"name":"grantRole","outputs":[],"stateMutability":"nonpayable","type":"function"},{"inputs":[{"internalType":"bytes32","name":"role","type":"bytes32"},{"internalType":"address","name":"account","type":"address"}],"name":"hasRole","outputs":[{"internalType":"bool","name":"","type":"bool"}],"stateMutability":"view","type":"function"},{"inputs":[{"internalType":"uint256","name":"weekId","type":"uint256"}],"name":"lockWeek","outputs":[],"stateMutability":"nonpayable","type":"function"},{"inputs":[],"name":"minDeposit","outputs":[{"internalType":"uint256","name":"","type":"uint256"}],"stateMutability":"view","type":"function"},{"inputs":[],"name":"pause","outputs":[],"stateMutability":"nonpayable","type":"function"},{"inputs":[],"name":"paused","outputs":[{"internalType":"bool","name":"","type":"bool"}],"stateMutability":"view","type":"function"},{"inputs":[{"internalType":"uint256","name":"","type":"uint256"},{"internalType":"address","name":"","type":"address"}],"name":"positions","outputs":[{"internalType":"uint128","name":"principal","type":"uint128"},{"internalType":"uint128","name":"risk","type":"uint128"},{"internalType":"uint128","name":"forfeitedReward","type":"uint128"},{"internalType":"bytes32","name":"lineupHash","type":"bytes32"},{"internalType":"uint8","name":"swaps","type":"uint8"},{"internalType":"bool","name":"claimed","type":"bool"}],"stateMutability":"view","type":"function"},{"inputs":[],"name":"principalRatioBps","outputs":[{"internalType":"uint16","name":"","type":"uint16"}],"stateMutability":"view","type":"function"},{"inputs":[{"internalType":"uint256","name":"weekId","type":"uint256"}],"name":"rejectFinalization","outputs":[],"stateMutability":"nonpayable","type":"function"},{"inputs":[{"internalType":"bytes32","name":"role","type":"bytes32"},{"internalType":"address","name":"callerConfirmation","type":"address"}],"name":"renounceRole","outputs":[],"stateMutability":"nonpayable","type":"function"},{"inputs":[{"internalType":"bytes32","name":"role","type":"bytes32"},{"internalType":"address","name":"account","type":"address"}],"name":"revokeRole","outputs":[],"stateMutability":"nonpayable","type":"function"},{"inputs":[{"internalType":"uint256","name":"weekId","type":"uint256"}],"name":"rewardSweepAvailableAt","outputs":[{"internalType":"uint256","name":"","type":"uint256"}],"stateMutability":"view","type":"function"},{"inputs":[{"internalType":"bool","name":"enabled","type":"bool"}],"name":"setTestMode","outputs":[],"stateMutability":"nonpayable","type":"function"},{"inputs":[],"name":"stablecoin","outputs":[{"internalType":"contract IERC20","name":"","type":"address"}],"stateMutability":"view","type":"function"},{"inputs":[{"internalType":"uint256","name":"weekId","type":"uint256"}],"name":"startWeek","outputs":[],"stateMutability":"nonpayable","type":"function"},{"inputs":[{"internalType":"bytes4","name":"interfaceId","type":"bytes4"}],"name":"supportsInterface","outputs":[{"internalType":"bool","name":"","type":"bool"}],"stateMutability":"view","type":"function"},{"inputs":[{"internalType":"uint256","name":"weekId","type":"uint256"},{"internalType":"bytes32","name":"newHash","type":"bytes32"}],"name":"swapLineup","outputs":[],"stateMutability":"nonpayable","type":"function"},{"inputs":[{"internalType":"uint256","name":"weekId","type":"uint256"},{"internalType":"address","name":"user","type":"address"},{"internalType":"uint256","name":"principal","type":"uint256"},{"internalType":"uint256","name":"riskPayout","type":"uint256"},{"internalType":"uint256","name":"totalWithdraw","type":"uint256"},{"internalType":"bytes32[]","name":"proof","type":"bytes32[]"}],"name":"sweepExpiredReward","outputs":[],"stateMutability":"nonpayable","type":"function"},{"inputs":[],"name":"testMode","outputs":[{"internalType":"bool","name":"","type":"bool"}],"stateMutability":"view","type":"function"},{"inputs":[],"name":"treasury","outputs":[{"internalType":"address","name":"","type":"address"}],"stateMutability":"view","type":"function"},{"inputs":[],"name":"unpause","outputs":[],"stateMutability":"nonpayable","type":"function"},{"inputs":[{"internalType":"uint256","name":"","type":"uint256"}],"name":"weekStates","outputs":[{"internalType":"uint64","name":"startAt","type":"uint64"},{"internalType":"uint64","name":"lockAt","type":"uint64"},{"internalType":"uint64","name":"endAt","type":"uint64"},{"internalType":"uint64","name":"finalizedAt","type":"uint64"},{"internalType":"uint8","name":"status","type":"uint8"},{"internalType":"uint128","name":"riskCommitted","type":"uint128"},{"internalType":"uint128","name":"retainedFee","type":"uint128"},{"internalType":"bytes32","name":"merkleRoot","type":"bytes32"},{"internalType":"bytes32","name":"metadataHash","type":"bytes32"}],"stateMutability":"view","type":"function"}],"evm":{"bytecode":{"linkReferences":{},"object":"6101206040523480156200001257600080fd5b5060405162002c7f38038062002c7f833981016040819052620000359162000325565b6001805460ff191681556002556001600160a01b0388166200006a5760405163e6c4247b60e01b815260040160405180910390fd5b6127108761ffff161115620000925760405163648564d360e01b815260040160405180910390fd5b6127108661ffff161115620000ba576040516358d620b360e01b815260040160405180910390fd5b84600003620000dc57604051634f4940eb60e11b815260040160405180910390fd5b6001600160a01b038416620001045760405163e6c4247b60e01b815260040160405180910390fd5b6001600160a01b0383166200012c5760405163cfe2ea6360e01b815260040160405180910390fd5b6001600160a01b038216620001545760405163e6c4247b60e01b815260040160405180910390fd5b6001600160a01b0381166200017c5760405163e6c4247b60e01b815260040160405180910390fd5b6001600160a01b03808916608052831660a05261ffff80881660c052861660e052610100859052620001b060008562000246565b50620001dd7f68e79a7bf1e0bc45d0a330c573bc367f9cf464fd326078812f301165fbda4ef18562000246565b506200020a7f65d7a28e3265b37a6474929f336521b332c1681b933f6cb9f3376673440d862a8362000246565b50620002377f59a1c48e5837ad7a7f3dcedcbe129bf3249ec4fbf651fd4f5e2600ead39fe2f58262000246565b505050505050505050620003c4565b6000828152602081815260408083206001600160a01b038516845290915281205460ff16620002eb576000838152602081815260408083206001600160a01b03861684529091529020805460ff19166001179055620002a23390565b6001600160a01b0316826001600160a01b0316847f2f8788117e7eff1d82e926ec794901d17c78024a50270940304540a733656f0d60405160405180910390a4506001620002ef565b5060005b92915050565b80516001600160a01b03811681146200030d57600080fd5b919050565b805161ffff811681146200030d57600080fd5b600080600080600080600080610100898b0312156200034357600080fd5b6200034e89620002f5565b97506200035e60208a0162000312565b96506200036e60408a0162000312565b9550606089015194506200038560808a01620002f5565b93506200039560a08a01620002f5565b9250620003a560c08a01620002f5565b9150620003b560e08a01620002f5565b90509295985092959890939650565b60805160a05160c05160e0516101005161281b62000464600039600081816104a3015261120a015260006103310152600081816104ca015261135201526000818161053501528181610f66015281816117a0015281816118e1015261190801526000818161073801528181610d3001528181610f3c01528181610ffc015281816112d10152818161131e0152818161177601526118bf015261281b6000f3fe608060405234801561001057600080fd5b50600436106102485760003560e01c80635c975abb1161013b578063a217fddf116100b8578063dda062d41161007c578063dda062d41461064b578063e63ab1e914610655578063e684d7181461067c578063e81248d214610720578063e9cbd8221461073357600080fd5b8063a217fddf146105fd578063b692d26514610605578063c839d8dc14610618578063cd9ea3421461062b578063d547741f1461063857600080fd5b80636e4322e5116100ff5780636e4322e5146105a95780638197eba8146105bc5780638456cb59146105cf5780638cd3b5e8146105d757806391d14854146105ea57600080fd5b80635c975abb14610512578063601ee2291461051d57806361d027b314610530578063686c3db41461056f5780636e1d616e1461058257600080fd5b80632f2ff15d116101c95780633f4ba83a1161018d5780633f4ba83a1461049657806341b3d1851461049e578063421e3cd6146104c55780634231b0bd146104ec5780635463c3e8146104ff57600080fd5b80632f2ff15d146103665780633145c3cd14610379578063316a65e51461038c57806336568abe1461047057806336cb29201461048357600080fd5b80631ff1292f116102105780631ff1292f146102da57806324891c55146102ed578063248a9ca314610300578063249d39e91461032357806324a9d8531461032c57600080fd5b806301ffc9a71461024d578063062761211461027557806307e2cea51461028f578063161d263e146102b25780631cd249e6146102c7575b600080fd5b61026061025b366004612391565b61075a565b60405190151581526020015b60405180910390f35b61027d600a81565b60405160ff909116815260200161026c565b6102a46000805160206127c683398151915281565b60405190815260200161026c565b6102c56102c03660046123bb565b610791565b005b6102c56102d53660046123bb565b61081d565b6102c56102e83660046123e2565b6108aa565b6102c56102fb3660046123bb565b6108fd565b6102a461030e3660046123bb565b60009081526020819052604090206001015490565b6102a461271081565b6103537f000000000000000000000000000000000000000000000000000000000000000081565b60405161ffff909116815260200161026c565b6102c561037436600461241b565b61097b565b6102c56103873660046123bb565b6109a6565b61040a61039a3660046123bb565b6004602081905260009182526040909120805460018201546002830154600384015493909401546001600160401b0380841695600160401b8504821695600160801b8604831695600160c01b90049092169360ff8116936101009091046001600160801b03908116939216919089565b604080516001600160401b039a8b168152988a1660208a01529689169688019690965296909316606086015260ff90911660808501526001600160801b0390811660a08501521660c083015260e08201929092526101008101919091526101200161026c565b6102c561047e36600461241b565b610a1f565b6102c561049136600461245e565b610a57565b6102c5610b92565b6102a47f000000000000000000000000000000000000000000000000000000000000000081565b6103537f000000000000000000000000000000000000000000000000000000000000000081565b6102c56104fa3660046123bb565b610bc7565b6102c561050d3660046124f6565b610d9c565b60015460ff16610260565b6102c561052b3660046123bb565b611071565b6105577f000000000000000000000000000000000000000000000000000000000000000081565b6040516001600160a01b03909116815260200161026c565b6102c561057d36600461255f565b611143565b6102a47f59a1c48e5837ad7a7f3dcedcbe129bf3249ec4fbf651fd4f5e2600ead39fe2f581565b6102c56105b736600461258b565b61158a565b6102c56105ca3660046123bb565b61182a565b6102c56119bc565b6102c56105e5366004612605565b6119ee565b6102606105f836600461241b565b611b55565b6102a4600081565b6102a46106133660046123bb565b611b7e565b6102c5610626366004612627565b611be7565b6003546102609060ff1681565b6102c561064636600461241b565b611cbb565b6102a462ed4e0081565b6102a47f65d7a28e3265b37a6474929f336521b332c1681b933f6cb9f3376673440d862a81565b6106df61068a36600461241b565b600560209081526000928352604080842090915290825290208054600182015460028301546003909301546001600160801b0380841694600160801b9094048116939216919060ff8082169161010090041686565b604080516001600160801b03978816815295871660208701529390951692840192909252606083015260ff16608082015290151560a082015260c00161026c565b6102c561072e366004612627565b611ce0565b6105577f000000000000000000000000000000000000000000000000000000000000000081565b60006001600160e01b03198216637965db0b60e01b148061078b57506301ffc9a760e01b6001600160e01b03198316145b92915050565b6000805160206127c68339815191526107a981611d60565b600082815260046020526040902060018082015460ff16146107de576040516363e0f9cf60e11b815260040160405180910390fd5b60018101805460ff1916600217905560405183907f4847a6ddbf4c912f1f99f61aa3f7abd920b5c1d300f4ed628dee038ef7ddefcb90600090a2505050565b6000805160206127c683398151915261083581611d60565b6000828152600460205260409020600181015460ff1660021461086b5760405163f6c42cb560e01b815260040160405180910390fd5b60018101805460ff1916600317905560405183907fac603d57c7726546b797af9d2815978752f98539d10067c831d5330c3bfc1aea90600090a2505050565b60006108b581611d60565b6003805460ff19168315159081179091556040519081527f3aa6186db6afba61ec3731f16e23fdea8dfa0dfe10d7c05942d11fdb365db0319060200160405180910390a15050565b6000805160206127c683398151915261091581611d60565b600082815260046020526040902060018082015460ff161461094a576040516363e0f9cf60e11b815260040160405180910390fd5b8054600160401b90046001600160401b03164210156107de576040516214930960e01b815260040160405180910390fd5b60008281526020819052604090206001015461099681611d60565b6109a08383611d6a565b50505050565b6000805160206127c68339815191526109be81611d60565b6000828152600460205260409020600181015460ff166002146109f45760405163f6c42cb560e01b815260040160405180910390fd5b80546001600160401b031642101561086b5760405163047ce04160e21b815260040160405180910390fd5b6001600160a01b0381163314610a485760405163334bd91960e11b815260040160405180910390fd5b610a528282611dfc565b505050565b6000805160206127c6833981519152610a6f81611d60565b6000858152600460205260409020600181015460ff1615610aa3576040516325c6d65760e11b815260040160405180910390fd5b846001600160401b0316846001600160401b03161180610ad55750826001600160401b0316856001600160401b031610155b15610af35760405163536a71af60e01b815260040160405180910390fd5b80546001600160401b038681166001600160801b03199092168217600160401b8783169081029190911767ffffffffffffffff60801b1916600160801b9287169283021784556001808501805460ff1916909117905560408051938452602084019190915282015286907f5d5aab8af204a4135004372eb568fb9048bfea2555b25c1c5db092b56013ea589060600160405180910390a2505050505050565b7f65d7a28e3265b37a6474929f336521b332c1681b933f6cb9f3376673440d862a610bbc81611d60565b610bc4611e67565b50565b610bcf611eb9565b610bd7611ede565b6000818152600460205260409020600181015460ff1660041901610c0e5760405163121c1cb560e21b815260040160405180910390fd5b600082815260056020908152604080832033845290915290206003810154610100900460ff1615610c5257604051630c8d9eab60e31b815260040160405180910390fd5b8054600090610c73906001600160801b03600160801b82048116911661266f565b905080600003610c9657604051635e096daf60e01b815260040160405180910390fd5b8154600160801b90046001600160801b03168015610cf65760018481018054839290610cd190849061010090046001600160801b0316612682565b92506101000a8154816001600160801b0302191690836001600160801b031602179055505b60008084556001840180546001600160801b0319169055600284015560038301805461ffff1916610100179055610d576001600160a01b037f0000000000000000000000000000000000000000000000000000000000000000163384611f06565b604051828152339086907f0782d17757ef22b6d49078e7415f30225d972d06ec6433e96ea382674493af429060200160405180910390a350505050610bc46001600255565b610da4611ede565b6000868152600460205260409020600181015460ff16600514610dda576040516365e1a11160e11b815260040160405180910390fd5b600087815260056020908152604080832033845290915290206003810154610100900460ff1615610e1e57604051630c8d9eab60e31b815260040160405180910390fd5b600030468a338b8b8b604051602001610e3d97969594939291906126a9565b604051602081830303815290604052805190602001209050610e96858580806020026020016040519081016040528093929190818152602001838360200280828437600092019190915250505050600385015483611f65565b610eb3576040516309bde33960e01b815260040160405180910390fd5b600182015486906001600160801b031680158015610ed55750610ed585611f7b565b15610fc7576000610ee7858c8b611fc7565b90508015610fc5576001600160801b03811115610f175760405163c56d46d360e01b815260040160405180910390fd5b6001850180546001600160801b0319166001600160801b038316179055905080610f8b7f00000000000000000000000000000000000000000000000000000000000000006001600160a01b03167f000000000000000000000000000000000000000000000000000000000000000083611f06565b604051818152339081908e907ff2d8b3e55fc163d23dc20f735eafa12caa3f0f65c229d1e0398493935755949d9060200160405180910390a45b505b81811115610fd25750805b610fdc81836126f7565b60038501805461ff00191661010017905591506110236001600160a01b037f0000000000000000000000000000000000000000000000000000000000000000163384611f06565b60405182815233908c907f4ec90e965519d92681267467f775ada5bd214aa92c0dc93d90a5e880ce9ed0269060200160405180910390a350505050506110696001600255565b505050505050565b7f59a1c48e5837ad7a7f3dcedcbe129bf3249ec4fbf651fd4f5e2600ead39fe2f561109b81611d60565b60008281526004602081905260409091206001810154909160ff909116146110d65760405163c50c9a7f60e01b815260040160405180910390fd5b60018101805460ff1916600390811790915581546001600160c01b031682556002820180546001600160801b031916905560009082018190556004820181905560405184917f262bb819c866f92fbce469b11aff93b1cc683adaba550cb35045cf48671d6cfa91a2505050565b61114b61200e565b611153611ede565b600083815260046020526040902060018082015460ff1614611188576040516363e0f9cf60e11b815260040160405180910390fd5b60035460ff161580156111ac57508054600160401b90046001600160401b03164210155b156111ca576040516370fe87b160e01b815260040160405180910390fd5b826111e7576040516257c03760e51b815260040160405180910390fd5b8160000361120857604051635972996f60e11b815260040160405180910390fd5b7f0000000000000000000000000000000000000000000000000000000000000000821015611249576040516325bb239560e21b815260040160405180910390fd5b600084815260056020908152604080832033845290915290206003810154610100900460ff161561128d57604051630c8d9eab60e31b815260040160405180910390fd5b80546000906112ae906001600160801b03600160801b82048116911661266f565b9050808411156112fe576112f933306112c784886126f7565b6001600160a01b037f000000000000000000000000000000000000000000000000000000000000000016929190612032565b611345565b80841015611345576113453361131486846126f7565b6001600160a01b037f0000000000000000000000000000000000000000000000000000000000000000169190611f06565b600061271061137861ffff7f0000000000000000000000000000000000000000000000000000000000000000168761270a565b6113829190612721565b9050600061139082876126f7565b90506001600160801b038211806113ad57506001600160801b0381115b156113cb5760405163c56d46d360e01b815260040160405180910390fd5b8354600160801b90046001600160801b031680821115611446576113f86001600160801b038216836126f7565b8660010160018282829054906101000a90046001600160801b031661141d9190612743565b92506101000a8154816001600160801b0302191690836001600160801b031602179055506114b4565b806001600160801b03168210156114b45761146a826001600160801b0383166126f7565b8660010160018282829054906101000a90046001600160801b031661148f9190612682565b92506101000a8154816001600160801b0302191690836001600160801b031602179055505b6001600160801b03828116600160801b029084161785556001850180546001600160801b03191690556002850188905560038501805461ffff19169055600084900361153c57604080518981526020810189905233918b917f80911c202f290b865d2f04d188438939370585fe8970854f13309adaebf28a8a910160405180910390a361157a565b604080518981526020810189905233918b917f645958708f60ea0b47fa2c9c64bae144d7111035c5f9bb13ac45022c6f018651910160405180910390a35b505050505050610a526001600255565b611592611ede565b6000878152600460205260409020600181015460ff166005146115c8576040516365e1a11160e11b815260040160405180910390fd5b6115d181611f7b565b6115ee57604051632718eac760e01b815260040160405180910390fd5b60008881526005602090815260408083206001600160a01b038b16845290915290206003810154610100900460ff161561163b57604051630c8d9eab60e31b815260040160405180910390fd5b60018101546001600160801b03161561166757604051636caabf8f60e11b815260040160405180910390fd5b600030468b8b8b8b8b60405160200161168697969594939291906126a9565b6040516020818303038152906040528051906020012090506116df858580806020026020016040519081016040528093929190818152602001838360200280828437600092019190915250505050600385015483611f65565b6116fc576040516309bde33960e01b815260040160405180910390fd5b6000611709838a89611fc7565b90508060000361172c57604051631557f70960e01b815260040160405180910390fd5b6001600160801b038111156117545760405163c56d46d360e01b815260040160405180910390fd5b6001830180546001600160801b0319166001600160801b0383161790556117c57f00000000000000000000000000000000000000000000000000000000000000006001600160a01b03167f000000000000000000000000000000000000000000000000000000000000000083611f06565b336001600160a01b03168a6001600160a01b03168c7ff2d8b3e55fc163d23dc20f735eafa12caa3f0f65c229d1e0398493935755949d8460405161180b91815260200190565b60405180910390a4505050506118216001600255565b50505050505050565b7f59a1c48e5837ad7a7f3dcedcbe129bf3249ec4fbf651fd4f5e2600ead39fe2f561185481611d60565b60008281526004602081905260409091206001810154909160ff9091161461188f5760405163c50c9a7f60e01b815260040160405180910390fd5b60018101805460ff1916600517905560028101546001600160801b0316801561196b576119066001600160a01b037f0000000000000000000000000000000000000000000000000000000000000000167f000000000000000000000000000000000000000000000000000000000000000083611f06565b7f00000000000000000000000000000000000000000000000000000000000000006001600160a01b0316847f0e19f21371647f79bb7c3f1e363266315b211fcca3836e7a71425cc0c4ab6a8e8360405161196291815260200190565b60405180910390a35b837fe3ae6d591c9a33e364ec2f64a44c0f22b39c7408f4c24b7b6a330cdff31e63a5836003015484600401546040516119ae929190918252602082015260400190565b60405180910390a250505050565b7f65d7a28e3265b37a6474929f336521b332c1681b933f6cb9f3376673440d862a6119e681611d60565b610bc461206b565b6119f661200e565b6000828152600460205260409020600181015460ff16600314611a2c57604051633e6881c560e01b815260040160405180910390fd5b60035460ff16158015611a5057508054600160801b90046001600160401b03164210155b15611a6e5760405163cae73d4560e01b815260040160405180910390fd5b600083815260056020908152604080832033845290915290206002810154611aa957604051635e096daf60e01b815260040160405180910390fd5b6003810154600a60ff90911610611ad35760405163a3869ab760e01b815260040160405180910390fd5b82611af0576040516257c03760e51b815260040160405180910390fd5b6002810183905560038101805460ff8082166001011660ff199091168117909155604080518581526020810192909252339186917ff13a4df72601c50daaff7ebb4317c336455ac45e70cba3146db7ffd8104cb17c910160405180910390a350505050565b6000918252602082815260408084206001600160a01b0393909316845291905290205460ff1690565b6000818152600460205260408120600181015460ff166005141580611bb257508054600160c01b90046001600160401b0316155b15611bc05750600092915050565b8054611be09062ed4e0090600160c01b90046001600160401b031661266f565b9392505050565b6000805160206127c6833981519152611bff81611d60565b6000858152600460205260409020600181015460ff16600314611c3557604051633e6881c560e01b815260040160405180910390fd5b84611c5357604051639dd854d360e01b815260040160405180910390fd5b6001600160801b03831115611c7b5760405163c56d46d360e01b815260040160405180910390fd5b600181015461010090046001600160801b0316831115611cae576040516358d620b360e01b815260040160405180910390fd5b61106981878787876120a6565b600082815260208190526040902060010154611cd681611d60565b6109a08383611dfc565b6000805160206127c6833981519152611cf881611d60565b6000858152600460205260409020600181015460ff16600314611d2e57604051633e6881c560e01b815260040160405180910390fd5b8054600160801b90046001600160401b0316421015611c35576040516307cd705b60e41b815260040160405180910390fd5b610bc4813361214a565b6000611d768383611b55565b611df4576000838152602081815260408083206001600160a01b03861684529091529020805460ff19166001179055611dac3390565b6001600160a01b0316826001600160a01b0316847f2f8788117e7eff1d82e926ec794901d17c78024a50270940304540a733656f0d60405160405180910390a450600161078b565b50600061078b565b6000611e088383611b55565b15611df4576000838152602081815260408083206001600160a01b0386168085529252808320805460ff1916905551339286917ff6391f5c32d9c69d2a47ea670b442974b53935d1edc7fd64eb21e047a839171b9190a450600161078b565b611e6f611eb9565b6001805460ff191690557f5db9ee0a495bf2e6ff9c91a7834c1ba4fdd244a5e8aa4e537bd38aeae4b073aa335b6040516001600160a01b03909116815260200160405180910390a1565b60015460ff16611edc57604051638dfc202b60e01b815260040160405180910390fd5b565b6002805403611f0057604051633ee5aeb560e01b815260040160405180910390fd5b60028055565b6040516001600160a01b03838116602483015260448201839052610a5291859182169063a9059cbb906064015b604051602081830303815290604052915060e01b6020820180516001600160e01b03838183161783525050505061218c565b600082611f7285846121ef565b14949350505050565b8054600090600160c01b90046001600160401b03168103611f9e57506000919050565b8154611fbe9062ed4e0090600160c01b90046001600160401b031661266f565b42101592915050565b82546000908190611fe890600160801b90046001600160801b03168561266f565b9050808311611ffb576000915050611be0565b61200581846126f7565b95945050505050565b60015460ff1615611edc5760405163d93c066560e01b815260040160405180910390fd5b6040516001600160a01b0384811660248301528381166044830152606482018390526109a09186918216906323b872dd90608401611f33565b61207361200e565b6001805460ff1916811790557f62e78cea01bee320cd4e420270b5ea74000d11b0c9f74754ebdbfc544b05a25833611e9c565b600185018054600460ff19909116811790915585546001600160c01b0316600160c01b426001600160401b0316021786556002860180546001600160801b0319166001600160801b0384161790556003860184905585018290556040805184815260208101849052808201839052905185917f6faa1c6974b01d1466668718128c05788426c37fd3f11667f2cf4bc79a7cb7d6919081900360600190a25050505050565b6121548282611b55565b6121885760405163e2517d3f60e01b81526001600160a01b0382166004820152602481018390526044015b60405180910390fd5b5050565b60006121a16001600160a01b03841683612232565b905080516000141580156121c65750808060200190518101906121c49190612763565b155b15610a5257604051635274afe760e01b81526001600160a01b038416600482015260240161217f565b600081815b845181101561222a576122208286838151811061221357612213612780565b6020026020010151612240565b91506001016121f4565b509392505050565b6060611be08383600061226f565b600081831061225c576000828152602084905260409020611be0565b6000838152602083905260409020611be0565b6060814710156122945760405163cd78605960e01b815230600482015260240161217f565b600080856001600160a01b031684866040516122b09190612796565b60006040518083038185875af1925050503d80600081146122ed576040519150601f19603f3d011682016040523d82523d6000602084013e6122f2565b606091505b509150915061230286838361230c565b9695505050505050565b6060826123215761231c82612368565b611be0565b815115801561233857506001600160a01b0384163b155b1561236157604051639996b31560e01b81526001600160a01b038516600482015260240161217f565b5080611be0565b8051156123785780518082602001fd5b604051630a12f52160e11b815260040160405180910390fd5b6000602082840312156123a357600080fd5b81356001600160e01b031981168114611be057600080fd5b6000602082840312156123cd57600080fd5b5035919050565b8015158114610bc457600080fd5b6000602082840312156123f457600080fd5b8135611be0816123d4565b80356001600160a01b038116811461241657600080fd5b919050565b6000806040838503121561242e57600080fd5b8235915061243e602084016123ff565b90509250929050565b80356001600160401b038116811461241657600080fd5b6000806000806080858703121561247457600080fd5b8435935061248460208601612447565b925061249260408601612447565b91506124a060608601612447565b905092959194509250565b60008083601f8401126124bd57600080fd5b5081356001600160401b038111156124d457600080fd5b6020830191508360208260051b85010111156124ef57600080fd5b9250929050565b60008060008060008060a0878903121561250f57600080fd5b8635955060208701359450604087013593506060870135925060808701356001600160401b0381111561254157600080fd5b61254d89828a016124ab565b979a9699509497509295939492505050565b60008060006060848603121561257457600080fd5b505081359360208301359350604090920135919050565b600080600080600080600060c0888a0312156125a657600080fd5b873596506125b6602089016123ff565b955060408801359450606088013593506080880135925060a08801356001600160401b038111156125e657600080fd5b6125f28a828b016124ab565b989b979a50959850939692959293505050565b6000806040838503121561261857600080fd5b50508035926020909101359150565b6000806000806080858703121561263d57600080fd5b5050823594602084013594506040840135936060013592509050565b634e487b7160e01b600052601160045260246000fd5b8082018082111561078b5761078b612659565b6001600160801b038281168282160390808211156126a2576126a2612659565b5092915050565b6bffffffffffffffffffffffff19606098891b81168252601482019790975260348101959095529290951b90931660548301526068820192909252608881019290925260a882015260c80190565b8181038181111561078b5761078b612659565b808202811582820484141761078b5761078b612659565b60008261273e57634e487b7160e01b600052601260045260246000fd5b500490565b6001600160801b038181168382160190808211156126a2576126a2612659565b60006020828403121561277557600080fd5b8151611be0816123d4565b634e487b7160e01b600052603260045260246000fd5b6000825160005b818110156127b7576020818601810151858301520161279d565b50600092019182525091905056fe68e79a7bf1e0bc45d0a330c573bc367f9cf464fd326078812f301165fbda4ef1a264697066735822122025082bb76417601cfc35b477fbecc81cc0f3f3663684c47d123fe4408d19c0f364736f6c63430008180033","opcodes":"PUSH2 0x120 PUSH1 0x40 MSTORE CALLVALUE DUP1 ISZERO PUSH3 0x12 JUMPI PUSH1 0x0 DUP1 REVERT JUMPDEST POP PUSH1 0x40 MLOAD PUSH3 0x2C7F CODESIZE SUB DUP1 PUSH3 0x2C7F DUP4 CODECOPY DUP2 ADD PUSH1 0x40 DUP2 SWAP1 MSTORE PUSH3 0x35 SWAP2 PUSH3 0x325 JUMP JUMPDEST PUSH1 0x1 DUP1 SLOAD PUSH1 0xFF NOT AND DUP2 SSTORE PUSH1 0x2 SSTORE PUSH1 0x1 PUSH1 0x1 PUSH1 0xA0 SHL SUB DUP9 AND PUSH3 0x6A JUMPI PUSH1 0x40 MLOAD PUSH4 0xE6C4247B PUSH1 0xE0 SHL DUP2 MSTORE PUSH1 0x4 ADD PUSH1 0x40 MLOAD DUP1 SWAP2 SUB SWAP1 REVERT JUMPDEST PUSH2 0x2710 DUP8 PUSH2 0xFFFF AND GT ISZERO PUSH3 0x92 JUMPI PUSH1 0x40 MLOAD PUSH4 0x648564D3 PUSH1 0xE0 SHL DUP2 MSTORE PUSH1 0x4 ADD PUSH1 0x40 MLOAD DUP1 SWAP2 SUB SWAP1 REVERT JUMPDEST PUSH2 0x2710 DUP7 PUSH2 0xFFFF AND GT ISZERO PUSH3 0xBA JUMPI PUSH1 0x40 MLOAD PUSH4 0x58D620B3 PUSH1 0xE0 SHL DUP2 MSTORE PUSH1 0x4 ADD PUSH1 0x40 MLOAD DUP1 SWAP2 SUB SWAP1 REVERT JUMPDEST DUP5 PUSH1 0x0 SUB PUSH3 0xDC JUMPI PUSH1 0x40 MLOAD PUSH4 0x4F4940EB PUSH1 0xE1 SHL DUP2 MSTORE PUSH1 0x4 ADD PUSH1 0x40 MLOAD DUP1 SWAP2 SUB SWAP1 REVERT JUMPDEST PUSH1 0x1 PUSH1 0x1 PUSH1 0xA0 SHL SUB DUP5 AND PUSH3 0x104 JUMPI PUSH1 0x40 MLOAD PUSH4 0xE6C4247B PUSH1 0xE0 SHL DUP2 MSTORE PUSH1 0x4 ADD PUSH1 0x40 MLOAD DUP1 SWAP2 SUB SWAP1 REVERT JUMPDEST PUSH1 0x1 PUSH1 0x1 PUSH1 0xA0 SHL SUB DUP4 AND PUSH3 0x12C JUMPI PUSH1 0x40 MLOAD PUSH4 0xCFE2EA63 PUSH1 0xE0 SHL DUP2 MSTORE PUSH1 0x4 ADD PUSH1 0x40 MLOAD DUP1 SWAP2 SUB SWAP1 REVERT JUMPDEST PUSH1 0x1 PUSH1 0x1 PUSH1 0xA0 SHL SUB DUP3 AND PUSH3 0x154 JUMPI PUSH1 0x40 MLOAD PUSH4 0xE6C4247B PUSH1 0xE0 SHL DUP2 MSTORE PUSH1 0x4 ADD PUSH1 0x40 MLOAD DUP1 SWAP2 SUB SWAP1 REVERT JUMPDEST PUSH1 0x1 PUSH1 0x1 PUSH1 0xA0 SHL SUB DUP2 AND PUSH3 0x17C JUMPI PUSH1 0x40 MLOAD PUSH4 0xE6C4247B PUSH1 0xE0 SHL DUP2 MSTORE PUSH1 0x4 ADD PUSH1 0x40 MLOAD DUP1 SWAP2 SUB SWAP1 REVERT JUMPDEST PUSH1 0x1 PUSH1 0x1 PUSH1 0xA0 SHL SUB DUP1 DUP10 AND PUSH1 0x80 MSTORE DUP4 AND PUSH1 0xA0 MSTORE PUSH2 0xFFFF DUP1 DUP9 AND PUSH1 0xC0 MSTORE DUP7 AND PUSH1 0xE0 MSTORE PUSH2 0x100 DUP6 SWAP1 MSTORE PUSH3 0x1B0 PUSH1 0x0 DUP6 PUSH3 0x246 JUMP JUMPDEST POP PUSH3 0x1DD PUSH32 0x68E79A7BF1E0BC45D0A330C573BC367F9CF464FD326078812F301165FBDA4EF1 DUP6 PUSH3 0x246 JUMP JUMPDEST POP PUSH3 0x20A PUSH32 0x65D7A28E3265B37A6474929F336521B332C1681B933F6CB9F3376673440D862A DUP4 PUSH3 0x246 JUMP JUMPDEST POP PUSH3 0x237 PUSH32 0x59A1C48E5837AD7A7F3DCEDCBE129BF3249EC4FBF651FD4F5E2600EAD39FE2F5 DUP3 PUSH3 0x246 JUMP JUMPDEST POP POP POP POP POP POP POP POP POP PUSH3 0x3C4 JUMP JUMPDEST PUSH1 0x0 DUP3 DUP2 MSTORE PUSH1 0x20 DUP2 DUP2 MSTORE PUSH1 0x40 DUP1 DUP4 KECCAK256 PUSH1 0x1 PUSH1 0x1 PUSH1 0xA0 SHL SUB DUP6 AND DUP5 MSTORE SWAP1 SWAP2 MSTORE DUP2 KECCAK256 SLOAD PUSH1 0xFF AND PUSH3 0x2EB JUMPI PUSH1 0x0 DUP4 DUP2 MSTORE PUSH1 0x20 DUP2 DUP2 MSTORE PUSH1 0x40 DUP1 DUP4 KECCAK256 PUSH1 0x1 PUSH1 0x1 PUSH1 0xA0 SHL SUB DUP7 AND DUP5 MSTORE SWAP1 SWAP2 MSTORE SWAP1 KECCAK256 DUP1 SLOAD PUSH1 0xFF NOT AND PUSH1 0x1 OR SWAP1 SSTORE PUSH3 0x2A2 CALLER SWAP1 JUMP JUMPDEST PUSH1 0x1 PUSH1 0x1 PUSH1 0xA0 SHL SUB AND DUP3 PUSH1 0x1 PUSH1 0x1 PUSH1 0xA0 SHL SUB AND DUP5 PUSH32 0x2F8788117E7EFF1D82E926EC794901D17C78024A50270940304540A733656F0D PUSH1 0x40 MLOAD PUSH1 0x40 MLOAD DUP1 SWAP2 SUB SWAP1 LOG4 POP PUSH1 0x1 PUSH3 0x2EF JUMP JUMPDEST POP PUSH1 0x0 JUMPDEST SWAP3 SWAP2 POP POP JUMP JUMPDEST DUP1 MLOAD PUSH1 0x1 PUSH1 0x1 PUSH1 0xA0 SHL SUB DUP2 AND DUP2 EQ PUSH3 0x30D JUMPI PUSH1 0x0 DUP1 REVERT JUMPDEST SWAP2 SWAP1 POP JUMP JUMPDEST DUP1 MLOAD PUSH2 0xFFFF DUP2 AND DUP2 EQ PUSH3 0x30D JUMPI PUSH1 0x0 DUP1 REVERT JUMPDEST PUSH1 0x0 DUP1 PUSH1 0x0 DUP1 PUSH1 0x0 DUP1 PUSH1 0x0 DUP1 PUSH2 0x100 DUP10 DUP12 SUB SLT ISZERO PUSH3 0x343 JUMPI PUSH1 0x0 DUP1 REVERT JUMPDEST PUSH3 0x34E DUP10 PUSH3 0x2F5 JUMP JUMPDEST SWAP8 POP PUSH3 0x35E PUSH1 0x20 DUP11 ADD PUSH3 0x312 JUMP JUMPDEST SWAP7 POP PUSH3 0x36E PUSH1 0x40 DUP11 ADD PUSH3 0x312 JUMP JUMPDEST SWAP6 POP PUSH1 0x60 DUP10 ADD MLOAD SWAP5 POP PUSH3 0x385 PUSH1 0x80 DUP11 ADD PUSH3 0x2F5 JUMP JUMPDEST SWAP4 POP PUSH3 0x395 PUSH1 0xA0 DUP11 ADD PUSH3 0x2F5 JUMP JUMPDEST SWAP3 POP PUSH3 0x3A5 PUSH1 0xC0 DUP11 ADD PUSH3 0x2F5 JUMP JUMPDEST SWAP2 POP PUSH3 0x3B5 PUSH1 0xE0 DUP11 ADD PUSH3 0x2F5 JUMP JUMPDEST SWAP1 POP SWAP3 SWAP6 SWAP9 POP SWAP3 SWAP6 SWAP9 SWAP1 SWAP4 SWAP7 POP JUMP JUMPDEST PUSH1 0x80 MLOAD PUSH1 0xA0 MLOAD PUSH1 0xC0 MLOAD PUSH1 0xE0 MLOAD PUSH2 0x100 MLOAD PUSH2 0x281B PUSH3 0x464 PUSH1 0x0 CODECOPY PUSH1 0x0 DUP2 DUP2 PUSH2 0x4A3 ADD MSTORE PUSH2 0x120A ADD MSTORE PUSH1 0x0 PUSH2 0x331 ADD MSTORE PUSH1 0x0 DUP2 DUP2 PUSH2 0x4CA ADD MSTORE PUSH2 0x1352 ADD MSTORE PUSH1 0x0 DUP2 DUP2 PUSH2 0x535 ADD MSTORE DUP2 DUP2 PUSH2 0xF66 ADD MSTORE DUP2 DUP2 PUSH2 0x17A0 ADD MSTORE DUP2 DUP2 PUSH2 0x18E1 ADD MSTORE PUSH2 0x1908 ADD MSTORE PUSH1 0x0 DUP2 DUP2 PUSH2 0x738 ADD MSTORE DUP2 DUP2 PUSH2 0xD30 ADD MSTORE DUP2 DUP2 PUSH2 0xF3C ADD MSTORE DUP2 DUP2 PUSH2 0xFFC ADD MSTORE DUP2 DUP2 PUSH2 0x12D1 ADD MSTORE DUP2 DUP2 PUSH2 0x131E ADD MSTORE DUP2 DUP2 PUSH2 0x1776 ADD MSTORE PUSH2 0x18BF ADD MSTORE PUSH2 0x281B PUSH1 0x0 RETURN INVALID PUSH1 0x80 PUSH1 0x40 MSTORE CALLVALUE DUP1 ISZERO PUSH2 0x10 JUMPI PUSH1 0x0 DUP1 REVERT JUMPDEST POP PUSH1 0x4 CALLDATASIZE LT PUSH2 0x248 JUMPI PUSH1 0x0 CALLDATALOAD PUSH1 0xE0 SHR DUP1 PUSH4 0x5C975ABB GT PUSH2 0x13B JUMPI DUP1 PUSH4 0xA217FDDF GT PUSH2 0xB8 JUMPI DUP1 PUSH4 0xDDA062D4 GT PUSH2 0x7C JUMPI DUP1 PUSH4 0xDDA062D4 EQ PUSH2 0x64B JUMPI DUP1 PUSH4 0xE63AB1E9 EQ PUSH2 0x655 JUMPI DUP1 PUSH4 0xE684D718 EQ PUSH2 0x67C JUMPI DUP1 PUSH4 0xE81248D2 EQ PUSH2 0x720 JUMPI DUP1 PUSH4 0xE9CBD822 EQ PUSH2 0x733 JUMPI PUSH1 0x0 DUP1 REVERT JUMPDEST DUP1 PUSH4 0xA217FDDF EQ PUSH2 0x5FD JUMPI DUP1 PUSH4 0xB692D265 EQ PUSH2 0x605 JUMPI DUP1 PUSH4 0xC839D8DC EQ PUSH2 0x618 JUMPI DUP1 PUSH4 0xCD9EA342 EQ PUSH2 0x62B JUMPI DUP1 PUSH4 0xD547741F EQ PUSH2 0x638 JUMPI PUSH1 0x0 DUP1 REVERT JUMPDEST DUP1 PUSH4 0x6E4322E5 GT PUSH2 0xFF JUMPI DUP1 PUSH4 0x6E4322E5 EQ PUSH2 0x5A9 JUMPI DUP1 PUSH4 0x8197EBA8 EQ PUSH2 0x5BC JUMPI DUP1 PUSH4 0x8456CB59 EQ PUSH2 0x5CF JUMPI DUP1 PUSH4 0x8CD3B5E8 EQ PUSH2 0x5D7 JUMPI DUP1 PUSH4 0x91D14854 EQ PUSH2 0x5EA JUMPI PUSH1 0x0 DUP1 REVERT JUMPDEST DUP1 PUSH4 0x5C975ABB EQ PUSH2 0x512 JUMPI DUP1 PUSH4 0x601EE229 EQ PUSH2 0x51D JUMPI DUP1 PUSH4 0x61D027B3 EQ PUSH2 0x530 JUMPI DUP1 PUSH4 0x686C3DB4 EQ PUSH2 0x56F JUMPI DUP1 PUSH4 0x6E1D616E EQ PUSH2 0x582 JUMPI PUSH1 0x0 DUP1 REVERT JUMPDEST DUP1 PUSH4 0x2F2FF15D GT PUSH2 0x1C9 JUMPI DUP1 PUSH4 0x3F4BA83A GT PUSH2 0x18D JUMPI DUP1 PUSH4 0x3F4BA83A EQ PUSH2 0x496 JUMPI DUP1 PUSH4 0x41B3D185 EQ PUSH2 0x49E JUMPI DUP1 PUSH4 0x421E3CD6 EQ PUSH2 0x4C5 JUMPI DUP1 PUSH4 0x4231B0BD EQ PUSH2 0x4EC JUMPI DUP1 PUSH4 0x5463C3E8 EQ PUSH2 0x4FF JUMPI PUSH1 0x0 DUP1 REVERT JUMPDEST DUP1 PUSH4 0x2F2FF15D EQ PUSH2 0x366 JUMPI DUP1 PUSH4 0x3145C3CD EQ PUSH2 0x379 JUMPI DUP1 PUSH4 0x316A65E5 EQ PUSH2 0x38C JUMPI DUP1 PUSH4 0x36568ABE EQ PUSH2 0x470 JUMPI DUP1 PUSH4 0x36CB2920 EQ PUSH2 0x483 JUMPI PUSH1 0x0 DUP1 REVERT JUMPDEST DUP1 PUSH4 0x1FF1292F GT PUSH2 0x210 JUMPI DUP1 PUSH4 0x1FF1292F EQ PUSH2 0x2DA JUMPI DUP1 PUSH4 0x24891C55 EQ PUSH2 0x2ED JUMPI DUP1 PUSH4 0x248A9CA3 EQ PUSH2 0x300 JUMPI DUP1 PUSH4 0x249D39E9 EQ PUSH2 0x323 JUMPI DUP1 PUSH4 0x24A9D853 EQ PUSH2 0x32C JUMPI PUSH1 0x0 DUP1 REVERT JUMPDEST DUP1 PUSH4 0x1FFC9A7 EQ PUSH2 0x24D JUMPI DUP1 PUSH4 0x6276121 EQ PUSH2 0x275 JUMPI DUP1 PUSH4 0x7E2CEA5 EQ PUSH2 0x28F JUMPI DUP1 PUSH4 0x161D263E EQ PUSH2 0x2B2 JUMPI DUP1 PUSH4 0x1CD249E6 EQ PUSH2 0x2C7 JUMPI JUMPDEST PUSH1 0x0 DUP1 REVERT JUMPDEST PUSH2 0x260 PUSH2 0x25B CALLDATASIZE PUSH1 0x4 PUSH2 0x2391 JUMP JUMPDEST PUSH2 0x75A JUMP JUMPDEST PUSH1 0x40 MLOAD SWAP1 ISZERO ISZERO DUP2 MSTORE PUSH1 0x20 ADD JUMPDEST PUSH1 0x40 MLOAD DUP1 SWAP2 SUB SWAP1 RETURN JUMPDEST PUSH2 0x27D PUSH1 0xA DUP2 JUMP JUMPDEST PUSH1 0x40 MLOAD PUSH1 0xFF SWAP1 SWAP2 AND DUP2 MSTORE PUSH1 0x20 ADD PUSH2 0x26C JUMP JUMPDEST PUSH2 0x2A4 PUSH1 0x0 DUP1 MLOAD PUSH1 0x20 PUSH2 0x27C6 DUP4 CODECOPY DUP2 MLOAD SWAP2 MSTORE DUP2 JUMP JUMPDEST PUSH1 0x40 MLOAD SWAP1 DUP2 MSTORE PUSH1 0x20 ADD PUSH2 0x26C JUMP JUMPDEST PUSH2 0x2C5 PUSH2 0x2C0 CALLDATASIZE PUSH1 0x4 PUSH2 0x23BB JUMP JUMPDEST PUSH2 0x791 JUMP JUMPDEST STOP JUMPDEST PUSH2 0x2C5 PUSH2 0x2D5 CALLDATASIZE PUSH1 0x4 PUSH2 0x23BB JUMP JUMPDEST PUSH2 0x81D JUMP JUMPDEST PUSH2 0x2C5 PUSH2 0x2E8 CALLDATASIZE PUSH1 0x4 PUSH2 0x23E2 JUMP JUMPDEST PUSH2 0x8AA JUMP JUMPDEST PUSH2 0x2C5 PUSH2 0x2FB CALLDATASIZE PUSH1 0x4 PUSH2 0x23BB JUMP JUMPDEST PUSH2 0x8FD JUMP JUMPDEST PUSH2 0x2A4 PUSH2 0x30E CALLDATASIZE PUSH1 0x4 PUSH2 0x23BB JUMP JUMPDEST PUSH1 0x0 SWAP1 DUP2 MSTORE PUSH1 0x20 DUP2 SWAP1 MSTORE PUSH1 0x40 SWAP1 KECCAK256 PUSH1 0x1 ADD SLOAD SWAP1 JUMP JUMPDEST PUSH2 0x2A4 PUSH2 0x2710 DUP2 JUMP JUMPDEST PUSH2 0x353 PUSH32 0x0 DUP2 JUMP JUMPDEST PUSH1 0x40 MLOAD PUSH2 0xFFFF SWAP1 SWAP2 AND DUP2 MSTORE PUSH1 0x20 ADD PUSH2 0x26C JUMP JUMPDEST PUSH2 0x2C5 PUSH2 0x374 CALLDATASIZE PUSH1 0x4 PUSH2 0x241B JUMP JUMPDEST PUSH2 0x97B JUMP JUMPDEST PUSH2 0x2C5 PUSH2 0x387 CALLDATASIZE PUSH1 0x4 PUSH2 0x23BB JUMP JUMPDEST PUSH2 0x9A6 JUMP JUMPDEST PUSH2 0x40A PUSH2 0x39A CALLDATASIZE PUSH1 0x4 PUSH2 0x23BB JUMP JUMPDEST PUSH1 0x4 PUSH1 0x20 DUP2 SWAP1 MSTORE PUSH1 0x0 SWAP2 DUP3 MSTORE PUSH1 0x40 SWAP1 SWAP2 KECCAK256 DUP1 SLOAD PUSH1 0x1 DUP3 ADD SLOAD PUSH1 0x2 DUP4 ADD SLOAD PUSH1 0x3 DUP5 ADD SLOAD SWAP4 SWAP1 SWAP5 ADD SLOAD PUSH1 0x1 PUSH1 0x1 PUSH1 0x40 SHL SUB DUP1 DUP5 AND SWAP6 PUSH1 0x1 PUSH1 0x40 SHL DUP6 DIV DUP3 AND SWAP6 PUSH1 0x1 PUSH1 0x80 SHL DUP7 DIV DUP4 AND SWAP6 PUSH1 0x1 PUSH1 0xC0 SHL SWAP1 DIV SWAP1 SWAP3 AND SWAP4 PUSH1 0xFF DUP2 AND SWAP4 PUSH2 0x100 SWAP1 SWAP2 DIV PUSH1 0x1 PUSH1 0x1 PUSH1 0x80 SHL SUB SWAP1 DUP2 AND SWAP4 SWAP3 AND SWAP2 SWAP1 DUP10 JUMP JUMPDEST PUSH1 0x40 DUP1 MLOAD PUSH1 0x1 PUSH1 0x1 PUSH1 0x40 SHL SUB SWAP11 DUP12 AND DUP2 MSTORE SWAP9 DUP11 AND PUSH1 0x20 DUP11 ADD MSTORE SWAP7 DUP10 AND SWAP7 DUP9 ADD SWAP7 SWAP1 SWAP7 MSTORE SWAP7 SWAP1 SWAP4 AND PUSH1 0x60 DUP7 ADD MSTORE PUSH1 0xFF SWAP1 SWAP2 AND PUSH1 0x80 DUP6 ADD MSTORE PUSH1 0x1 PUSH1 0x1 PUSH1 0x80 SHL SUB SWAP1 DUP2 AND PUSH1 0xA0 DUP6 ADD MSTORE AND PUSH1 0xC0 DUP4 ADD MSTORE PUSH1 0xE0 DUP3 ADD SWAP3 SWAP1 SWAP3 MSTORE PUSH2 0x100 DUP2 ADD SWAP2 SWAP1 SWAP2 MSTORE PUSH2 0x120 ADD PUSH2 0x26C JUMP JUMPDEST PUSH2 0x2C5 PUSH2 0x47E CALLDATASIZE PUSH1 0x4 PUSH2 0x241B JUMP JUMPDEST PUSH2 0xA1F JUMP JUMPDEST PUSH2 0x2C5 PUSH2 0x491 CALLDATASIZE PUSH1 0x4 PUSH2 0x245E JUMP JUMPDEST PUSH2 0xA57 JUMP JUMPDEST PUSH2 0x2C5 PUSH2 0xB92 JUMP JUMPDEST PUSH2 0x2A4 PUSH32 0x0 DUP2 JUMP JUMPDEST PUSH2 0x353 PUSH32 0x0 DUP2 JUMP JUMPDEST PUSH2 0x2C5 PUSH2 0x4FA CALLDATASIZE PUSH1 0x4 PUSH2 0x23BB JUMP JUMPDEST PUSH2 0xBC7 JUMP JUMPDEST PUSH2 0x2C5 PUSH2 0x50D CALLDATASIZE PUSH1 0x4 PUSH2 0x24F6 JUMP JUMPDEST PUSH2 0xD9C JUMP JUMPDEST PUSH1 0x1 SLOAD PUSH1 0xFF AND PUSH2 0x260 JUMP JUMPDEST PUSH2 0x2C5 PUSH2 0x52B CALLDATASIZE PUSH1 0x4 PUSH2 0x23BB JUMP JUMPDEST PUSH2 0x1071 JUMP JUMPDEST PUSH2 0x557 PUSH32 0x0 DUP2 JUMP JUMPDEST PUSH1 0x40 MLOAD PUSH1 0x1 PUSH1 0x1 PUSH1 0xA0 SHL SUB SWAP1 SWAP2 AND DUP2 MSTORE PUSH1 0x20 ADD PUSH2 0x26C JUMP JUMPDEST PUSH2 0x2C5 PUSH2 0x57D CALLDATASIZE PUSH1 0x4 PUSH2 0x255F JUMP JUMPDEST PUSH2 0x1143 JUMP JUMPDEST PUSH2 0x2A4 PUSH32 0x59A1C48E5837AD7A7F3DCEDCBE129BF3249EC4FBF651FD4F5E2600EAD39FE2F5 DUP2 JUMP JUMPDEST PUSH2 0x2C5 PUSH2 0x5B7 CALLDATASIZE PUSH1 0x4 PUSH2 0x258B JUMP JUMPDEST PUSH2 0x158A JUMP JUMPDEST PUSH2 0x2C5 PUSH2 0x5CA CALLDATASIZE PUSH1 0x4 PUSH2 0x23BB JUMP JUMPDEST PUSH2 0x182A JUMP JUMPDEST PUSH2 0x2C5 PUSH2 0x19BC JUMP JUMPDEST PUSH2 0x2C5 PUSH2 0x5E5 CALLDATASIZE PUSH1 0x4 PUSH2 0x2605 JUMP JUMPDEST PUSH2 0x19EE JUMP JUMPDEST PUSH2 0x260 PUSH2 0x5F8 CALLDATASIZE PUSH1 0x4 PUSH2 0x241B JUMP JUMPDEST PUSH2 0x1B55 JUMP JUMPDEST PUSH2 0x2A4 PUSH1 0x0 DUP2 JUMP JUMPDEST PUSH2 0x2A4 PUSH2 0x613 CALLDATASIZE PUSH1 0x4 PUSH2 0x23BB JUMP JUMPDEST PUSH2 0x1B7E JUMP JUMPDEST PUSH2 0x2C5 PUSH2 0x626 CALLDATASIZE PUSH1 0x4 PUSH2 0x2627 JUMP JUMPDEST PUSH2 0x1BE7 JUMP JUMPDEST PUSH1 0x3 SLOAD PUSH2 0x260 SWAP1 PUSH1 0xFF AND DUP2 JUMP JUMPDEST PUSH2 0x2C5 PUSH2 0x646 CALLDATASIZE PUSH1 0x4 PUSH2 0x241B JUMP JUMPDEST PUSH2 0x1CBB JUMP JUMPDEST PUSH2 0x2A4 PUSH3 0xED4E00 DUP2 JUMP JUMPDEST PUSH2 0x2A4 PUSH32 0x65D7A28E3265B37A6474929F336521B332C1681B933F6CB9F3376673440D862A DUP2 JUMP JUMPDEST PUSH2 0x6DF PUSH2 0x68A CALLDATASIZE PUSH1 0x4 PUSH2 0x241B JUMP JUMPDEST PUSH1 0x5 PUSH1 0x20 SWAP1 DUP2 MSTORE PUSH1 0x0 SWAP3 DUP4 MSTORE PUSH1 0x40 DUP1 DUP5 KECCAK256 SWAP1 SWAP2 MSTORE SWAP1 DUP3 MSTORE SWAP1 KECCAK256 DUP1 SLOAD PUSH1 0x1 DUP3 ADD SLOAD PUSH1 0x2 DUP4 ADD SLOAD PUSH1 0x3 SWAP1 SWAP4 ADD SLOAD PUSH1 0x1 PUSH1 0x1 PUSH1 0x80 SHL SUB DUP1 DUP5 AND SWAP5 PUSH1 0x1 PUSH1 0x80 SHL SWAP1 SWAP5 DIV DUP2 AND SWAP4 SWAP3 AND SWAP2 SWAP1 PUSH1 0xFF DUP1 DUP3 AND SWAP2 PUSH2 0x100 SWAP1 DIV AND DUP7 JUMP JUMPDEST PUSH1 0x40 DUP1 MLOAD PUSH1 0x1 PUSH1 0x1 PUSH1 0x80 SHL SUB SWAP8 DUP9 AND DUP2 MSTORE SWAP6 DUP8 AND PUSH1 0x20 DUP8 ADD MSTORE SWAP4 SWAP1 SWAP6 AND SWAP3 DUP5 ADD SWAP3 SWAP1 SWAP3 MSTORE PUSH1 0x60 DUP4 ADD MSTORE PUSH1 0xFF AND PUSH1 0x80 DUP3 ADD MSTORE SWAP1 ISZERO ISZERO PUSH1 0xA0 DUP3 ADD MSTORE PUSH1 0xC0 ADD PUSH2 0x26C JUMP JUMPDEST PUSH2 0x2C5 PUSH2 0x72E CALLDATASIZE PUSH1 0x4 PUSH2 0x2627 JUMP JUMPDEST PUSH2 0x1CE0 JUMP JUMPDEST PUSH2 0x557 PUSH32 0x0 DUP2 JUMP JUMPDEST PUSH1 0x0 PUSH1 0x1 PUSH1 0x1 PUSH1 0xE0 SHL SUB NOT DUP3 AND PUSH4 0x7965DB0B PUSH1 0xE0 SHL EQ DUP1 PUSH2 0x78B JUMPI POP PUSH4 0x1FFC9A7 PUSH1 0xE0 SHL PUSH1 0x1 PUSH1 0x1 PUSH1 0xE0 SHL SUB NOT DUP4 AND EQ JUMPDEST SWAP3 SWAP2 POP POP JUMP JUMPDEST PUSH1 0x0 DUP1 MLOAD PUSH1 0x20 PUSH2 0x27C6 DUP4 CODECOPY DUP2 MLOAD SWAP2 MSTORE PUSH2 0x7A9 DUP2 PUSH2 0x1D60 JUMP JUMPDEST PUSH1 0x0 DUP3 DUP2 MSTORE PUSH1 0x4 PUSH1 0x20 MSTORE PUSH1 0x40 SWAP1 KECCAK256 PUSH1 0x1 DUP1 DUP3 ADD SLOAD PUSH1 0xFF AND EQ PUSH2 0x7DE JUMPI PUSH1 0x40 MLOAD PUSH4 0x63E0F9CF PUSH1 0xE1 SHL DUP2 MSTORE PUSH1 0x4 ADD PUSH1 0x40 MLOAD DUP1 SWAP2 SUB SWAP1 REVERT JUMPDEST PUSH1 0x1 DUP2 ADD DUP1 SLOAD PUSH1 0xFF NOT AND PUSH1 0x2 OR SWAP1 SSTORE PUSH1 0x40 MLOAD DUP4 SWAP1 PUSH32 0x4847A6DDBF4C912F1F99F61AA3F7ABD920B5C1D300F4ED628DEE038EF7DDEFCB SWAP1 PUSH1 0x0 SWAP1 LOG2 POP POP POP JUMP JUMPDEST PUSH1 0x0 DUP1 MLOAD PUSH1 0x20 PUSH2 0x27C6 DUP4 CODECOPY DUP2 MLOAD SWAP2 MSTORE PUSH2 0x835 DUP2 PUSH2 0x1D60 JUMP JUMPDEST PUSH1 0x0 DUP3 DUP2 MSTORE PUSH1 0x4 PUSH1 0x20 MSTORE PUSH1 0x40 SWAP1 KECCAK256 PUSH1 0x1 DUP2 ADD SLOAD PUSH1 0xFF AND PUSH1 0x2 EQ PUSH2 0x86B JUMPI PUSH1 0x40 MLOAD PUSH4 0xF6C42CB5 PUSH1 0xE0 SHL DUP2 MSTORE PUSH1 0x4 ADD PUSH1 0x40 MLOAD DUP1 SWAP2 SUB SWAP1 REVERT JUMPDEST PUSH1 0x1 DUP2 ADD DUP1 SLOAD PUSH1 0xFF NOT AND PUSH1 0x3 OR SWAP1 SSTORE PUSH1 0x40 MLOAD DUP4 SWAP1 PUSH32 0xAC603D57C7726546B797AF9D2815978752F98539D10067C831D5330C3BFC1AEA SWAP1 PUSH1 0x0 SWAP1 LOG2 POP POP POP JUMP JUMPDEST PUSH1 0x0 PUSH2 0x8B5 DUP2 PUSH2 0x1D60 JUMP JUMPDEST PUSH1 0x3 DUP1 SLOAD PUSH1 0xFF NOT AND DUP4 ISZERO ISZERO SWAP1 DUP2 OR SWAP1 SWAP2 SSTORE PUSH1 0x40 MLOAD SWAP1 DUP2 MSTORE PUSH32 0x3AA6186DB6AFBA61EC3731F16E23FDEA8DFA0DFE10D7C05942D11FDB365DB031 SWAP1 PUSH1 0x20 ADD PUSH1 0x40 MLOAD DUP1 SWAP2 SUB SWAP1 LOG1 POP POP JUMP JUMPDEST PUSH1 0x0 DUP1 MLOAD PUSH1 0x20 PUSH2 0x27C6 DUP4 CODECOPY DUP2 MLOAD SWAP2 MSTORE PUSH2 0x915 DUP2 PUSH2 0x1D60 JUMP JUMPDEST PUSH1 0x0 DUP3 DUP2 MSTORE PUSH1 0x4 PUSH1 0x20 MSTORE PUSH1 0x40 SWAP1 KECCAK256 PUSH1 0x1 DUP1 DUP3 ADD SLOAD PUSH1 0xFF AND EQ PUSH2 0x94A JUMPI PUSH1 0x40 MLOAD PUSH4 0x63E0F9CF PUSH1 0xE1 SHL DUP2 MSTORE PUSH1 0x4 ADD PUSH1 0x40 MLOAD DUP1 SWAP2 SUB SWAP1 REVERT JUMPDEST DUP1 SLOAD PUSH1 0x1 PUSH1 0x40 SHL SWAP1 DIV PUSH1 0x1 PUSH1 0x1 PUSH1 0x40 SHL SUB AND TIMESTAMP LT ISZERO PUSH2 0x7DE JUMPI PUSH1 0x40 MLOAD PUSH3 0x149309 PUSH1 0xE0 SHL DUP2 MSTORE PUSH1 0x4 ADD PUSH1 0x40 MLOAD DUP1 SWAP2 SUB SWAP1 REVERT JUMPDEST PUSH1 0x0 DUP3 DUP2 MSTORE PUSH1 0x20 DUP2 SWAP1 MSTORE PUSH1 0x40 SWAP1 KECCAK256 PUSH1 0x1 ADD SLOAD PUSH2 0x996 DUP2 PUSH2 0x1D60 JUMP JUMPDEST PUSH2 0x9A0 DUP4 DUP4 PUSH2 0x1D6A JUMP JUMPDEST POP POP POP POP JUMP JUMPDEST PUSH1 0x0 DUP1 MLOAD PUSH1 0x20 PUSH2 0x27C6 DUP4 CODECOPY DUP2 MLOAD SWAP2 MSTORE PUSH2 0x9BE DUP2 PUSH2 0x1D60 JUMP JUMPDEST PUSH1 0x0 DUP3 DUP2 MSTORE PUSH1 0x4 PUSH1 0x20 MSTORE PUSH1 0x40 SWAP1 KECCAK256 PUSH1 0x1 DUP2 ADD SLOAD PUSH1 0xFF AND PUSH1 0x2 EQ PUSH2 0x9F4 JUMPI PUSH1 0x40 MLOAD PUSH4 0xF6C42CB5 PUSH1 0xE0 SHL DUP2 MSTORE PUSH1 0x4 ADD PUSH1 0x40 MLOAD DUP1 SWAP2 SUB SWAP1 REVERT JUMPDEST DUP1 SLOAD PUSH1 0x1 PUSH1 0x1 PUSH1 0x40 SHL SUB AND TIMESTAMP LT ISZERO PUSH2 0x86B JUMPI PUSH1 0x40 MLOAD PUSH4 0x47CE041 PUSH1 0xE2 SHL DUP2 MSTORE PUSH1 0x4 ADD PUSH1 0x40 MLOAD DUP1 SWAP2 SUB SWAP1 REVERT JUMPDEST PUSH1 0x1 PUSH1 0x1 PUSH1 0xA0 SHL SUB DUP2 AND CALLER EQ PUSH2 0xA48 JUMPI PUSH1 0x40 MLOAD PUSH4 0x334BD919 PUSH1 0xE1 SHL DUP2 MSTORE PUSH1 0x4 ADD PUSH1 0x40 MLOAD DUP1 SWAP2 SUB SWAP1 REVERT JUMPDEST PUSH2 0xA52 DUP3 DUP3 PUSH2 0x1DFC JUMP JUMPDEST POP POP POP JUMP JUMPDEST PUSH1 0x0 DUP1 MLOAD PUSH1 0x20 PUSH2 0x27C6 DUP4 CODECOPY DUP2 MLOAD SWAP2 MSTORE PUSH2 0xA6F DUP2 PUSH2 0x1D60 JUMP JUMPDEST PUSH1 0x0 DUP6 DUP2 MSTORE PUSH1 0x4 PUSH1 0x20 MSTORE PUSH1 0x40 SWAP1 KECCAK256 PUSH1 0x1 DUP2 ADD SLOAD PUSH1 0xFF AND ISZERO PUSH2 0xAA3 JUMPI PUSH1 0x40 MLOAD PUSH4 0x25C6D657 PUSH1 0xE1 SHL DUP2 MSTORE PUSH1 0x4 ADD PUSH1 0x40 MLOAD DUP1 SWAP2 SUB SWAP1 REVERT JUMPDEST DUP5 PUSH1 0x1 PUSH1 0x1 PUSH1 0x40 SHL SUB AND DUP5 PUSH1 0x1 PUSH1 0x1 PUSH1 0x40 SHL SUB AND GT DUP1 PUSH2 0xAD5 JUMPI POP DUP3 PUSH1 0x1 PUSH1 0x1 PUSH1 0x40 SHL SUB AND DUP6 PUSH1 0x1 PUSH1 0x1 PUSH1 0x40 SHL SUB AND LT ISZERO JUMPDEST ISZERO PUSH2 0xAF3 JUMPI PUSH1 0x40 MLOAD PUSH4 0x536A71AF PUSH1 0xE0 SHL DUP2 MSTORE PUSH1 0x4 ADD PUSH1 0x40 MLOAD DUP1 SWAP2 SUB SWAP1 REVERT JUMPDEST DUP1 SLOAD PUSH1 0x1 PUSH1 0x1 PUSH1 0x40 SHL SUB DUP7 DUP2 AND PUSH1 0x1 PUSH1 0x1 PUSH1 0x80 SHL SUB NOT SWAP1 SWAP3 AND DUP3 OR PUSH1 0x1 PUSH1 0x40 SHL DUP8 DUP4 AND SWAP1 DUP2 MUL SWAP2 SWAP1 SWAP2 OR PUSH8 0xFFFFFFFFFFFFFFFF PUSH1 0x80 SHL NOT AND PUSH1 0x1 PUSH1 0x80 SHL SWAP3 DUP8 AND SWAP3 DUP4 MUL OR DUP5 SSTORE PUSH1 0x1 DUP1 DUP6 ADD DUP1 SLOAD PUSH1 0xFF NOT AND SWAP1 SWAP2 OR SWAP1 SSTORE PUSH1 0x40 DUP1 MLOAD SWAP4 DUP5 MSTORE PUSH1 0x20 DUP5 ADD SWAP2 SWAP1 SWAP2 MSTORE DUP3 ADD MSTORE DUP7 SWAP1 PUSH32 0x5D5AAB8AF204A4135004372EB568FB9048BFEA2555B25C1C5DB092B56013EA58 SWAP1 PUSH1 0x60 ADD PUSH1 0x40 MLOAD DUP1 SWAP2 SUB SWAP1 LOG2 POP POP POP POP POP POP JUMP JUMPDEST PUSH32 0x65D7A28E3265B37A6474929F336521B332C1681B933F6CB9F3376673440D862A PUSH2 0xBBC DUP2 PUSH2 0x1D60 JUMP JUMPDEST PUSH2 0xBC4 PUSH2 0x1E67 JUMP JUMPDEST POP JUMP JUMPDEST PUSH2 0xBCF PUSH2 0x1EB9 JUMP JUMPDEST PUSH2 0xBD7 PUSH2 0x1EDE JUMP JUMPDEST PUSH1 0x0 DUP2 DUP2 MSTORE PUSH1 0x4 PUSH1 0x20 MSTORE PUSH1 0x40 SWAP1 KECCAK256 PUSH1 0x1 DUP2 ADD SLOAD PUSH1 0xFF AND PUSH1 0x4 NOT ADD PUSH2 0xC0E JUMPI PUSH1 0x40 MLOAD PUSH4 0x121C1CB5 PUSH1 0xE2 SHL DUP2 MSTORE PUSH1 0x4 ADD PUSH1 0x40 MLOAD DUP1 SWAP2 SUB SWAP1 REVERT JUMPDEST PUSH1 0x0 DUP3 DUP2 MSTORE PUSH1 0x5 PUSH1 0x20 SWAP1 DUP2 MSTORE PUSH1 0x40 DUP1 DUP4 KECCAK256 CALLER DUP5 MSTORE SWAP1 SWAP2 MSTORE SWAP1 KECCAK256 PUSH1 0x3 DUP2 ADD SLOAD PUSH2 0x100 SWAP1 DIV PUSH1 0xFF AND ISZERO PUSH2 0xC52 JUMPI PUSH1 0x40 MLOAD PUSH4 0xC8D9EAB PUSH1 0xE3 SHL DUP2 MSTORE PUSH1 0x4 ADD PUSH1 0x40 MLOAD DUP1 SWAP2 SUB SWAP1 REVERT JUMPDEST DUP1 SLOAD PUSH1 0x0 SWAP1 PUSH2 0xC73 SWAP1 PUSH1 0x1 PUSH1 0x1 PUSH1 0x80 SHL SUB PUSH1 0x1 PUSH1 0x80 SHL DUP3 DIV DUP2 AND SWAP2 AND PUSH2 0x266F JUMP JUMPDEST SWAP1 POP DUP1 PUSH1 0x0 SUB PUSH2 0xC96 JUMPI PUSH1 0x40 MLOAD PUSH4 0x5E096DAF PUSH1 0xE0 SHL DUP2 MSTORE PUSH1 0x4 ADD PUSH1 0x40 MLOAD DUP1 SWAP2 SUB SWAP1 REVERT JUMPDEST DUP2 SLOAD PUSH1 0x1 PUSH1 0x80 SHL SWAP1 DIV PUSH1 0x1 PUSH1 0x1 PUSH1 0x80 SHL SUB AND DUP1 ISZERO PUSH2 0xCF6 JUMPI PUSH1 0x1 DUP5 DUP2 ADD DUP1 SLOAD DUP4 SWAP3 SWAP1 PUSH2 0xCD1 SWAP1 DUP5 SWAP1 PUSH2 0x100 SWAP1 DIV PUSH1 0x1 PUSH1 0x1 PUSH1 0x80 SHL SUB AND PUSH2 0x2682 JUMP JUMPDEST SWAP3 POP PUSH2 0x100 EXP DUP2 SLOAD DUP2 PUSH1 0x1 PUSH1 0x1 PUSH1 0x80 SHL SUB MUL NOT AND SWAP1 DUP4 PUSH1 0x1 PUSH1 0x1 PUSH1 0x80 SHL SUB AND MUL OR SWAP1 SSTORE POP JUMPDEST PUSH1 0x0 DUP1 DUP5 SSTORE PUSH1 0x1 DUP5 ADD DUP1 SLOAD PUSH1 0x1 PUSH1 0x1 PUSH1 0x80 SHL SUB NOT AND SWAP1 SSTORE PUSH1 0x2 DUP5 ADD SSTORE PUSH1 0x3 DUP4 ADD DUP1 SLOAD PUSH2 0xFFFF NOT AND PUSH2 0x100 OR SWAP1 SSTORE PUSH2 0xD57 PUSH1 0x1 PUSH1 0x1 PUSH1 0xA0 SHL SUB PUSH32 0x0 AND CALLER DUP5 PUSH2 0x1F06 JUMP JUMPDEST PUSH1 0x40 MLOAD DUP3 DUP2 MSTORE CALLER SWAP1 DUP7 SWAP1 PUSH32 0x782D17757EF22B6D49078E7415F30225D972D06EC6433E96EA382674493AF42 SWAP1 PUSH1 0x20 ADD PUSH1 0x40 MLOAD DUP1 SWAP2 SUB SWAP1 LOG3 POP POP POP POP PUSH2 0xBC4 PUSH1 0x1 PUSH1 0x2 SSTORE JUMP JUMPDEST PUSH2 0xDA4 PUSH2 0x1EDE JUMP JUMPDEST PUSH1 0x0 DUP7 DUP2 MSTORE PUSH1 0x4 PUSH1 0x20 MSTORE PUSH1 0x40 SWAP1 KECCAK256 PUSH1 0x1 DUP2 ADD SLOAD PUSH1 0xFF AND PUSH1 0x5 EQ PUSH2 0xDDA JUMPI PUSH1 0x40 MLOAD PUSH4 0x65E1A111 PUSH1 0xE1 SHL DUP2 MSTORE PUSH1 0x4 ADD PUSH1 0x40 MLOAD DUP1 SWAP2 SUB SWAP1 REVERT JUMPDEST PUSH1 0x0 DUP8 DUP2 MSTORE PUSH1 0x5 PUSH1 0x20 SWAP1 DUP2 MSTORE PUSH1 0x40 DUP1 DUP4 KECCAK256 CALLER DUP5 MSTORE SWAP1 SWAP2 MSTORE SWAP1 KECCAK256 PUSH1 0x3 DUP2 ADD SLOAD PUSH2 0x100 SWAP1 DIV PUSH1 0xFF AND ISZERO PUSH2 0xE1E JUMPI PUSH1 0x40 MLOAD PUSH4 0xC8D9EAB PUSH1 0xE3 SHL DUP2 MSTORE PUSH1 0x4 ADD PUSH1 0x40 MLOAD DUP1 SWAP2 SUB SWAP1 REVERT JUMPDEST PUSH1 0x0 ADDRESS CHAINID DUP11 CALLER DUP12 DUP12 DUP12 PUSH1 0x40 MLOAD PUSH1 0x20 ADD PUSH2 0xE3D SWAP8 SWAP7 SWAP6 SWAP5 SWAP4 SWAP3 SWAP2 SWAP1 PUSH2 0x26A9 JUMP JUMPDEST PUSH1 0x40 MLOAD PUSH1 0x20 DUP2 DUP4 SUB SUB DUP2 MSTORE SWAP1 PUSH1 0x40 MSTORE DUP1 MLOAD SWAP1 PUSH1 0x20 ADD KECCAK256 SWAP1 POP PUSH2 0xE96 DUP6 DUP6 DUP1 DUP1 PUSH1 0x20 MUL PUSH1 0x20 ADD PUSH1 0x40 MLOAD SWAP1 DUP2 ADD PUSH1 0x40 MSTORE DUP1 SWAP4 SWAP3 SWAP2 SWAP1 DUP2 DUP2 MSTORE PUSH1 0x20 ADD DUP4 DUP4 PUSH1 0x20 MUL DUP1 DUP3 DUP5 CALLDATACOPY PUSH1 0x0 SWAP3 ADD SWAP2 SWAP1 SWAP2 MSTORE POP POP POP POP PUSH1 0x3 DUP6 ADD SLOAD DUP4 PUSH2 0x1F65 JUMP JUMPDEST PUSH2 0xEB3 JUMPI PUSH1 0x40 MLOAD PUSH4 0x9BDE339 PUSH1 0xE0 SHL DUP2 MSTORE PUSH1 0x4 ADD PUSH1 0x40 MLOAD DUP1 SWAP2 SUB SWAP1 REVERT JUMPDEST PUSH1 0x1 DUP3 ADD SLOAD DUP7 SWAP1 PUSH1 0x1 PUSH1 0x1 PUSH1 0x80 SHL SUB AND DUP1 ISZERO DUP1 ISZERO PUSH2 0xED5 JUMPI POP PUSH2 0xED5 DUP6 PUSH2 0x1F7B JUMP JUMPDEST ISZERO PUSH2 0xFC7 JUMPI PUSH1 0x0 PUSH2 0xEE7 DUP6 DUP13 DUP12 PUSH2 0x1FC7 JUMP JUMPDEST SWAP1 POP DUP1 ISZERO PUSH2 0xFC5 JUMPI PUSH1 0x1 PUSH1 0x1 PUSH1 0x80 SHL SUB DUP2 GT ISZERO PUSH2 0xF17 JUMPI PUSH1 0x40 MLOAD PUSH4 0xC56D46D3 PUSH1 0xE0 SHL DUP2 MSTORE PUSH1 0x4 ADD PUSH1 0x40 MLOAD DUP1 SWAP2 SUB SWAP1 REVERT JUMPDEST PUSH1 0x1 DUP6 ADD DUP1 SLOAD PUSH1 0x1 PUSH1 0x1 PUSH1 0x80 SHL SUB NOT AND PUSH1 0x1 PUSH1 0x1 PUSH1 0x80 SHL SUB DUP4 AND OR SWAP1 SSTORE SWAP1 POP DUP1 PUSH2 0xF8B PUSH32 0x0 PUSH1 0x1 PUSH1 0x1 PUSH1 0xA0 SHL SUB AND PUSH32 0x0 DUP4 PUSH2 0x1F06 JUMP JUMPDEST PUSH1 0x40 MLOAD DUP2 DUP2 MSTORE CALLER SWAP1 DUP2 SWAP1 DUP15 SWAP1 PUSH32 0xF2D8B3E55FC163D23DC20F735EAFA12CAA3F0F65C229D1E0398493935755949D SWAP1 PUSH1 0x20 ADD PUSH1 0x40 MLOAD DUP1 SWAP2 SUB SWAP1 LOG4 JUMPDEST POP JUMPDEST DUP2 DUP2 GT ISZERO PUSH2 0xFD2 JUMPI POP DUP1 JUMPDEST PUSH2 0xFDC DUP2 DUP4 PUSH2 0x26F7 JUMP JUMPDEST PUSH1 0x3 DUP6 ADD DUP1 SLOAD PUSH2 0xFF00 NOT AND PUSH2 0x100 OR SWAP1 SSTORE SWAP2 POP PUSH2 0x1023 PUSH1 0x1 PUSH1 0x1 PUSH1 0xA0 SHL SUB PUSH32 0x0 AND CALLER DUP5 PUSH2 0x1F06 JUMP JUMPDEST PUSH1 0x40 MLOAD DUP3 DUP2 MSTORE CALLER SWAP1 DUP13 SWAP1 PUSH32 0x4EC90E965519D92681267467F775ADA5BD214AA92C0DC93D90A5E880CE9ED026 SWAP1 PUSH1 0x20 ADD PUSH1 0x40 MLOAD DUP1 SWAP2 SUB SWAP1 LOG3 POP POP POP POP POP PUSH2 0x1069 PUSH1 0x1 PUSH1 0x2 SSTORE JUMP JUMPDEST POP POP POP POP POP POP JUMP JUMPDEST PUSH32 0x59A1C48E5837AD7A7F3DCEDCBE129BF3249EC4FBF651FD4F5E2600EAD39FE2F5 PUSH2 0x109B DUP2 PUSH2 0x1D60 JUMP JUMPDEST PUSH1 0x0 DUP3 DUP2 MSTORE PUSH1 0x4 PUSH1 0x20 DUP2 SWAP1 MSTORE PUSH1 0x40 SWAP1 SWAP2 KECCAK256 PUSH1 0x1 DUP2 ADD SLOAD SWAP1 SWAP2 PUSH1 0xFF SWAP1 SWAP2 AND EQ PUSH2 0x10D6 JUMPI PUSH1 0x40 MLOAD PUSH4 0xC50C9A7F PUSH1 0xE0 SHL DUP2 MSTORE PUSH1 0x4 ADD PUSH1 0x40 MLOAD DUP1 SWAP2 SUB SWAP1 REVERT JUMPDEST PUSH1 0x1 DUP2 ADD DUP1 SLOAD PUSH1 0xFF NOT AND PUSH1 0x3 SWAP1 DUP2 OR SWAP1 SWAP2 SSTORE DUP2 SLOAD PUSH1 0x1 PUSH1 0x1 PUSH1 0xC0 SHL SUB AND DUP3 SSTORE PUSH1 0x2 DUP3 ADD DUP1 SLOAD PUSH1 0x1 PUSH1 0x1 PUSH1 0x80 SHL SUB NOT AND SWAP1 SSTORE PUSH1 0x0 SWAP1 DUP3 ADD DUP2 SWAP1 SSTORE PUSH1 0x4 DUP3 ADD DUP2 SWAP1 SSTORE PUSH1 0x40 MLOAD DUP5 SWAP2 PUSH32 0x262BB819C866F92FBCE469B11AFF93B1CC683ADABA550CB35045CF48671D6CFA SWAP2 LOG2 POP POP POP JUMP JUMPDEST PUSH2 0x114B PUSH2 0x200E JUMP JUMPDEST PUSH2 0x1153 PUSH2 0x1EDE JUMP JUMPDEST PUSH1 0x0 DUP4 DUP2 MSTORE PUSH1 0x4 PUSH1 0x20 MSTORE PUSH1 0x40 SWAP1 KECCAK256 PUSH1 0x1 DUP1 DUP3 ADD SLOAD PUSH1 0xFF AND EQ PUSH2 0x1188 JUMPI PUSH1 0x40 MLOAD PUSH4 0x63E0F9CF PUSH1 0xE1 SHL DUP2 MSTORE PUSH1 0x4 ADD PUSH1 0x40 MLOAD DUP1 SWAP2 SUB SWAP1 REVERT JUMPDEST PUSH1 0x3 SLOAD PUSH1 0xFF AND ISZERO DUP1 ISZERO PUSH2 0x11AC JUMPI POP DUP1 SLOAD PUSH1 0x1 PUSH1 0x40 SHL SWAP1 DIV PUSH1 0x1 PUSH1 0x1 PUSH1 0x40 SHL SUB AND TIMESTAMP LT ISZERO JUMPDEST ISZERO PUSH2 0x11CA JUMPI PUSH1 0x40 MLOAD PUSH4 0x70FE87B1 PUSH1 0xE0 SHL DUP2 MSTORE PUSH1 0x4 ADD PUSH1 0x40 MLOAD DUP1 SWAP2 SUB SWAP1 REVERT JUMPDEST DUP3 PUSH2 0x11E7 JUMPI PUSH1 0x40 MLOAD PUSH3 0x57C037 PUSH1 0xE5 SHL DUP2 MSTORE PUSH1 0x4 ADD PUSH1 0x40 MLOAD DUP1 SWAP2 SUB SWAP1 REVERT JUMPDEST DUP2 PUSH1 0x0 SUB PUSH2 0x1208 JUMPI PUSH1 0x40 MLOAD PUSH4 0x5972996F PUSH1 0xE1 SHL DUP2 MSTORE PUSH1 0x4 ADD PUSH1 0x40 MLOAD DUP1 SWAP2 SUB SWAP1 REVERT JUMPDEST PUSH32 0x0 DUP3 LT ISZERO PUSH2 0x1249 JUMPI PUSH1 0x40 MLOAD PUSH4 0x25BB2395 PUSH1 0xE2 SHL DUP2 MSTORE PUSH1 0x4 ADD PUSH1 0x40 MLOAD DUP1 SWAP2 SUB SWAP1 REVERT JUMPDEST PUSH1 0x0 DUP5 DUP2 MSTORE PUSH1 0x5 PUSH1 0x20 SWAP1 DUP2 MSTORE PUSH1 0x40 DUP1 DUP4 KECCAK256 CALLER DUP5 MSTORE SWAP1 SWAP2 MSTORE SWAP1 KECCAK256 PUSH1 0x3 DUP2 ADD SLOAD PUSH2 0x100 SWAP1 DIV PUSH1 0xFF AND ISZERO PUSH2 0x128D JUMPI PUSH1 0x40 MLOAD PUSH4 0xC8D9EAB PUSH1 0xE3 SHL DUP2 MSTORE PUSH1 0x4 ADD PUSH1 0x40 MLOAD DUP1 SWAP2 SUB SWAP1 REVERT JUMPDEST DUP1 SLOAD PUSH1 0x0 SWAP1 PUSH2 0x12AE SWAP1 PUSH1 0x1 PUSH1 0x1 PUSH1 0x80 SHL SUB PUSH1 0x1 PUSH1 0x80 SHL DUP3 DIV DUP2 AND SWAP2 AND PUSH2 0x266F JUMP JUMPDEST SWAP1 POP DUP1 DUP5 GT ISZERO PUSH2 0x12FE JUMPI PUSH2 0x12F9 CALLER ADDRESS PUSH2 0x12C7 DUP5 DUP9 PUSH2 0x26F7 JUMP JUMPDEST PUSH1 0x1 PUSH1 0x1 PUSH1 0xA0 SHL SUB PUSH32 0x0 AND SWAP3 SWAP2 SWAP1 PUSH2 0x2032 JUMP JUMPDEST PUSH2 0x1345 JUMP JUMPDEST DUP1 DUP5 LT ISZERO PUSH2 0x1345 JUMPI PUSH2 0x1345 CALLER PUSH2 0x1314 DUP7 DUP5 PUSH2 0x26F7 JUMP JUMPDEST PUSH1 0x1 PUSH1 0x1 PUSH1 0xA0 SHL SUB PUSH32 0x0 AND SWAP2 SWAP1 PUSH2 0x1F06 JUMP JUMPDEST PUSH1 0x0 PUSH2 0x2710 PUSH2 0x1378 PUSH2 0xFFFF PUSH32 0x0 AND DUP8 PUSH2 0x270A JUMP JUMPDEST PUSH2 0x1382 SWAP2 SWAP1 PUSH2 0x2721 JUMP JUMPDEST SWAP1 POP PUSH1 0x0 PUSH2 0x1390 DUP3 DUP8 PUSH2 0x26F7 JUMP JUMPDEST SWAP1 POP PUSH1 0x1 PUSH1 0x1 PUSH1 0x80 SHL SUB DUP3 GT DUP1 PUSH2 0x13AD JUMPI POP PUSH1 0x1 PUSH1 0x1 PUSH1 0x80 SHL SUB DUP2 GT JUMPDEST ISZERO PUSH2 0x13CB JUMPI PUSH1 0x40 MLOAD PUSH4 0xC56D46D3 PUSH1 0xE0 SHL DUP2 MSTORE PUSH1 0x4 ADD PUSH1 0x40 MLOAD DUP1 SWAP2 SUB SWAP1 REVERT JUMPDEST DUP4 SLOAD PUSH1 0x1 PUSH1 0x80 SHL SWAP1 DIV PUSH1 0x1 PUSH1 0x1 PUSH1 0x80 SHL SUB AND DUP1 DUP3 GT ISZERO PUSH2 0x1446 JUMPI PUSH2 0x13F8 PUSH1 0x1 PUSH1 0x1 PUSH1 0x80 SHL SUB DUP3 AND DUP4 PUSH2 0x26F7 JUMP JUMPDEST DUP7 PUSH1 0x1 ADD PUSH1 0x1 DUP3 DUP3 DUP3 SWAP1 SLOAD SWAP1 PUSH2 0x100 EXP SWAP1 DIV PUSH1 0x1 PUSH1 0x1 PUSH1 0x80 SHL SUB AND PUSH2 0x141D SWAP2 SWAP1 PUSH2 0x2743 JUMP JUMPDEST SWAP3 POP PUSH2 0x100 EXP DUP2 SLOAD DUP2 PUSH1 0x1 PUSH1 0x1 PUSH1 0x80 SHL SUB MUL NOT AND SWAP1 DUP4 PUSH1 0x1 PUSH1 0x1 PUSH1 0x80 SHL SUB AND MUL OR SWAP1 SSTORE POP PUSH2 0x14B4 JUMP JUMPDEST DUP1 PUSH1 0x1 PUSH1 0x1 PUSH1 0x80 SHL SUB AND DUP3 LT ISZERO PUSH2 0x14B4 JUMPI PUSH2 0x146A DUP3 PUSH1 0x1 PUSH1 0x1 PUSH1 0x80 SHL SUB DUP4 AND PUSH2 0x26F7 JUMP JUMPDEST DUP7 PUSH1 0x1 ADD PUSH1 0x1 DUP3 DUP3 DUP3 SWAP1 SLOAD SWAP1 PUSH2 0x100 EXP SWAP1 DIV PUSH1 0x1 PUSH1 0x1 PUSH1 0x80 SHL SUB AND PUSH2 0x148F SWAP2 SWAP1 PUSH2 0x2682 JUMP JUMPDEST SWAP3 POP PUSH2 0x100 EXP DUP2 SLOAD DUP2 PUSH1 0x1 PUSH1 0x1 PUSH1 0x80 SHL SUB MUL NOT AND SWAP1 DUP4 PUSH1 0x1 PUSH1 0x1 PUSH1 0x80 SHL SUB AND MUL OR SWAP1 SSTORE POP JUMPDEST PUSH1 0x1 PUSH1 0x1 PUSH1 0x80 SHL SUB DUP3 DUP2 AND PUSH1 0x1 PUSH1 0x80 SHL MUL SWAP1 DUP5 AND OR DUP6 SSTORE PUSH1 0x1 DUP6 ADD DUP1 SLOAD PUSH1 0x1 PUSH1 0x1 PUSH1 0x80 SHL SUB NOT AND SWAP1 SSTORE PUSH1 0x2 DUP6 ADD DUP9 SWAP1 SSTORE PUSH1 0x3 DUP6 ADD DUP1 SLOAD PUSH2 0xFFFF NOT AND SWAP1 SSTORE PUSH1 0x0 DUP5 SWAP1 SUB PUSH2 0x153C JUMPI PUSH1 0x40 DUP1 MLOAD DUP10 DUP2 MSTORE PUSH1 0x20 DUP2 ADD DUP10 SWAP1 MSTORE CALLER SWAP2 DUP12 SWAP2 PUSH32 0x80911C202F290B865D2F04D188438939370585FE8970854F13309ADAEBF28A8A SWAP2 ADD PUSH1 0x40 MLOAD DUP1 SWAP2 SUB SWAP1 LOG3 PUSH2 0x157A JUMP JUMPDEST PUSH1 0x40 DUP1 MLOAD DUP10 DUP2 MSTORE PUSH1 0x20 DUP2 ADD DUP10 SWAP1 MSTORE CALLER SWAP2 DUP12 SWAP2 PUSH32 0x645958708F60EA0B47FA2C9C64BAE144D7111035C5F9BB13AC45022C6F018651 SWAP2 ADD PUSH1 0x40 MLOAD DUP1 SWAP2 SUB SWAP1 LOG3 JUMPDEST POP POP POP POP POP POP PUSH2 0xA52 PUSH1 0x1 PUSH1 0x2 SSTORE JUMP JUMPDEST PUSH2 0x1592 PUSH2 0x1EDE JUMP JUMPDEST PUSH1 0x0 DUP8 DUP2 MSTORE PUSH1 0x4 PUSH1 0x20 MSTORE PUSH1 0x40 SWAP1 KECCAK256 PUSH1 0x1 DUP2 ADD SLOAD PUSH1 0xFF AND PUSH1 0x5 EQ PUSH2 0x15C8 JUMPI PUSH1 0x40 MLOAD PUSH4 0x65E1A111 PUSH1 0xE1 SHL DUP2 MSTORE PUSH1 0x4 ADD PUSH1 0x40 MLOAD DUP1 SWAP2 SUB SWAP1 REVERT JUMPDEST PUSH2 0x15D1 DUP2 PUSH2 0x1F7B JUMP JUMPDEST PUSH2 0x15EE JUMPI PUSH1 0x40 MLOAD PUSH4 0x2718EAC7 PUSH1 0xE0 SHL DUP2 MSTORE PUSH1 0x4 ADD PUSH1 0x40 MLOAD DUP1 SWAP2 SUB SWAP1 REVERT JUMPDEST PUSH1 0x0 DUP9 DUP2 MSTORE PUSH1 0x5 PUSH1 0x20 SWAP1 DUP2 MSTORE PUSH1 0x40 DUP1 DUP4 KECCAK256 PUSH1 0x1 PUSH1 0x1 PUSH1 0xA0 SHL SUB DUP12 AND DUP5 MSTORE SWAP1 SWAP2 MSTORE SWAP1 KECCAK256 PUSH1 0x3 DUP2 ADD SLOAD PUSH2 0x100 SWAP1 DIV PUSH1 0xFF AND ISZERO PUSH2 0x163B JUMPI PUSH1 0x40 MLOAD PUSH4 0xC8D9EAB PUSH1 0xE3 SHL DUP2 MSTORE PUSH1 0x4 ADD PUSH1 0x40 MLOAD DUP1 SWAP2 SUB SWAP1 REVERT JUMPDEST PUSH1 0x1 DUP2 ADD SLOAD PUSH1 0x1 PUSH1 0x1 PUSH1 0x80 SHL SUB AND ISZERO PUSH2 0x1667 JUMPI PUSH1 0x40 MLOAD PUSH4 0x6CAABF8F PUSH1 0xE1 SHL DUP2 MSTORE PUSH1 0x4 ADD PUSH1 0x40 MLOAD DUP1 SWAP2 SUB SWAP1 REVERT JUMPDEST PUSH1 0x0 ADDRESS CHAINID DUP12 DUP12 DUP12 DUP12 DUP12 PUSH1 0x40 MLOAD PUSH1 0x20 ADD PUSH2 0x1686 SWAP8 SWAP7 SWAP6 SWAP5 SWAP4 SWAP3 SWAP2 SWAP1 PUSH2 0x26A9 JUMP JUMPDEST PUSH1 0x40 MLOAD PUSH1 0x20 DUP2 DUP4 SUB SUB DUP2 MSTORE SWAP1 PUSH1 0x40 MSTORE DUP1 MLOAD SWAP1 PUSH1 0x20 ADD KECCAK256 SWAP1 POP PUSH2 0x16DF DUP6 DUP6 DUP1 DUP1 PUSH1 0x20 MUL PUSH1 0x20 ADD PUSH1 0x40 MLOAD SWAP1 DUP2 ADD PUSH1 0x40 MSTORE DUP1 SWAP4 SWAP3 SWAP2 SWAP1 DUP2 DUP2 MSTORE PUSH1 0x20 ADD DUP4 DUP4 PUSH1 0x20 MUL DUP1 DUP3 DUP5 CALLDATACOPY PUSH1 0x0 SWAP3 ADD SWAP2 SWAP1 SWAP2 MSTORE POP POP POP POP PUSH1 0x3 DUP6 ADD SLOAD DUP4 PUSH2 0x1F65 JUMP JUMPDEST PUSH2 0x16FC JUMPI PUSH1 0x40 MLOAD PUSH4 0x9BDE339 PUSH1 0xE0 SHL DUP2 MSTORE PUSH1 0x4 ADD PUSH1 0x40 MLOAD DUP1 SWAP2 SUB SWAP1 REVERT JUMPDEST PUSH1 0x0 PUSH2 0x1709 DUP4 DUP11 DUP10 PUSH2 0x1FC7 JUMP JUMPDEST SWAP1 POP DUP1 PUSH1 0x0 SUB PUSH2 0x172C JUMPI PUSH1 0x40 MLOAD PUSH4 0x1557F709 PUSH1 0xE0 SHL DUP2 MSTORE PUSH1 0x4 ADD PUSH1 0x40 MLOAD DUP1 SWAP2 SUB SWAP1 REVERT JUMPDEST PUSH1 0x1 PUSH1 0x1 PUSH1 0x80 SHL SUB DUP2 GT ISZERO PUSH2 0x1754 JUMPI PUSH1 0x40 MLOAD PUSH4 0xC56D46D3 PUSH1 0xE0 SHL DUP2 MSTORE PUSH1 0x4 ADD PUSH1 0x40 MLOAD DUP1 SWAP2 SUB SWAP1 REVERT JUMPDEST PUSH1 0x1 DUP4 ADD DUP1 SLOAD PUSH1 0x1 PUSH1 0x1 PUSH1 0x80 SHL SUB NOT AND PUSH1 0x1 PUSH1 0x1 PUSH1 0x80 SHL SUB DUP4 AND OR SWAP1 SSTORE PUSH2 0x17C5 PUSH32 0x0 PUSH1 0x1 PUSH1 0x1 PUSH1 0xA0 SHL SUB AND PUSH32 0x0 DUP4 PUSH2 0x1F06 JUMP JUMPDEST CALLER PUSH1 0x1 PUSH1 0x1 PUSH1 0xA0 SHL SUB AND DUP11 PUSH1 0x1 PUSH1 0x1 PUSH1 0xA0 SHL SUB AND DUP13 PUSH32 0xF2D8B3E55FC163D23DC20F735EAFA12CAA3F0F65C229D1E0398493935755949D DUP5 PUSH1 0x40 MLOAD PUSH2 0x180B SWAP2 DUP2 MSTORE PUSH1 0x20 ADD SWAP1 JUMP JUMPDEST PUSH1 0x40 MLOAD DUP1 SWAP2 SUB SWAP1 LOG4 POP POP POP POP PUSH2 0x1821 PUSH1 0x1 PUSH1 0x2 SSTORE JUMP JUMPDEST POP POP POP POP POP POP POP JUMP JUMPDEST PUSH32 0x59A1C48E5837AD7A7F3DCEDCBE129BF3249EC4FBF651FD4F5E2600EAD39FE2F5 PUSH2 0x1854 DUP2 PUSH2 0x1D60 JUMP JUMPDEST PUSH1 0x0 DUP3 DUP2 MSTORE PUSH1 0x4 PUSH1 0x20 DUP2 SWAP1 MSTORE PUSH1 0x40 SWAP1 SWAP2 KECCAK256 PUSH1 0x1 DUP2 ADD SLOAD SWAP1 SWAP2 PUSH1 0xFF SWAP1 SWAP2 AND EQ PUSH2 0x188F JUMPI PUSH1 0x40 MLOAD PUSH4 0xC50C9A7F PUSH1 0xE0 SHL DUP2 MSTORE PUSH1 0x4 ADD PUSH1 0x40 MLOAD DUP1 SWAP2 SUB SWAP1 REVERT JUMPDEST PUSH1 0x1 DUP2 ADD DUP1 SLOAD PUSH1 0xFF NOT AND PUSH1 0x5 OR SWAP1 SSTORE PUSH1 0x2 DUP2 ADD SLOAD PUSH1 0x1 PUSH1 0x1 PUSH1 0x80 SHL SUB AND DUP1 ISZERO PUSH2 0x196B JUMPI PUSH2 0x1906 PUSH1 0x1 PUSH1 0x1 PUSH1 0xA0 SHL SUB PUSH32 0x0 AND PUSH32 0x0 DUP4 PUSH2 0x1F06 JUMP JUMPDEST PUSH32 0x0 PUSH1 0x1 PUSH1 0x1 PUSH1 0xA0 SHL SUB AND DUP5 PUSH32 0xE19F21371647F79BB7C3F1E363266315B211FCCA3836E7A71425CC0C4AB6A8E DUP4 PUSH1 0x40 MLOAD PUSH2 0x1962 SWAP2 DUP2 MSTORE PUSH1 0x20 ADD SWAP1 JUMP JUMPDEST PUSH1 0x40 MLOAD DUP1 SWAP2 SUB SWAP1 LOG3 JUMPDEST DUP4 PUSH32 0xE3AE6D591C9A33E364EC2F64A44C0F22B39C7408F4C24B7B6A330CDFF31E63A5 DUP4 PUSH1 0x3 ADD SLOAD DUP5 PUSH1 0x4 ADD SLOAD PUSH1 0x40 MLOAD PUSH2 0x19AE SWAP3 SWAP2 SWAP1 SWAP2 DUP3 MSTORE PUSH1 0x20 DUP3 ADD MSTORE PUSH1 0x40 ADD SWAP1 JUMP JUMPDEST PUSH1 0x40 MLOAD DUP1 SWAP2 SUB SWAP1 LOG2 POP POP POP POP JUMP JUMPDEST PUSH32 0x65D7A28E3265B37A6474929F336521B332C1681B933F6CB9F3376673440D862A PUSH2 0x19E6 DUP2 PUSH2 0x1D60 JUMP JUMPDEST PUSH2 0xBC4 PUSH2 0x206B JUMP JUMPDEST PUSH2 0x19F6 PUSH2 0x200E JUMP JUMPDEST PUSH1 0x0 DUP3 DUP2 MSTORE PUSH1 0x4 PUSH1 0x20 MSTORE PUSH1 0x40 SWAP1 KECCAK256 PUSH1 0x1 DUP2 ADD SLOAD PUSH1 0xFF AND PUSH1 0x3 EQ PUSH2 0x1A2C JUMPI PUSH1 0x40 MLOAD PUSH4 0x3E6881C5 PUSH1 0xE0 SHL DUP2 MSTORE PUSH1 0x4 ADD PUSH1 0x40 MLOAD DUP1 SWAP2 SUB SWAP1 REVERT JUMPDEST PUSH1 0x3 SLOAD PUSH1 0xFF AND ISZERO DUP1 ISZERO PUSH2 0x1A50 JUMPI POP DUP1 SLOAD PUSH1 0x1 PUSH1 0x80 SHL SWAP1 DIV PUSH1 0x1 PUSH1 0x1 PUSH1 0x40 SHL SUB AND TIMESTAMP LT ISZERO JUMPDEST ISZERO PUSH2 0x1A6E JUMPI PUSH1 0x40 MLOAD PUSH4 0xCAE73D45 PUSH1 0xE0 SHL DUP2 MSTORE PUSH1 0x4 ADD PUSH1 0x40 MLOAD DUP1 SWAP2 SUB SWAP1 REVERT JUMPDEST PUSH1 0x0 DUP4 DUP2 MSTORE PUSH1 0x5 PUSH1 0x20 SWAP1 DUP2 MSTORE PUSH1 0x40 DUP1 DUP4 KECCAK256 CALLER DUP5 MSTORE SWAP1 SWAP2 MSTORE SWAP1 KECCAK256 PUSH1 0x2 DUP2 ADD SLOAD PUSH2 0x1AA9 JUMPI PUSH1 0x40 MLOAD PUSH4 0x5E096DAF PUSH1 0xE0 SHL DUP2 MSTORE PUSH1 0x4 ADD PUSH1 0x40 MLOAD DUP1 SWAP2 SUB SWAP1 REVERT JUMPDEST PUSH1 0x3 DUP2 ADD SLOAD PUSH1 0xA PUSH1 0xFF SWAP1 SWAP2 AND LT PUSH2 0x1AD3 JUMPI PUSH1 0x40 MLOAD PUSH4 0xA3869AB7 PUSH1 0xE0 SHL DUP2 MSTORE PUSH1 0x4 ADD PUSH1 0x40 MLOAD DUP1 SWAP2 SUB SWAP1 REVERT JUMPDEST DUP3 PUSH2 0x1AF0 JUMPI PUSH1 0x40 MLOAD PUSH3 0x57C037 PUSH1 0xE5 SHL DUP2 MSTORE PUSH1 0x4 ADD PUSH1 0x40 MLOAD DUP1 SWAP2 SUB SWAP1 REVERT JUMPDEST PUSH1 0x2 DUP2 ADD DUP4 SWAP1 SSTORE PUSH1 0x3 DUP2 ADD DUP1 SLOAD PUSH1 0xFF DUP1 DUP3 AND PUSH1 0x1 ADD AND PUSH1 0xFF NOT SWAP1 SWAP2 AND DUP2 OR SWAP1 SWAP2 SSTORE PUSH1 0x40 DUP1 MLOAD DUP6 DUP2 MSTORE PUSH1 0x20 DUP2 ADD SWAP3 SWAP1 SWAP3 MSTORE CALLER SWAP2 DUP7 SWAP2 PUSH32 0xF13A4DF72601C50DAAFF7EBB4317C336455AC45E70CBA3146DB7FFD8104CB17C SWAP2 ADD PUSH1 0x40 MLOAD DUP1 SWAP2 SUB SWAP1 LOG3 POP POP POP POP JUMP JUMPDEST PUSH1 0x0 SWAP2 DUP3 MSTORE PUSH1 0x20 DUP3 DUP2 MSTORE PUSH1 0x40 DUP1 DUP5 KECCAK256 PUSH1 0x1 PUSH1 0x1 PUSH1 0xA0 SHL SUB SWAP4 SWAP1 SWAP4 AND DUP5 MSTORE SWAP2 SWAP1 MSTORE SWAP1 KECCAK256 SLOAD PUSH1 0xFF AND SWAP1 JUMP JUMPDEST PUSH1 0x0 DUP2 DUP2 MSTORE PUSH1 0x4 PUSH1 0x20 MSTORE PUSH1 0x40 DUP2 KECCAK256 PUSH1 0x1 DUP2 ADD SLOAD PUSH1 0xFF AND PUSH1 0x5 EQ ISZERO DUP1 PUSH2 0x1BB2 JUMPI POP DUP1 SLOAD PUSH1 0x1 PUSH1 0xC0 SHL SWAP1 DIV PUSH1 0x1 PUSH1 0x1 PUSH1 0x40 SHL SUB AND ISZERO JUMPDEST ISZERO PUSH2 0x1BC0 JUMPI POP PUSH1 0x0 SWAP3 SWAP2 POP POP JUMP JUMPDEST DUP1 SLOAD PUSH2 0x1BE0 SWAP1 PUSH3 0xED4E00 SWAP1 PUSH1 0x1 PUSH1 0xC0 SHL SWAP1 DIV PUSH1 0x1 PUSH1 0x1 PUSH1 0x40 SHL SUB AND PUSH2 0x266F JUMP JUMPDEST SWAP4 SWAP3 POP POP POP JUMP JUMPDEST PUSH1 0x0 DUP1 MLOAD PUSH1 0x20 PUSH2 0x27C6 DUP4 CODECOPY DUP2 MLOAD SWAP2 MSTORE PUSH2 0x1BFF DUP2 PUSH2 0x1D60 JUMP JUMPDEST PUSH1 0x0 DUP6 DUP2 MSTORE PUSH1 0x4 PUSH1 0x20 MSTORE PUSH1 0x40 SWAP1 KECCAK256 PUSH1 0x1 DUP2 ADD SLOAD PUSH1 0xFF AND PUSH1 0x3 EQ PUSH2 0x1C35 JUMPI PUSH1 0x40 MLOAD PUSH4 0x3E6881C5 PUSH1 0xE0 SHL DUP2 MSTORE PUSH1 0x4 ADD PUSH1 0x40 MLOAD DUP1 SWAP2 SUB SWAP1 REVERT JUMPDEST DUP5 PUSH2 0x1C53 JUMPI PUSH1 0x40 MLOAD PUSH4 0x9DD854D3 PUSH1 0xE0 SHL DUP2 MSTORE PUSH1 0x4 ADD PUSH1 0x40 MLOAD DUP1 SWAP2 SUB SWAP1 REVERT JUMPDEST PUSH1 0x1 PUSH1 0x1 PUSH1 0x80 SHL SUB DUP4 GT ISZERO PUSH2 0x1C7B JUMPI PUSH1 0x40 MLOAD PUSH4 0xC56D46D3 PUSH1 0xE0 SHL DUP2 MSTORE PUSH1 0x4 ADD PUSH1 0x40 MLOAD DUP1 SWAP2 SUB SWAP1 REVERT JUMPDEST PUSH1 0x1 DUP2 ADD SLOAD PUSH2 0x100 SWAP1 DIV PUSH1 0x1 PUSH1 0x1 PUSH1 0x80 SHL SUB AND DUP4 GT ISZERO PUSH2 0x1CAE JUMPI PUSH1 0x40 MLOAD PUSH4 0x58D620B3 PUSH1 0xE0 SHL DUP2 MSTORE PUSH1 0x4 ADD PUSH1 0x40 MLOAD DUP1 SWAP2 SUB SWAP1 REVERT JUMPDEST PUSH2 0x1069 DUP2 DUP8 DUP8 DUP8 DUP8 PUSH2 0x20A6 JUMP JUMPDEST PUSH1 0x0 DUP3 DUP2 MSTORE PUSH1 0x20 DUP2 SWAP1 MSTORE PUSH1 0x40 SWAP1 KECCAK256 PUSH1 0x1 ADD SLOAD PUSH2 0x1CD6 DUP2 PUSH2 0x1D60 JUMP JUMPDEST PUSH2 0x9A0 DUP4 DUP4 PUSH2 0x1DFC JUMP JUMPDEST PUSH1 0x0 DUP1 MLOAD PUSH1 0x20 PUSH2 0x27C6 DUP4 CODECOPY DUP2 MLOAD SWAP2 MSTORE PUSH2 0x1CF8 DUP2 PUSH2 0x1D60 JUMP JUMPDEST PUSH1 0x0 DUP6 DUP2 MSTORE PUSH1 0x4 PUSH1 0x20 MSTORE PUSH1 0x40 SWAP1 KECCAK256 PUSH1 0x1 DUP2 ADD SLOAD PUSH1 0xFF AND PUSH1 0x3 EQ PUSH2 0x1D2E JUMPI PUSH1 0x40 MLOAD PUSH4 0x3E6881C5 PUSH1 0xE0 SHL DUP2 MSTORE PUSH1 0x4 ADD PUSH1 0x40 MLOAD DUP1 SWAP2 SUB SWAP1 REVERT JUMPDEST DUP1 SLOAD PUSH1 0x1 PUSH1 0x80 SHL SWAP1 DIV PUSH1 0x1 PUSH1 0x1 PUSH1 0x40 SHL SUB AND TIMESTAMP LT ISZERO PUSH2 0x1C35 JUMPI PUSH1 0x40 MLOAD PUSH4 0x7CD705B PUSH1 0xE4 SHL DUP2 MSTORE PUSH1 0x4 ADD PUSH1 0x40 MLOAD DUP1 SWAP2 SUB SWAP1 REVERT JUMPDEST PUSH2 0xBC4 DUP2 CALLER PUSH2 0x214A JUMP JUMPDEST PUSH1 0x0 PUSH2 0x1D76 DUP4 DUP4 PUSH2 0x1B55 JUMP JUMPDEST PUSH2 0x1DF4 JUMPI PUSH1 0x0 DUP4 DUP2 MSTORE PUSH1 0x20 DUP2 DUP2 MSTORE PUSH1 0x40 DUP1 DUP4 KECCAK256 PUSH1 0x1 PUSH1 0x1 PUSH1 0xA0 SHL SUB DUP7 AND DUP5 MSTORE SWAP1 SWAP2 MSTORE SWAP1 KECCAK256 DUP1 SLOAD PUSH1 0xFF NOT AND PUSH1 0x1 OR SWAP1 SSTORE PUSH2 0x1DAC CALLER SWAP1 JUMP JUMPDEST PUSH1 0x1 PUSH1 0x1 PUSH1 0xA0 SHL SUB AND DUP3 PUSH1 0x1 PUSH1 0x1 PUSH1 0xA0 SHL SUB AND DUP5 PUSH32 0x2F8788117E7EFF1D82E926EC794901D17C78024A50270940304540A733656F0D PUSH1 0x40 MLOAD PUSH1 0x40 MLOAD DUP1 SWAP2 SUB SWAP1 LOG4 POP PUSH1 0x1 PUSH2 0x78B JUMP JUMPDEST POP PUSH1 0x0 PUSH2 0x78B JUMP JUMPDEST PUSH1 0x0 PUSH2 0x1E08 DUP4 DUP4 PUSH2 0x1B55 JUMP JUMPDEST ISZERO PUSH2 0x1DF4 JUMPI PUSH1 0x0 DUP4 DUP2 MSTORE PUSH1 0x20 DUP2 DUP2 MSTORE PUSH1 0x40 DUP1 DUP4 KECCAK256 PUSH1 0x1 PUSH1 0x1 PUSH1 0xA0 SHL SUB DUP7 AND DUP1 DUP6 MSTORE SWAP3 MSTORE DUP1 DUP4 KECCAK256 DUP1 SLOAD PUSH1 0xFF NOT AND SWAP1 SSTORE MLOAD CALLER SWAP3 DUP7 SWAP2 PUSH32 0xF6391F5C32D9C69D2A47EA670B442974B53935D1EDC7FD64EB21E047A839171B SWAP2 SWAP1 LOG4 POP PUSH1 0x1 PUSH2 0x78B JUMP JUMPDEST PUSH2 0x1E6F PUSH2 0x1EB9 JUMP JUMPDEST PUSH1 0x1 DUP1 SLOAD PUSH1 0xFF NOT AND SWAP1 SSTORE PUSH32 0x5DB9EE0A495BF2E6FF9C91A7834C1BA4FDD244A5E8AA4E537BD38AEAE4B073AA CALLER JUMPDEST PUSH1 0x40 MLOAD PUSH1 0x1 PUSH1 0x1 PUSH1 0xA0 SHL SUB SWAP1 SWAP2 AND DUP2 MSTORE PUSH1 0x20 ADD PUSH1 0x40 MLOAD DUP1 SWAP2 SUB SWAP1 LOG1 JUMP JUMPDEST PUSH1 0x1 SLOAD PUSH1 0xFF AND PUSH2 0x1EDC JUMPI PUSH1 0x40 MLOAD PUSH4 0x8DFC202B PUSH1 0xE0 SHL DUP2 MSTORE PUSH1 0x4 ADD PUSH1 0x40 MLOAD DUP1 SWAP2 SUB SWAP1 REVERT JUMPDEST JUMP JUMPDEST PUSH1 0x2 DUP1 SLOAD SUB PUSH2 0x1F00 JUMPI PUSH1 0x40 MLOAD PUSH4 0x3EE5AEB5 PUSH1 0xE0 SHL DUP2 MSTORE PUSH1 0x4 ADD PUSH1 0x40 MLOAD DUP1 SWAP2 SUB SWAP1 REVERT JUMPDEST PUSH1 0x2 DUP1 SSTORE JUMP JUMPDEST PUSH1 0x40 MLOAD PUSH1 0x1 PUSH1 0x1 PUSH1 0xA0 SHL SUB DUP4 DUP2 AND PUSH1 0x24 DUP4 ADD MSTORE PUSH1 0x44 DUP3 ADD DUP4 SWAP1 MSTORE PUSH2 0xA52 SWAP2 DUP6 SWAP2 DUP3 AND SWAP1 PUSH4 0xA9059CBB SWAP1 PUSH1 0x64 ADD JUMPDEST PUSH1 0x40 MLOAD PUSH1 0x20 DUP2 DUP4 SUB SUB DUP2 MSTORE SWAP1 PUSH1 0x40 MSTORE SWAP2 POP PUSH1 0xE0 SHL PUSH1 0x20 DUP3 ADD DUP1 MLOAD PUSH1 0x1 PUSH1 0x1 PUSH1 0xE0 SHL SUB DUP4 DUP2 DUP4 AND OR DUP4 MSTORE POP POP POP POP PUSH2 0x218C JUMP JUMPDEST PUSH1 0x0 DUP3 PUSH2 0x1F72 DUP6 DUP5 PUSH2 0x21EF JUMP JUMPDEST EQ SWAP5 SWAP4 POP POP POP POP JUMP JUMPDEST DUP1 SLOAD PUSH1 0x0 SWAP1 PUSH1 0x1 PUSH1 0xC0 SHL SWAP1 DIV PUSH1 0x1 PUSH1 0x1 PUSH1 0x40 SHL SUB AND DUP2 SUB PUSH2 0x1F9E JUMPI POP PUSH1 0x0 SWAP2 SWAP1 POP JUMP JUMPDEST DUP2 SLOAD PUSH2 0x1FBE SWAP1 PUSH3 0xED4E00 SWAP1 PUSH1 0x1 PUSH1 0xC0 SHL SWAP1 DIV PUSH1 0x1 PUSH1 0x1 PUSH1 0x40 SHL SUB AND PUSH2 0x266F JUMP JUMPDEST TIMESTAMP LT ISZERO SWAP3 SWAP2 POP POP JUMP JUMPDEST DUP3 SLOAD PUSH1 0x0 SWAP1 DUP2 SWAP1 PUSH2 0x1FE8 SWAP1 PUSH1 0x1 PUSH1 0x80 SHL SWAP1 DIV PUSH1 0x1 PUSH1 0x1 PUSH1 0x80 SHL SUB AND DUP6 PUSH2 0x266F JUMP JUMPDEST SWAP1 POP DUP1 DUP4 GT PUSH2 0x1FFB JUMPI PUSH1 0x0 SWAP2 POP POP PUSH2 0x1BE0 JUMP JUMPDEST PUSH2 0x2005 DUP2 DUP5 PUSH2 0x26F7 JUMP JUMPDEST SWAP6 SWAP5 POP POP POP POP POP JUMP JUMPDEST PUSH1 0x1 SLOAD PUSH1 0xFF AND ISZERO PUSH2 0x1EDC JUMPI PUSH1 0x40 MLOAD PUSH4 0xD93C0665 PUSH1 0xE0 SHL DUP2 MSTORE PUSH1 0x4 ADD PUSH1 0x40 MLOAD DUP1 SWAP2 SUB SWAP1 REVERT JUMPDEST PUSH1 0x40 MLOAD PUSH1 0x1 PUSH1 0x1 PUSH1 0xA0 SHL SUB DUP5 DUP2 AND PUSH1 0x24 DUP4 ADD MSTORE DUP4 DUP2 AND PUSH1 0x44 DUP4 ADD MSTORE PUSH1 0x64 DUP3 ADD DUP4 SWAP1 MSTORE PUSH2 0x9A0 SWAP2 DUP7 SWAP2 DUP3 AND SWAP1 PUSH4 0x23B872DD SWAP1 PUSH1 0x84 ADD PUSH2 0x1F33 JUMP JUMPDEST PUSH2 0x2073 PUSH2 0x200E JUMP JUMPDEST PUSH1 0x1 DUP1 SLOAD PUSH1 0xFF NOT AND DUP2 OR SWAP1 SSTORE PUSH32 0x62E78CEA01BEE320CD4E420270B5EA74000D11B0C9F74754EBDBFC544B05A258 CALLER PUSH2 0x1E9C JUMP JUMPDEST PUSH1 0x1 DUP6 ADD DUP1 SLOAD PUSH1 0x4 PUSH1 0xFF NOT SWAP1 SWAP2 AND DUP2 OR SWAP1 SWAP2 SSTORE DUP6 SLOAD PUSH1 0x1 PUSH1 0x1 PUSH1 0xC0 SHL SUB AND PUSH1 0x1 PUSH1 0xC0 SHL TIMESTAMP PUSH1 0x1 PUSH1 0x1 PUSH1 0x40 SHL SUB AND MUL OR DUP7 SSTORE PUSH1 0x2 DUP7 ADD DUP1 SLOAD PUSH1 0x1 PUSH1 0x1 PUSH1 0x80 SHL SUB NOT AND PUSH1 0x1 PUSH1 0x1 PUSH1 0x80 SHL SUB DUP5 AND OR SWAP1 SSTORE PUSH1 0x3 DUP7 ADD DUP5 SWAP1 SSTORE DUP6 ADD DUP3 SWAP1 SSTORE PUSH1 0x40 DUP1 MLOAD DUP5 DUP2 MSTORE PUSH1 0x20 DUP2 ADD DUP5 SWAP1 MSTORE DUP1 DUP3 ADD DUP4 SWAP1 MSTORE SWAP1 MLOAD DUP6 SWAP2 PUSH32 0x6FAA1C6974B01D1466668718128C05788426C37FD3F11667F2CF4BC79A7CB7D6 SWAP2 SWAP1 DUP2 SWAP1 SUB PUSH1 0x60 ADD SWAP1 LOG2 POP POP POP POP POP JUMP JUMPDEST PUSH2 0x2154 DUP3 DUP3 PUSH2 0x1B55 JUMP JUMPDEST PUSH2 0x2188 JUMPI PUSH1 0x40 MLOAD PUSH4 0xE2517D3F PUSH1 0xE0 SHL DUP2 MSTORE PUSH1 0x1 PUSH1 0x1 PUSH1 0xA0 SHL SUB DUP3 AND PUSH1 0x4 DUP3 ADD MSTORE PUSH1 0x24 DUP2 ADD DUP4 SWAP1 MSTORE PUSH1 0x44 ADD JUMPDEST PUSH1 0x40 MLOAD DUP1 SWAP2 SUB SWAP1 REVERT JUMPDEST POP POP JUMP JUMPDEST PUSH1 0x0 PUSH2 0x21A1 PUSH1 0x1 PUSH1 0x1 PUSH1 0xA0 SHL SUB DUP5 AND DUP4 PUSH2 0x2232 JUMP JUMPDEST SWAP1 POP DUP1 MLOAD PUSH1 0x0 EQ ISZERO DUP1 ISZERO PUSH2 0x21C6 JUMPI POP DUP1 DUP1 PUSH1 0x20 ADD SWAP1 MLOAD DUP2 ADD SWAP1 PUSH2 0x21C4 SWAP2 SWAP1 PUSH2 0x2763 JUMP JUMPDEST ISZERO JUMPDEST ISZERO PUSH2 0xA52 JUMPI PUSH1 0x40 MLOAD PUSH4 0x5274AFE7 PUSH1 0xE0 SHL DUP2 MSTORE PUSH1 0x1 PUSH1 0x1 PUSH1 0xA0 SHL SUB DUP5 AND PUSH1 0x4 DUP3 ADD MSTORE PUSH1 0x24 ADD PUSH2 0x217F JUMP JUMPDEST PUSH1 0x0 DUP2 DUP2 JUMPDEST DUP5 MLOAD DUP2 LT ISZERO PUSH2 0x222A JUMPI PUSH2 0x2220 DUP3 DUP7 DUP4 DUP2 MLOAD DUP2 LT PUSH2 0x2213 JUMPI PUSH2 0x2213 PUSH2 0x2780 JUMP JUMPDEST PUSH1 0x20 MUL PUSH1 0x20 ADD ADD MLOAD PUSH2 0x2240 JUMP JUMPDEST SWAP2 POP PUSH1 0x1 ADD PUSH2 0x21F4 JUMP JUMPDEST POP SWAP4 SWAP3 POP POP POP JUMP JUMPDEST PUSH1 0x60 PUSH2 0x1BE0 DUP4 DUP4 PUSH1 0x0 PUSH2 0x226F JUMP JUMPDEST PUSH1 0x0 DUP2 DUP4 LT PUSH2 0x225C JUMPI PUSH1 0x0 DUP3 DUP2 MSTORE PUSH1 0x20 DUP5 SWAP1 MSTORE PUSH1 0x40 SWAP1 KECCAK256 PUSH2 0x1BE0 JUMP JUMPDEST PUSH1 0x0 DUP4 DUP2 MSTORE PUSH1 0x20 DUP4 SWAP1 MSTORE PUSH1 0x40 SWAP1 KECCAK256 PUSH2 0x1BE0 JUMP JUMPDEST PUSH1 0x60 DUP2 SELFBALANCE LT ISZERO PUSH2 0x2294 JUMPI PUSH1 0x40 MLOAD PUSH4 0xCD786059 PUSH1 0xE0 SHL DUP2 MSTORE ADDRESS PUSH1 0x4 DUP3 ADD MSTORE PUSH1 0x24 ADD PUSH2 0x217F JUMP JUMPDEST PUSH1 0x0 DUP1 DUP6 PUSH1 0x1 PUSH1 0x1 PUSH1 0xA0 SHL SUB AND DUP5 DUP7 PUSH1 0x40 MLOAD PUSH2 0x22B0 SWAP2 SWAP1 PUSH2 0x2796 JUMP JUMPDEST PUSH1 0x0 PUSH1 0x40 MLOAD DUP1 DUP4 SUB DUP2 DUP6 DUP8 GAS CALL SWAP3 POP POP POP RETURNDATASIZE DUP1 PUSH1 0x0 DUP2 EQ PUSH2 0x22ED JUMPI PUSH1 0x40 MLOAD SWAP2 POP PUSH1 0x1F NOT PUSH1 0x3F RETURNDATASIZE ADD AND DUP3 ADD PUSH1 0x40 MSTORE RETURNDATASIZE DUP3 MSTORE RETURNDATASIZE PUSH1 0x0 PUSH1 0x20 DUP5 ADD RETURNDATACOPY PUSH2 0x22F2 JUMP JUMPDEST PUSH1 0x60 SWAP2 POP JUMPDEST POP SWAP2 POP SWAP2 POP PUSH2 0x2302 DUP7 DUP4 DUP4 PUSH2 0x230C JUMP JUMPDEST SWAP7 SWAP6 POP POP POP POP POP POP JUMP JUMPDEST PUSH1 0x60 DUP3 PUSH2 0x2321 JUMPI PUSH2 0x231C DUP3 PUSH2 0x2368 JUMP JUMPDEST PUSH2 0x1BE0 JUMP JUMPDEST DUP2 MLOAD ISZERO DUP1 ISZERO PUSH2 0x2338 JUMPI POP PUSH1 0x1 PUSH1 0x1 PUSH1 0xA0 SHL SUB DUP5 AND EXTCODESIZE ISZERO JUMPDEST ISZERO PUSH2 0x2361 JUMPI PUSH1 0x40 MLOAD PUSH4 0x9996B315 PUSH1 0xE0 SHL DUP2 MSTORE PUSH1 0x1 PUSH1 0x1 PUSH1 0xA0 SHL SUB DUP6 AND PUSH1 0x4 DUP3 ADD MSTORE PUSH1 0x24 ADD PUSH2 0x217F JUMP JUMPDEST POP DUP1 PUSH2 0x1BE0 JUMP JUMPDEST DUP1 MLOAD ISZERO PUSH2 0x2378 JUMPI DUP1 MLOAD DUP1 DUP3 PUSH1 0x20 ADD REVERT JUMPDEST PUSH1 0x40 MLOAD PUSH4 0xA12F521 PUSH1 0xE1 SHL DUP2 MSTORE PUSH1 0x4 ADD PUSH1 0x40 MLOAD DUP1 SWAP2 SUB SWAP1 REVERT JUMPDEST PUSH1 0x0 PUSH1 0x20 DUP3 DUP5 SUB SLT ISZERO PUSH2 0x23A3 JUMPI PUSH1 0x0 DUP1 REVERT JUMPDEST DUP2 CALLDATALOAD PUSH1 0x1 PUSH1 0x1 PUSH1 0xE0 SHL SUB NOT DUP2 AND DUP2 EQ PUSH2 0x1BE0 JUMPI PUSH1 0x0 DUP1 REVERT JUMPDEST PUSH1 0x0 PUSH1 0x20 DUP3 DUP5 SUB SLT ISZERO PUSH2 0x23CD JUMPI PUSH1 0x0 DUP1 REVERT JUMPDEST POP CALLDATALOAD SWAP2 SWAP1 POP JUMP JUMPDEST DUP1 ISZERO ISZERO DUP2 EQ PUSH2 0xBC4 JUMPI PUSH1 0x0 DUP1 REVERT JUMPDEST PUSH1 0x0 PUSH1 0x20 DUP3 DUP5 SUB SLT ISZERO PUSH2 0x23F4 JUMPI PUSH1 0x0 DUP1 REVERT JUMPDEST DUP2 CALLDATALOAD PUSH2 0x1BE0 DUP2 PUSH2 0x23D4 JUMP JUMPDEST DUP1 CALLDATALOAD PUSH1 0x1 PUSH1 0x1 PUSH1 0xA0 SHL SUB DUP2 AND DUP2 EQ PUSH2 0x2416 JUMPI PUSH1 0x0 DUP1 REVERT JUMPDEST SWAP2 SWAP1 POP JUMP JUMPDEST PUSH1 0x0 DUP1 PUSH1 0x40 DUP4 DUP6 SUB SLT ISZERO PUSH2 0x242E JUMPI PUSH1 0x0 DUP1 REVERT JUMPDEST DUP3 CALLDATALOAD SWAP2 POP PUSH2 0x243E PUSH1 0x20 DUP5 ADD PUSH2 0x23FF JUMP JUMPDEST SWAP1 POP SWAP3 POP SWAP3 SWAP1 POP JUMP JUMPDEST DUP1 CALLDATALOAD PUSH1 0x1 PUSH1 0x1 PUSH1 0x40 SHL SUB DUP2 AND DUP2 EQ PUSH2 0x2416 JUMPI PUSH1 0x0 DUP1 REVERT JUMPDEST PUSH1 0x0 DUP1 PUSH1 0x0 DUP1 PUSH1 0x80 DUP6 DUP8 SUB SLT ISZERO PUSH2 0x2474 JUMPI PUSH1 0x0 DUP1 REVERT JUMPDEST DUP5 CALLDATALOAD SWAP4 POP PUSH2 0x2484 PUSH1 0x20 DUP7 ADD PUSH2 0x2447 JUMP JUMPDEST SWAP3 POP PUSH2 0x2492 PUSH1 0x40 DUP7 ADD PUSH2 0x2447 JUMP JUMPDEST SWAP2 POP PUSH2 0x24A0 PUSH1 0x60 DUP7 ADD PUSH2 0x2447 JUMP JUMPDEST SWAP1 POP SWAP3 SWAP6 SWAP2 SWAP5 POP SWAP3 POP JUMP JUMPDEST PUSH1 0x0 DUP1 DUP4 PUSH1 0x1F DUP5 ADD SLT PUSH2 0x24BD JUMPI PUSH1 0x0 DUP1 REVERT JUMPDEST POP DUP2 CALLDATALOAD PUSH1 0x1 PUSH1 0x1 PUSH1 0x40 SHL SUB DUP2 GT ISZERO PUSH2 0x24D4 JUMPI PUSH1 0x0 DUP1 REVERT JUMPDEST PUSH1 0x20 DUP4 ADD SWAP2 POP DUP4 PUSH1 0x20 DUP3 PUSH1 0x5 SHL DUP6 ADD ADD GT ISZERO PUSH2 0x24EF JUMPI PUSH1 0x0 DUP1 REVERT JUMPDEST SWAP3 POP SWAP3 SWAP1 POP JUMP JUMPDEST PUSH1 0x0 DUP1 PUSH1 0x0 DUP1 PUSH1 0x0 DUP1 PUSH1 0xA0 DUP8 DUP10 SUB SLT ISZERO PUSH2 0x250F JUMPI PUSH1 0x0 DUP1 REVERT JUMPDEST DUP7 CALLDATALOAD SWAP6 POP PUSH1 0x20 DUP8 ADD CALLDATALOAD SWAP5 POP PUSH1 0x40 DUP8 ADD CALLDATALOAD SWAP4 POP PUSH1 0x60 DUP8 ADD CALLDATALOAD SWAP3 POP PUSH1 0x80 DUP8 ADD CALLDATALOAD PUSH1 0x1 PUSH1 0x1 PUSH1 0x40 SHL SUB DUP2 GT ISZERO PUSH2 0x2541 JUMPI PUSH1 0x0 DUP1 REVERT JUMPDEST PUSH2 0x254D DUP10 DUP3 DUP11 ADD PUSH2 0x24AB JUMP JUMPDEST SWAP8 SWAP11 SWAP7 SWAP10 POP SWAP5 SWAP8 POP SWAP3 SWAP6 SWAP4 SWAP5 SWAP3 POP POP POP JUMP JUMPDEST PUSH1 0x0 DUP1 PUSH1 0x0 PUSH1 0x60 DUP5 DUP7 SUB SLT ISZERO PUSH2 0x2574 JUMPI PUSH1 0x0 DUP1 REVERT JUMPDEST POP POP DUP2 CALLDATALOAD SWAP4 PUSH1 0x20 DUP4 ADD CALLDATALOAD SWAP4 POP PUSH1 0x40 SWAP1 SWAP3 ADD CALLDATALOAD SWAP2 SWAP1 POP JUMP JUMPDEST PUSH1 0x0 DUP1 PUSH1 0x0 DUP1 PUSH1 0x0 DUP1 PUSH1 0x0 PUSH1 0xC0 DUP9 DUP11 SUB SLT ISZERO PUSH2 0x25A6 JUMPI PUSH1 0x0 DUP1 REVERT JUMPDEST DUP8 CALLDATALOAD SWAP7 POP PUSH2 0x25B6 PUSH1 0x20 DUP10 ADD PUSH2 0x23FF JUMP JUMPDEST SWAP6 POP PUSH1 0x40 DUP9 ADD CALLDATALOAD SWAP5 POP PUSH1 0x60 DUP9 ADD CALLDATALOAD SWAP4 POP PUSH1 0x80 DUP9 ADD CALLDATALOAD SWAP3 POP PUSH1 0xA0 DUP9 ADD CALLDATALOAD PUSH1 0x1 PUSH1 0x1 PUSH1 0x40 SHL SUB DUP2 GT ISZERO PUSH2 0x25E6 JUMPI PUSH1 0x0 DUP1 REVERT JUMPDEST PUSH2 0x25F2 DUP11 DUP3 DUP12 ADD PUSH2 0x24AB JUMP JUMPDEST SWAP9 SWAP12 SWAP8 SWAP11 POP SWAP6 SWAP9 POP SWAP4 SWAP7 SWAP3 SWAP6 SWAP3 SWAP4 POP POP POP JUMP JUMPDEST PUSH1 0x0 DUP1 PUSH1 0x40 DUP4 DUP6 SUB SLT ISZERO PUSH2 0x2618 JUMPI PUSH1 0x0 DUP1 REVERT JUMPDEST POP POP DUP1 CALLDATALOAD SWAP3 PUSH1 0x20 SWAP1 SWAP2 ADD CALLDATALOAD SWAP2 POP JUMP JUMPDEST PUSH1 0x0 DUP1 PUSH1 0x0 DUP1 PUSH1 0x80 DUP6 DUP8 SUB SLT ISZERO PUSH2 0x263D JUMPI PUSH1 0x0 DUP1 REVERT JUMPDEST POP POP DUP3 CALLDATALOAD SWAP5 PUSH1 0x20 DUP5 ADD CALLDATALOAD SWAP5 POP PUSH1 0x40 DUP5 ADD CALLDATALOAD SWAP4 PUSH1 0x60 ADD CALLDATALOAD SWAP3 POP SWAP1 POP JUMP JUMPDEST PUSH4 0x4E487B71 PUSH1 0xE0 SHL PUSH1 0x0 MSTORE PUSH1 0x11 PUSH1 0x4 MSTORE PUSH1 0x24 PUSH1 0x0 REVERT JUMPDEST DUP1 DUP3 ADD DUP1 DUP3 GT ISZERO PUSH2 0x78B JUMPI PUSH2 0x78B PUSH2 0x2659 JUMP JUMPDEST PUSH1 0x1 PUSH1 0x1 PUSH1 0x80 SHL SUB DUP3 DUP2 AND DUP3 DUP3 AND SUB SWAP1 DUP1 DUP3 GT ISZERO PUSH2 0x26A2 JUMPI PUSH2 0x26A2 PUSH2 0x2659 JUMP JUMPDEST POP SWAP3 SWAP2 POP POP JUMP JUMPDEST PUSH12 0xFFFFFFFFFFFFFFFFFFFFFFFF NOT PUSH1 0x60 SWAP9 DUP10 SHL DUP2 AND DUP3 MSTORE PUSH1 0x14 DUP3 ADD SWAP8 SWAP1 SWAP8 MSTORE PUSH1 0x34 DUP2 ADD SWAP6 SWAP1 SWAP6 MSTORE SWAP3 SWAP1 SWAP6 SHL SWAP1 SWAP4 AND PUSH1 0x54 DUP4 ADD MSTORE PUSH1 0x68 DUP3 ADD SWAP3 SWAP1 SWAP3 MSTORE PUSH1 0x88 DUP2 ADD SWAP3 SWAP1 SWAP3 MSTORE PUSH1 0xA8 DUP3 ADD MSTORE PUSH1 0xC8 ADD SWAP1 JUMP JUMPDEST DUP2 DUP2 SUB DUP2 DUP2 GT ISZERO PUSH2 0x78B JUMPI PUSH2 0x78B PUSH2 0x2659 JUMP JUMPDEST DUP1 DUP3 MUL DUP2 ISZERO DUP3 DUP3 DIV DUP5 EQ OR PUSH2 0x78B JUMPI PUSH2 0x78B PUSH2 0x2659 JUMP JUMPDEST PUSH1 0x0 DUP3 PUSH2 0x273E JUMPI PUSH4 0x4E487B71 PUSH1 0xE0 SHL PUSH1 0x0 MSTORE PUSH1 0x12 PUSH1 0x4 MSTORE PUSH1 0x24 PUSH1 0x0 REVERT JUMPDEST POP DIV SWAP1 JUMP JUMPDEST PUSH1 0x1 PUSH1 0x1 PUSH1 0x80 SHL SUB DUP2 DUP2 AND DUP4 DUP3 AND ADD SWAP1 DUP1 DUP3 GT ISZERO PUSH2 0x26A2 JUMPI PUSH2 0x26A2 PUSH2 0x2659 JUMP JUMPDEST PUSH1 0x0 PUSH1 0x20 DUP3 DUP5 SUB SLT ISZERO PUSH2 0x2775 JUMPI PUSH1 0x0 DUP1 REVERT JUMPDEST DUP2 MLOAD PUSH2 0x1BE0 DUP2 PUSH2 0x23D4 JUMP JUMPDEST PUSH4 0x4E487B71 PUSH1 0xE0 SHL PUSH1 0x0 MSTORE PUSH1 0x32 PUSH1 0x4 MSTORE PUSH1 0x24 PUSH1 0x0 REVERT JUMPDEST PUSH1 0x0 DUP3 MLOAD PUSH1 0x0 JUMPDEST DUP2 DUP2 LT ISZERO PUSH2 0x27B7 JUMPI PUSH1 0x20 DUP2 DUP7 ADD DUP2 ADD MLOAD DUP6 DUP4 ADD MSTORE ADD PUSH2 0x279D JUMP JUMPDEST POP PUSH1 0x0 SWAP3 ADD SWAP2 DUP3 MSTORE POP SWAP2 SWAP1 POP JUMP INVALID PUSH9 0xE79A7BF1E0BC45D0A3 ADDRESS 0xC5 PUSH20 0xBC367F9CF464FD326078812F301165FBDA4EF1A2 PUSH5 0x6970667358 0x22 SLT KECCAK256 0x25 ADDMOD 0x2B 0xB7 PUSH5 0x17601CFC35 0xB4 PUSH24 0xFBECC81CC0F3F3663684C47D123FE4408D19C0F364736F6C PUSH4 0x43000818 STOP CALLER "},"methodIdentifiers":{"AUDITOR_ROLE()":"6e1d616e","BPS()":"249d39e9","DEFAULT_ADMIN_ROLE()":"a217fddf","MAX_SWAPS()":"06276121","ORACLE_ROLE()":"07e2cea5","PAUSER_ROLE()":"e63ab1e9","REWARD_SWEEP_DELAY()":"dda062d4","approveFinalization(uint256)":"8197eba8","claim(uint256,uint256,uint256,uint256,bytes32[])":"5463c3e8","commitLineup(uint256,bytes32,uint256)":"686c3db4","createWeek(uint256,uint64,uint64,uint64)":"36cb2920","emergencyExit(uint256)":"4231b0bd","feeBps()":"24a9d853","finalizeWeek(uint256,bytes32,bytes32,uint256)":"e81248d2","forceFinalizeWeek(uint256,bytes32,bytes32,uint256)":"c839d8dc","forceLockWeek(uint256)":"161d263e","forceStartWeek(uint256)":"1cd249e6","getRoleAdmin(bytes32)":"248a9ca3","grantRole(bytes32,address)":"2f2ff15d","hasRole(bytes32,address)":"91d14854","lockWeek(uint256)":"24891c55","minDeposit()":"41b3d185","pause()":"8456cb59","paused()":"5c975abb","positions(uint256,address)":"e684d718","principalRatioBps()":"421e3cd6","rejectFinalization(uint256)":"601ee229","renounceRole(bytes32,address)":"36568abe","revokeRole(bytes32,address)":"d547741f","rewardSweepAvailableAt(uint256)":"b692d265","setTestMode(bool)":"1ff1292f","stablecoin()":"e9cbd822","startWeek(uint256)":"3145c3cd","supportsInterface(bytes4)":"01ffc9a7","swapLineup(uint256,bytes32)":"8cd3b5e8","sweepExpiredReward(uint256,address,uint256,uint256,uint256,bytes32[])":"6e4322e5","testMode()":"cd9ea342","treasury()":"61d027b3","unpause()":"3f4ba83a","weekStates(uint256)":"316a65e5"}}}}}