{"contracts/ValcoreReactiveReceiver.sol":{"ValcoreReactiveReceiver":{"abi":[{"inputs":[{"internalType":"address","name":"callbackProxyAddress","type":"address"},{"internalType":"address","name":"valcoreAddress","type":"address"},{"internalType":"address","name":"initialReactiveSender","type":"address"}],"stateMutability":"payable","type":"constructor"},{"inputs":[],"name":"InvalidAddress","type":"error"},{"inputs":[],"name":"UnauthorizedReactiveSender","type":"error"},{"inputs":[],"name":"UnauthorizedSender","type":"error"},{"anonymous":false,"inputs":[{"indexed":true,"internalType":"address","name":"previousOwner","type":"address"},{"indexed":true,"internalType":"address","name":"newOwner","type":"address"}],"name":"OwnershipTransferred","type":"event"},{"anonymous":false,"inputs":[{"indexed":true,"internalType":"bytes32","name":"intentId","type":"bytes32"},{"indexed":true,"internalType":"uint8","name":"action","type":"uint8"},{"indexed":true,"internalType":"uint256","name":"weekId","type":"uint256"}],"name":"ReactiveLifecycleExecuted","type":"event"},{"anonymous":false,"inputs":[{"indexed":true,"internalType":"address","name":"previousSender","type":"address"},{"indexed":true,"internalType":"address","name":"newSender","type":"address"}],"name":"ReactiveSenderUpdated","type":"event"},{"inputs":[],"name":"callbackProxy","outputs":[{"internalType":"contract IPayable","name":"","type":"address"}],"stateMutability":"view","type":"function"},{"inputs":[],"name":"coverDebt","outputs":[],"stateMutability":"nonpayable","type":"function"},{"inputs":[],"name":"owner","outputs":[{"internalType":"address","name":"","type":"address"}],"stateMutability":"view","type":"function"},{"inputs":[{"internalType":"uint256","name":"amount","type":"uint256"}],"name":"pay","outputs":[],"stateMutability":"nonpayable","type":"function"},{"inputs":[],"name":"reactiveSender","outputs":[{"internalType":"address","name":"","type":"address"}],"stateMutability":"view","type":"function"},{"inputs":[{"internalType":"address","name":"sender","type":"address"},{"internalType":"bytes32","name":"intentId","type":"bytes32"},{"internalType":"uint256","name":"weekId","type":"uint256"}],"name":"rxApprove","outputs":[],"stateMutability":"nonpayable","type":"function"},{"inputs":[{"internalType":"address","name":"sender","type":"address"},{"internalType":"bytes32","name":"intentId","type":"bytes32"},{"internalType":"uint256","name":"weekId","type":"uint256"},{"internalType":"uint64","name":"startAt","type":"uint64"},{"internalType":"uint64","name":"lockAt","type":"uint64"},{"internalType":"uint64","name":"endAt","type":"uint64"}],"name":"rxCreateWeek","outputs":[],"stateMutability":"nonpayable","type":"function"},{"inputs":[{"internalType":"address","name":"sender","type":"address"},{"internalType":"bytes32","name":"intentId","type":"bytes32"},{"internalType":"uint256","name":"weekId","type":"uint256"},{"internalType":"bytes32","name":"merkleRoot","type":"bytes32"},{"internalType":"bytes32","name":"metadataHash","type":"bytes32"},{"internalType":"uint256","name":"retainedFee","type":"uint256"},{"internalType":"bool","name":"useForce","type":"bool"}],"name":"rxFinalize","outputs":[],"stateMutability":"nonpayable","type":"function"},{"inputs":[{"internalType":"address","name":"sender","type":"address"},{"internalType":"bytes32","name":"intentId","type":"bytes32"},{"internalType":"uint256","name":"weekId","type":"uint256"}],"name":"rxReject","outputs":[],"stateMutability":"nonpayable","type":"function"},{"inputs":[{"internalType":"address","name":"sender","type":"address"},{"internalType":"bytes32","name":"intentId","type":"bytes32"},{"internalType":"uint8","name":"action","type":"uint8"},{"internalType":"uint256","name":"weekId","type":"uint256"},{"internalType":"bool","name":"useForce","type":"bool"}],"name":"rxTransition","outputs":[],"stateMutability":"nonpayable","type":"function"},{"inputs":[{"internalType":"address","name":"newReactiveSender","type":"address"}],"name":"setReactiveSender","outputs":[],"stateMutability":"nonpayable","type":"function"},{"inputs":[{"internalType":"address","name":"newOwner","type":"address"}],"name":"transferOwnership","outputs":[],"stateMutability":"nonpayable","type":"function"},{"inputs":[],"name":"valcore","outputs":[{"internalType":"contract IValcoreLifecycle","name":"","type":"address"}],"stateMutability":"view","type":"function"},{"stateMutability":"payable","type":"receive"}],"evm":{"bytecode":{"linkReferences":{},"object":"60c060405260405161121238038061121283398101604081905261002291610132565b6001600160a01b038316158061003f57506001600160a01b038216155b1561005d5760405163e6c4247b60e01b815260040160405180910390fd5b6001600160a01b0383811660a081905283821660805260008054336001600160a01b0319918216811783556001805490921694861694909417815591815260026020526040808220805460ff191690931790925590517f8be0079c531659141344cd1fd0a4f28419497f9722a3daafe3b4186f6b6457e0908290a36040516001600160a01b038216906000907f53daf07ee0d544a6f1351b3ffd1ae53c39ab35c7dbe66d472bf8ecfb1036c9cf908290a3505050610175565b80516001600160a01b038116811461012d57600080fd5b919050565b60008060006060848603121561014757600080fd5b61015084610116565b925061015e60208501610116565b915061016c60408501610116565b90509250925092565b60805160a05161102c6101e66000396000818160e40152818161071001526107d4015260008181610196015281816103e10152818161050b01528181610592015281816105f80152818161064c0152818161091b01528181610a5301528181610c190152610cb4015261102c6000f3fe6080604052600436106100c65760003560e01c80638da5cb5b1161007f578063be0fa6d411610059578063be0fa6d41461022d578063c290d6911461024d578063c8a126511461026d578063f2fde38b1461028d57600080fd5b80638da5cb5b146101cd57806395e09b01146101ed578063a502e62d1461020d57600080fd5b80634cebc7da146100d257806356f20512146101225780635d73d02a14610144578063668b3a4a1461016457806376351266146101845780637a90b990146101b857600080fd5b366100cd57005b600080fd5b3480156100de57600080fd5b506101067f000000000000000000000000000000000000000000000000000000000000000081565b6040516001600160a01b03909116815260200160405180910390f35b34801561012e57600080fd5b5061014261013d366004610dff565b6102ad565b005b34801561015057600080fd5b5061014261015f366004610e21565b610351565b34801561017057600080fd5b5061014261017f366004610e64565b610469565b34801561019057600080fd5b506101067f000000000000000000000000000000000000000000000000000000000000000081565b3480156101c457600080fd5b506101426106f8565b3480156101d957600080fd5b50600054610106906001600160a01b031681565b3480156101f957600080fd5b50600154610106906001600160a01b031681565b34801561021957600080fd5b50610142610228366004610e21565b61088b565b34801561023957600080fd5b50610142610248366004610edb565b6109a3565b34801561025957600080fd5b50610142610268366004610f41565b610ade565b34801561027957600080fd5b50610142610288366004610f5a565b610b6e565b34801561029957600080fd5b506101426102a8366004610dff565b610d41565b6000546001600160a01b031633146102d857604051630101292160e31b815260040160405180910390fd5b6001600160a01b0381166102ff5760405163e6c4247b60e01b815260040160405180910390fd5b600180546001600160a01b038381166001600160a01b0319831681179093556040519116919082907f53daf07ee0d544a6f1351b3ffd1ae53c39ab35c7dbe66d472bf8ecfb1036c9cf90600090a35050565b3360009081526002602052604090205460ff1661038157604051630101292160e31b815260040160405180910390fd5b826001600160a01b03811615806103a657506001546001600160a01b03828116911614155b156103c45760405163b5281f9560e01b815260040160405180910390fd5b604051630c75381f60e31b815260048101849052602481018390527f00000000000000000000000000000000000000000000000000000000000000006001600160a01b0316906363a9c0f890604401600060405180830381600087803b15801561042d57600080fd5b505af1158015610441573d6000803e3d6000fd5b5050604051849250600591508590600080516020610fd783398151915290600090a450505050565b3360009081526002602052604090205460ff1661049957604051630101292160e31b815260040160405180910390fd5b846001600160a01b03811615806104be57506001546001600160a01b03828116911614155b156104dc5760405163b5281f9560e01b815260040160405180910390fd5b60011960ff8516016105c95781156105755760405163653a954160e11b815260048101869052602481018490527f00000000000000000000000000000000000000000000000000000000000000006001600160a01b03169063ca752a82906044015b600060405180830381600087803b15801561055857600080fd5b505af115801561056c573d6000803e3d6000fd5b505050506106d0565b60405163f0a5e14360e01b815260048101869052602481018490527f00000000000000000000000000000000000000000000000000000000000000006001600160a01b03169063f0a5e1439060440161053e565b60021960ff85160161068357811561062f57604051636eb14d3b60e01b815260048101869052602481018490527f00000000000000000000000000000000000000000000000000000000000000006001600160a01b031690636eb14d3b9060440161053e565b604051630dd53bf960e11b815260048101869052602481018490527f00000000000000000000000000000000000000000000000000000000000000006001600160a01b031690631baa77f29060440161053e565b60405162461bcd60e51b815260206004820152601960248201527f496e76616c6964207472616e736974696f6e20616374696f6e0000000000000060448201526064015b60405180910390fd5b828460ff1686600080516020610fd783398151915260405160405180910390a4505050505050565b6040516326db15bb60e21b81523060048201526000907f00000000000000000000000000000000000000000000000000000000000000006001600160a01b031690639b6c56ec90602401602060405180830381865afa15801561075f573d6000803e3d6000fd5b505050506040513d601f19601f820116820180604052508101906107839190610fbd565b9050804710156107ca5760405162461bcd60e51b8152602060048201526012602482015271496e73756666696369656e742066756e647360701b60448201526064016106c7565b80156108885760007f00000000000000000000000000000000000000000000000000000000000000006001600160a01b0316826040515b60006040518083038185875af1925050503d806000811461083e576040519150601f19603f3d011682016040523d82523d6000602084013e610843565b606091505b50509050806108865760405162461bcd60e51b815260206004820152600f60248201526e151c985b9cd9995c8819985a5b1959608a1b60448201526064016106c7565b505b50565b3360009081526002602052604090205460ff166108bb57604051630101292160e31b815260040160405180910390fd5b826001600160a01b03811615806108e057506001546001600160a01b03828116911614155b156108fe5760405163b5281f9560e01b815260040160405180910390fd5b604051631002d42160e31b815260048101849052602481018390527f00000000000000000000000000000000000000000000000000000000000000006001600160a01b031690638016a10890604401600060405180830381600087803b15801561096757600080fd5b505af115801561097b573d6000803e3d6000fd5b5050604051849250600691508590600080516020610fd783398151915290600090a450505050565b3360009081526002602052604090205460ff166109d357604051630101292160e31b815260040160405180910390fd5b856001600160a01b03811615806109f857506001546001600160a01b03828116911614155b15610a165760405163b5281f9560e01b815260040160405180910390fd5b60405163ef8b2af560e01b8152600481018790526024810186905267ffffffffffffffff80861660448301528085166064830152831660848201527f00000000000000000000000000000000000000000000000000000000000000006001600160a01b03169063ef8b2af59060a401600060405180830381600087803b158015610a9f57600080fd5b505af1158015610ab3573d6000803e3d6000fd5b5050604051879250600191508890600080516020610fd783398151915290600090a450505050505050565b3360009081526002602052604090205460ff16610b0e57604051630101292160e31b815260040160405180910390fd5b80471015610b535760405162461bcd60e51b8152602060048201526012602482015271496e73756666696369656e742066756e647360701b60448201526064016106c7565b8015610888576000336001600160a01b031682604051610801565b3360009081526002602052604090205460ff16610b9e57604051630101292160e31b815260040160405180910390fd5b866001600160a01b0381161580610bc357506001546001600160a01b03828116911614155b15610be15760405163b5281f9560e01b815260040160405180910390fd5b8115610c8257604051636880739160e01b815260048101889052602481018790526044810186905260648101859052608481018490527f00000000000000000000000000000000000000000000000000000000000000006001600160a01b03169063688073919060a401600060405180830381600087803b158015610c6557600080fd5b505af1158015610c79573d6000803e3d6000fd5b50505050610d19565b6040516368ce8d0560e11b815260048101889052602481018790526044810186905260648101859052608481018490527f00000000000000000000000000000000000000000000000000000000000000006001600160a01b03169063d19d1a0a9060a401600060405180830381600087803b158015610d0057600080fd5b505af1158015610d14573d6000803e3d6000fd5b505050505b60405186906004908990600080516020610fd783398151915290600090a45050505050505050565b6000546001600160a01b03163314610d6c57604051630101292160e31b815260040160405180910390fd5b6001600160a01b038116610d935760405163e6c4247b60e01b815260040160405180910390fd5b600080546001600160a01b038381166001600160a01b0319831681178455604051919092169283917f8be0079c531659141344cd1fd0a4f28419497f9722a3daafe3b4186f6b6457e09190a35050565b80356001600160a01b0381168114610dfa57600080fd5b919050565b600060208284031215610e1157600080fd5b610e1a82610de3565b9392505050565b600080600060608486031215610e3657600080fd5b610e3f84610de3565b95602085013595506040909401359392505050565b80358015158114610dfa57600080fd5b600080600080600060a08688031215610e7c57600080fd5b610e8586610de3565b945060208601359350604086013560ff81168114610ea257600080fd5b925060608601359150610eb760808701610e54565b90509295509295909350565b803567ffffffffffffffff81168114610dfa57600080fd5b60008060008060008060c08789031215610ef457600080fd5b610efd87610de3565b95506020870135945060408701359350610f1960608801610ec3565b9250610f2760808801610ec3565b9150610f3560a08801610ec3565b90509295509295509295565b600060208284031215610f5357600080fd5b5035919050565b600080600080600080600060e0888a031215610f7557600080fd5b610f7e88610de3565b96506020880135955060408801359450606088013593506080880135925060a08801359150610faf60c08901610e54565b905092959891949750929550565b600060208284031215610fcf57600080fd5b505191905056fef7f5258b38db13c1ad898b91bc1259c309c09d1cdb37314a125400d4c3240fe2a2646970667358221220abf877a5fa06f2b87636d21dae2e8bccae46071dde4f0e2a1e594f9203f3e2f964736f6c63430008180033","opcodes":"PUSH1 0xC0 PUSH1 0x40 MSTORE PUSH1 0x40 MLOAD PUSH2 0x1212 CODESIZE SUB DUP1 PUSH2 0x1212 DUP4 CODECOPY DUP2 ADD PUSH1 0x40 DUP2 SWAP1 MSTORE PUSH2 0x22 SWAP2 PUSH2 0x132 JUMP JUMPDEST PUSH1 0x1 PUSH1 0x1 PUSH1 0xA0 SHL SUB DUP4 AND ISZERO DUP1 PUSH2 0x3F JUMPI POP PUSH1 0x1 PUSH1 0x1 PUSH1 0xA0 SHL SUB DUP3 AND ISZERO JUMPDEST ISZERO PUSH2 0x5D JUMPI PUSH1 0x40 MLOAD PUSH4 0xE6C4247B PUSH1 0xE0 SHL DUP2 MSTORE PUSH1 0x4 ADD PUSH1 0x40 MLOAD DUP1 SWAP2 SUB SWAP1 REVERT JUMPDEST PUSH1 0x1 PUSH1 0x1 PUSH1 0xA0 SHL SUB DUP4 DUP2 AND PUSH1 0xA0 DUP2 SWAP1 MSTORE DUP4 DUP3 AND PUSH1 0x80 MSTORE PUSH1 0x0 DUP1 SLOAD CALLER PUSH1 0x1 PUSH1 0x1 PUSH1 0xA0 SHL SUB NOT SWAP2 DUP3 AND DUP2 OR DUP4 SSTORE PUSH1 0x1 DUP1 SLOAD SWAP1 SWAP3 AND SWAP5 DUP7 AND SWAP5 SWAP1 SWAP5 OR DUP2 SSTORE SWAP2 DUP2 MSTORE PUSH1 0x2 PUSH1 0x20 MSTORE PUSH1 0x40 DUP1 DUP3 KECCAK256 DUP1 SLOAD PUSH1 0xFF NOT AND SWAP1 SWAP4 OR SWAP1 SWAP3 SSTORE SWAP1 MLOAD PUSH32 0x8BE0079C531659141344CD1FD0A4F28419497F9722A3DAAFE3B4186F6B6457E0 SWAP1 DUP3 SWAP1 LOG3 PUSH1 0x40 MLOAD PUSH1 0x1 PUSH1 0x1 PUSH1 0xA0 SHL SUB DUP3 AND SWAP1 PUSH1 0x0 SWAP1 PUSH32 0x53DAF07EE0D544A6F1351B3FFD1AE53C39AB35C7DBE66D472BF8ECFB1036C9CF SWAP1 DUP3 SWAP1 LOG3 POP POP POP PUSH2 0x175 JUMP JUMPDEST DUP1 MLOAD PUSH1 0x1 PUSH1 0x1 PUSH1 0xA0 SHL SUB DUP2 AND DUP2 EQ PUSH2 0x12D JUMPI PUSH1 0x0 DUP1 REVERT JUMPDEST SWAP2 SWAP1 POP JUMP JUMPDEST PUSH1 0x0 DUP1 PUSH1 0x0 PUSH1 0x60 DUP5 DUP7 SUB SLT ISZERO PUSH2 0x147 JUMPI PUSH1 0x0 DUP1 REVERT JUMPDEST PUSH2 0x150 DUP5 PUSH2 0x116 JUMP JUMPDEST SWAP3 POP PUSH2 0x15E PUSH1 0x20 DUP6 ADD PUSH2 0x116 JUMP JUMPDEST SWAP2 POP PUSH2 0x16C PUSH1 0x40 DUP6 ADD PUSH2 0x116 JUMP JUMPDEST SWAP1 POP SWAP3 POP SWAP3 POP SWAP3 JUMP JUMPDEST PUSH1 0x80 MLOAD PUSH1 0xA0 MLOAD PUSH2 0x102C PUSH2 0x1E6 PUSH1 0x0 CODECOPY PUSH1 0x0 DUP2 DUP2 PUSH1 0xE4 ADD MSTORE DUP2 DUP2 PUSH2 0x710 ADD MSTORE PUSH2 0x7D4 ADD MSTORE PUSH1 0x0 DUP2 DUP2 PUSH2 0x196 ADD MSTORE DUP2 DUP2 PUSH2 0x3E1 ADD MSTORE DUP2 DUP2 PUSH2 0x50B ADD MSTORE DUP2 DUP2 PUSH2 0x592 ADD MSTORE DUP2 DUP2 PUSH2 0x5F8 ADD MSTORE DUP2 DUP2 PUSH2 0x64C ADD MSTORE DUP2 DUP2 PUSH2 0x91B ADD MSTORE DUP2 DUP2 PUSH2 0xA53 ADD MSTORE DUP2 DUP2 PUSH2 0xC19 ADD MSTORE PUSH2 0xCB4 ADD MSTORE PUSH2 0x102C PUSH1 0x0 RETURN INVALID PUSH1 0x80 PUSH1 0x40 MSTORE PUSH1 0x4 CALLDATASIZE LT PUSH2 0xC6 JUMPI PUSH1 0x0 CALLDATALOAD PUSH1 0xE0 SHR DUP1 PUSH4 0x8DA5CB5B GT PUSH2 0x7F JUMPI DUP1 PUSH4 0xBE0FA6D4 GT PUSH2 0x59 JUMPI DUP1 PUSH4 0xBE0FA6D4 EQ PUSH2 0x22D JUMPI DUP1 PUSH4 0xC290D691 EQ PUSH2 0x24D JUMPI DUP1 PUSH4 0xC8A12651 EQ PUSH2 0x26D JUMPI DUP1 PUSH4 0xF2FDE38B EQ PUSH2 0x28D JUMPI PUSH1 0x0 DUP1 REVERT JUMPDEST DUP1 PUSH4 0x8DA5CB5B EQ PUSH2 0x1CD JUMPI DUP1 PUSH4 0x95E09B01 EQ PUSH2 0x1ED JUMPI DUP1 PUSH4 0xA502E62D EQ PUSH2 0x20D JUMPI PUSH1 0x0 DUP1 REVERT JUMPDEST DUP1 PUSH4 0x4CEBC7DA EQ PUSH2 0xD2 JUMPI DUP1 PUSH4 0x56F20512 EQ PUSH2 0x122 JUMPI DUP1 PUSH4 0x5D73D02A EQ PUSH2 0x144 JUMPI DUP1 PUSH4 0x668B3A4A EQ PUSH2 0x164 JUMPI DUP1 PUSH4 0x76351266 EQ PUSH2 0x184 JUMPI DUP1 PUSH4 0x7A90B990 EQ PUSH2 0x1B8 JUMPI PUSH1 0x0 DUP1 REVERT JUMPDEST CALLDATASIZE PUSH2 0xCD JUMPI STOP JUMPDEST PUSH1 0x0 DUP1 REVERT JUMPDEST CALLVALUE DUP1 ISZERO PUSH2 0xDE JUMPI PUSH1 0x0 DUP1 REVERT JUMPDEST POP PUSH2 0x106 PUSH32 0x0 DUP2 JUMP JUMPDEST PUSH1 0x40 MLOAD PUSH1 0x1 PUSH1 0x1 PUSH1 0xA0 SHL SUB SWAP1 SWAP2 AND DUP2 MSTORE PUSH1 0x20 ADD PUSH1 0x40 MLOAD DUP1 SWAP2 SUB SWAP1 RETURN JUMPDEST CALLVALUE DUP1 ISZERO PUSH2 0x12E JUMPI PUSH1 0x0 DUP1 REVERT JUMPDEST POP PUSH2 0x142 PUSH2 0x13D CALLDATASIZE PUSH1 0x4 PUSH2 0xDFF JUMP JUMPDEST PUSH2 0x2AD JUMP JUMPDEST STOP JUMPDEST CALLVALUE DUP1 ISZERO PUSH2 0x150 JUMPI PUSH1 0x0 DUP1 REVERT JUMPDEST POP PUSH2 0x142 PUSH2 0x15F CALLDATASIZE PUSH1 0x4 PUSH2 0xE21 JUMP JUMPDEST PUSH2 0x351 JUMP JUMPDEST CALLVALUE DUP1 ISZERO PUSH2 0x170 JUMPI PUSH1 0x0 DUP1 REVERT JUMPDEST POP PUSH2 0x142 PUSH2 0x17F CALLDATASIZE PUSH1 0x4 PUSH2 0xE64 JUMP JUMPDEST PUSH2 0x469 JUMP JUMPDEST CALLVALUE DUP1 ISZERO PUSH2 0x190 JUMPI PUSH1 0x0 DUP1 REVERT JUMPDEST POP PUSH2 0x106 PUSH32 0x0 DUP2 JUMP JUMPDEST CALLVALUE DUP1 ISZERO PUSH2 0x1C4 JUMPI PUSH1 0x0 DUP1 REVERT JUMPDEST POP PUSH2 0x142 PUSH2 0x6F8 JUMP JUMPDEST CALLVALUE DUP1 ISZERO PUSH2 0x1D9 JUMPI PUSH1 0x0 DUP1 REVERT JUMPDEST POP PUSH1 0x0 SLOAD PUSH2 0x106 SWAP1 PUSH1 0x1 PUSH1 0x1 PUSH1 0xA0 SHL SUB AND DUP2 JUMP JUMPDEST CALLVALUE DUP1 ISZERO PUSH2 0x1F9 JUMPI PUSH1 0x0 DUP1 REVERT JUMPDEST POP PUSH1 0x1 SLOAD PUSH2 0x106 SWAP1 PUSH1 0x1 PUSH1 0x1 PUSH1 0xA0 SHL SUB AND DUP2 JUMP JUMPDEST CALLVALUE DUP1 ISZERO PUSH2 0x219 JUMPI PUSH1 0x0 DUP1 REVERT JUMPDEST POP PUSH2 0x142 PUSH2 0x228 CALLDATASIZE PUSH1 0x4 PUSH2 0xE21 JUMP JUMPDEST PUSH2 0x88B JUMP JUMPDEST CALLVALUE DUP1 ISZERO PUSH2 0x239 JUMPI PUSH1 0x0 DUP1 REVERT JUMPDEST POP PUSH2 0x142 PUSH2 0x248 CALLDATASIZE PUSH1 0x4 PUSH2 0xEDB JUMP JUMPDEST PUSH2 0x9A3 JUMP JUMPDEST CALLVALUE DUP1 ISZERO PUSH2 0x259 JUMPI PUSH1 0x0 DUP1 REVERT JUMPDEST POP PUSH2 0x142 PUSH2 0x268 CALLDATASIZE PUSH1 0x4 PUSH2 0xF41 JUMP JUMPDEST PUSH2 0xADE JUMP JUMPDEST CALLVALUE DUP1 ISZERO PUSH2 0x279 JUMPI PUSH1 0x0 DUP1 REVERT JUMPDEST POP PUSH2 0x142 PUSH2 0x288 CALLDATASIZE PUSH1 0x4 PUSH2 0xF5A JUMP JUMPDEST PUSH2 0xB6E JUMP JUMPDEST CALLVALUE DUP1 ISZERO PUSH2 0x299 JUMPI PUSH1 0x0 DUP1 REVERT JUMPDEST POP PUSH2 0x142 PUSH2 0x2A8 CALLDATASIZE PUSH1 0x4 PUSH2 0xDFF JUMP JUMPDEST PUSH2 0xD41 JUMP JUMPDEST PUSH1 0x0 SLOAD PUSH1 0x1 PUSH1 0x1 PUSH1 0xA0 SHL SUB AND CALLER EQ PUSH2 0x2D8 JUMPI PUSH1 0x40 MLOAD PUSH4 0x1012921 PUSH1 0xE3 SHL DUP2 MSTORE PUSH1 0x4 ADD PUSH1 0x40 MLOAD DUP1 SWAP2 SUB SWAP1 REVERT JUMPDEST PUSH1 0x1 PUSH1 0x1 PUSH1 0xA0 SHL SUB DUP2 AND PUSH2 0x2FF JUMPI PUSH1 0x40 MLOAD PUSH4 0xE6C4247B PUSH1 0xE0 SHL DUP2 MSTORE PUSH1 0x4 ADD PUSH1 0x40 MLOAD DUP1 SWAP2 SUB SWAP1 REVERT JUMPDEST PUSH1 0x1 DUP1 SLOAD PUSH1 0x1 PUSH1 0x1 PUSH1 0xA0 SHL SUB DUP4 DUP2 AND PUSH1 0x1 PUSH1 0x1 PUSH1 0xA0 SHL SUB NOT DUP4 AND DUP2 OR SWAP1 SWAP4 SSTORE PUSH1 0x40 MLOAD SWAP2 AND SWAP2 SWAP1 DUP3 SWAP1 PUSH32 0x53DAF07EE0D544A6F1351B3FFD1AE53C39AB35C7DBE66D472BF8ECFB1036C9CF SWAP1 PUSH1 0x0 SWAP1 LOG3 POP POP JUMP JUMPDEST CALLER PUSH1 0x0 SWAP1 DUP2 MSTORE PUSH1 0x2 PUSH1 0x20 MSTORE PUSH1 0x40 SWAP1 KECCAK256 SLOAD PUSH1 0xFF AND PUSH2 0x381 JUMPI PUSH1 0x40 MLOAD PUSH4 0x1012921 PUSH1 0xE3 SHL DUP2 MSTORE PUSH1 0x4 ADD PUSH1 0x40 MLOAD DUP1 SWAP2 SUB SWAP1 REVERT JUMPDEST DUP3 PUSH1 0x1 PUSH1 0x1 PUSH1 0xA0 SHL SUB DUP2 AND ISZERO DUP1 PUSH2 0x3A6 JUMPI POP PUSH1 0x1 SLOAD PUSH1 0x1 PUSH1 0x1 PUSH1 0xA0 SHL SUB DUP3 DUP2 AND SWAP2 AND EQ ISZERO JUMPDEST ISZERO PUSH2 0x3C4 JUMPI PUSH1 0x40 MLOAD PUSH4 0xB5281F95 PUSH1 0xE0 SHL DUP2 MSTORE PUSH1 0x4 ADD PUSH1 0x40 MLOAD DUP1 SWAP2 SUB SWAP1 REVERT JUMPDEST PUSH1 0x40 MLOAD PUSH4 0xC75381F PUSH1 0xE3 SHL DUP2 MSTORE PUSH1 0x4 DUP2 ADD DUP5 SWAP1 MSTORE PUSH1 0x24 DUP2 ADD DUP4 SWAP1 MSTORE PUSH32 0x0 PUSH1 0x1 PUSH1 0x1 PUSH1 0xA0 SHL SUB AND SWAP1 PUSH4 0x63A9C0F8 SWAP1 PUSH1 0x44 ADD PUSH1 0x0 PUSH1 0x40 MLOAD DUP1 DUP4 SUB DUP2 PUSH1 0x0 DUP8 DUP1 EXTCODESIZE ISZERO DUP1 ISZERO PUSH2 0x42D JUMPI PUSH1 0x0 DUP1 REVERT JUMPDEST POP GAS CALL ISZERO DUP1 ISZERO PUSH2 0x441 JUMPI RETURNDATASIZE PUSH1 0x0 DUP1 RETURNDATACOPY RETURNDATASIZE PUSH1 0x0 REVERT JUMPDEST POP POP PUSH1 0x40 MLOAD DUP5 SWAP3 POP PUSH1 0x5 SWAP2 POP DUP6 SWAP1 PUSH1 0x0 DUP1 MLOAD PUSH1 0x20 PUSH2 0xFD7 DUP4 CODECOPY DUP2 MLOAD SWAP2 MSTORE SWAP1 PUSH1 0x0 SWAP1 LOG4 POP POP POP POP JUMP JUMPDEST CALLER PUSH1 0x0 SWAP1 DUP2 MSTORE PUSH1 0x2 PUSH1 0x20 MSTORE PUSH1 0x40 SWAP1 KECCAK256 SLOAD PUSH1 0xFF AND PUSH2 0x499 JUMPI PUSH1 0x40 MLOAD PUSH4 0x1012921 PUSH1 0xE3 SHL DUP2 MSTORE PUSH1 0x4 ADD PUSH1 0x40 MLOAD DUP1 SWAP2 SUB SWAP1 REVERT JUMPDEST DUP5 PUSH1 0x1 PUSH1 0x1 PUSH1 0xA0 SHL SUB DUP2 AND ISZERO DUP1 PUSH2 0x4BE JUMPI POP PUSH1 0x1 SLOAD PUSH1 0x1 PUSH1 0x1 PUSH1 0xA0 SHL SUB DUP3 DUP2 AND SWAP2 AND EQ ISZERO JUMPDEST ISZERO PUSH2 0x4DC JUMPI PUSH1 0x40 MLOAD PUSH4 0xB5281F95 PUSH1 0xE0 SHL DUP2 MSTORE PUSH1 0x4 ADD PUSH1 0x40 MLOAD DUP1 SWAP2 SUB SWAP1 REVERT JUMPDEST PUSH1 0x1 NOT PUSH1 0xFF DUP6 AND ADD PUSH2 0x5C9 JUMPI DUP2 ISZERO PUSH2 0x575 JUMPI PUSH1 0x40 MLOAD PUSH4 0x653A9541 PUSH1 0xE1 SHL DUP2 MSTORE PUSH1 0x4 DUP2 ADD DUP7 SWAP1 MSTORE PUSH1 0x24 DUP2 ADD DUP5 SWAP1 MSTORE PUSH32 0x0 PUSH1 0x1 PUSH1 0x1 PUSH1 0xA0 SHL SUB AND SWAP1 PUSH4 0xCA752A82 SWAP1 PUSH1 0x44 ADD JUMPDEST PUSH1 0x0 PUSH1 0x40 MLOAD DUP1 DUP4 SUB DUP2 PUSH1 0x0 DUP8 DUP1 EXTCODESIZE ISZERO DUP1 ISZERO PUSH2 0x558 JUMPI PUSH1 0x0 DUP1 REVERT JUMPDEST POP GAS CALL ISZERO DUP1 ISZERO PUSH2 0x56C JUMPI RETURNDATASIZE PUSH1 0x0 DUP1 RETURNDATACOPY RETURNDATASIZE PUSH1 0x0 REVERT JUMPDEST POP POP POP POP PUSH2 0x6D0 JUMP JUMPDEST PUSH1 0x40 MLOAD PUSH4 0xF0A5E143 PUSH1 0xE0 SHL DUP2 MSTORE PUSH1 0x4 DUP2 ADD DUP7 SWAP1 MSTORE PUSH1 0x24 DUP2 ADD DUP5 SWAP1 MSTORE PUSH32 0x0 PUSH1 0x1 PUSH1 0x1 PUSH1 0xA0 SHL SUB AND SWAP1 PUSH4 0xF0A5E143 SWAP1 PUSH1 0x44 ADD PUSH2 0x53E JUMP JUMPDEST PUSH1 0x2 NOT PUSH1 0xFF DUP6 AND ADD PUSH2 0x683 JUMPI DUP2 ISZERO PUSH2 0x62F JUMPI PUSH1 0x40 MLOAD PUSH4 0x6EB14D3B PUSH1 0xE0 SHL DUP2 MSTORE PUSH1 0x4 DUP2 ADD DUP7 SWAP1 MSTORE PUSH1 0x24 DUP2 ADD DUP5 SWAP1 MSTORE PUSH32 0x0 PUSH1 0x1 PUSH1 0x1 PUSH1 0xA0 SHL SUB AND SWAP1 PUSH4 0x6EB14D3B SWAP1 PUSH1 0x44 ADD PUSH2 0x53E JUMP JUMPDEST PUSH1 0x40 MLOAD PUSH4 0xDD53BF9 PUSH1 0xE1 SHL DUP2 MSTORE PUSH1 0x4 DUP2 ADD DUP7 SWAP1 MSTORE PUSH1 0x24 DUP2 ADD DUP5 SWAP1 MSTORE PUSH32 0x0 PUSH1 0x1 PUSH1 0x1 PUSH1 0xA0 SHL SUB AND SWAP1 PUSH4 0x1BAA77F2 SWAP1 PUSH1 0x44 ADD PUSH2 0x53E JUMP JUMPDEST PUSH1 0x40 MLOAD PUSH3 0x461BCD PUSH1 0xE5 SHL DUP2 MSTORE PUSH1 0x20 PUSH1 0x4 DUP3 ADD MSTORE PUSH1 0x19 PUSH1 0x24 DUP3 ADD MSTORE PUSH32 0x496E76616C6964207472616E736974696F6E20616374696F6E00000000000000 PUSH1 0x44 DUP3 ADD MSTORE PUSH1 0x64 ADD JUMPDEST PUSH1 0x40 MLOAD DUP1 SWAP2 SUB SWAP1 REVERT JUMPDEST DUP3 DUP5 PUSH1 0xFF AND DUP7 PUSH1 0x0 DUP1 MLOAD PUSH1 0x20 PUSH2 0xFD7 DUP4 CODECOPY DUP2 MLOAD SWAP2 MSTORE PUSH1 0x40 MLOAD PUSH1 0x40 MLOAD DUP1 SWAP2 SUB SWAP1 LOG4 POP POP POP POP POP POP JUMP JUMPDEST PUSH1 0x40 MLOAD PUSH4 0x26DB15BB PUSH1 0xE2 SHL DUP2 MSTORE ADDRESS PUSH1 0x4 DUP3 ADD MSTORE PUSH1 0x0 SWAP1 PUSH32 0x0 PUSH1 0x1 PUSH1 0x1 PUSH1 0xA0 SHL SUB AND SWAP1 PUSH4 0x9B6C56EC SWAP1 PUSH1 0x24 ADD PUSH1 0x20 PUSH1 0x40 MLOAD DUP1 DUP4 SUB DUP2 DUP7 GAS STATICCALL ISZERO DUP1 ISZERO PUSH2 0x75F JUMPI RETURNDATASIZE PUSH1 0x0 DUP1 RETURNDATACOPY RETURNDATASIZE PUSH1 0x0 REVERT JUMPDEST POP POP POP POP PUSH1 0x40 MLOAD RETURNDATASIZE PUSH1 0x1F NOT PUSH1 0x1F DUP3 ADD AND DUP3 ADD DUP1 PUSH1 0x40 MSTORE POP DUP2 ADD SWAP1 PUSH2 0x783 SWAP2 SWAP1 PUSH2 0xFBD JUMP JUMPDEST SWAP1 POP DUP1 SELFBALANCE LT ISZERO PUSH2 0x7CA JUMPI PUSH1 0x40 MLOAD PUSH3 0x461BCD PUSH1 0xE5 SHL DUP2 MSTORE PUSH1 0x20 PUSH1 0x4 DUP3 ADD MSTORE PUSH1 0x12 PUSH1 0x24 DUP3 ADD MSTORE PUSH18 0x496E73756666696369656E742066756E6473 PUSH1 0x70 SHL PUSH1 0x44 DUP3 ADD MSTORE PUSH1 0x64 ADD PUSH2 0x6C7 JUMP JUMPDEST DUP1 ISZERO PUSH2 0x888 JUMPI PUSH1 0x0 PUSH32 0x0 PUSH1 0x1 PUSH1 0x1 PUSH1 0xA0 SHL SUB AND DUP3 PUSH1 0x40 MLOAD JUMPDEST PUSH1 0x0 PUSH1 0x40 MLOAD DUP1 DUP4 SUB DUP2 DUP6 DUP8 GAS CALL SWAP3 POP POP POP RETURNDATASIZE DUP1 PUSH1 0x0 DUP2 EQ PUSH2 0x83E JUMPI PUSH1 0x40 MLOAD SWAP2 POP PUSH1 0x1F NOT PUSH1 0x3F RETURNDATASIZE ADD AND DUP3 ADD PUSH1 0x40 MSTORE RETURNDATASIZE DUP3 MSTORE RETURNDATASIZE PUSH1 0x0 PUSH1 0x20 DUP5 ADD RETURNDATACOPY PUSH2 0x843 JUMP JUMPDEST PUSH1 0x60 SWAP2 POP JUMPDEST POP POP SWAP1 POP DUP1 PUSH2 0x886 JUMPI PUSH1 0x40 MLOAD PUSH3 0x461BCD PUSH1 0xE5 SHL DUP2 MSTORE PUSH1 0x20 PUSH1 0x4 DUP3 ADD MSTORE PUSH1 0xF PUSH1 0x24 DUP3 ADD MSTORE PUSH15 0x151C985B9CD9995C8819985A5B1959 PUSH1 0x8A SHL PUSH1 0x44 DUP3 ADD MSTORE PUSH1 0x64 ADD PUSH2 0x6C7 JUMP JUMPDEST POP JUMPDEST POP JUMP JUMPDEST CALLER PUSH1 0x0 SWAP1 DUP2 MSTORE PUSH1 0x2 PUSH1 0x20 MSTORE PUSH1 0x40 SWAP1 KECCAK256 SLOAD PUSH1 0xFF AND PUSH2 0x8BB JUMPI PUSH1 0x40 MLOAD PUSH4 0x1012921 PUSH1 0xE3 SHL DUP2 MSTORE PUSH1 0x4 ADD PUSH1 0x40 MLOAD DUP1 SWAP2 SUB SWAP1 REVERT JUMPDEST DUP3 PUSH1 0x1 PUSH1 0x1 PUSH1 0xA0 SHL SUB DUP2 AND ISZERO DUP1 PUSH2 0x8E0 JUMPI POP PUSH1 0x1 SLOAD PUSH1 0x1 PUSH1 0x1 PUSH1 0xA0 SHL SUB DUP3 DUP2 AND SWAP2 AND EQ ISZERO JUMPDEST ISZERO PUSH2 0x8FE JUMPI PUSH1 0x40 MLOAD PUSH4 0xB5281F95 PUSH1 0xE0 SHL DUP2 MSTORE PUSH1 0x4 ADD PUSH1 0x40 MLOAD DUP1 SWAP2 SUB SWAP1 REVERT JUMPDEST PUSH1 0x40 MLOAD PUSH4 0x1002D421 PUSH1 0xE3 SHL DUP2 MSTORE PUSH1 0x4 DUP2 ADD DUP5 SWAP1 MSTORE PUSH1 0x24 DUP2 ADD DUP4 SWAP1 MSTORE PUSH32 0x0 PUSH1 0x1 PUSH1 0x1 PUSH1 0xA0 SHL SUB AND SWAP1 PUSH4 0x8016A108 SWAP1 PUSH1 0x44 ADD PUSH1 0x0 PUSH1 0x40 MLOAD DUP1 DUP4 SUB DUP2 PUSH1 0x0 DUP8 DUP1 EXTCODESIZE ISZERO DUP1 ISZERO PUSH2 0x967 JUMPI PUSH1 0x0 DUP1 REVERT JUMPDEST POP GAS CALL ISZERO DUP1 ISZERO PUSH2 0x97B JUMPI RETURNDATASIZE PUSH1 0x0 DUP1 RETURNDATACOPY RETURNDATASIZE PUSH1 0x0 REVERT JUMPDEST POP POP PUSH1 0x40 MLOAD DUP5 SWAP3 POP PUSH1 0x6 SWAP2 POP DUP6 SWAP1 PUSH1 0x0 DUP1 MLOAD PUSH1 0x20 PUSH2 0xFD7 DUP4 CODECOPY DUP2 MLOAD SWAP2 MSTORE SWAP1 PUSH1 0x0 SWAP1 LOG4 POP POP POP POP JUMP JUMPDEST CALLER PUSH1 0x0 SWAP1 DUP2 MSTORE PUSH1 0x2 PUSH1 0x20 MSTORE PUSH1 0x40 SWAP1 KECCAK256 SLOAD PUSH1 0xFF AND PUSH2 0x9D3 JUMPI PUSH1 0x40 MLOAD PUSH4 0x1012921 PUSH1 0xE3 SHL DUP2 MSTORE PUSH1 0x4 ADD PUSH1 0x40 MLOAD DUP1 SWAP2 SUB SWAP1 REVERT JUMPDEST DUP6 PUSH1 0x1 PUSH1 0x1 PUSH1 0xA0 SHL SUB DUP2 AND ISZERO DUP1 PUSH2 0x9F8 JUMPI POP PUSH1 0x1 SLOAD PUSH1 0x1 PUSH1 0x1 PUSH1 0xA0 SHL SUB DUP3 DUP2 AND SWAP2 AND EQ ISZERO JUMPDEST ISZERO PUSH2 0xA16 JUMPI PUSH1 0x40 MLOAD PUSH4 0xB5281F95 PUSH1 0xE0 SHL DUP2 MSTORE PUSH1 0x4 ADD PUSH1 0x40 MLOAD DUP1 SWAP2 SUB SWAP1 REVERT JUMPDEST PUSH1 0x40 MLOAD PUSH4 0xEF8B2AF5 PUSH1 0xE0 SHL DUP2 MSTORE PUSH1 0x4 DUP2 ADD DUP8 SWAP1 MSTORE PUSH1 0x24 DUP2 ADD DUP7 SWAP1 MSTORE PUSH8 0xFFFFFFFFFFFFFFFF DUP1 DUP7 AND PUSH1 0x44 DUP4 ADD MSTORE DUP1 DUP6 AND PUSH1 0x64 DUP4 ADD MSTORE DUP4 AND PUSH1 0x84 DUP3 ADD MSTORE PUSH32 0x0 PUSH1 0x1 PUSH1 0x1 PUSH1 0xA0 SHL SUB AND SWAP1 PUSH4 0xEF8B2AF5 SWAP1 PUSH1 0xA4 ADD PUSH1 0x0 PUSH1 0x40 MLOAD DUP1 DUP4 SUB DUP2 PUSH1 0x0 DUP8 DUP1 EXTCODESIZE ISZERO DUP1 ISZERO PUSH2 0xA9F JUMPI PUSH1 0x0 DUP1 REVERT JUMPDEST POP GAS CALL ISZERO DUP1 ISZERO PUSH2 0xAB3 JUMPI RETURNDATASIZE PUSH1 0x0 DUP1 RETURNDATACOPY RETURNDATASIZE PUSH1 0x0 REVERT JUMPDEST POP POP PUSH1 0x40 MLOAD DUP8 SWAP3 POP PUSH1 0x1 SWAP2 POP DUP9 SWAP1 PUSH1 0x0 DUP1 MLOAD PUSH1 0x20 PUSH2 0xFD7 DUP4 CODECOPY DUP2 MLOAD SWAP2 MSTORE SWAP1 PUSH1 0x0 SWAP1 LOG4 POP POP POP POP POP POP POP JUMP JUMPDEST CALLER PUSH1 0x0 SWAP1 DUP2 MSTORE PUSH1 0x2 PUSH1 0x20 MSTORE PUSH1 0x40 SWAP1 KECCAK256 SLOAD PUSH1 0xFF AND PUSH2 0xB0E JUMPI PUSH1 0x40 MLOAD PUSH4 0x1012921 PUSH1 0xE3 SHL DUP2 MSTORE PUSH1 0x4 ADD PUSH1 0x40 MLOAD DUP1 SWAP2 SUB SWAP1 REVERT JUMPDEST DUP1 SELFBALANCE LT ISZERO PUSH2 0xB53 JUMPI PUSH1 0x40 MLOAD PUSH3 0x461BCD PUSH1 0xE5 SHL DUP2 MSTORE PUSH1 0x20 PUSH1 0x4 DUP3 ADD MSTORE PUSH1 0x12 PUSH1 0x24 DUP3 ADD MSTORE PUSH18 0x496E73756666696369656E742066756E6473 PUSH1 0x70 SHL PUSH1 0x44 DUP3 ADD MSTORE PUSH1 0x64 ADD PUSH2 0x6C7 JUMP JUMPDEST DUP1 ISZERO PUSH2 0x888 JUMPI PUSH1 0x0 CALLER PUSH1 0x1 PUSH1 0x1 PUSH1 0xA0 SHL SUB AND DUP3 PUSH1 0x40 MLOAD PUSH2 0x801 JUMP JUMPDEST CALLER PUSH1 0x0 SWAP1 DUP2 MSTORE PUSH1 0x2 PUSH1 0x20 MSTORE PUSH1 0x40 SWAP1 KECCAK256 SLOAD PUSH1 0xFF AND PUSH2 0xB9E JUMPI PUSH1 0x40 MLOAD PUSH4 0x1012921 PUSH1 0xE3 SHL DUP2 MSTORE PUSH1 0x4 ADD PUSH1 0x40 MLOAD DUP1 SWAP2 SUB SWAP1 REVERT JUMPDEST DUP7 PUSH1 0x1 PUSH1 0x1 PUSH1 0xA0 SHL SUB DUP2 AND ISZERO DUP1 PUSH2 0xBC3 JUMPI POP PUSH1 0x1 SLOAD PUSH1 0x1 PUSH1 0x1 PUSH1 0xA0 SHL SUB DUP3 DUP2 AND SWAP2 AND EQ ISZERO JUMPDEST ISZERO PUSH2 0xBE1 JUMPI PUSH1 0x40 MLOAD PUSH4 0xB5281F95 PUSH1 0xE0 SHL DUP2 MSTORE PUSH1 0x4 ADD PUSH1 0x40 MLOAD DUP1 SWAP2 SUB SWAP1 REVERT JUMPDEST DUP2 ISZERO PUSH2 0xC82 JUMPI PUSH1 0x40 MLOAD PUSH4 0x68807391 PUSH1 0xE0 SHL DUP2 MSTORE PUSH1 0x4 DUP2 ADD DUP9 SWAP1 MSTORE PUSH1 0x24 DUP2 ADD DUP8 SWAP1 MSTORE PUSH1 0x44 DUP2 ADD DUP7 SWAP1 MSTORE PUSH1 0x64 DUP2 ADD DUP6 SWAP1 MSTORE PUSH1 0x84 DUP2 ADD DUP5 SWAP1 MSTORE PUSH32 0x0 PUSH1 0x1 PUSH1 0x1 PUSH1 0xA0 SHL SUB AND SWAP1 PUSH4 0x68807391 SWAP1 PUSH1 0xA4 ADD PUSH1 0x0 PUSH1 0x40 MLOAD DUP1 DUP4 SUB DUP2 PUSH1 0x0 DUP8 DUP1 EXTCODESIZE ISZERO DUP1 ISZERO PUSH2 0xC65 JUMPI PUSH1 0x0 DUP1 REVERT JUMPDEST POP GAS CALL ISZERO DUP1 ISZERO PUSH2 0xC79 JUMPI RETURNDATASIZE PUSH1 0x0 DUP1 RETURNDATACOPY RETURNDATASIZE PUSH1 0x0 REVERT JUMPDEST POP POP POP POP PUSH2 0xD19 JUMP JUMPDEST PUSH1 0x40 MLOAD PUSH4 0x68CE8D05 PUSH1 0xE1 SHL DUP2 MSTORE PUSH1 0x4 DUP2 ADD DUP9 SWAP1 MSTORE PUSH1 0x24 DUP2 ADD DUP8 SWAP1 MSTORE PUSH1 0x44 DUP2 ADD DUP7 SWAP1 MSTORE PUSH1 0x64 DUP2 ADD DUP6 SWAP1 MSTORE PUSH1 0x84 DUP2 ADD DUP5 SWAP1 MSTORE PUSH32 0x0 PUSH1 0x1 PUSH1 0x1 PUSH1 0xA0 SHL SUB AND SWAP1 PUSH4 0xD19D1A0A SWAP1 PUSH1 0xA4 ADD PUSH1 0x0 PUSH1 0x40 MLOAD DUP1 DUP4 SUB DUP2 PUSH1 0x0 DUP8 DUP1 EXTCODESIZE ISZERO DUP1 ISZERO PUSH2 0xD00 JUMPI PUSH1 0x0 DUP1 REVERT JUMPDEST POP GAS CALL ISZERO DUP1 ISZERO PUSH2 0xD14 JUMPI RETURNDATASIZE PUSH1 0x0 DUP1 RETURNDATACOPY RETURNDATASIZE PUSH1 0x0 REVERT JUMPDEST POP POP POP POP JUMPDEST PUSH1 0x40 MLOAD DUP7 SWAP1 PUSH1 0x4 SWAP1 DUP10 SWAP1 PUSH1 0x0 DUP1 MLOAD PUSH1 0x20 PUSH2 0xFD7 DUP4 CODECOPY DUP2 MLOAD SWAP2 MSTORE SWAP1 PUSH1 0x0 SWAP1 LOG4 POP POP POP POP POP POP POP POP JUMP JUMPDEST PUSH1 0x0 SLOAD PUSH1 0x1 PUSH1 0x1 PUSH1 0xA0 SHL SUB AND CALLER EQ PUSH2 0xD6C JUMPI PUSH1 0x40 MLOAD PUSH4 0x1012921 PUSH1 0xE3 SHL DUP2 MSTORE PUSH1 0x4 ADD PUSH1 0x40 MLOAD DUP1 SWAP2 SUB SWAP1 REVERT JUMPDEST PUSH1 0x1 PUSH1 0x1 PUSH1 0xA0 SHL SUB DUP2 AND PUSH2 0xD93 JUMPI PUSH1 0x40 MLOAD PUSH4 0xE6C4247B PUSH1 0xE0 SHL DUP2 MSTORE PUSH1 0x4 ADD PUSH1 0x40 MLOAD DUP1 SWAP2 SUB SWAP1 REVERT JUMPDEST PUSH1 0x0 DUP1 SLOAD PUSH1 0x1 PUSH1 0x1 PUSH1 0xA0 SHL SUB DUP4 DUP2 AND PUSH1 0x1 PUSH1 0x1 PUSH1 0xA0 SHL SUB NOT DUP4 AND DUP2 OR DUP5 SSTORE PUSH1 0x40 MLOAD SWAP2 SWAP1 SWAP3 AND SWAP3 DUP4 SWAP2 PUSH32 0x8BE0079C531659141344CD1FD0A4F28419497F9722A3DAAFE3B4186F6B6457E0 SWAP2 SWAP1 LOG3 POP POP JUMP JUMPDEST DUP1 CALLDATALOAD PUSH1 0x1 PUSH1 0x1 PUSH1 0xA0 SHL SUB DUP2 AND DUP2 EQ PUSH2 0xDFA JUMPI PUSH1 0x0 DUP1 REVERT JUMPDEST SWAP2 SWAP1 POP JUMP JUMPDEST PUSH1 0x0 PUSH1 0x20 DUP3 DUP5 SUB SLT ISZERO PUSH2 0xE11 JUMPI PUSH1 0x0 DUP1 REVERT JUMPDEST PUSH2 0xE1A DUP3 PUSH2 0xDE3 JUMP JUMPDEST SWAP4 SWAP3 POP POP POP JUMP JUMPDEST PUSH1 0x0 DUP1 PUSH1 0x0 PUSH1 0x60 DUP5 DUP7 SUB SLT ISZERO PUSH2 0xE36 JUMPI PUSH1 0x0 DUP1 REVERT JUMPDEST PUSH2 0xE3F DUP5 PUSH2 0xDE3 JUMP JUMPDEST SWAP6 PUSH1 0x20 DUP6 ADD CALLDATALOAD SWAP6 POP PUSH1 0x40 SWAP1 SWAP5 ADD CALLDATALOAD SWAP4 SWAP3 POP POP POP JUMP JUMPDEST DUP1 CALLDATALOAD DUP1 ISZERO ISZERO DUP2 EQ PUSH2 0xDFA JUMPI PUSH1 0x0 DUP1 REVERT JUMPDEST PUSH1 0x0 DUP1 PUSH1 0x0 DUP1 PUSH1 0x0 PUSH1 0xA0 DUP7 DUP9 SUB SLT ISZERO PUSH2 0xE7C JUMPI PUSH1 0x0 DUP1 REVERT JUMPDEST PUSH2 0xE85 DUP7 PUSH2 0xDE3 JUMP JUMPDEST SWAP5 POP PUSH1 0x20 DUP7 ADD CALLDATALOAD SWAP4 POP PUSH1 0x40 DUP7 ADD CALLDATALOAD PUSH1 0xFF DUP2 AND DUP2 EQ PUSH2 0xEA2 JUMPI PUSH1 0x0 DUP1 REVERT JUMPDEST SWAP3 POP PUSH1 0x60 DUP7 ADD CALLDATALOAD SWAP2 POP PUSH2 0xEB7 PUSH1 0x80 DUP8 ADD PUSH2 0xE54 JUMP JUMPDEST SWAP1 POP SWAP3 SWAP6 POP SWAP3 SWAP6 SWAP1 SWAP4 POP JUMP JUMPDEST DUP1 CALLDATALOAD PUSH8 0xFFFFFFFFFFFFFFFF DUP2 AND DUP2 EQ PUSH2 0xDFA JUMPI PUSH1 0x0 DUP1 REVERT JUMPDEST PUSH1 0x0 DUP1 PUSH1 0x0 DUP1 PUSH1 0x0 DUP1 PUSH1 0xC0 DUP8 DUP10 SUB SLT ISZERO PUSH2 0xEF4 JUMPI PUSH1 0x0 DUP1 REVERT JUMPDEST PUSH2 0xEFD DUP8 PUSH2 0xDE3 JUMP JUMPDEST SWAP6 POP PUSH1 0x20 DUP8 ADD CALLDATALOAD SWAP5 POP PUSH1 0x40 DUP8 ADD CALLDATALOAD SWAP4 POP PUSH2 0xF19 PUSH1 0x60 DUP9 ADD PUSH2 0xEC3 JUMP JUMPDEST SWAP3 POP PUSH2 0xF27 PUSH1 0x80 DUP9 ADD PUSH2 0xEC3 JUMP JUMPDEST SWAP2 POP PUSH2 0xF35 PUSH1 0xA0 DUP9 ADD PUSH2 0xEC3 JUMP JUMPDEST SWAP1 POP SWAP3 SWAP6 POP SWAP3 SWAP6 POP SWAP3 SWAP6 JUMP JUMPDEST PUSH1 0x0 PUSH1 0x20 DUP3 DUP5 SUB SLT ISZERO PUSH2 0xF53 JUMPI PUSH1 0x0 DUP1 REVERT JUMPDEST POP CALLDATALOAD SWAP2 SWAP1 POP JUMP JUMPDEST PUSH1 0x0 DUP1 PUSH1 0x0 DUP1 PUSH1 0x0 DUP1 PUSH1 0x0 PUSH1 0xE0 DUP9 DUP11 SUB SLT ISZERO PUSH2 0xF75 JUMPI PUSH1 0x0 DUP1 REVERT JUMPDEST PUSH2 0xF7E DUP9 PUSH2 0xDE3 JUMP JUMPDEST SWAP7 POP PUSH1 0x20 DUP9 ADD CALLDATALOAD SWAP6 POP PUSH1 0x40 DUP9 ADD CALLDATALOAD SWAP5 POP PUSH1 0x60 DUP9 ADD CALLDATALOAD SWAP4 POP PUSH1 0x80 DUP9 ADD CALLDATALOAD SWAP3 POP PUSH1 0xA0 DUP9 ADD CALLDATALOAD SWAP2 POP PUSH2 0xFAF PUSH1 0xC0 DUP10 ADD PUSH2 0xE54 JUMP JUMPDEST SWAP1 POP SWAP3 SWAP6 SWAP9 SWAP2 SWAP5 SWAP8 POP SWAP3 SWAP6 POP JUMP JUMPDEST PUSH1 0x0 PUSH1 0x20 DUP3 DUP5 SUB SLT ISZERO PUSH2 0xFCF JUMPI PUSH1 0x0 DUP1 REVERT JUMPDEST POP MLOAD SWAP2 SWAP1 POP JUMP INVALID 0xF7 CREATE2 0x25 DUP12 CODESIZE 0xDB SGT 0xC1 0xAD DUP10 DUP12 SWAP2 0xBC SLT MSIZE 0xC3 MULMOD 0xC0 SWAP14 SHR 0xDB CALLDATACOPY BALANCE BLOBBASEFEE SLT SLOAD STOP 0xD4 0xC3 0x24 0xF 0xE2 LOG2 PUSH5 0x6970667358 0x22 SLT KECCAK256 0xAB 0xF8 PUSH24 0xA5FA06F2B87636D21DAE2E8BCCAE46071DDE4F0E2A1E594F SWAP3 SUB RETURN 0xE2 0xF9 PUSH5 0x736F6C6343 STOP ADDMOD XOR STOP CALLER "},"methodIdentifiers":{"callbackProxy()":"4cebc7da","coverDebt()":"7a90b990","owner()":"8da5cb5b","pay(uint256)":"c290d691","reactiveSender()":"95e09b01","rxApprove(address,bytes32,uint256)":"5d73d02a","rxCreateWeek(address,bytes32,uint256,uint64,uint64,uint64)":"be0fa6d4","rxFinalize(address,bytes32,uint256,bytes32,bytes32,uint256,bool)":"c8a12651","rxReject(address,bytes32,uint256)":"a502e62d","rxTransition(address,bytes32,uint8,uint256,bool)":"668b3a4a","setReactiveSender(address)":"56f20512","transferOwnership(address)":"f2fde38b","valcore()":"76351266"}}}}}