{"contracts/ValcoreV1.sol":{"ValcoreV1":{"abi":[{"inputs":[{"internalType":"address","name":"stablecoinToken","type":"address"},{"internalType":"uint16","name":"principalRatio","type":"uint16"},{"internalType":"uint16","name":"fee","type":"uint16"},{"internalType":"uint256","name":"minDepositAmount","type":"uint256"},{"internalType":"address","name":"admin","type":"address"},{"internalType":"address","name":"treasuryAddress","type":"address"},{"internalType":"address","name":"pauser","type":"address"},{"internalType":"address","name":"auditor","type":"address"}],"stateMutability":"nonpayable","type":"constructor"},{"inputs":[],"name":"AccessControlBadConfirmation","type":"error"},{"inputs":[{"internalType":"address","name":"account","type":"address"},{"internalType":"bytes32","name":"neededRole","type":"bytes32"}],"name":"AccessControlUnauthorizedAccount","type":"error"},{"inputs":[{"internalType":"address","name":"target","type":"address"}],"name":"AddressEmptyCode","type":"error"},{"inputs":[{"internalType":"address","name":"account","type":"address"}],"name":"AddressInsufficientBalance","type":"error"},{"inputs":[],"name":"AlreadyClaimed","type":"error"},{"inputs":[],"name":"BelowMinDeposit","type":"error"},{"inputs":[],"name":"DepositTooLarge","type":"error"},{"inputs":[],"name":"DraftClosed","type":"error"},{"inputs":[],"name":"DraftNotOpen","type":"error"},{"inputs":[],"name":"EmergencyExitNotAllowed","type":"error"},{"inputs":[],"name":"EndTimeNotReached","type":"error"},{"inputs":[],"name":"EnforcedPause","type":"error"},{"inputs":[],"name":"ExpectedPause","type":"error"},{"inputs":[],"name":"FailedInnerCall","type":"error"},{"inputs":[],"name":"IntentAlreadyExecuted","type":"error"},{"inputs":[],"name":"InvalidAddress","type":"error"},{"inputs":[],"name":"InvalidDeposit","type":"error"},{"inputs":[],"name":"InvalidFee","type":"error"},{"inputs":[],"name":"InvalidHash","type":"error"},{"inputs":[],"name":"InvalidMerkleRoot","type":"error"},{"inputs":[],"name":"InvalidMinDeposit","type":"error"},{"inputs":[],"name":"InvalidProof","type":"error"},{"inputs":[],"name":"InvalidRatio","type":"error"},{"inputs":[],"name":"InvalidTimeRange","type":"error"},{"inputs":[],"name":"InvalidTreasuryAddress","type":"error"},{"inputs":[],"name":"LockTimeNotReached","type":"error"},{"inputs":[],"name":"NoCommittedStrategies","type":"error"},{"inputs":[],"name":"NoLineup","type":"error"},{"inputs":[],"name":"NoSweepableReward","type":"error"},{"inputs":[],"name":"ReentrancyGuardReentrantCall","type":"error"},{"inputs":[],"name":"RewardAlreadySwept","type":"error"},{"inputs":[],"name":"RewardSweepNotAvailable","type":"error"},{"inputs":[{"internalType":"address","name":"token","type":"address"}],"name":"SafeERC20FailedOperation","type":"error"},{"inputs":[],"name":"StartTimeNotReached","type":"error"},{"inputs":[],"name":"SwapLimitReached","type":"error"},{"inputs":[],"name":"WeekAlreadyExists","type":"error"},{"inputs":[],"name":"WeekEnded","type":"error"},{"inputs":[],"name":"WeekNotActive","type":"error"},{"inputs":[],"name":"WeekNotFinalizePending","type":"error"},{"inputs":[],"name":"WeekNotFinalized","type":"error"},{"inputs":[],"name":"WeekNotLocked","type":"error"},{"anonymous":false,"inputs":[{"indexed":true,"internalType":"uint256","name":"weekId","type":"uint256"},{"indexed":true,"internalType":"address","name":"user","type":"address"},{"indexed":false,"internalType":"uint256","name":"amount","type":"uint256"}],"name":"Claimed","type":"event"},{"anonymous":false,"inputs":[{"indexed":true,"internalType":"uint256","name":"weekId","type":"uint256"},{"indexed":true,"internalType":"address","name":"user","type":"address"},{"indexed":false,"internalType":"uint256","name":"amount","type":"uint256"}],"name":"EmergencyExit","type":"event"},{"anonymous":false,"inputs":[{"indexed":true,"internalType":"bytes32","name":"intentId","type":"bytes32"},{"indexed":true,"internalType":"uint8","name":"action","type":"uint8"},{"indexed":true,"internalType":"uint256","name":"weekId","type":"uint256"},{"indexed":false,"internalType":"address","name":"caller","type":"address"}],"name":"LifecycleIntentConsumed","type":"event"},{"anonymous":false,"inputs":[{"indexed":true,"internalType":"uint256","name":"weekId","type":"uint256"},{"indexed":true,"internalType":"address","name":"user","type":"address"},{"indexed":false,"internalType":"bytes32","name":"lineupHash","type":"bytes32"},{"indexed":false,"internalType":"uint256","name":"deposit","type":"uint256"}],"name":"LineupCommitted","type":"event"},{"anonymous":false,"inputs":[{"indexed":true,"internalType":"uint256","name":"weekId","type":"uint256"},{"indexed":true,"internalType":"address","name":"user","type":"address"},{"indexed":false,"internalType":"bytes32","name":"lineupHash","type":"bytes32"},{"indexed":false,"internalType":"uint8","name":"swapsUsed","type":"uint8"}],"name":"LineupSwapped","type":"event"},{"anonymous":false,"inputs":[{"indexed":true,"internalType":"uint256","name":"weekId","type":"uint256"},{"indexed":true,"internalType":"address","name":"user","type":"address"},{"indexed":false,"internalType":"bytes32","name":"lineupHash","type":"bytes32"},{"indexed":false,"internalType":"uint256","name":"deposit","type":"uint256"}],"name":"LineupUpdated","type":"event"},{"anonymous":false,"inputs":[{"indexed":false,"internalType":"address","name":"account","type":"address"}],"name":"Paused","type":"event"},{"anonymous":false,"inputs":[{"indexed":true,"internalType":"uint256","name":"weekId","type":"uint256"},{"indexed":true,"internalType":"address","name":"treasury","type":"address"},{"indexed":false,"internalType":"uint256","name":"amount","type":"uint256"}],"name":"ProtocolFeeTransferred","type":"event"},{"anonymous":false,"inputs":[{"indexed":true,"internalType":"uint256","name":"weekId","type":"uint256"},{"indexed":true,"internalType":"address","name":"user","type":"address"},{"indexed":true,"internalType":"address","name":"caller","type":"address"},{"indexed":false,"internalType":"uint256","name":"amount","type":"uint256"}],"name":"RewardSwept","type":"event"},{"anonymous":false,"inputs":[{"indexed":true,"internalType":"bytes32","name":"role","type":"bytes32"},{"indexed":true,"internalType":"bytes32","name":"previousAdminRole","type":"bytes32"},{"indexed":true,"internalType":"bytes32","name":"newAdminRole","type":"bytes32"}],"name":"RoleAdminChanged","type":"event"},{"anonymous":false,"inputs":[{"indexed":true,"internalType":"bytes32","name":"role","type":"bytes32"},{"indexed":true,"internalType":"address","name":"account","type":"address"},{"indexed":true,"internalType":"address","name":"sender","type":"address"}],"name":"RoleGranted","type":"event"},{"anonymous":false,"inputs":[{"indexed":true,"internalType":"bytes32","name":"role","type":"bytes32"},{"indexed":true,"internalType":"address","name":"account","type":"address"},{"indexed":true,"internalType":"address","name":"sender","type":"address"}],"name":"RoleRevoked","type":"event"},{"anonymous":false,"inputs":[{"indexed":false,"internalType":"bool","name":"enabled","type":"bool"}],"name":"TestModeChanged","type":"event"},{"anonymous":false,"inputs":[{"indexed":false,"internalType":"address","name":"account","type":"address"}],"name":"Unpaused","type":"event"},{"anonymous":false,"inputs":[{"indexed":true,"internalType":"uint256","name":"weekId","type":"uint256"},{"indexed":false,"internalType":"uint64","name":"startAt","type":"uint64"},{"indexed":false,"internalType":"uint64","name":"lockAt","type":"uint64"},{"indexed":false,"internalType":"uint64","name":"endAt","type":"uint64"}],"name":"WeekCreated","type":"event"},{"anonymous":false,"inputs":[{"indexed":true,"internalType":"uint256","name":"weekId","type":"uint256"}],"name":"WeekFinalizationRejected","type":"event"},{"anonymous":false,"inputs":[{"indexed":true,"internalType":"uint256","name":"weekId","type":"uint256"},{"indexed":false,"internalType":"bytes32","name":"merkleRoot","type":"bytes32"},{"indexed":false,"internalType":"bytes32","name":"metadataHash","type":"bytes32"},{"indexed":false,"internalType":"uint256","name":"retainedFee","type":"uint256"}],"name":"WeekFinalizePending","type":"event"},{"anonymous":false,"inputs":[{"indexed":true,"internalType":"uint256","name":"weekId","type":"uint256"},{"indexed":false,"internalType":"bytes32","name":"merkleRoot","type":"bytes32"},{"indexed":false,"internalType":"bytes32","name":"metadataHash","type":"bytes32"}],"name":"WeekFinalized","type":"event"},{"anonymous":false,"inputs":[{"indexed":true,"internalType":"uint256","name":"weekId","type":"uint256"}],"name":"WeekLocked","type":"event"},{"anonymous":false,"inputs":[{"indexed":true,"internalType":"uint256","name":"weekId","type":"uint256"}],"name":"WeekStarted","type":"event"},{"inputs":[],"name":"AUDITOR_ROLE","outputs":[{"internalType":"bytes32","name":"","type":"bytes32"}],"stateMutability":"view","type":"function"},{"inputs":[],"name":"BPS","outputs":[{"internalType":"uint256","name":"","type":"uint256"}],"stateMutability":"view","type":"function"},{"inputs":[],"name":"DEFAULT_ADMIN_ROLE","outputs":[{"internalType":"bytes32","name":"","type":"bytes32"}],"stateMutability":"view","type":"function"},{"inputs":[],"name":"MAX_SWAPS","outputs":[{"internalType":"uint8","name":"","type":"uint8"}],"stateMutability":"view","type":"function"},{"inputs":[],"name":"ORACLE_ROLE","outputs":[{"internalType":"bytes32","name":"","type":"bytes32"}],"stateMutability":"view","type":"function"},{"inputs":[],"name":"PAUSER_ROLE","outputs":[{"internalType":"bytes32","name":"","type":"bytes32"}],"stateMutability":"view","type":"function"},{"inputs":[],"name":"REWARD_SWEEP_DELAY","outputs":[{"internalType":"uint256","name":"","type":"uint256"}],"stateMutability":"view","type":"function"},{"inputs":[{"internalType":"uint256","name":"weekId","type":"uint256"}],"name":"approveFinalization","outputs":[],"stateMutability":"nonpayable","type":"function"},{"inputs":[{"internalType":"bytes32","name":"intentId","type":"bytes32"},{"internalType":"uint256","name":"weekId","type":"uint256"}],"name":"approveFinalizationWithIntent","outputs":[],"stateMutability":"nonpayable","type":"function"},{"inputs":[{"internalType":"uint256","name":"weekId","type":"uint256"},{"internalType":"uint256","name":"principal","type":"uint256"},{"internalType":"uint256","name":"riskPayout","type":"uint256"},{"internalType":"uint256","name":"totalWithdraw","type":"uint256"},{"internalType":"bytes32[]","name":"proof","type":"bytes32[]"}],"name":"claim","outputs":[],"stateMutability":"nonpayable","type":"function"},{"inputs":[{"internalType":"uint256","name":"weekId","type":"uint256"},{"internalType":"bytes32","name":"lineupHash","type":"bytes32"},{"internalType":"uint256","name":"depositAmount","type":"uint256"}],"name":"commitLineup","outputs":[],"stateMutability":"nonpayable","type":"function"},{"inputs":[{"internalType":"uint256","name":"weekId","type":"uint256"},{"internalType":"uint64","name":"startAt","type":"uint64"},{"internalType":"uint64","name":"lockAt","type":"uint64"},{"internalType":"uint64","name":"endAt","type":"uint64"}],"name":"createWeek","outputs":[],"stateMutability":"nonpayable","type":"function"},{"inputs":[{"internalType":"bytes32","name":"intentId","type":"bytes32"},{"internalType":"uint256","name":"weekId","type":"uint256"},{"internalType":"uint64","name":"startAt","type":"uint64"},{"internalType":"uint64","name":"lockAt","type":"uint64"},{"internalType":"uint64","name":"endAt","type":"uint64"}],"name":"createWeekWithIntent","outputs":[],"stateMutability":"nonpayable","type":"function"},{"inputs":[{"internalType":"uint256","name":"weekId","type":"uint256"}],"name":"emergencyExit","outputs":[],"stateMutability":"nonpayable","type":"function"},{"inputs":[],"name":"feeBps","outputs":[{"internalType":"uint16","name":"","type":"uint16"}],"stateMutability":"view","type":"function"},{"inputs":[{"internalType":"uint256","name":"weekId","type":"uint256"},{"internalType":"bytes32","name":"merkleRoot","type":"bytes32"},{"internalType":"bytes32","name":"metadataHash","type":"bytes32"},{"internalType":"uint256","name":"retainedFee","type":"uint256"}],"name":"finalizeWeek","outputs":[],"stateMutability":"nonpayable","type":"function"},{"inputs":[{"internalType":"bytes32","name":"intentId","type":"bytes32"},{"internalType":"uint256","name":"weekId","type":"uint256"},{"internalType":"bytes32","name":"merkleRoot","type":"bytes32"},{"internalType":"bytes32","name":"metadataHash","type":"bytes32"},{"internalType":"uint256","name":"retainedFee","type":"uint256"}],"name":"finalizeWeekWithIntent","outputs":[],"stateMutability":"nonpayable","type":"function"},{"inputs":[{"internalType":"uint256","name":"weekId","type":"uint256"},{"internalType":"bytes32","name":"merkleRoot","type":"bytes32"},{"internalType":"bytes32","name":"metadataHash","type":"bytes32"},{"internalType":"uint256","name":"retainedFee","type":"uint256"}],"name":"forceFinalizeWeek","outputs":[],"stateMutability":"nonpayable","type":"function"},{"inputs":[{"internalType":"bytes32","name":"intentId","type":"bytes32"},{"internalType":"uint256","name":"weekId","type":"uint256"},{"internalType":"bytes32","name":"merkleRoot","type":"bytes32"},{"internalType":"bytes32","name":"metadataHash","type":"bytes32"},{"internalType":"uint256","name":"retainedFee","type":"uint256"}],"name":"forceFinalizeWeekWithIntent","outputs":[],"stateMutability":"nonpayable","type":"function"},{"inputs":[{"internalType":"uint256","name":"weekId","type":"uint256"}],"name":"forceLockWeek","outputs":[],"stateMutability":"nonpayable","type":"function"},{"inputs":[{"internalType":"bytes32","name":"intentId","type":"bytes32"},{"internalType":"uint256","name":"weekId","type":"uint256"}],"name":"forceLockWeekWithIntent","outputs":[],"stateMutability":"nonpayable","type":"function"},{"inputs":[{"internalType":"uint256","name":"weekId","type":"uint256"}],"name":"forceStartWeek","outputs":[],"stateMutability":"nonpayable","type":"function"},{"inputs":[{"internalType":"bytes32","name":"intentId","type":"bytes32"},{"internalType":"uint256","name":"weekId","type":"uint256"}],"name":"forceStartWeekWithIntent","outputs":[],"stateMutability":"nonpayable","type":"function"},{"inputs":[{"internalType":"bytes32","name":"role","type":"bytes32"}],"name":"getRoleAdmin","outputs":[{"internalType":"bytes32","name":"","type":"bytes32"}],"stateMutability":"view","type":"function"},{"inputs":[{"internalType":"bytes32","name":"role","type":"bytes32"},{"internalType":"address","name":"account","type":"address"}],"name":"grantRole","outputs":[],"stateMutability":"nonpayable","type":"function"},{"inputs":[{"internalType":"bytes32","name":"role","type":"bytes32"},{"internalType":"address","name":"account","type":"address"}],"name":"hasRole","outputs":[{"internalType":"bool","name":"","type":"bool"}],"stateMutability":"view","type":"function"},{"inputs":[{"internalType":"bytes32","name":"","type":"bytes32"}],"name":"lifecycleIntentExecuted","outputs":[{"internalType":"bool","name":"","type":"bool"}],"stateMutability":"view","type":"function"},{"inputs":[{"internalType":"uint256","name":"weekId","type":"uint256"}],"name":"lockWeek","outputs":[],"stateMutability":"nonpayable","type":"function"},{"inputs":[{"internalType":"bytes32","name":"intentId","type":"bytes32"},{"internalType":"uint256","name":"weekId","type":"uint256"}],"name":"lockWeekWithIntent","outputs":[],"stateMutability":"nonpayable","type":"function"},{"inputs":[],"name":"minDeposit","outputs":[{"internalType":"uint256","name":"","type":"uint256"}],"stateMutability":"view","type":"function"},{"inputs":[],"name":"pause","outputs":[],"stateMutability":"nonpayable","type":"function"},{"inputs":[],"name":"paused","outputs":[{"internalType":"bool","name":"","type":"bool"}],"stateMutability":"view","type":"function"},{"inputs":[{"internalType":"uint256","name":"","type":"uint256"},{"internalType":"address","name":"","type":"address"}],"name":"positions","outputs":[{"internalType":"uint128","name":"principal","type":"uint128"},{"internalType":"uint128","name":"risk","type":"uint128"},{"internalType":"uint128","name":"forfeitedReward","type":"uint128"},{"internalType":"bytes32","name":"lineupHash","type":"bytes32"},{"internalType":"uint8","name":"swaps","type":"uint8"},{"internalType":"bool","name":"claimed","type":"bool"}],"stateMutability":"view","type":"function"},{"inputs":[],"name":"principalRatioBps","outputs":[{"internalType":"uint16","name":"","type":"uint16"}],"stateMutability":"view","type":"function"},{"inputs":[{"internalType":"uint256","name":"weekId","type":"uint256"}],"name":"rejectFinalization","outputs":[],"stateMutability":"nonpayable","type":"function"},{"inputs":[{"internalType":"bytes32","name":"intentId","type":"bytes32"},{"internalType":"uint256","name":"weekId","type":"uint256"}],"name":"rejectFinalizationWithIntent","outputs":[],"stateMutability":"nonpayable","type":"function"},{"inputs":[{"internalType":"bytes32","name":"role","type":"bytes32"},{"internalType":"address","name":"callerConfirmation","type":"address"}],"name":"renounceRole","outputs":[],"stateMutability":"nonpayable","type":"function"},{"inputs":[{"internalType":"bytes32","name":"role","type":"bytes32"},{"internalType":"address","name":"account","type":"address"}],"name":"revokeRole","outputs":[],"stateMutability":"nonpayable","type":"function"},{"inputs":[{"internalType":"uint256","name":"weekId","type":"uint256"}],"name":"rewardSweepAvailableAt","outputs":[{"internalType":"uint256","name":"","type":"uint256"}],"stateMutability":"view","type":"function"},{"inputs":[{"internalType":"bool","name":"enabled","type":"bool"}],"name":"setTestMode","outputs":[],"stateMutability":"nonpayable","type":"function"},{"inputs":[],"name":"stablecoin","outputs":[{"internalType":"contract IERC20","name":"","type":"address"}],"stateMutability":"view","type":"function"},{"inputs":[{"internalType":"uint256","name":"weekId","type":"uint256"}],"name":"startWeek","outputs":[],"stateMutability":"nonpayable","type":"function"},{"inputs":[{"internalType":"bytes32","name":"intentId","type":"bytes32"},{"internalType":"uint256","name":"weekId","type":"uint256"}],"name":"startWeekWithIntent","outputs":[],"stateMutability":"nonpayable","type":"function"},{"inputs":[{"internalType":"bytes4","name":"interfaceId","type":"bytes4"}],"name":"supportsInterface","outputs":[{"internalType":"bool","name":"","type":"bool"}],"stateMutability":"view","type":"function"},{"inputs":[{"internalType":"uint256","name":"weekId","type":"uint256"},{"internalType":"bytes32","name":"newHash","type":"bytes32"}],"name":"swapLineup","outputs":[],"stateMutability":"nonpayable","type":"function"},{"inputs":[{"internalType":"uint256","name":"weekId","type":"uint256"},{"internalType":"address","name":"user","type":"address"},{"internalType":"uint256","name":"principal","type":"uint256"},{"internalType":"uint256","name":"riskPayout","type":"uint256"},{"internalType":"uint256","name":"totalWithdraw","type":"uint256"},{"internalType":"bytes32[]","name":"proof","type":"bytes32[]"}],"name":"sweepExpiredReward","outputs":[],"stateMutability":"nonpayable","type":"function"},{"inputs":[],"name":"testMode","outputs":[{"internalType":"bool","name":"","type":"bool"}],"stateMutability":"view","type":"function"},{"inputs":[],"name":"treasury","outputs":[{"internalType":"address","name":"","type":"address"}],"stateMutability":"view","type":"function"},{"inputs":[],"name":"unpause","outputs":[],"stateMutability":"nonpayable","type":"function"},{"inputs":[{"internalType":"uint256","name":"","type":"uint256"}],"name":"weekStates","outputs":[{"internalType":"uint64","name":"startAt","type":"uint64"},{"internalType":"uint64","name":"lockAt","type":"uint64"},{"internalType":"uint64","name":"endAt","type":"uint64"},{"internalType":"uint64","name":"finalizedAt","type":"uint64"},{"internalType":"uint8","name":"status","type":"uint8"},{"internalType":"uint128","name":"riskCommitted","type":"uint128"},{"internalType":"uint128","name":"retainedFee","type":"uint128"},{"internalType":"bytes32","name":"merkleRoot","type":"bytes32"},{"internalType":"bytes32","name":"metadataHash","type":"bytes32"}],"stateMutability":"view","type":"function"}],"evm":{"bytecode":{"linkReferences":{},"object":"6101206040523480156200001257600080fd5b506040516200372638038062003726833981016040819052620000359162000325565b6001805460ff191681556002556001600160a01b0388166200006a5760405163e6c4247b60e01b815260040160405180910390fd5b6127108761ffff161115620000925760405163648564d360e01b815260040160405180910390fd5b6127108661ffff161115620000ba576040516358d620b360e01b815260040160405180910390fd5b84600003620000dc57604051634f4940eb60e11b815260040160405180910390fd5b6001600160a01b038416620001045760405163e6c4247b60e01b815260040160405180910390fd5b6001600160a01b0383166200012c5760405163cfe2ea6360e01b815260040160405180910390fd5b6001600160a01b038216620001545760405163e6c4247b60e01b815260040160405180910390fd5b6001600160a01b0381166200017c5760405163e6c4247b60e01b815260040160405180910390fd5b6001600160a01b03808916608052831660a05261ffff80881660c052861660e052610100859052620001b060008562000246565b50620001dd7f68e79a7bf1e0bc45d0a330c573bc367f9cf464fd326078812f301165fbda4ef18562000246565b506200020a7f65d7a28e3265b37a6474929f336521b332c1681b933f6cb9f3376673440d862a8362000246565b50620002377f59a1c48e5837ad7a7f3dcedcbe129bf3249ec4fbf651fd4f5e2600ead39fe2f58262000246565b505050505050505050620003c4565b6000828152602081815260408083206001600160a01b038516845290915281205460ff16620002eb576000838152602081815260408083206001600160a01b03861684529091529020805460ff19166001179055620002a23390565b6001600160a01b0316826001600160a01b0316847f2f8788117e7eff1d82e926ec794901d17c78024a50270940304540a733656f0d60405160405180910390a4506001620002ef565b5060005b92915050565b80516001600160a01b03811681146200030d57600080fd5b919050565b805161ffff811681146200030d57600080fd5b600080600080600080600080610100898b0312156200034357600080fd5b6200034e89620002f5565b97506200035e60208a0162000312565b96506200036e60408a0162000312565b9550606089015194506200038560808a01620002f5565b93506200039560a08a01620002f5565b9250620003a560c08a01620002f5565b9150620003b560e08a01620002f5565b90509295985092959890939650565b60805160a05160c05160e051610100516132ad620004796000396000818161056701526115fa015260006103d201526000818161058e01526117420152600081816105f9015281816111db015281816114570152818161147e01528181611c7901528181611ec60152611eed01526000818161085c01528181610fa5015281816111b10152818161127101528181611435015281816116c10152818161170e01528181611c4f0152611ea401526132ad6000f3fe608060405234801561001057600080fd5b50600436106102d65760003560e01c806363a9c0f811610182578063b692d265116100e9578063dda062d4116100a2578063e81248d21161007c578063e81248d214610844578063e9cbd82214610857578063ef8b2af51461087e578063f0a5e1431461089157600080fd5b8063dda062d41461076f578063e63ab1e914610779578063e684d718146107a057600080fd5b8063b692d26514610703578063c839d8dc14610716578063ca752a8214610729578063cd9ea3421461073c578063d19d1a0a14610749578063d547741f1461075c57600080fd5b80638016a1081161013b5780638016a108146106a75780638197eba8146106ba5780638456cb59146106cd5780638cd3b5e8146106d557806391d14854146106e8578063a217fddf146106fb57600080fd5b806363a9c0f814610633578063686c3db41461064657806368807391146106595780636e1d616e1461066c5780636e4322e5146106815780636eb14d3b1461069457600080fd5b80633145c3cd1161024157806341b3d185116101fa5780635463c3e8116101d45780635463c3e8146105c35780635c975abb146105d6578063601ee229146105e157806361d027b3146105f457600080fd5b806341b3d18514610562578063421e3cd6146105895780634231b0bd146105b057600080fd5b80633145c3cd1461041a5780633160c0811461042d578063316a65e51461045057806336568abe1461053457806336cb2920146105475780633f4ba83a1461055a57600080fd5b80631ff1292f116102935780631ff1292f1461037b57806324891c551461038e578063248a9ca3146103a1578063249d39e9146103c457806324a9d853146103cd5780632f2ff15d1461040757600080fd5b806301ffc9a7146102db578063062761211461030357806307e2cea51461031d578063161d263e146103405780631baa77f2146103555780631cd249e614610368575b600080fd5b6102ee6102e9366004612d71565b6108a4565b60405190151581526020015b60405180910390f35b61030b600a81565b60405160ff90911681526020016102fa565b61033260008051602061323883398151915281565b6040519081526020016102fa565b61035361034e366004612d9b565b6108db565b005b610353610363366004612db4565b61099a565b610353610376366004612d9b565b610a5f565b610353610389366004612de4565b610aec565b61035361039c366004612d9b565b610b3f565b6103326103af366004612d9b565b60009081526020819052604090206001015490565b61033261271081565b6103f47f000000000000000000000000000000000000000000000000000000000000000081565b60405161ffff90911681526020016102fa565b610353610415366004612e1d565b610bf0565b610353610428366004612d9b565b610c1b565b6102ee61043b366004612d9b565b60066020526000908152604090205460ff1681565b6104ce61045e366004612d9b565b6004602081905260009182526040909120805460018201546002830154600384015493909401546001600160401b0380841695600160401b8504821695600160801b8604831695600160c01b90049092169360ff8116936101009091046001600160801b03908116939216919089565b604080516001600160401b039a8b168152988a1660208a01529689169688019690965296909316606086015260ff90911660808501526001600160801b0390811660a08501521660c083015260e0820192909252610100810191909152610120016102fa565b610353610542366004612e1d565b610c94565b610353610555366004612e60565b610ccc565b610353610e07565b6103327f000000000000000000000000000000000000000000000000000000000000000081565b6103f47f000000000000000000000000000000000000000000000000000000000000000081565b6103536105be366004612d9b565b610e3c565b6103536105d1366004612ef8565b611011565b60015460ff166102ee565b6103536105ef366004612d9b565b6112e6565b61061b7f000000000000000000000000000000000000000000000000000000000000000081565b6040516001600160a01b0390911681526020016102fa565b610353610641366004612db4565b6113a6565b610353610654366004612f61565b611533565b610353610667366004612f8d565b61197a565b61033260008051602061325883398151915281565b61035361068f366004612fc8565b611a63565b6103536106a2366004612db4565b611cfa565b6103536106b5366004612db4565b611d54565b6103536106c8366004612d9b565b611e21565b610353611fa1565b6103536106e3366004612db4565b611fd3565b6102ee6106f6366004612e1d565b61213a565b610332600081565b610332610711366004612d9b565b612163565b610353610724366004613042565b6121cc565b610353610737366004612db4565b6122a0565b6003546102ee9060ff1681565b610353610757366004612f8d565b61236c565b61035361076a366004612e1d565b6123f8565b61033262ed4e0081565b6103327f65d7a28e3265b37a6474929f336521b332c1681b933f6cb9f3376673440d862a81565b6108036107ae366004612e1d565b600560209081526000928352604080842090915290825290208054600182015460028301546003909301546001600160801b0380841694600160801b9094048116939216919060ff8082169161010090041686565b604080516001600160801b03978816815295871660208701529390951692840192909252606083015260ff16608082015290151560a082015260c0016102fa565b610353610852366004613042565b61241d565b61061b7f000000000000000000000000000000000000000000000000000000000000000081565b61035361088c366004613074565b61249d565b61035361089f366004612db4565b6125e5565b60006001600160e01b03198216637965db0b60e01b14806108d557506301ffc9a760e01b6001600160e01b03198316145b92915050565b6000805160206132388339815191526108f3816126a2565b600082815260046020526040902060018082015460ff1614610928576040516363e0f9cf60e11b815260040160405180910390fd5b600181015461010090046001600160801b031660000361095b57604051630f2b655960e41b815260040160405180910390fd5b60018101805460ff1916600217905560405183907f4847a6ddbf4c912f1f99f61aa3f7abd920b5c1d300f4ed628dee038ef7ddefcb90600090a2505050565b6000805160206132388339815191526109b2816126a2565b6109be836003846126ac565b6000828152600460205260409020600181015460ff166002146109f45760405163f6c42cb560e01b815260040160405180910390fd5b80546001600160401b0316421015610a1f5760405163047ce04160e21b815260040160405180910390fd5b60018101805460ff1916600317905560405183907fac603d57c7726546b797af9d2815978752f98539d10067c831d5330c3bfc1aea90600090a250505050565b600080516020613238833981519152610a77816126a2565b6000828152600460205260409020600181015460ff16600214610aad5760405163f6c42cb560e01b815260040160405180910390fd5b60018101805460ff1916600317905560405183907fac603d57c7726546b797af9d2815978752f98539d10067c831d5330c3bfc1aea90600090a2505050565b6000610af7816126a2565b6003805460ff19168315159081179091556040519081527f3aa6186db6afba61ec3731f16e23fdea8dfa0dfe10d7c05942d11fdb365db0319060200160405180910390a15050565b600080516020613238833981519152610b57816126a2565b600082815260046020526040902060018082015460ff1614610b8c576040516363e0f9cf60e11b815260040160405180910390fd5b600181015461010090046001600160801b0316600003610bbf57604051630f2b655960e41b815260040160405180910390fd5b8054600160401b90046001600160401b031642101561095b576040516214930960e01b815260040160405180910390fd5b600082815260208190526040902060010154610c0b816126a2565b610c158383612754565b50505050565b600080516020613238833981519152610c33816126a2565b6000828152600460205260409020600181015460ff16600214610c695760405163f6c42cb560e01b815260040160405180910390fd5b80546001600160401b0316421015610aad5760405163047ce04160e21b815260040160405180910390fd5b6001600160a01b0381163314610cbd5760405163334bd91960e11b815260040160405180910390fd5b610cc782826127e6565b505050565b600080516020613238833981519152610ce4816126a2565b6000858152600460205260409020600181015460ff1615610d18576040516325c6d65760e11b815260040160405180910390fd5b846001600160401b0316846001600160401b03161180610d4a5750826001600160401b0316856001600160401b031610155b15610d685760405163536a71af60e01b815260040160405180910390fd5b80546001600160401b038681166001600160801b03199092168217600160401b8783169081029190911767ffffffffffffffff60801b1916600160801b9287169283021784556001808501805460ff1916909117905560408051938452602084019190915282015286907f5d5aab8af204a4135004372eb568fb9048bfea2555b25c1c5db092b56013ea589060600160405180910390a2505050505050565b7f65d7a28e3265b37a6474929f336521b332c1681b933f6cb9f3376673440d862a610e31816126a2565b610e39612851565b50565b610e446128a3565b610e4c6128c8565b6000818152600460205260409020600181015460ff1660041901610e835760405163121c1cb560e21b815260040160405180910390fd5b600082815260056020908152604080832033845290915290206003810154610100900460ff1615610ec757604051630c8d9eab60e31b815260040160405180910390fd5b8054600090610ee8906001600160801b03600160801b8204811691166130e1565b905080600003610f0b57604051635e096daf60e01b815260040160405180910390fd5b8154600160801b90046001600160801b03168015610f6b5760018481018054839290610f4690849061010090046001600160801b03166130f4565b92506101000a8154816001600160801b0302191690836001600160801b031602179055505b60008084556001840180546001600160801b0319169055600284015560038301805461ffff1916610100179055610fcc6001600160a01b037f00000000000000000000000000000000000000000000000000000000000000001633846128f0565b604051828152339086907f0782d17757ef22b6d49078e7415f30225d972d06ec6433e96ea382674493af429060200160405180910390a350505050610e396001600255565b6110196128c8565b6000868152600460205260409020600181015460ff1660051461104f576040516365e1a11160e11b815260040160405180910390fd5b600087815260056020908152604080832033845290915290206003810154610100900460ff161561109357604051630c8d9eab60e31b815260040160405180910390fd5b600030468a338b8b8b6040516020016110b2979695949392919061311b565b60405160208183030381529060405280519060200120905061110b85858080602002602001604051908101604052809392919081815260200183836020028082843760009201919091525050505060038501548361294f565b611128576040516309bde33960e01b815260040160405180910390fd5b600182015486906001600160801b03168015801561114a575061114a85612965565b1561123c57600061115c858c8b6129b1565b9050801561123a576001600160801b0381111561118c5760405163c56d46d360e01b815260040160405180910390fd5b6001850180546001600160801b0319166001600160801b0383161790559050806112007f00000000000000000000000000000000000000000000000000000000000000006001600160a01b03167f0000000000000000000000000000000000000000000000000000000000000000836128f0565b604051818152339081908e907ff2d8b3e55fc163d23dc20f735eafa12caa3f0f65c229d1e0398493935755949d9060200160405180910390a45b505b818111156112475750805b6112518183613169565b60038501805461ff00191661010017905591506112986001600160a01b037f00000000000000000000000000000000000000000000000000000000000000001633846128f0565b60405182815233908c907f4ec90e965519d92681267467f775ada5bd214aa92c0dc93d90a5e880ce9ed0269060200160405180910390a350505050506112de6001600255565b505050505050565b6000805160206132588339815191526112fe816126a2565b60008281526004602081905260409091206001810154909160ff909116146113395760405163c50c9a7f60e01b815260040160405180910390fd5b60018101805460ff1916600390811790915581546001600160c01b031682556002820180546001600160801b031916905560009082018190556004820181905560405184917f262bb819c866f92fbce469b11aff93b1cc683adaba550cb35045cf48671d6cfa91a2505050565b6000805160206132588339815191526113be816126a2565b6113ca836005846126ac565b60008281526004602081905260409091206001810154909160ff909116146114055760405163c50c9a7f60e01b815260040160405180910390fd5b60018101805460ff1916600517905560028101546001600160801b031680156114e15761147c6001600160a01b037f0000000000000000000000000000000000000000000000000000000000000000167f0000000000000000000000000000000000000000000000000000000000000000836128f0565b7f00000000000000000000000000000000000000000000000000000000000000006001600160a01b0316847f0e19f21371647f79bb7c3f1e363266315b211fcca3836e7a71425cc0c4ab6a8e836040516114d891815260200190565b60405180910390a35b837fe3ae6d591c9a33e364ec2f64a44c0f22b39c7408f4c24b7b6a330cdff31e63a583600301548460040154604051611524929190918252602082015260400190565b60405180910390a25050505050565b61153b6129f8565b6115436128c8565b600083815260046020526040902060018082015460ff1614611578576040516363e0f9cf60e11b815260040160405180910390fd5b60035460ff1615801561159c57508054600160401b90046001600160401b03164210155b156115ba576040516370fe87b160e01b815260040160405180910390fd5b826115d7576040516257c03760e51b815260040160405180910390fd5b816000036115f857604051635972996f60e11b815260040160405180910390fd5b7f0000000000000000000000000000000000000000000000000000000000000000821015611639576040516325bb239560e21b815260040160405180910390fd5b600084815260056020908152604080832033845290915290206003810154610100900460ff161561167d57604051630c8d9eab60e31b815260040160405180910390fd5b805460009061169e906001600160801b03600160801b8204811691166130e1565b9050808411156116ee576116e933306116b78488613169565b6001600160a01b037f000000000000000000000000000000000000000000000000000000000000000016929190612a1c565b611735565b8084101561173557611735336117048684613169565b6001600160a01b037f00000000000000000000000000000000000000000000000000000000000000001691906128f0565b600061271061176861ffff7f0000000000000000000000000000000000000000000000000000000000000000168761317c565b6117729190613193565b905060006117808287613169565b90506001600160801b0382118061179d57506001600160801b0381115b156117bb5760405163c56d46d360e01b815260040160405180910390fd5b8354600160801b90046001600160801b031680821115611836576117e86001600160801b03821683613169565b8660010160018282829054906101000a90046001600160801b031661180d91906131b5565b92506101000a8154816001600160801b0302191690836001600160801b031602179055506118a4565b806001600160801b03168210156118a45761185a826001600160801b038316613169565b8660010160018282829054906101000a90046001600160801b031661187f91906130f4565b92506101000a8154816001600160801b0302191690836001600160801b031602179055505b6001600160801b03828116600160801b029084161785556001850180546001600160801b03191690556002850188905560038501805461ffff19169055600084900361192c57604080518981526020810189905233918b917f80911c202f290b865d2f04d188438939370585fe8970854f13309adaebf28a8a910160405180910390a361196a565b604080518981526020810189905233918b917f645958708f60ea0b47fa2c9c64bae144d7111035c5f9bb13ac45022c6f018651910160405180910390a35b505050505050610cc76001600255565b600080516020613238833981519152611992816126a2565b61199e866004876126ac565b6000858152600460205260409020600181015460ff166003146119d457604051633e6881c560e01b815260040160405180910390fd5b846119f257604051639dd854d360e01b815260040160405180910390fd5b6001600160801b03831115611a1a5760405163c56d46d360e01b815260040160405180910390fd5b600181015461010090046001600160801b0316831115611a4d576040516358d620b360e01b815260040160405180910390fd5b611a5a8187878787612a55565b50505050505050565b611a6b6128c8565b6000878152600460205260409020600181015460ff16600514611aa1576040516365e1a11160e11b815260040160405180910390fd5b611aaa81612965565b611ac757604051632718eac760e01b815260040160405180910390fd5b60008881526005602090815260408083206001600160a01b038b16845290915290206003810154610100900460ff1615611b1457604051630c8d9eab60e31b815260040160405180910390fd5b60018101546001600160801b031615611b4057604051636caabf8f60e11b815260040160405180910390fd5b600030468b8b8b8b8b604051602001611b5f979695949392919061311b565b604051602081830303815290604052805190602001209050611bb885858080602002602001604051908101604052809392919081815260200183836020028082843760009201919091525050505060038501548361294f565b611bd5576040516309bde33960e01b815260040160405180910390fd5b6000611be2838a896129b1565b905080600003611c0557604051631557f70960e01b815260040160405180910390fd5b6001600160801b03811115611c2d5760405163c56d46d360e01b815260040160405180910390fd5b6001830180546001600160801b0319166001600160801b038316179055611c9e7f00000000000000000000000000000000000000000000000000000000000000006001600160a01b03167f0000000000000000000000000000000000000000000000000000000000000000836128f0565b336001600160a01b03168a6001600160a01b03168c7ff2d8b3e55fc163d23dc20f735eafa12caa3f0f65c229d1e0398493935755949d84604051611ce491815260200190565b60405180910390a450505050611a5a6001600255565b600080516020613238833981519152611d12816126a2565b611d1e836003846126ac565b6000828152600460205260409020600181015460ff16600214610a1f5760405163f6c42cb560e01b815260040160405180910390fd5b600080516020613258833981519152611d6c816126a2565b611d78836006846126ac565b60008281526004602081905260409091206001810154909160ff90911614611db35760405163c50c9a7f60e01b815260040160405180910390fd5b60018101805460ff1916600390811790915581546001600160c01b031682556002820180546001600160801b031916905560009082018190556004820181905560405184917f262bb819c866f92fbce469b11aff93b1cc683adaba550cb35045cf48671d6cfa91a250505050565b600080516020613258833981519152611e39816126a2565b60008281526004602081905260409091206001810154909160ff90911614611e745760405163c50c9a7f60e01b815260040160405180910390fd5b60018101805460ff1916600517905560028101546001600160801b03168015611f5057611eeb6001600160a01b037f0000000000000000000000000000000000000000000000000000000000000000167f0000000000000000000000000000000000000000000000000000000000000000836128f0565b7f00000000000000000000000000000000000000000000000000000000000000006001600160a01b0316847f0e19f21371647f79bb7c3f1e363266315b211fcca3836e7a71425cc0c4ab6a8e83604051611f4791815260200190565b60405180910390a35b837fe3ae6d591c9a33e364ec2f64a44c0f22b39c7408f4c24b7b6a330cdff31e63a583600301548460040154604051611f93929190918252602082015260400190565b60405180910390a250505050565b7f65d7a28e3265b37a6474929f336521b332c1681b933f6cb9f3376673440d862a611fcb816126a2565b610e39612aef565b611fdb6129f8565b6000828152600460205260409020600181015460ff1660031461201157604051633e6881c560e01b815260040160405180910390fd5b60035460ff1615801561203557508054600160801b90046001600160401b03164210155b156120535760405163cae73d4560e01b815260040160405180910390fd5b60008381526005602090815260408083203384529091529020600281015461208e57604051635e096daf60e01b815260040160405180910390fd5b6003810154600a60ff909116106120b85760405163a3869ab760e01b815260040160405180910390fd5b826120d5576040516257c03760e51b815260040160405180910390fd5b6002810183905560038101805460ff8082166001011660ff199091168117909155604080518581526020810192909252339186917ff13a4df72601c50daaff7ebb4317c336455ac45e70cba3146db7ffd8104cb17c910160405180910390a350505050565b6000918252602082815260408084206001600160a01b0393909316845291905290205460ff1690565b6000818152600460205260408120600181015460ff16600514158061219757508054600160c01b90046001600160401b0316155b156121a55750600092915050565b80546121c59062ed4e0090600160c01b90046001600160401b03166130e1565b9392505050565b6000805160206132388339815191526121e4816126a2565b6000858152600460205260409020600181015460ff1660031461221a57604051633e6881c560e01b815260040160405180910390fd5b8461223857604051639dd854d360e01b815260040160405180910390fd5b6001600160801b038311156122605760405163c56d46d360e01b815260040160405180910390fd5b600181015461010090046001600160801b0316831115612293576040516358d620b360e01b815260040160405180910390fd5b6112de8187878787612a55565b6000805160206132388339815191526122b8816126a2565b6122c4836002846126ac565b600082815260046020526040902060018082015460ff16146122f9576040516363e0f9cf60e11b815260040160405180910390fd5b600181015461010090046001600160801b031660000361232c57604051630f2b655960e41b815260040160405180910390fd5b60018101805460ff1916600217905560405183907f4847a6ddbf4c912f1f99f61aa3f7abd920b5c1d300f4ed628dee038ef7ddefcb90600090a250505050565b600080516020613238833981519152612384816126a2565b612390866004876126ac565b6000858152600460205260409020600181015460ff166003146123c657604051633e6881c560e01b815260040160405180910390fd5b8054600160801b90046001600160401b03164210156119d4576040516307cd705b60e41b815260040160405180910390fd5b600082815260208190526040902060010154612413816126a2565b610c1583836127e6565b600080516020613238833981519152612435816126a2565b6000858152600460205260409020600181015460ff1660031461246b57604051633e6881c560e01b815260040160405180910390fd5b8054600160801b90046001600160401b031642101561221a576040516307cd705b60e41b815260040160405180910390fd5b6000805160206132388339815191526124b5816126a2565b6124c1866001876126ac565b6000858152600460205260409020600181015460ff16156124f5576040516325c6d65760e11b815260040160405180910390fd5b846001600160401b0316846001600160401b031611806125275750826001600160401b0316856001600160401b031610155b156125455760405163536a71af60e01b815260040160405180910390fd5b80546001600160401b038681166001600160801b03199092168217600160401b8783169081029190911767ffffffffffffffff60801b1916600160801b9287169283021784556001808501805460ff1916909117905560408051938452602084019190915282015286907f5d5aab8af204a4135004372eb568fb9048bfea2555b25c1c5db092b56013ea589060600160405180910390a250505050505050565b6000805160206132388339815191526125fd816126a2565b612609836002846126ac565b600082815260046020526040902060018082015460ff161461263e576040516363e0f9cf60e11b815260040160405180910390fd5b600181015461010090046001600160801b031660000361267157604051630f2b655960e41b815260040160405180910390fd5b8054600160401b90046001600160401b031642101561232c576040516214930960e01b815260040160405180910390fd5b610e398133612b2a565b826126c9576040516257c03760e51b815260040160405180910390fd5b60008381526006602052604090205460ff16156126f957604051633b68b0fd60e01b815260040160405180910390fd5b600083815260066020908152604091829020805460ff191660011790559051338152829160ff85169186917f121fd9492d7f257411c5cf9171f742f0647d83ce66809d7b04c249687f4fd0d7910160405180910390a4505050565b6000612760838361213a565b6127de576000838152602081815260408083206001600160a01b03861684529091529020805460ff191660011790556127963390565b6001600160a01b0316826001600160a01b0316847f2f8788117e7eff1d82e926ec794901d17c78024a50270940304540a733656f0d60405160405180910390a45060016108d5565b5060006108d5565b60006127f2838361213a565b156127de576000838152602081815260408083206001600160a01b0386168085529252808320805460ff1916905551339286917ff6391f5c32d9c69d2a47ea670b442974b53935d1edc7fd64eb21e047a839171b9190a45060016108d5565b6128596128a3565b6001805460ff191690557f5db9ee0a495bf2e6ff9c91a7834c1ba4fdd244a5e8aa4e537bd38aeae4b073aa335b6040516001600160a01b03909116815260200160405180910390a1565b60015460ff166128c657604051638dfc202b60e01b815260040160405180910390fd5b565b60028054036128ea57604051633ee5aeb560e01b815260040160405180910390fd5b60028055565b6040516001600160a01b03838116602483015260448201839052610cc791859182169063a9059cbb906064015b604051602081830303815290604052915060e01b6020820180516001600160e01b038381831617835250505050612b6c565b60008261295c8584612bcf565b14949350505050565b8054600090600160c01b90046001600160401b0316810361298857506000919050565b81546129a89062ed4e0090600160c01b90046001600160401b03166130e1565b42101592915050565b825460009081906129d290600160801b90046001600160801b0316856130e1565b90508083116129e55760009150506121c5565b6129ef8184613169565b95945050505050565b60015460ff16156128c65760405163d93c066560e01b815260040160405180910390fd5b6040516001600160a01b038481166024830152838116604483015260648201839052610c159186918216906323b872dd9060840161291d565b600185018054600460ff19909116811790915585546001600160c01b0316600160c01b426001600160401b0316021786556002860180546001600160801b0319166001600160801b038416179055600386018490558501829055604080518481526020810184905290810182905284907f6faa1c6974b01d1466668718128c05788426c37fd3f11667f2cf4bc79a7cb7d690606001611524565b612af76129f8565b6001805460ff1916811790557f62e78cea01bee320cd4e420270b5ea74000d11b0c9f74754ebdbfc544b05a25833612886565b612b34828261213a565b612b685760405163e2517d3f60e01b81526001600160a01b0382166004820152602481018390526044015b60405180910390fd5b5050565b6000612b816001600160a01b03841683612c12565b90508051600014158015612ba6575080806020019051810190612ba491906131d5565b155b15610cc757604051635274afe760e01b81526001600160a01b0384166004820152602401612b5f565b600081815b8451811015612c0a57612c0082868381518110612bf357612bf36131f2565b6020026020010151612c20565b9150600101612bd4565b509392505050565b60606121c583836000612c4f565b6000818310612c3c5760008281526020849052604090206121c5565b60008381526020839052604090206121c5565b606081471015612c745760405163cd78605960e01b8152306004820152602401612b5f565b600080856001600160a01b03168486604051612c909190613208565b60006040518083038185875af1925050503d8060008114612ccd576040519150601f19603f3d011682016040523d82523d6000602084013e612cd2565b606091505b5091509150612ce2868383612cec565b9695505050505050565b606082612d0157612cfc82612d48565b6121c5565b8151158015612d1857506001600160a01b0384163b155b15612d4157604051639996b31560e01b81526001600160a01b0385166004820152602401612b5f565b50806121c5565b805115612d585780518082602001fd5b604051630a12f52160e11b815260040160405180910390fd5b600060208284031215612d8357600080fd5b81356001600160e01b0319811681146121c557600080fd5b600060208284031215612dad57600080fd5b5035919050565b60008060408385031215612dc757600080fd5b50508035926020909101359150565b8015158114610e3957600080fd5b600060208284031215612df657600080fd5b81356121c581612dd6565b80356001600160a01b0381168114612e1857600080fd5b919050565b60008060408385031215612e3057600080fd5b82359150612e4060208401612e01565b90509250929050565b80356001600160401b0381168114612e1857600080fd5b60008060008060808587031215612e7657600080fd5b84359350612e8660208601612e49565b9250612e9460408601612e49565b9150612ea260608601612e49565b905092959194509250565b60008083601f840112612ebf57600080fd5b5081356001600160401b03811115612ed657600080fd5b6020830191508360208260051b8501011115612ef157600080fd5b9250929050565b60008060008060008060a08789031215612f1157600080fd5b8635955060208701359450604087013593506060870135925060808701356001600160401b03811115612f4357600080fd5b612f4f89828a01612ead565b979a9699509497509295939492505050565b600080600060608486031215612f7657600080fd5b505081359360208301359350604090920135919050565b600080600080600060a08688031215612fa557600080fd5b505083359560208501359550604085013594606081013594506080013592509050565b600080600080600080600060c0888a031215612fe357600080fd5b87359650612ff360208901612e01565b955060408801359450606088013593506080880135925060a08801356001600160401b0381111561302357600080fd5b61302f8a828b01612ead565b989b979a50959850939692959293505050565b6000806000806080858703121561305857600080fd5b5050823594602084013594506040840135936060013592509050565b600080600080600060a0868803121561308c57600080fd5b85359450602086013593506130a360408701612e49565b92506130b160608701612e49565b91506130bf60808701612e49565b90509295509295909350565b634e487b7160e01b600052601160045260246000fd5b808201808211156108d5576108d56130cb565b6001600160801b03828116828216039080821115613114576131146130cb565b5092915050565b6bffffffffffffffffffffffff19606098891b81168252601482019790975260348101959095529290951b90931660548301526068820192909252608881019290925260a882015260c80190565b818103818111156108d5576108d56130cb565b80820281158282048414176108d5576108d56130cb565b6000826131b057634e487b7160e01b600052601260045260246000fd5b500490565b6001600160801b03818116838216019080821115613114576131146130cb565b6000602082840312156131e757600080fd5b81516121c581612dd6565b634e487b7160e01b600052603260045260246000fd5b6000825160005b81811015613229576020818601810151858301520161320f565b50600092019182525091905056fe68e79a7bf1e0bc45d0a330c573bc367f9cf464fd326078812f301165fbda4ef159a1c48e5837ad7a7f3dcedcbe129bf3249ec4fbf651fd4f5e2600ead39fe2f5a264697066735822122047afc1309c81e2f2add08ef7cfaba4d4bf999bf6f5aa183bd7e900f214f78b2a64736f6c63430008180033","opcodes":"PUSH2 0x120 PUSH1 0x40 MSTORE CALLVALUE DUP1 ISZERO PUSH3 0x12 JUMPI PUSH1 0x0 DUP1 REVERT JUMPDEST POP PUSH1 0x40 MLOAD PUSH3 0x3726 CODESIZE SUB DUP1 PUSH3 0x3726 DUP4 CODECOPY DUP2 ADD PUSH1 0x40 DUP2 SWAP1 MSTORE PUSH3 0x35 SWAP2 PUSH3 0x325 JUMP JUMPDEST PUSH1 0x1 DUP1 SLOAD PUSH1 0xFF NOT AND DUP2 SSTORE PUSH1 0x2 SSTORE PUSH1 0x1 PUSH1 0x1 PUSH1 0xA0 SHL SUB DUP9 AND PUSH3 0x6A JUMPI PUSH1 0x40 MLOAD PUSH4 0xE6C4247B PUSH1 0xE0 SHL DUP2 MSTORE PUSH1 0x4 ADD PUSH1 0x40 MLOAD DUP1 SWAP2 SUB SWAP1 REVERT JUMPDEST PUSH2 0x2710 DUP8 PUSH2 0xFFFF AND GT ISZERO PUSH3 0x92 JUMPI PUSH1 0x40 MLOAD PUSH4 0x648564D3 PUSH1 0xE0 SHL DUP2 MSTORE PUSH1 0x4 ADD PUSH1 0x40 MLOAD DUP1 SWAP2 SUB SWAP1 REVERT JUMPDEST PUSH2 0x2710 DUP7 PUSH2 0xFFFF AND GT ISZERO PUSH3 0xBA JUMPI PUSH1 0x40 MLOAD PUSH4 0x58D620B3 PUSH1 0xE0 SHL DUP2 MSTORE PUSH1 0x4 ADD PUSH1 0x40 MLOAD DUP1 SWAP2 SUB SWAP1 REVERT JUMPDEST DUP5 PUSH1 0x0 SUB PUSH3 0xDC JUMPI PUSH1 0x40 MLOAD PUSH4 0x4F4940EB PUSH1 0xE1 SHL DUP2 MSTORE PUSH1 0x4 ADD PUSH1 0x40 MLOAD DUP1 SWAP2 SUB SWAP1 REVERT JUMPDEST PUSH1 0x1 PUSH1 0x1 PUSH1 0xA0 SHL SUB DUP5 AND PUSH3 0x104 JUMPI PUSH1 0x40 MLOAD PUSH4 0xE6C4247B PUSH1 0xE0 SHL DUP2 MSTORE PUSH1 0x4 ADD PUSH1 0x40 MLOAD DUP1 SWAP2 SUB SWAP1 REVERT JUMPDEST PUSH1 0x1 PUSH1 0x1 PUSH1 0xA0 SHL SUB DUP4 AND PUSH3 0x12C JUMPI PUSH1 0x40 MLOAD PUSH4 0xCFE2EA63 PUSH1 0xE0 SHL DUP2 MSTORE PUSH1 0x4 ADD PUSH1 0x40 MLOAD DUP1 SWAP2 SUB SWAP1 REVERT JUMPDEST PUSH1 0x1 PUSH1 0x1 PUSH1 0xA0 SHL SUB DUP3 AND PUSH3 0x154 JUMPI PUSH1 0x40 MLOAD PUSH4 0xE6C4247B PUSH1 0xE0 SHL DUP2 MSTORE PUSH1 0x4 ADD PUSH1 0x40 MLOAD DUP1 SWAP2 SUB SWAP1 REVERT JUMPDEST PUSH1 0x1 PUSH1 0x1 PUSH1 0xA0 SHL SUB DUP2 AND PUSH3 0x17C JUMPI PUSH1 0x40 MLOAD PUSH4 0xE6C4247B PUSH1 0xE0 SHL DUP2 MSTORE PUSH1 0x4 ADD PUSH1 0x40 MLOAD DUP1 SWAP2 SUB SWAP1 REVERT JUMPDEST PUSH1 0x1 PUSH1 0x1 PUSH1 0xA0 SHL SUB DUP1 DUP10 AND PUSH1 0x80 MSTORE DUP4 AND PUSH1 0xA0 MSTORE PUSH2 0xFFFF DUP1 DUP9 AND PUSH1 0xC0 MSTORE DUP7 AND PUSH1 0xE0 MSTORE PUSH2 0x100 DUP6 SWAP1 MSTORE PUSH3 0x1B0 PUSH1 0x0 DUP6 PUSH3 0x246 JUMP JUMPDEST POP PUSH3 0x1DD PUSH32 0x68E79A7BF1E0BC45D0A330C573BC367F9CF464FD326078812F301165FBDA4EF1 DUP6 PUSH3 0x246 JUMP JUMPDEST POP PUSH3 0x20A PUSH32 0x65D7A28E3265B37A6474929F336521B332C1681B933F6CB9F3376673440D862A DUP4 PUSH3 0x246 JUMP JUMPDEST POP PUSH3 0x237 PUSH32 0x59A1C48E5837AD7A7F3DCEDCBE129BF3249EC4FBF651FD4F5E2600EAD39FE2F5 DUP3 PUSH3 0x246 JUMP JUMPDEST POP POP POP POP POP POP POP POP POP PUSH3 0x3C4 JUMP JUMPDEST PUSH1 0x0 DUP3 DUP2 MSTORE PUSH1 0x20 DUP2 DUP2 MSTORE PUSH1 0x40 DUP1 DUP4 KECCAK256 PUSH1 0x1 PUSH1 0x1 PUSH1 0xA0 SHL SUB DUP6 AND DUP5 MSTORE SWAP1 SWAP2 MSTORE DUP2 KECCAK256 SLOAD PUSH1 0xFF AND PUSH3 0x2EB JUMPI PUSH1 0x0 DUP4 DUP2 MSTORE PUSH1 0x20 DUP2 DUP2 MSTORE PUSH1 0x40 DUP1 DUP4 KECCAK256 PUSH1 0x1 PUSH1 0x1 PUSH1 0xA0 SHL SUB DUP7 AND DUP5 MSTORE SWAP1 SWAP2 MSTORE SWAP1 KECCAK256 DUP1 SLOAD PUSH1 0xFF NOT AND PUSH1 0x1 OR SWAP1 SSTORE PUSH3 0x2A2 CALLER SWAP1 JUMP JUMPDEST PUSH1 0x1 PUSH1 0x1 PUSH1 0xA0 SHL SUB AND DUP3 PUSH1 0x1 PUSH1 0x1 PUSH1 0xA0 SHL SUB AND DUP5 PUSH32 0x2F8788117E7EFF1D82E926EC794901D17C78024A50270940304540A733656F0D PUSH1 0x40 MLOAD PUSH1 0x40 MLOAD DUP1 SWAP2 SUB SWAP1 LOG4 POP PUSH1 0x1 PUSH3 0x2EF JUMP JUMPDEST POP PUSH1 0x0 JUMPDEST SWAP3 SWAP2 POP POP JUMP JUMPDEST DUP1 MLOAD PUSH1 0x1 PUSH1 0x1 PUSH1 0xA0 SHL SUB DUP2 AND DUP2 EQ PUSH3 0x30D JUMPI PUSH1 0x0 DUP1 REVERT JUMPDEST SWAP2 SWAP1 POP JUMP JUMPDEST DUP1 MLOAD PUSH2 0xFFFF DUP2 AND DUP2 EQ PUSH3 0x30D JUMPI PUSH1 0x0 DUP1 REVERT JUMPDEST PUSH1 0x0 DUP1 PUSH1 0x0 DUP1 PUSH1 0x0 DUP1 PUSH1 0x0 DUP1 PUSH2 0x100 DUP10 DUP12 SUB SLT ISZERO PUSH3 0x343 JUMPI PUSH1 0x0 DUP1 REVERT JUMPDEST PUSH3 0x34E DUP10 PUSH3 0x2F5 JUMP JUMPDEST SWAP8 POP PUSH3 0x35E PUSH1 0x20 DUP11 ADD PUSH3 0x312 JUMP JUMPDEST SWAP7 POP PUSH3 0x36E PUSH1 0x40 DUP11 ADD PUSH3 0x312 JUMP JUMPDEST SWAP6 POP PUSH1 0x60 DUP10 ADD MLOAD SWAP5 POP PUSH3 0x385 PUSH1 0x80 DUP11 ADD PUSH3 0x2F5 JUMP JUMPDEST SWAP4 POP PUSH3 0x395 PUSH1 0xA0 DUP11 ADD PUSH3 0x2F5 JUMP JUMPDEST SWAP3 POP PUSH3 0x3A5 PUSH1 0xC0 DUP11 ADD PUSH3 0x2F5 JUMP JUMPDEST SWAP2 POP PUSH3 0x3B5 PUSH1 0xE0 DUP11 ADD PUSH3 0x2F5 JUMP JUMPDEST SWAP1 POP SWAP3 SWAP6 SWAP9 POP SWAP3 SWAP6 SWAP9 SWAP1 SWAP4 SWAP7 POP JUMP JUMPDEST PUSH1 0x80 MLOAD PUSH1 0xA0 MLOAD PUSH1 0xC0 MLOAD PUSH1 0xE0 MLOAD PUSH2 0x100 MLOAD PUSH2 0x32AD PUSH3 0x479 PUSH1 0x0 CODECOPY PUSH1 0x0 DUP2 DUP2 PUSH2 0x567 ADD MSTORE PUSH2 0x15FA ADD MSTORE PUSH1 0x0 PUSH2 0x3D2 ADD MSTORE PUSH1 0x0 DUP2 DUP2 PUSH2 0x58E ADD MSTORE PUSH2 0x1742 ADD MSTORE PUSH1 0x0 DUP2 DUP2 PUSH2 0x5F9 ADD MSTORE DUP2 DUP2 PUSH2 0x11DB ADD MSTORE DUP2 DUP2 PUSH2 0x1457 ADD MSTORE DUP2 DUP2 PUSH2 0x147E ADD MSTORE DUP2 DUP2 PUSH2 0x1C79 ADD MSTORE DUP2 DUP2 PUSH2 0x1EC6 ADD MSTORE PUSH2 0x1EED ADD MSTORE PUSH1 0x0 DUP2 DUP2 PUSH2 0x85C ADD MSTORE DUP2 DUP2 PUSH2 0xFA5 ADD MSTORE DUP2 DUP2 PUSH2 0x11B1 ADD MSTORE DUP2 DUP2 PUSH2 0x1271 ADD MSTORE DUP2 DUP2 PUSH2 0x1435 ADD MSTORE DUP2 DUP2 PUSH2 0x16C1 ADD MSTORE DUP2 DUP2 PUSH2 0x170E ADD MSTORE DUP2 DUP2 PUSH2 0x1C4F ADD MSTORE PUSH2 0x1EA4 ADD MSTORE PUSH2 0x32AD PUSH1 0x0 RETURN INVALID PUSH1 0x80 PUSH1 0x40 MSTORE CALLVALUE DUP1 ISZERO PUSH2 0x10 JUMPI PUSH1 0x0 DUP1 REVERT JUMPDEST POP PUSH1 0x4 CALLDATASIZE LT PUSH2 0x2D6 JUMPI PUSH1 0x0 CALLDATALOAD PUSH1 0xE0 SHR DUP1 PUSH4 0x63A9C0F8 GT PUSH2 0x182 JUMPI DUP1 PUSH4 0xB692D265 GT PUSH2 0xE9 JUMPI DUP1 PUSH4 0xDDA062D4 GT PUSH2 0xA2 JUMPI DUP1 PUSH4 0xE81248D2 GT PUSH2 0x7C JUMPI DUP1 PUSH4 0xE81248D2 EQ PUSH2 0x844 JUMPI DUP1 PUSH4 0xE9CBD822 EQ PUSH2 0x857 JUMPI DUP1 PUSH4 0xEF8B2AF5 EQ PUSH2 0x87E JUMPI DUP1 PUSH4 0xF0A5E143 EQ PUSH2 0x891 JUMPI PUSH1 0x0 DUP1 REVERT JUMPDEST DUP1 PUSH4 0xDDA062D4 EQ PUSH2 0x76F JUMPI DUP1 PUSH4 0xE63AB1E9 EQ PUSH2 0x779 JUMPI DUP1 PUSH4 0xE684D718 EQ PUSH2 0x7A0 JUMPI PUSH1 0x0 DUP1 REVERT JUMPDEST DUP1 PUSH4 0xB692D265 EQ PUSH2 0x703 JUMPI DUP1 PUSH4 0xC839D8DC EQ PUSH2 0x716 JUMPI DUP1 PUSH4 0xCA752A82 EQ PUSH2 0x729 JUMPI DUP1 PUSH4 0xCD9EA342 EQ PUSH2 0x73C JUMPI DUP1 PUSH4 0xD19D1A0A EQ PUSH2 0x749 JUMPI DUP1 PUSH4 0xD547741F EQ PUSH2 0x75C JUMPI PUSH1 0x0 DUP1 REVERT JUMPDEST DUP1 PUSH4 0x8016A108 GT PUSH2 0x13B JUMPI DUP1 PUSH4 0x8016A108 EQ PUSH2 0x6A7 JUMPI DUP1 PUSH4 0x8197EBA8 EQ PUSH2 0x6BA JUMPI DUP1 PUSH4 0x8456CB59 EQ PUSH2 0x6CD JUMPI DUP1 PUSH4 0x8CD3B5E8 EQ PUSH2 0x6D5 JUMPI DUP1 PUSH4 0x91D14854 EQ PUSH2 0x6E8 JUMPI DUP1 PUSH4 0xA217FDDF EQ PUSH2 0x6FB JUMPI PUSH1 0x0 DUP1 REVERT JUMPDEST DUP1 PUSH4 0x63A9C0F8 EQ PUSH2 0x633 JUMPI DUP1 PUSH4 0x686C3DB4 EQ PUSH2 0x646 JUMPI DUP1 PUSH4 0x68807391 EQ PUSH2 0x659 JUMPI DUP1 PUSH4 0x6E1D616E EQ PUSH2 0x66C JUMPI DUP1 PUSH4 0x6E4322E5 EQ PUSH2 0x681 JUMPI DUP1 PUSH4 0x6EB14D3B EQ PUSH2 0x694 JUMPI PUSH1 0x0 DUP1 REVERT JUMPDEST DUP1 PUSH4 0x3145C3CD GT PUSH2 0x241 JUMPI DUP1 PUSH4 0x41B3D185 GT PUSH2 0x1FA JUMPI DUP1 PUSH4 0x5463C3E8 GT PUSH2 0x1D4 JUMPI DUP1 PUSH4 0x5463C3E8 EQ PUSH2 0x5C3 JUMPI DUP1 PUSH4 0x5C975ABB EQ PUSH2 0x5D6 JUMPI DUP1 PUSH4 0x601EE229 EQ PUSH2 0x5E1 JUMPI DUP1 PUSH4 0x61D027B3 EQ PUSH2 0x5F4 JUMPI PUSH1 0x0 DUP1 REVERT JUMPDEST DUP1 PUSH4 0x41B3D185 EQ PUSH2 0x562 JUMPI DUP1 PUSH4 0x421E3CD6 EQ PUSH2 0x589 JUMPI DUP1 PUSH4 0x4231B0BD EQ PUSH2 0x5B0 JUMPI PUSH1 0x0 DUP1 REVERT JUMPDEST DUP1 PUSH4 0x3145C3CD EQ PUSH2 0x41A JUMPI DUP1 PUSH4 0x3160C081 EQ PUSH2 0x42D JUMPI DUP1 PUSH4 0x316A65E5 EQ PUSH2 0x450 JUMPI DUP1 PUSH4 0x36568ABE EQ PUSH2 0x534 JUMPI DUP1 PUSH4 0x36CB2920 EQ PUSH2 0x547 JUMPI DUP1 PUSH4 0x3F4BA83A EQ PUSH2 0x55A JUMPI PUSH1 0x0 DUP1 REVERT JUMPDEST DUP1 PUSH4 0x1FF1292F GT PUSH2 0x293 JUMPI DUP1 PUSH4 0x1FF1292F EQ PUSH2 0x37B JUMPI DUP1 PUSH4 0x24891C55 EQ PUSH2 0x38E JUMPI DUP1 PUSH4 0x248A9CA3 EQ PUSH2 0x3A1 JUMPI DUP1 PUSH4 0x249D39E9 EQ PUSH2 0x3C4 JUMPI DUP1 PUSH4 0x24A9D853 EQ PUSH2 0x3CD JUMPI DUP1 PUSH4 0x2F2FF15D EQ PUSH2 0x407 JUMPI PUSH1 0x0 DUP1 REVERT JUMPDEST DUP1 PUSH4 0x1FFC9A7 EQ PUSH2 0x2DB JUMPI DUP1 PUSH4 0x6276121 EQ PUSH2 0x303 JUMPI DUP1 PUSH4 0x7E2CEA5 EQ PUSH2 0x31D JUMPI DUP1 PUSH4 0x161D263E EQ PUSH2 0x340 JUMPI DUP1 PUSH4 0x1BAA77F2 EQ PUSH2 0x355 JUMPI DUP1 PUSH4 0x1CD249E6 EQ PUSH2 0x368 JUMPI JUMPDEST PUSH1 0x0 DUP1 REVERT JUMPDEST PUSH2 0x2EE PUSH2 0x2E9 CALLDATASIZE PUSH1 0x4 PUSH2 0x2D71 JUMP JUMPDEST PUSH2 0x8A4 JUMP JUMPDEST PUSH1 0x40 MLOAD SWAP1 ISZERO ISZERO DUP2 MSTORE PUSH1 0x20 ADD JUMPDEST PUSH1 0x40 MLOAD DUP1 SWAP2 SUB SWAP1 RETURN JUMPDEST PUSH2 0x30B PUSH1 0xA DUP2 JUMP JUMPDEST PUSH1 0x40 MLOAD PUSH1 0xFF SWAP1 SWAP2 AND DUP2 MSTORE PUSH1 0x20 ADD PUSH2 0x2FA JUMP JUMPDEST PUSH2 0x332 PUSH1 0x0 DUP1 MLOAD PUSH1 0x20 PUSH2 0x3238 DUP4 CODECOPY DUP2 MLOAD SWAP2 MSTORE DUP2 JUMP JUMPDEST PUSH1 0x40 MLOAD SWAP1 DUP2 MSTORE PUSH1 0x20 ADD PUSH2 0x2FA JUMP JUMPDEST PUSH2 0x353 PUSH2 0x34E CALLDATASIZE PUSH1 0x4 PUSH2 0x2D9B JUMP JUMPDEST PUSH2 0x8DB JUMP JUMPDEST STOP JUMPDEST PUSH2 0x353 PUSH2 0x363 CALLDATASIZE PUSH1 0x4 PUSH2 0x2DB4 JUMP JUMPDEST PUSH2 0x99A JUMP JUMPDEST PUSH2 0x353 PUSH2 0x376 CALLDATASIZE PUSH1 0x4 PUSH2 0x2D9B JUMP JUMPDEST PUSH2 0xA5F JUMP JUMPDEST PUSH2 0x353 PUSH2 0x389 CALLDATASIZE PUSH1 0x4 PUSH2 0x2DE4 JUMP JUMPDEST PUSH2 0xAEC JUMP JUMPDEST PUSH2 0x353 PUSH2 0x39C CALLDATASIZE PUSH1 0x4 PUSH2 0x2D9B JUMP JUMPDEST PUSH2 0xB3F JUMP JUMPDEST PUSH2 0x332 PUSH2 0x3AF CALLDATASIZE PUSH1 0x4 PUSH2 0x2D9B JUMP JUMPDEST PUSH1 0x0 SWAP1 DUP2 MSTORE PUSH1 0x20 DUP2 SWAP1 MSTORE PUSH1 0x40 SWAP1 KECCAK256 PUSH1 0x1 ADD SLOAD SWAP1 JUMP JUMPDEST PUSH2 0x332 PUSH2 0x2710 DUP2 JUMP JUMPDEST PUSH2 0x3F4 PUSH32 0x0 DUP2 JUMP JUMPDEST PUSH1 0x40 MLOAD PUSH2 0xFFFF SWAP1 SWAP2 AND DUP2 MSTORE PUSH1 0x20 ADD PUSH2 0x2FA JUMP JUMPDEST PUSH2 0x353 PUSH2 0x415 CALLDATASIZE PUSH1 0x4 PUSH2 0x2E1D JUMP JUMPDEST PUSH2 0xBF0 JUMP JUMPDEST PUSH2 0x353 PUSH2 0x428 CALLDATASIZE PUSH1 0x4 PUSH2 0x2D9B JUMP JUMPDEST PUSH2 0xC1B JUMP JUMPDEST PUSH2 0x2EE PUSH2 0x43B CALLDATASIZE PUSH1 0x4 PUSH2 0x2D9B JUMP JUMPDEST PUSH1 0x6 PUSH1 0x20 MSTORE PUSH1 0x0 SWAP1 DUP2 MSTORE PUSH1 0x40 SWAP1 KECCAK256 SLOAD PUSH1 0xFF AND DUP2 JUMP JUMPDEST PUSH2 0x4CE PUSH2 0x45E CALLDATASIZE PUSH1 0x4 PUSH2 0x2D9B JUMP JUMPDEST PUSH1 0x4 PUSH1 0x20 DUP2 SWAP1 MSTORE PUSH1 0x0 SWAP2 DUP3 MSTORE PUSH1 0x40 SWAP1 SWAP2 KECCAK256 DUP1 SLOAD PUSH1 0x1 DUP3 ADD SLOAD PUSH1 0x2 DUP4 ADD SLOAD PUSH1 0x3 DUP5 ADD SLOAD SWAP4 SWAP1 SWAP5 ADD SLOAD PUSH1 0x1 PUSH1 0x1 PUSH1 0x40 SHL SUB DUP1 DUP5 AND SWAP6 PUSH1 0x1 PUSH1 0x40 SHL DUP6 DIV DUP3 AND SWAP6 PUSH1 0x1 PUSH1 0x80 SHL DUP7 DIV DUP4 AND SWAP6 PUSH1 0x1 PUSH1 0xC0 SHL SWAP1 DIV SWAP1 SWAP3 AND SWAP4 PUSH1 0xFF DUP2 AND SWAP4 PUSH2 0x100 SWAP1 SWAP2 DIV PUSH1 0x1 PUSH1 0x1 PUSH1 0x80 SHL SUB SWAP1 DUP2 AND SWAP4 SWAP3 AND SWAP2 SWAP1 DUP10 JUMP JUMPDEST PUSH1 0x40 DUP1 MLOAD PUSH1 0x1 PUSH1 0x1 PUSH1 0x40 SHL SUB SWAP11 DUP12 AND DUP2 MSTORE SWAP9 DUP11 AND PUSH1 0x20 DUP11 ADD MSTORE SWAP7 DUP10 AND SWAP7 DUP9 ADD SWAP7 SWAP1 SWAP7 MSTORE SWAP7 SWAP1 SWAP4 AND PUSH1 0x60 DUP7 ADD MSTORE PUSH1 0xFF SWAP1 SWAP2 AND PUSH1 0x80 DUP6 ADD MSTORE PUSH1 0x1 PUSH1 0x1 PUSH1 0x80 SHL SUB SWAP1 DUP2 AND PUSH1 0xA0 DUP6 ADD MSTORE AND PUSH1 0xC0 DUP4 ADD MSTORE PUSH1 0xE0 DUP3 ADD SWAP3 SWAP1 SWAP3 MSTORE PUSH2 0x100 DUP2 ADD SWAP2 SWAP1 SWAP2 MSTORE PUSH2 0x120 ADD PUSH2 0x2FA JUMP JUMPDEST PUSH2 0x353 PUSH2 0x542 CALLDATASIZE PUSH1 0x4 PUSH2 0x2E1D JUMP JUMPDEST PUSH2 0xC94 JUMP JUMPDEST PUSH2 0x353 PUSH2 0x555 CALLDATASIZE PUSH1 0x4 PUSH2 0x2E60 JUMP JUMPDEST PUSH2 0xCCC JUMP JUMPDEST PUSH2 0x353 PUSH2 0xE07 JUMP JUMPDEST PUSH2 0x332 PUSH32 0x0 DUP2 JUMP JUMPDEST PUSH2 0x3F4 PUSH32 0x0 DUP2 JUMP JUMPDEST PUSH2 0x353 PUSH2 0x5BE CALLDATASIZE PUSH1 0x4 PUSH2 0x2D9B JUMP JUMPDEST PUSH2 0xE3C JUMP JUMPDEST PUSH2 0x353 PUSH2 0x5D1 CALLDATASIZE PUSH1 0x4 PUSH2 0x2EF8 JUMP JUMPDEST PUSH2 0x1011 JUMP JUMPDEST PUSH1 0x1 SLOAD PUSH1 0xFF AND PUSH2 0x2EE JUMP JUMPDEST PUSH2 0x353 PUSH2 0x5EF CALLDATASIZE PUSH1 0x4 PUSH2 0x2D9B JUMP JUMPDEST PUSH2 0x12E6 JUMP JUMPDEST PUSH2 0x61B PUSH32 0x0 DUP2 JUMP JUMPDEST PUSH1 0x40 MLOAD PUSH1 0x1 PUSH1 0x1 PUSH1 0xA0 SHL SUB SWAP1 SWAP2 AND DUP2 MSTORE PUSH1 0x20 ADD PUSH2 0x2FA JUMP JUMPDEST PUSH2 0x353 PUSH2 0x641 CALLDATASIZE PUSH1 0x4 PUSH2 0x2DB4 JUMP JUMPDEST PUSH2 0x13A6 JUMP JUMPDEST PUSH2 0x353 PUSH2 0x654 CALLDATASIZE PUSH1 0x4 PUSH2 0x2F61 JUMP JUMPDEST PUSH2 0x1533 JUMP JUMPDEST PUSH2 0x353 PUSH2 0x667 CALLDATASIZE PUSH1 0x4 PUSH2 0x2F8D JUMP JUMPDEST PUSH2 0x197A JUMP JUMPDEST PUSH2 0x332 PUSH1 0x0 DUP1 MLOAD PUSH1 0x20 PUSH2 0x3258 DUP4 CODECOPY DUP2 MLOAD SWAP2 MSTORE DUP2 JUMP JUMPDEST PUSH2 0x353 PUSH2 0x68F CALLDATASIZE PUSH1 0x4 PUSH2 0x2FC8 JUMP JUMPDEST PUSH2 0x1A63 JUMP JUMPDEST PUSH2 0x353 PUSH2 0x6A2 CALLDATASIZE PUSH1 0x4 PUSH2 0x2DB4 JUMP JUMPDEST PUSH2 0x1CFA JUMP JUMPDEST PUSH2 0x353 PUSH2 0x6B5 CALLDATASIZE PUSH1 0x4 PUSH2 0x2DB4 JUMP JUMPDEST PUSH2 0x1D54 JUMP JUMPDEST PUSH2 0x353 PUSH2 0x6C8 CALLDATASIZE PUSH1 0x4 PUSH2 0x2D9B JUMP JUMPDEST PUSH2 0x1E21 JUMP JUMPDEST PUSH2 0x353 PUSH2 0x1FA1 JUMP JUMPDEST PUSH2 0x353 PUSH2 0x6E3 CALLDATASIZE PUSH1 0x4 PUSH2 0x2DB4 JUMP JUMPDEST PUSH2 0x1FD3 JUMP JUMPDEST PUSH2 0x2EE PUSH2 0x6F6 CALLDATASIZE PUSH1 0x4 PUSH2 0x2E1D JUMP JUMPDEST PUSH2 0x213A JUMP JUMPDEST PUSH2 0x332 PUSH1 0x0 DUP2 JUMP JUMPDEST PUSH2 0x332 PUSH2 0x711 CALLDATASIZE PUSH1 0x4 PUSH2 0x2D9B JUMP JUMPDEST PUSH2 0x2163 JUMP JUMPDEST PUSH2 0x353 PUSH2 0x724 CALLDATASIZE PUSH1 0x4 PUSH2 0x3042 JUMP JUMPDEST PUSH2 0x21CC JUMP JUMPDEST PUSH2 0x353 PUSH2 0x737 CALLDATASIZE PUSH1 0x4 PUSH2 0x2DB4 JUMP JUMPDEST PUSH2 0x22A0 JUMP JUMPDEST PUSH1 0x3 SLOAD PUSH2 0x2EE SWAP1 PUSH1 0xFF AND DUP2 JUMP JUMPDEST PUSH2 0x353 PUSH2 0x757 CALLDATASIZE PUSH1 0x4 PUSH2 0x2F8D JUMP JUMPDEST PUSH2 0x236C JUMP JUMPDEST PUSH2 0x353 PUSH2 0x76A CALLDATASIZE PUSH1 0x4 PUSH2 0x2E1D JUMP JUMPDEST PUSH2 0x23F8 JUMP JUMPDEST PUSH2 0x332 PUSH3 0xED4E00 DUP2 JUMP JUMPDEST PUSH2 0x332 PUSH32 0x65D7A28E3265B37A6474929F336521B332C1681B933F6CB9F3376673440D862A DUP2 JUMP JUMPDEST PUSH2 0x803 PUSH2 0x7AE CALLDATASIZE PUSH1 0x4 PUSH2 0x2E1D JUMP JUMPDEST PUSH1 0x5 PUSH1 0x20 SWAP1 DUP2 MSTORE PUSH1 0x0 SWAP3 DUP4 MSTORE PUSH1 0x40 DUP1 DUP5 KECCAK256 SWAP1 SWAP2 MSTORE SWAP1 DUP3 MSTORE SWAP1 KECCAK256 DUP1 SLOAD PUSH1 0x1 DUP3 ADD SLOAD PUSH1 0x2 DUP4 ADD SLOAD PUSH1 0x3 SWAP1 SWAP4 ADD SLOAD PUSH1 0x1 PUSH1 0x1 PUSH1 0x80 SHL SUB DUP1 DUP5 AND SWAP5 PUSH1 0x1 PUSH1 0x80 SHL SWAP1 SWAP5 DIV DUP2 AND SWAP4 SWAP3 AND SWAP2 SWAP1 PUSH1 0xFF DUP1 DUP3 AND SWAP2 PUSH2 0x100 SWAP1 DIV AND DUP7 JUMP JUMPDEST PUSH1 0x40 DUP1 MLOAD PUSH1 0x1 PUSH1 0x1 PUSH1 0x80 SHL SUB SWAP8 DUP9 AND DUP2 MSTORE SWAP6 DUP8 AND PUSH1 0x20 DUP8 ADD MSTORE SWAP4 SWAP1 SWAP6 AND SWAP3 DUP5 ADD SWAP3 SWAP1 SWAP3 MSTORE PUSH1 0x60 DUP4 ADD MSTORE PUSH1 0xFF AND PUSH1 0x80 DUP3 ADD MSTORE SWAP1 ISZERO ISZERO PUSH1 0xA0 DUP3 ADD MSTORE PUSH1 0xC0 ADD PUSH2 0x2FA JUMP JUMPDEST PUSH2 0x353 PUSH2 0x852 CALLDATASIZE PUSH1 0x4 PUSH2 0x3042 JUMP JUMPDEST PUSH2 0x241D JUMP JUMPDEST PUSH2 0x61B PUSH32 0x0 DUP2 JUMP JUMPDEST PUSH2 0x353 PUSH2 0x88C CALLDATASIZE PUSH1 0x4 PUSH2 0x3074 JUMP JUMPDEST PUSH2 0x249D JUMP JUMPDEST PUSH2 0x353 PUSH2 0x89F CALLDATASIZE PUSH1 0x4 PUSH2 0x2DB4 JUMP JUMPDEST PUSH2 0x25E5 JUMP JUMPDEST PUSH1 0x0 PUSH1 0x1 PUSH1 0x1 PUSH1 0xE0 SHL SUB NOT DUP3 AND PUSH4 0x7965DB0B PUSH1 0xE0 SHL EQ DUP1 PUSH2 0x8D5 JUMPI POP PUSH4 0x1FFC9A7 PUSH1 0xE0 SHL PUSH1 0x1 PUSH1 0x1 PUSH1 0xE0 SHL SUB NOT DUP4 AND EQ JUMPDEST SWAP3 SWAP2 POP POP JUMP JUMPDEST PUSH1 0x0 DUP1 MLOAD PUSH1 0x20 PUSH2 0x3238 DUP4 CODECOPY DUP2 MLOAD SWAP2 MSTORE PUSH2 0x8F3 DUP2 PUSH2 0x26A2 JUMP JUMPDEST PUSH1 0x0 DUP3 DUP2 MSTORE PUSH1 0x4 PUSH1 0x20 MSTORE PUSH1 0x40 SWAP1 KECCAK256 PUSH1 0x1 DUP1 DUP3 ADD SLOAD PUSH1 0xFF AND EQ PUSH2 0x928 JUMPI PUSH1 0x40 MLOAD PUSH4 0x63E0F9CF PUSH1 0xE1 SHL DUP2 MSTORE PUSH1 0x4 ADD PUSH1 0x40 MLOAD DUP1 SWAP2 SUB SWAP1 REVERT JUMPDEST PUSH1 0x1 DUP2 ADD SLOAD PUSH2 0x100 SWAP1 DIV PUSH1 0x1 PUSH1 0x1 PUSH1 0x80 SHL SUB AND PUSH1 0x0 SUB PUSH2 0x95B JUMPI PUSH1 0x40 MLOAD PUSH4 0xF2B6559 PUSH1 0xE4 SHL DUP2 MSTORE PUSH1 0x4 ADD PUSH1 0x40 MLOAD DUP1 SWAP2 SUB SWAP1 REVERT JUMPDEST PUSH1 0x1 DUP2 ADD DUP1 SLOAD PUSH1 0xFF NOT AND PUSH1 0x2 OR SWAP1 SSTORE PUSH1 0x40 MLOAD DUP4 SWAP1 PUSH32 0x4847A6DDBF4C912F1F99F61AA3F7ABD920B5C1D300F4ED628DEE038EF7DDEFCB SWAP1 PUSH1 0x0 SWAP1 LOG2 POP POP POP JUMP JUMPDEST PUSH1 0x0 DUP1 MLOAD PUSH1 0x20 PUSH2 0x3238 DUP4 CODECOPY DUP2 MLOAD SWAP2 MSTORE PUSH2 0x9B2 DUP2 PUSH2 0x26A2 JUMP JUMPDEST PUSH2 0x9BE DUP4 PUSH1 0x3 DUP5 PUSH2 0x26AC JUMP JUMPDEST PUSH1 0x0 DUP3 DUP2 MSTORE PUSH1 0x4 PUSH1 0x20 MSTORE PUSH1 0x40 SWAP1 KECCAK256 PUSH1 0x1 DUP2 ADD SLOAD PUSH1 0xFF AND PUSH1 0x2 EQ PUSH2 0x9F4 JUMPI PUSH1 0x40 MLOAD PUSH4 0xF6C42CB5 PUSH1 0xE0 SHL DUP2 MSTORE PUSH1 0x4 ADD PUSH1 0x40 MLOAD DUP1 SWAP2 SUB SWAP1 REVERT JUMPDEST DUP1 SLOAD PUSH1 0x1 PUSH1 0x1 PUSH1 0x40 SHL SUB AND TIMESTAMP LT ISZERO PUSH2 0xA1F JUMPI PUSH1 0x40 MLOAD PUSH4 0x47CE041 PUSH1 0xE2 SHL DUP2 MSTORE PUSH1 0x4 ADD PUSH1 0x40 MLOAD DUP1 SWAP2 SUB SWAP1 REVERT JUMPDEST PUSH1 0x1 DUP2 ADD DUP1 SLOAD PUSH1 0xFF NOT AND PUSH1 0x3 OR SWAP1 SSTORE PUSH1 0x40 MLOAD DUP4 SWAP1 PUSH32 0xAC603D57C7726546B797AF9D2815978752F98539D10067C831D5330C3BFC1AEA SWAP1 PUSH1 0x0 SWAP1 LOG2 POP POP POP POP JUMP JUMPDEST PUSH1 0x0 DUP1 MLOAD PUSH1 0x20 PUSH2 0x3238 DUP4 CODECOPY DUP2 MLOAD SWAP2 MSTORE PUSH2 0xA77 DUP2 PUSH2 0x26A2 JUMP JUMPDEST PUSH1 0x0 DUP3 DUP2 MSTORE PUSH1 0x4 PUSH1 0x20 MSTORE PUSH1 0x40 SWAP1 KECCAK256 PUSH1 0x1 DUP2 ADD SLOAD PUSH1 0xFF AND PUSH1 0x2 EQ PUSH2 0xAAD JUMPI PUSH1 0x40 MLOAD PUSH4 0xF6C42CB5 PUSH1 0xE0 SHL DUP2 MSTORE PUSH1 0x4 ADD PUSH1 0x40 MLOAD DUP1 SWAP2 SUB SWAP1 REVERT JUMPDEST PUSH1 0x1 DUP2 ADD DUP1 SLOAD PUSH1 0xFF NOT AND PUSH1 0x3 OR SWAP1 SSTORE PUSH1 0x40 MLOAD DUP4 SWAP1 PUSH32 0xAC603D57C7726546B797AF9D2815978752F98539D10067C831D5330C3BFC1AEA SWAP1 PUSH1 0x0 SWAP1 LOG2 POP POP POP JUMP JUMPDEST PUSH1 0x0 PUSH2 0xAF7 DUP2 PUSH2 0x26A2 JUMP JUMPDEST PUSH1 0x3 DUP1 SLOAD PUSH1 0xFF NOT AND DUP4 ISZERO ISZERO SWAP1 DUP2 OR SWAP1 SWAP2 SSTORE PUSH1 0x40 MLOAD SWAP1 DUP2 MSTORE PUSH32 0x3AA6186DB6AFBA61EC3731F16E23FDEA8DFA0DFE10D7C05942D11FDB365DB031 SWAP1 PUSH1 0x20 ADD PUSH1 0x40 MLOAD DUP1 SWAP2 SUB SWAP1 LOG1 POP POP JUMP JUMPDEST PUSH1 0x0 DUP1 MLOAD PUSH1 0x20 PUSH2 0x3238 DUP4 CODECOPY DUP2 MLOAD SWAP2 MSTORE PUSH2 0xB57 DUP2 PUSH2 0x26A2 JUMP JUMPDEST PUSH1 0x0 DUP3 DUP2 MSTORE PUSH1 0x4 PUSH1 0x20 MSTORE PUSH1 0x40 SWAP1 KECCAK256 PUSH1 0x1 DUP1 DUP3 ADD SLOAD PUSH1 0xFF AND EQ PUSH2 0xB8C JUMPI PUSH1 0x40 MLOAD PUSH4 0x63E0F9CF PUSH1 0xE1 SHL DUP2 MSTORE PUSH1 0x4 ADD PUSH1 0x40 MLOAD DUP1 SWAP2 SUB SWAP1 REVERT JUMPDEST PUSH1 0x1 DUP2 ADD SLOAD PUSH2 0x100 SWAP1 DIV PUSH1 0x1 PUSH1 0x1 PUSH1 0x80 SHL SUB AND PUSH1 0x0 SUB PUSH2 0xBBF JUMPI PUSH1 0x40 MLOAD PUSH4 0xF2B6559 PUSH1 0xE4 SHL DUP2 MSTORE PUSH1 0x4 ADD PUSH1 0x40 MLOAD DUP1 SWAP2 SUB SWAP1 REVERT JUMPDEST DUP1 SLOAD PUSH1 0x1 PUSH1 0x40 SHL SWAP1 DIV PUSH1 0x1 PUSH1 0x1 PUSH1 0x40 SHL SUB AND TIMESTAMP LT ISZERO PUSH2 0x95B JUMPI PUSH1 0x40 MLOAD PUSH3 0x149309 PUSH1 0xE0 SHL DUP2 MSTORE PUSH1 0x4 ADD PUSH1 0x40 MLOAD DUP1 SWAP2 SUB SWAP1 REVERT JUMPDEST PUSH1 0x0 DUP3 DUP2 MSTORE PUSH1 0x20 DUP2 SWAP1 MSTORE PUSH1 0x40 SWAP1 KECCAK256 PUSH1 0x1 ADD SLOAD PUSH2 0xC0B DUP2 PUSH2 0x26A2 JUMP JUMPDEST PUSH2 0xC15 DUP4 DUP4 PUSH2 0x2754 JUMP JUMPDEST POP POP POP POP JUMP JUMPDEST PUSH1 0x0 DUP1 MLOAD PUSH1 0x20 PUSH2 0x3238 DUP4 CODECOPY DUP2 MLOAD SWAP2 MSTORE PUSH2 0xC33 DUP2 PUSH2 0x26A2 JUMP JUMPDEST PUSH1 0x0 DUP3 DUP2 MSTORE PUSH1 0x4 PUSH1 0x20 MSTORE PUSH1 0x40 SWAP1 KECCAK256 PUSH1 0x1 DUP2 ADD SLOAD PUSH1 0xFF AND PUSH1 0x2 EQ PUSH2 0xC69 JUMPI PUSH1 0x40 MLOAD PUSH4 0xF6C42CB5 PUSH1 0xE0 SHL DUP2 MSTORE PUSH1 0x4 ADD PUSH1 0x40 MLOAD DUP1 SWAP2 SUB SWAP1 REVERT JUMPDEST DUP1 SLOAD PUSH1 0x1 PUSH1 0x1 PUSH1 0x40 SHL SUB AND TIMESTAMP LT ISZERO PUSH2 0xAAD JUMPI PUSH1 0x40 MLOAD PUSH4 0x47CE041 PUSH1 0xE2 SHL DUP2 MSTORE PUSH1 0x4 ADD PUSH1 0x40 MLOAD DUP1 SWAP2 SUB SWAP1 REVERT JUMPDEST PUSH1 0x1 PUSH1 0x1 PUSH1 0xA0 SHL SUB DUP2 AND CALLER EQ PUSH2 0xCBD JUMPI PUSH1 0x40 MLOAD PUSH4 0x334BD919 PUSH1 0xE1 SHL DUP2 MSTORE PUSH1 0x4 ADD PUSH1 0x40 MLOAD DUP1 SWAP2 SUB SWAP1 REVERT JUMPDEST PUSH2 0xCC7 DUP3 DUP3 PUSH2 0x27E6 JUMP JUMPDEST POP POP POP JUMP JUMPDEST PUSH1 0x0 DUP1 MLOAD PUSH1 0x20 PUSH2 0x3238 DUP4 CODECOPY DUP2 MLOAD SWAP2 MSTORE PUSH2 0xCE4 DUP2 PUSH2 0x26A2 JUMP JUMPDEST PUSH1 0x0 DUP6 DUP2 MSTORE PUSH1 0x4 PUSH1 0x20 MSTORE PUSH1 0x40 SWAP1 KECCAK256 PUSH1 0x1 DUP2 ADD SLOAD PUSH1 0xFF AND ISZERO PUSH2 0xD18 JUMPI PUSH1 0x40 MLOAD PUSH4 0x25C6D657 PUSH1 0xE1 SHL DUP2 MSTORE PUSH1 0x4 ADD PUSH1 0x40 MLOAD DUP1 SWAP2 SUB SWAP1 REVERT JUMPDEST DUP5 PUSH1 0x1 PUSH1 0x1 PUSH1 0x40 SHL SUB AND DUP5 PUSH1 0x1 PUSH1 0x1 PUSH1 0x40 SHL SUB AND GT DUP1 PUSH2 0xD4A JUMPI POP DUP3 PUSH1 0x1 PUSH1 0x1 PUSH1 0x40 SHL SUB AND DUP6 PUSH1 0x1 PUSH1 0x1 PUSH1 0x40 SHL SUB AND LT ISZERO JUMPDEST ISZERO PUSH2 0xD68 JUMPI PUSH1 0x40 MLOAD PUSH4 0x536A71AF PUSH1 0xE0 SHL DUP2 MSTORE PUSH1 0x4 ADD PUSH1 0x40 MLOAD DUP1 SWAP2 SUB SWAP1 REVERT JUMPDEST DUP1 SLOAD PUSH1 0x1 PUSH1 0x1 PUSH1 0x40 SHL SUB DUP7 DUP2 AND PUSH1 0x1 PUSH1 0x1 PUSH1 0x80 SHL SUB NOT SWAP1 SWAP3 AND DUP3 OR PUSH1 0x1 PUSH1 0x40 SHL DUP8 DUP4 AND SWAP1 DUP2 MUL SWAP2 SWAP1 SWAP2 OR PUSH8 0xFFFFFFFFFFFFFFFF PUSH1 0x80 SHL NOT AND PUSH1 0x1 PUSH1 0x80 SHL SWAP3 DUP8 AND SWAP3 DUP4 MUL OR DUP5 SSTORE PUSH1 0x1 DUP1 DUP6 ADD DUP1 SLOAD PUSH1 0xFF NOT AND SWAP1 SWAP2 OR SWAP1 SSTORE PUSH1 0x40 DUP1 MLOAD SWAP4 DUP5 MSTORE PUSH1 0x20 DUP5 ADD SWAP2 SWAP1 SWAP2 MSTORE DUP3 ADD MSTORE DUP7 SWAP1 PUSH32 0x5D5AAB8AF204A4135004372EB568FB9048BFEA2555B25C1C5DB092B56013EA58 SWAP1 PUSH1 0x60 ADD PUSH1 0x40 MLOAD DUP1 SWAP2 SUB SWAP1 LOG2 POP POP POP POP POP POP JUMP JUMPDEST PUSH32 0x65D7A28E3265B37A6474929F336521B332C1681B933F6CB9F3376673440D862A PUSH2 0xE31 DUP2 PUSH2 0x26A2 JUMP JUMPDEST PUSH2 0xE39 PUSH2 0x2851 JUMP JUMPDEST POP JUMP JUMPDEST PUSH2 0xE44 PUSH2 0x28A3 JUMP JUMPDEST PUSH2 0xE4C PUSH2 0x28C8 JUMP JUMPDEST PUSH1 0x0 DUP2 DUP2 MSTORE PUSH1 0x4 PUSH1 0x20 MSTORE PUSH1 0x40 SWAP1 KECCAK256 PUSH1 0x1 DUP2 ADD SLOAD PUSH1 0xFF AND PUSH1 0x4 NOT ADD PUSH2 0xE83 JUMPI PUSH1 0x40 MLOAD PUSH4 0x121C1CB5 PUSH1 0xE2 SHL DUP2 MSTORE PUSH1 0x4 ADD PUSH1 0x40 MLOAD DUP1 SWAP2 SUB SWAP1 REVERT JUMPDEST PUSH1 0x0 DUP3 DUP2 MSTORE PUSH1 0x5 PUSH1 0x20 SWAP1 DUP2 MSTORE PUSH1 0x40 DUP1 DUP4 KECCAK256 CALLER DUP5 MSTORE SWAP1 SWAP2 MSTORE SWAP1 KECCAK256 PUSH1 0x3 DUP2 ADD SLOAD PUSH2 0x100 SWAP1 DIV PUSH1 0xFF AND ISZERO PUSH2 0xEC7 JUMPI PUSH1 0x40 MLOAD PUSH4 0xC8D9EAB PUSH1 0xE3 SHL DUP2 MSTORE PUSH1 0x4 ADD PUSH1 0x40 MLOAD DUP1 SWAP2 SUB SWAP1 REVERT JUMPDEST DUP1 SLOAD PUSH1 0x0 SWAP1 PUSH2 0xEE8 SWAP1 PUSH1 0x1 PUSH1 0x1 PUSH1 0x80 SHL SUB PUSH1 0x1 PUSH1 0x80 SHL DUP3 DIV DUP2 AND SWAP2 AND PUSH2 0x30E1 JUMP JUMPDEST SWAP1 POP DUP1 PUSH1 0x0 SUB PUSH2 0xF0B JUMPI PUSH1 0x40 MLOAD PUSH4 0x5E096DAF PUSH1 0xE0 SHL DUP2 MSTORE PUSH1 0x4 ADD PUSH1 0x40 MLOAD DUP1 SWAP2 SUB SWAP1 REVERT JUMPDEST DUP2 SLOAD PUSH1 0x1 PUSH1 0x80 SHL SWAP1 DIV PUSH1 0x1 PUSH1 0x1 PUSH1 0x80 SHL SUB AND DUP1 ISZERO PUSH2 0xF6B JUMPI PUSH1 0x1 DUP5 DUP2 ADD DUP1 SLOAD DUP4 SWAP3 SWAP1 PUSH2 0xF46 SWAP1 DUP5 SWAP1 PUSH2 0x100 SWAP1 DIV PUSH1 0x1 PUSH1 0x1 PUSH1 0x80 SHL SUB AND PUSH2 0x30F4 JUMP JUMPDEST SWAP3 POP PUSH2 0x100 EXP DUP2 SLOAD DUP2 PUSH1 0x1 PUSH1 0x1 PUSH1 0x80 SHL SUB MUL NOT AND SWAP1 DUP4 PUSH1 0x1 PUSH1 0x1 PUSH1 0x80 SHL SUB AND MUL OR SWAP1 SSTORE POP JUMPDEST PUSH1 0x0 DUP1 DUP5 SSTORE PUSH1 0x1 DUP5 ADD DUP1 SLOAD PUSH1 0x1 PUSH1 0x1 PUSH1 0x80 SHL SUB NOT AND SWAP1 SSTORE PUSH1 0x2 DUP5 ADD SSTORE PUSH1 0x3 DUP4 ADD DUP1 SLOAD PUSH2 0xFFFF NOT AND PUSH2 0x100 OR SWAP1 SSTORE PUSH2 0xFCC PUSH1 0x1 PUSH1 0x1 PUSH1 0xA0 SHL SUB PUSH32 0x0 AND CALLER DUP5 PUSH2 0x28F0 JUMP JUMPDEST PUSH1 0x40 MLOAD DUP3 DUP2 MSTORE CALLER SWAP1 DUP7 SWAP1 PUSH32 0x782D17757EF22B6D49078E7415F30225D972D06EC6433E96EA382674493AF42 SWAP1 PUSH1 0x20 ADD PUSH1 0x40 MLOAD DUP1 SWAP2 SUB SWAP1 LOG3 POP POP POP POP PUSH2 0xE39 PUSH1 0x1 PUSH1 0x2 SSTORE JUMP JUMPDEST PUSH2 0x1019 PUSH2 0x28C8 JUMP JUMPDEST PUSH1 0x0 DUP7 DUP2 MSTORE PUSH1 0x4 PUSH1 0x20 MSTORE PUSH1 0x40 SWAP1 KECCAK256 PUSH1 0x1 DUP2 ADD SLOAD PUSH1 0xFF AND PUSH1 0x5 EQ PUSH2 0x104F JUMPI PUSH1 0x40 MLOAD PUSH4 0x65E1A111 PUSH1 0xE1 SHL DUP2 MSTORE PUSH1 0x4 ADD PUSH1 0x40 MLOAD DUP1 SWAP2 SUB SWAP1 REVERT JUMPDEST PUSH1 0x0 DUP8 DUP2 MSTORE PUSH1 0x5 PUSH1 0x20 SWAP1 DUP2 MSTORE PUSH1 0x40 DUP1 DUP4 KECCAK256 CALLER DUP5 MSTORE SWAP1 SWAP2 MSTORE SWAP1 KECCAK256 PUSH1 0x3 DUP2 ADD SLOAD PUSH2 0x100 SWAP1 DIV PUSH1 0xFF AND ISZERO PUSH2 0x1093 JUMPI PUSH1 0x40 MLOAD PUSH4 0xC8D9EAB PUSH1 0xE3 SHL DUP2 MSTORE PUSH1 0x4 ADD PUSH1 0x40 MLOAD DUP1 SWAP2 SUB SWAP1 REVERT JUMPDEST PUSH1 0x0 ADDRESS CHAINID DUP11 CALLER DUP12 DUP12 DUP12 PUSH1 0x40 MLOAD PUSH1 0x20 ADD PUSH2 0x10B2 SWAP8 SWAP7 SWAP6 SWAP5 SWAP4 SWAP3 SWAP2 SWAP1 PUSH2 0x311B JUMP JUMPDEST PUSH1 0x40 MLOAD PUSH1 0x20 DUP2 DUP4 SUB SUB DUP2 MSTORE SWAP1 PUSH1 0x40 MSTORE DUP1 MLOAD SWAP1 PUSH1 0x20 ADD KECCAK256 SWAP1 POP PUSH2 0x110B DUP6 DUP6 DUP1 DUP1 PUSH1 0x20 MUL PUSH1 0x20 ADD PUSH1 0x40 MLOAD SWAP1 DUP2 ADD PUSH1 0x40 MSTORE DUP1 SWAP4 SWAP3 SWAP2 SWAP1 DUP2 DUP2 MSTORE PUSH1 0x20 ADD DUP4 DUP4 PUSH1 0x20 MUL DUP1 DUP3 DUP5 CALLDATACOPY PUSH1 0x0 SWAP3 ADD SWAP2 SWAP1 SWAP2 MSTORE POP POP POP POP PUSH1 0x3 DUP6 ADD SLOAD DUP4 PUSH2 0x294F JUMP JUMPDEST PUSH2 0x1128 JUMPI PUSH1 0x40 MLOAD PUSH4 0x9BDE339 PUSH1 0xE0 SHL DUP2 MSTORE PUSH1 0x4 ADD PUSH1 0x40 MLOAD DUP1 SWAP2 SUB SWAP1 REVERT JUMPDEST PUSH1 0x1 DUP3 ADD SLOAD DUP7 SWAP1 PUSH1 0x1 PUSH1 0x1 PUSH1 0x80 SHL SUB AND DUP1 ISZERO DUP1 ISZERO PUSH2 0x114A JUMPI POP PUSH2 0x114A DUP6 PUSH2 0x2965 JUMP JUMPDEST ISZERO PUSH2 0x123C JUMPI PUSH1 0x0 PUSH2 0x115C DUP6 DUP13 DUP12 PUSH2 0x29B1 JUMP JUMPDEST SWAP1 POP DUP1 ISZERO PUSH2 0x123A JUMPI PUSH1 0x1 PUSH1 0x1 PUSH1 0x80 SHL SUB DUP2 GT ISZERO PUSH2 0x118C JUMPI PUSH1 0x40 MLOAD PUSH4 0xC56D46D3 PUSH1 0xE0 SHL DUP2 MSTORE PUSH1 0x4 ADD PUSH1 0x40 MLOAD DUP1 SWAP2 SUB SWAP1 REVERT JUMPDEST PUSH1 0x1 DUP6 ADD DUP1 SLOAD PUSH1 0x1 PUSH1 0x1 PUSH1 0x80 SHL SUB NOT AND PUSH1 0x1 PUSH1 0x1 PUSH1 0x80 SHL SUB DUP4 AND OR SWAP1 SSTORE SWAP1 POP DUP1 PUSH2 0x1200 PUSH32 0x0 PUSH1 0x1 PUSH1 0x1 PUSH1 0xA0 SHL SUB AND PUSH32 0x0 DUP4 PUSH2 0x28F0 JUMP JUMPDEST PUSH1 0x40 MLOAD DUP2 DUP2 MSTORE CALLER SWAP1 DUP2 SWAP1 DUP15 SWAP1 PUSH32 0xF2D8B3E55FC163D23DC20F735EAFA12CAA3F0F65C229D1E0398493935755949D SWAP1 PUSH1 0x20 ADD PUSH1 0x40 MLOAD DUP1 SWAP2 SUB SWAP1 LOG4 JUMPDEST POP JUMPDEST DUP2 DUP2 GT ISZERO PUSH2 0x1247 JUMPI POP DUP1 JUMPDEST PUSH2 0x1251 DUP2 DUP4 PUSH2 0x3169 JUMP JUMPDEST PUSH1 0x3 DUP6 ADD DUP1 SLOAD PUSH2 0xFF00 NOT AND PUSH2 0x100 OR SWAP1 SSTORE SWAP2 POP PUSH2 0x1298 PUSH1 0x1 PUSH1 0x1 PUSH1 0xA0 SHL SUB PUSH32 0x0 AND CALLER DUP5 PUSH2 0x28F0 JUMP JUMPDEST PUSH1 0x40 MLOAD DUP3 DUP2 MSTORE CALLER SWAP1 DUP13 SWAP1 PUSH32 0x4EC90E965519D92681267467F775ADA5BD214AA92C0DC93D90A5E880CE9ED026 SWAP1 PUSH1 0x20 ADD PUSH1 0x40 MLOAD DUP1 SWAP2 SUB SWAP1 LOG3 POP POP POP POP POP PUSH2 0x12DE PUSH1 0x1 PUSH1 0x2 SSTORE JUMP JUMPDEST POP POP POP POP POP POP JUMP JUMPDEST PUSH1 0x0 DUP1 MLOAD PUSH1 0x20 PUSH2 0x3258 DUP4 CODECOPY DUP2 MLOAD SWAP2 MSTORE PUSH2 0x12FE DUP2 PUSH2 0x26A2 JUMP JUMPDEST PUSH1 0x0 DUP3 DUP2 MSTORE PUSH1 0x4 PUSH1 0x20 DUP2 SWAP1 MSTORE PUSH1 0x40 SWAP1 SWAP2 KECCAK256 PUSH1 0x1 DUP2 ADD SLOAD SWAP1 SWAP2 PUSH1 0xFF SWAP1 SWAP2 AND EQ PUSH2 0x1339 JUMPI PUSH1 0x40 MLOAD PUSH4 0xC50C9A7F PUSH1 0xE0 SHL DUP2 MSTORE PUSH1 0x4 ADD PUSH1 0x40 MLOAD DUP1 SWAP2 SUB SWAP1 REVERT JUMPDEST PUSH1 0x1 DUP2 ADD DUP1 SLOAD PUSH1 0xFF NOT AND PUSH1 0x3 SWAP1 DUP2 OR SWAP1 SWAP2 SSTORE DUP2 SLOAD PUSH1 0x1 PUSH1 0x1 PUSH1 0xC0 SHL SUB AND DUP3 SSTORE PUSH1 0x2 DUP3 ADD DUP1 SLOAD PUSH1 0x1 PUSH1 0x1 PUSH1 0x80 SHL SUB NOT AND SWAP1 SSTORE PUSH1 0x0 SWAP1 DUP3 ADD DUP2 SWAP1 SSTORE PUSH1 0x4 DUP3 ADD DUP2 SWAP1 SSTORE PUSH1 0x40 MLOAD DUP5 SWAP2 PUSH32 0x262BB819C866F92FBCE469B11AFF93B1CC683ADABA550CB35045CF48671D6CFA SWAP2 LOG2 POP POP POP JUMP JUMPDEST PUSH1 0x0 DUP1 MLOAD PUSH1 0x20 PUSH2 0x3258 DUP4 CODECOPY DUP2 MLOAD SWAP2 MSTORE PUSH2 0x13BE DUP2 PUSH2 0x26A2 JUMP JUMPDEST PUSH2 0x13CA DUP4 PUSH1 0x5 DUP5 PUSH2 0x26AC JUMP JUMPDEST PUSH1 0x0 DUP3 DUP2 MSTORE PUSH1 0x4 PUSH1 0x20 DUP2 SWAP1 MSTORE PUSH1 0x40 SWAP1 SWAP2 KECCAK256 PUSH1 0x1 DUP2 ADD SLOAD SWAP1 SWAP2 PUSH1 0xFF SWAP1 SWAP2 AND EQ PUSH2 0x1405 JUMPI PUSH1 0x40 MLOAD PUSH4 0xC50C9A7F PUSH1 0xE0 SHL DUP2 MSTORE PUSH1 0x4 ADD PUSH1 0x40 MLOAD DUP1 SWAP2 SUB SWAP1 REVERT JUMPDEST PUSH1 0x1 DUP2 ADD DUP1 SLOAD PUSH1 0xFF NOT AND PUSH1 0x5 OR SWAP1 SSTORE PUSH1 0x2 DUP2 ADD SLOAD PUSH1 0x1 PUSH1 0x1 PUSH1 0x80 SHL SUB AND DUP1 ISZERO PUSH2 0x14E1 JUMPI PUSH2 0x147C PUSH1 0x1 PUSH1 0x1 PUSH1 0xA0 SHL SUB PUSH32 0x0 AND PUSH32 0x0 DUP4 PUSH2 0x28F0 JUMP JUMPDEST PUSH32 0x0 PUSH1 0x1 PUSH1 0x1 PUSH1 0xA0 SHL SUB AND DUP5 PUSH32 0xE19F21371647F79BB7C3F1E363266315B211FCCA3836E7A71425CC0C4AB6A8E DUP4 PUSH1 0x40 MLOAD PUSH2 0x14D8 SWAP2 DUP2 MSTORE PUSH1 0x20 ADD SWAP1 JUMP JUMPDEST PUSH1 0x40 MLOAD DUP1 SWAP2 SUB SWAP1 LOG3 JUMPDEST DUP4 PUSH32 0xE3AE6D591C9A33E364EC2F64A44C0F22B39C7408F4C24B7B6A330CDFF31E63A5 DUP4 PUSH1 0x3 ADD SLOAD DUP5 PUSH1 0x4 ADD SLOAD PUSH1 0x40 MLOAD PUSH2 0x1524 SWAP3 SWAP2 SWAP1 SWAP2 DUP3 MSTORE PUSH1 0x20 DUP3 ADD MSTORE PUSH1 0x40 ADD SWAP1 JUMP JUMPDEST PUSH1 0x40 MLOAD DUP1 SWAP2 SUB SWAP1 LOG2 POP POP POP POP POP JUMP JUMPDEST PUSH2 0x153B PUSH2 0x29F8 JUMP JUMPDEST PUSH2 0x1543 PUSH2 0x28C8 JUMP JUMPDEST PUSH1 0x0 DUP4 DUP2 MSTORE PUSH1 0x4 PUSH1 0x20 MSTORE PUSH1 0x40 SWAP1 KECCAK256 PUSH1 0x1 DUP1 DUP3 ADD SLOAD PUSH1 0xFF AND EQ PUSH2 0x1578 JUMPI PUSH1 0x40 MLOAD PUSH4 0x63E0F9CF PUSH1 0xE1 SHL DUP2 MSTORE PUSH1 0x4 ADD PUSH1 0x40 MLOAD DUP1 SWAP2 SUB SWAP1 REVERT JUMPDEST PUSH1 0x3 SLOAD PUSH1 0xFF AND ISZERO DUP1 ISZERO PUSH2 0x159C JUMPI POP DUP1 SLOAD PUSH1 0x1 PUSH1 0x40 SHL SWAP1 DIV PUSH1 0x1 PUSH1 0x1 PUSH1 0x40 SHL SUB AND TIMESTAMP LT ISZERO JUMPDEST ISZERO PUSH2 0x15BA JUMPI PUSH1 0x40 MLOAD PUSH4 0x70FE87B1 PUSH1 0xE0 SHL DUP2 MSTORE PUSH1 0x4 ADD PUSH1 0x40 MLOAD DUP1 SWAP2 SUB SWAP1 REVERT JUMPDEST DUP3 PUSH2 0x15D7 JUMPI PUSH1 0x40 MLOAD PUSH3 0x57C037 PUSH1 0xE5 SHL DUP2 MSTORE PUSH1 0x4 ADD PUSH1 0x40 MLOAD DUP1 SWAP2 SUB SWAP1 REVERT JUMPDEST DUP2 PUSH1 0x0 SUB PUSH2 0x15F8 JUMPI PUSH1 0x40 MLOAD PUSH4 0x5972996F PUSH1 0xE1 SHL DUP2 MSTORE PUSH1 0x4 ADD PUSH1 0x40 MLOAD DUP1 SWAP2 SUB SWAP1 REVERT JUMPDEST PUSH32 0x0 DUP3 LT ISZERO PUSH2 0x1639 JUMPI PUSH1 0x40 MLOAD PUSH4 0x25BB2395 PUSH1 0xE2 SHL DUP2 MSTORE PUSH1 0x4 ADD PUSH1 0x40 MLOAD DUP1 SWAP2 SUB SWAP1 REVERT JUMPDEST PUSH1 0x0 DUP5 DUP2 MSTORE PUSH1 0x5 PUSH1 0x20 SWAP1 DUP2 MSTORE PUSH1 0x40 DUP1 DUP4 KECCAK256 CALLER DUP5 MSTORE SWAP1 SWAP2 MSTORE SWAP1 KECCAK256 PUSH1 0x3 DUP2 ADD SLOAD PUSH2 0x100 SWAP1 DIV PUSH1 0xFF AND ISZERO PUSH2 0x167D JUMPI PUSH1 0x40 MLOAD PUSH4 0xC8D9EAB PUSH1 0xE3 SHL DUP2 MSTORE PUSH1 0x4 ADD PUSH1 0x40 MLOAD DUP1 SWAP2 SUB SWAP1 REVERT JUMPDEST DUP1 SLOAD PUSH1 0x0 SWAP1 PUSH2 0x169E SWAP1 PUSH1 0x1 PUSH1 0x1 PUSH1 0x80 SHL SUB PUSH1 0x1 PUSH1 0x80 SHL DUP3 DIV DUP2 AND SWAP2 AND PUSH2 0x30E1 JUMP JUMPDEST SWAP1 POP DUP1 DUP5 GT ISZERO PUSH2 0x16EE JUMPI PUSH2 0x16E9 CALLER ADDRESS PUSH2 0x16B7 DUP5 DUP9 PUSH2 0x3169 JUMP JUMPDEST PUSH1 0x1 PUSH1 0x1 PUSH1 0xA0 SHL SUB PUSH32 0x0 AND SWAP3 SWAP2 SWAP1 PUSH2 0x2A1C JUMP JUMPDEST PUSH2 0x1735 JUMP JUMPDEST DUP1 DUP5 LT ISZERO PUSH2 0x1735 JUMPI PUSH2 0x1735 CALLER PUSH2 0x1704 DUP7 DUP5 PUSH2 0x3169 JUMP JUMPDEST PUSH1 0x1 PUSH1 0x1 PUSH1 0xA0 SHL SUB PUSH32 0x0 AND SWAP2 SWAP1 PUSH2 0x28F0 JUMP JUMPDEST PUSH1 0x0 PUSH2 0x2710 PUSH2 0x1768 PUSH2 0xFFFF PUSH32 0x0 AND DUP8 PUSH2 0x317C JUMP JUMPDEST PUSH2 0x1772 SWAP2 SWAP1 PUSH2 0x3193 JUMP JUMPDEST SWAP1 POP PUSH1 0x0 PUSH2 0x1780 DUP3 DUP8 PUSH2 0x3169 JUMP JUMPDEST SWAP1 POP PUSH1 0x1 PUSH1 0x1 PUSH1 0x80 SHL SUB DUP3 GT DUP1 PUSH2 0x179D JUMPI POP PUSH1 0x1 PUSH1 0x1 PUSH1 0x80 SHL SUB DUP2 GT JUMPDEST ISZERO PUSH2 0x17BB JUMPI PUSH1 0x40 MLOAD PUSH4 0xC56D46D3 PUSH1 0xE0 SHL DUP2 MSTORE PUSH1 0x4 ADD PUSH1 0x40 MLOAD DUP1 SWAP2 SUB SWAP1 REVERT JUMPDEST DUP4 SLOAD PUSH1 0x1 PUSH1 0x80 SHL SWAP1 DIV PUSH1 0x1 PUSH1 0x1 PUSH1 0x80 SHL SUB AND DUP1 DUP3 GT ISZERO PUSH2 0x1836 JUMPI PUSH2 0x17E8 PUSH1 0x1 PUSH1 0x1 PUSH1 0x80 SHL SUB DUP3 AND DUP4 PUSH2 0x3169 JUMP JUMPDEST DUP7 PUSH1 0x1 ADD PUSH1 0x1 DUP3 DUP3 DUP3 SWAP1 SLOAD SWAP1 PUSH2 0x100 EXP SWAP1 DIV PUSH1 0x1 PUSH1 0x1 PUSH1 0x80 SHL SUB AND PUSH2 0x180D SWAP2 SWAP1 PUSH2 0x31B5 JUMP JUMPDEST SWAP3 POP PUSH2 0x100 EXP DUP2 SLOAD DUP2 PUSH1 0x1 PUSH1 0x1 PUSH1 0x80 SHL SUB MUL NOT AND SWAP1 DUP4 PUSH1 0x1 PUSH1 0x1 PUSH1 0x80 SHL SUB AND MUL OR SWAP1 SSTORE POP PUSH2 0x18A4 JUMP JUMPDEST DUP1 PUSH1 0x1 PUSH1 0x1 PUSH1 0x80 SHL SUB AND DUP3 LT ISZERO PUSH2 0x18A4 JUMPI PUSH2 0x185A DUP3 PUSH1 0x1 PUSH1 0x1 PUSH1 0x80 SHL SUB DUP4 AND PUSH2 0x3169 JUMP JUMPDEST DUP7 PUSH1 0x1 ADD PUSH1 0x1 DUP3 DUP3 DUP3 SWAP1 SLOAD SWAP1 PUSH2 0x100 EXP SWAP1 DIV PUSH1 0x1 PUSH1 0x1 PUSH1 0x80 SHL SUB AND PUSH2 0x187F SWAP2 SWAP1 PUSH2 0x30F4 JUMP JUMPDEST SWAP3 POP PUSH2 0x100 EXP DUP2 SLOAD DUP2 PUSH1 0x1 PUSH1 0x1 PUSH1 0x80 SHL SUB MUL NOT AND SWAP1 DUP4 PUSH1 0x1 PUSH1 0x1 PUSH1 0x80 SHL SUB AND MUL OR SWAP1 SSTORE POP JUMPDEST PUSH1 0x1 PUSH1 0x1 PUSH1 0x80 SHL SUB DUP3 DUP2 AND PUSH1 0x1 PUSH1 0x80 SHL MUL SWAP1 DUP5 AND OR DUP6 SSTORE PUSH1 0x1 DUP6 ADD DUP1 SLOAD PUSH1 0x1 PUSH1 0x1 PUSH1 0x80 SHL SUB NOT AND SWAP1 SSTORE PUSH1 0x2 DUP6 ADD DUP9 SWAP1 SSTORE PUSH1 0x3 DUP6 ADD DUP1 SLOAD PUSH2 0xFFFF NOT AND SWAP1 SSTORE PUSH1 0x0 DUP5 SWAP1 SUB PUSH2 0x192C JUMPI PUSH1 0x40 DUP1 MLOAD DUP10 DUP2 MSTORE PUSH1 0x20 DUP2 ADD DUP10 SWAP1 MSTORE CALLER SWAP2 DUP12 SWAP2 PUSH32 0x80911C202F290B865D2F04D188438939370585FE8970854F13309ADAEBF28A8A SWAP2 ADD PUSH1 0x40 MLOAD DUP1 SWAP2 SUB SWAP1 LOG3 PUSH2 0x196A JUMP JUMPDEST PUSH1 0x40 DUP1 MLOAD DUP10 DUP2 MSTORE PUSH1 0x20 DUP2 ADD DUP10 SWAP1 MSTORE CALLER SWAP2 DUP12 SWAP2 PUSH32 0x645958708F60EA0B47FA2C9C64BAE144D7111035C5F9BB13AC45022C6F018651 SWAP2 ADD PUSH1 0x40 MLOAD DUP1 SWAP2 SUB SWAP1 LOG3 JUMPDEST POP POP POP POP POP POP PUSH2 0xCC7 PUSH1 0x1 PUSH1 0x2 SSTORE JUMP JUMPDEST PUSH1 0x0 DUP1 MLOAD PUSH1 0x20 PUSH2 0x3238 DUP4 CODECOPY DUP2 MLOAD SWAP2 MSTORE PUSH2 0x1992 DUP2 PUSH2 0x26A2 JUMP JUMPDEST PUSH2 0x199E DUP7 PUSH1 0x4 DUP8 PUSH2 0x26AC JUMP JUMPDEST PUSH1 0x0 DUP6 DUP2 MSTORE PUSH1 0x4 PUSH1 0x20 MSTORE PUSH1 0x40 SWAP1 KECCAK256 PUSH1 0x1 DUP2 ADD SLOAD PUSH1 0xFF AND PUSH1 0x3 EQ PUSH2 0x19D4 JUMPI PUSH1 0x40 MLOAD PUSH4 0x3E6881C5 PUSH1 0xE0 SHL DUP2 MSTORE PUSH1 0x4 ADD PUSH1 0x40 MLOAD DUP1 SWAP2 SUB SWAP1 REVERT JUMPDEST DUP5 PUSH2 0x19F2 JUMPI PUSH1 0x40 MLOAD PUSH4 0x9DD854D3 PUSH1 0xE0 SHL DUP2 MSTORE PUSH1 0x4 ADD PUSH1 0x40 MLOAD DUP1 SWAP2 SUB SWAP1 REVERT JUMPDEST PUSH1 0x1 PUSH1 0x1 PUSH1 0x80 SHL SUB DUP4 GT ISZERO PUSH2 0x1A1A JUMPI PUSH1 0x40 MLOAD PUSH4 0xC56D46D3 PUSH1 0xE0 SHL DUP2 MSTORE PUSH1 0x4 ADD PUSH1 0x40 MLOAD DUP1 SWAP2 SUB SWAP1 REVERT JUMPDEST PUSH1 0x1 DUP2 ADD SLOAD PUSH2 0x100 SWAP1 DIV PUSH1 0x1 PUSH1 0x1 PUSH1 0x80 SHL SUB AND DUP4 GT ISZERO PUSH2 0x1A4D JUMPI PUSH1 0x40 MLOAD PUSH4 0x58D620B3 PUSH1 0xE0 SHL DUP2 MSTORE PUSH1 0x4 ADD PUSH1 0x40 MLOAD DUP1 SWAP2 SUB SWAP1 REVERT JUMPDEST PUSH2 0x1A5A DUP2 DUP8 DUP8 DUP8 DUP8 PUSH2 0x2A55 JUMP JUMPDEST POP POP POP POP POP POP POP JUMP JUMPDEST PUSH2 0x1A6B PUSH2 0x28C8 JUMP JUMPDEST PUSH1 0x0 DUP8 DUP2 MSTORE PUSH1 0x4 PUSH1 0x20 MSTORE PUSH1 0x40 SWAP1 KECCAK256 PUSH1 0x1 DUP2 ADD SLOAD PUSH1 0xFF AND PUSH1 0x5 EQ PUSH2 0x1AA1 JUMPI PUSH1 0x40 MLOAD PUSH4 0x65E1A111 PUSH1 0xE1 SHL DUP2 MSTORE PUSH1 0x4 ADD PUSH1 0x40 MLOAD DUP1 SWAP2 SUB SWAP1 REVERT JUMPDEST PUSH2 0x1AAA DUP2 PUSH2 0x2965 JUMP JUMPDEST PUSH2 0x1AC7 JUMPI PUSH1 0x40 MLOAD PUSH4 0x2718EAC7 PUSH1 0xE0 SHL DUP2 MSTORE PUSH1 0x4 ADD PUSH1 0x40 MLOAD DUP1 SWAP2 SUB SWAP1 REVERT JUMPDEST PUSH1 0x0 DUP9 DUP2 MSTORE PUSH1 0x5 PUSH1 0x20 SWAP1 DUP2 MSTORE PUSH1 0x40 DUP1 DUP4 KECCAK256 PUSH1 0x1 PUSH1 0x1 PUSH1 0xA0 SHL SUB DUP12 AND DUP5 MSTORE SWAP1 SWAP2 MSTORE SWAP1 KECCAK256 PUSH1 0x3 DUP2 ADD SLOAD PUSH2 0x100 SWAP1 DIV PUSH1 0xFF AND ISZERO PUSH2 0x1B14 JUMPI PUSH1 0x40 MLOAD PUSH4 0xC8D9EAB PUSH1 0xE3 SHL DUP2 MSTORE PUSH1 0x4 ADD PUSH1 0x40 MLOAD DUP1 SWAP2 SUB SWAP1 REVERT JUMPDEST PUSH1 0x1 DUP2 ADD SLOAD PUSH1 0x1 PUSH1 0x1 PUSH1 0x80 SHL SUB AND ISZERO PUSH2 0x1B40 JUMPI PUSH1 0x40 MLOAD PUSH4 0x6CAABF8F PUSH1 0xE1 SHL DUP2 MSTORE PUSH1 0x4 ADD PUSH1 0x40 MLOAD DUP1 SWAP2 SUB SWAP1 REVERT JUMPDEST PUSH1 0x0 ADDRESS CHAINID DUP12 DUP12 DUP12 DUP12 DUP12 PUSH1 0x40 MLOAD PUSH1 0x20 ADD PUSH2 0x1B5F SWAP8 SWAP7 SWAP6 SWAP5 SWAP4 SWAP3 SWAP2 SWAP1 PUSH2 0x311B JUMP JUMPDEST PUSH1 0x40 MLOAD PUSH1 0x20 DUP2 DUP4 SUB SUB DUP2 MSTORE SWAP1 PUSH1 0x40 MSTORE DUP1 MLOAD SWAP1 PUSH1 0x20 ADD KECCAK256 SWAP1 POP PUSH2 0x1BB8 DUP6 DUP6 DUP1 DUP1 PUSH1 0x20 MUL PUSH1 0x20 ADD PUSH1 0x40 MLOAD SWAP1 DUP2 ADD PUSH1 0x40 MSTORE DUP1 SWAP4 SWAP3 SWAP2 SWAP1 DUP2 DUP2 MSTORE PUSH1 0x20 ADD DUP4 DUP4 PUSH1 0x20 MUL DUP1 DUP3 DUP5 CALLDATACOPY PUSH1 0x0 SWAP3 ADD SWAP2 SWAP1 SWAP2 MSTORE POP POP POP POP PUSH1 0x3 DUP6 ADD SLOAD DUP4 PUSH2 0x294F JUMP JUMPDEST PUSH2 0x1BD5 JUMPI PUSH1 0x40 MLOAD PUSH4 0x9BDE339 PUSH1 0xE0 SHL DUP2 MSTORE PUSH1 0x4 ADD PUSH1 0x40 MLOAD DUP1 SWAP2 SUB SWAP1 REVERT JUMPDEST PUSH1 0x0 PUSH2 0x1BE2 DUP4 DUP11 DUP10 PUSH2 0x29B1 JUMP JUMPDEST SWAP1 POP DUP1 PUSH1 0x0 SUB PUSH2 0x1C05 JUMPI PUSH1 0x40 MLOAD PUSH4 0x1557F709 PUSH1 0xE0 SHL DUP2 MSTORE PUSH1 0x4 ADD PUSH1 0x40 MLOAD DUP1 SWAP2 SUB SWAP1 REVERT JUMPDEST PUSH1 0x1 PUSH1 0x1 PUSH1 0x80 SHL SUB DUP2 GT ISZERO PUSH2 0x1C2D JUMPI PUSH1 0x40 MLOAD PUSH4 0xC56D46D3 PUSH1 0xE0 SHL DUP2 MSTORE PUSH1 0x4 ADD PUSH1 0x40 MLOAD DUP1 SWAP2 SUB SWAP1 REVERT JUMPDEST PUSH1 0x1 DUP4 ADD DUP1 SLOAD PUSH1 0x1 PUSH1 0x1 PUSH1 0x80 SHL SUB NOT AND PUSH1 0x1 PUSH1 0x1 PUSH1 0x80 SHL SUB DUP4 AND OR SWAP1 SSTORE PUSH2 0x1C9E PUSH32 0x0 PUSH1 0x1 PUSH1 0x1 PUSH1 0xA0 SHL SUB AND PUSH32 0x0 DUP4 PUSH2 0x28F0 JUMP JUMPDEST CALLER PUSH1 0x1 PUSH1 0x1 PUSH1 0xA0 SHL SUB AND DUP11 PUSH1 0x1 PUSH1 0x1 PUSH1 0xA0 SHL SUB AND DUP13 PUSH32 0xF2D8B3E55FC163D23DC20F735EAFA12CAA3F0F65C229D1E0398493935755949D DUP5 PUSH1 0x40 MLOAD PUSH2 0x1CE4 SWAP2 DUP2 MSTORE PUSH1 0x20 ADD SWAP1 JUMP JUMPDEST PUSH1 0x40 MLOAD DUP1 SWAP2 SUB SWAP1 LOG4 POP POP POP POP PUSH2 0x1A5A PUSH1 0x1 PUSH1 0x2 SSTORE JUMP JUMPDEST PUSH1 0x0 DUP1 MLOAD PUSH1 0x20 PUSH2 0x3238 DUP4 CODECOPY DUP2 MLOAD SWAP2 MSTORE PUSH2 0x1D12 DUP2 PUSH2 0x26A2 JUMP JUMPDEST PUSH2 0x1D1E DUP4 PUSH1 0x3 DUP5 PUSH2 0x26AC JUMP JUMPDEST PUSH1 0x0 DUP3 DUP2 MSTORE PUSH1 0x4 PUSH1 0x20 MSTORE PUSH1 0x40 SWAP1 KECCAK256 PUSH1 0x1 DUP2 ADD SLOAD PUSH1 0xFF AND PUSH1 0x2 EQ PUSH2 0xA1F JUMPI PUSH1 0x40 MLOAD PUSH4 0xF6C42CB5 PUSH1 0xE0 SHL DUP2 MSTORE PUSH1 0x4 ADD PUSH1 0x40 MLOAD DUP1 SWAP2 SUB SWAP1 REVERT JUMPDEST PUSH1 0x0 DUP1 MLOAD PUSH1 0x20 PUSH2 0x3258 DUP4 CODECOPY DUP2 MLOAD SWAP2 MSTORE PUSH2 0x1D6C DUP2 PUSH2 0x26A2 JUMP JUMPDEST PUSH2 0x1D78 DUP4 PUSH1 0x6 DUP5 PUSH2 0x26AC JUMP JUMPDEST PUSH1 0x0 DUP3 DUP2 MSTORE PUSH1 0x4 PUSH1 0x20 DUP2 SWAP1 MSTORE PUSH1 0x40 SWAP1 SWAP2 KECCAK256 PUSH1 0x1 DUP2 ADD SLOAD SWAP1 SWAP2 PUSH1 0xFF SWAP1 SWAP2 AND EQ PUSH2 0x1DB3 JUMPI PUSH1 0x40 MLOAD PUSH4 0xC50C9A7F PUSH1 0xE0 SHL DUP2 MSTORE PUSH1 0x4 ADD PUSH1 0x40 MLOAD DUP1 SWAP2 SUB SWAP1 REVERT JUMPDEST PUSH1 0x1 DUP2 ADD DUP1 SLOAD PUSH1 0xFF NOT AND PUSH1 0x3 SWAP1 DUP2 OR SWAP1 SWAP2 SSTORE DUP2 SLOAD PUSH1 0x1 PUSH1 0x1 PUSH1 0xC0 SHL SUB AND DUP3 SSTORE PUSH1 0x2 DUP3 ADD DUP1 SLOAD PUSH1 0x1 PUSH1 0x1 PUSH1 0x80 SHL SUB NOT AND SWAP1 SSTORE PUSH1 0x0 SWAP1 DUP3 ADD DUP2 SWAP1 SSTORE PUSH1 0x4 DUP3 ADD DUP2 SWAP1 SSTORE PUSH1 0x40 MLOAD DUP5 SWAP2 PUSH32 0x262BB819C866F92FBCE469B11AFF93B1CC683ADABA550CB35045CF48671D6CFA SWAP2 LOG2 POP POP POP POP JUMP JUMPDEST PUSH1 0x0 DUP1 MLOAD PUSH1 0x20 PUSH2 0x3258 DUP4 CODECOPY DUP2 MLOAD SWAP2 MSTORE PUSH2 0x1E39 DUP2 PUSH2 0x26A2 JUMP JUMPDEST PUSH1 0x0 DUP3 DUP2 MSTORE PUSH1 0x4 PUSH1 0x20 DUP2 SWAP1 MSTORE PUSH1 0x40 SWAP1 SWAP2 KECCAK256 PUSH1 0x1 DUP2 ADD SLOAD SWAP1 SWAP2 PUSH1 0xFF SWAP1 SWAP2 AND EQ PUSH2 0x1E74 JUMPI PUSH1 0x40 MLOAD PUSH4 0xC50C9A7F PUSH1 0xE0 SHL DUP2 MSTORE PUSH1 0x4 ADD PUSH1 0x40 MLOAD DUP1 SWAP2 SUB SWAP1 REVERT JUMPDEST PUSH1 0x1 DUP2 ADD DUP1 SLOAD PUSH1 0xFF NOT AND PUSH1 0x5 OR SWAP1 SSTORE PUSH1 0x2 DUP2 ADD SLOAD PUSH1 0x1 PUSH1 0x1 PUSH1 0x80 SHL SUB AND DUP1 ISZERO PUSH2 0x1F50 JUMPI PUSH2 0x1EEB PUSH1 0x1 PUSH1 0x1 PUSH1 0xA0 SHL SUB PUSH32 0x0 AND PUSH32 0x0 DUP4 PUSH2 0x28F0 JUMP JUMPDEST PUSH32 0x0 PUSH1 0x1 PUSH1 0x1 PUSH1 0xA0 SHL SUB AND DUP5 PUSH32 0xE19F21371647F79BB7C3F1E363266315B211FCCA3836E7A71425CC0C4AB6A8E DUP4 PUSH1 0x40 MLOAD PUSH2 0x1F47 SWAP2 DUP2 MSTORE PUSH1 0x20 ADD SWAP1 JUMP JUMPDEST PUSH1 0x40 MLOAD DUP1 SWAP2 SUB SWAP1 LOG3 JUMPDEST DUP4 PUSH32 0xE3AE6D591C9A33E364EC2F64A44C0F22B39C7408F4C24B7B6A330CDFF31E63A5 DUP4 PUSH1 0x3 ADD SLOAD DUP5 PUSH1 0x4 ADD SLOAD PUSH1 0x40 MLOAD PUSH2 0x1F93 SWAP3 SWAP2 SWAP1 SWAP2 DUP3 MSTORE PUSH1 0x20 DUP3 ADD MSTORE PUSH1 0x40 ADD SWAP1 JUMP JUMPDEST PUSH1 0x40 MLOAD DUP1 SWAP2 SUB SWAP1 LOG2 POP POP POP POP JUMP JUMPDEST PUSH32 0x65D7A28E3265B37A6474929F336521B332C1681B933F6CB9F3376673440D862A PUSH2 0x1FCB DUP2 PUSH2 0x26A2 JUMP JUMPDEST PUSH2 0xE39 PUSH2 0x2AEF JUMP JUMPDEST PUSH2 0x1FDB PUSH2 0x29F8 JUMP JUMPDEST PUSH1 0x0 DUP3 DUP2 MSTORE PUSH1 0x4 PUSH1 0x20 MSTORE PUSH1 0x40 SWAP1 KECCAK256 PUSH1 0x1 DUP2 ADD SLOAD PUSH1 0xFF AND PUSH1 0x3 EQ PUSH2 0x2011 JUMPI PUSH1 0x40 MLOAD PUSH4 0x3E6881C5 PUSH1 0xE0 SHL DUP2 MSTORE PUSH1 0x4 ADD PUSH1 0x40 MLOAD DUP1 SWAP2 SUB SWAP1 REVERT JUMPDEST PUSH1 0x3 SLOAD PUSH1 0xFF AND ISZERO DUP1 ISZERO PUSH2 0x2035 JUMPI POP DUP1 SLOAD PUSH1 0x1 PUSH1 0x80 SHL SWAP1 DIV PUSH1 0x1 PUSH1 0x1 PUSH1 0x40 SHL SUB AND TIMESTAMP LT ISZERO JUMPDEST ISZERO PUSH2 0x2053 JUMPI PUSH1 0x40 MLOAD PUSH4 0xCAE73D45 PUSH1 0xE0 SHL DUP2 MSTORE PUSH1 0x4 ADD PUSH1 0x40 MLOAD DUP1 SWAP2 SUB SWAP1 REVERT JUMPDEST PUSH1 0x0 DUP4 DUP2 MSTORE PUSH1 0x5 PUSH1 0x20 SWAP1 DUP2 MSTORE PUSH1 0x40 DUP1 DUP4 KECCAK256 CALLER DUP5 MSTORE SWAP1 SWAP2 MSTORE SWAP1 KECCAK256 PUSH1 0x2 DUP2 ADD SLOAD PUSH2 0x208E JUMPI PUSH1 0x40 MLOAD PUSH4 0x5E096DAF PUSH1 0xE0 SHL DUP2 MSTORE PUSH1 0x4 ADD PUSH1 0x40 MLOAD DUP1 SWAP2 SUB SWAP1 REVERT JUMPDEST PUSH1 0x3 DUP2 ADD SLOAD PUSH1 0xA PUSH1 0xFF SWAP1 SWAP2 AND LT PUSH2 0x20B8 JUMPI PUSH1 0x40 MLOAD PUSH4 0xA3869AB7 PUSH1 0xE0 SHL DUP2 MSTORE PUSH1 0x4 ADD PUSH1 0x40 MLOAD DUP1 SWAP2 SUB SWAP1 REVERT JUMPDEST DUP3 PUSH2 0x20D5 JUMPI PUSH1 0x40 MLOAD PUSH3 0x57C037 PUSH1 0xE5 SHL DUP2 MSTORE PUSH1 0x4 ADD PUSH1 0x40 MLOAD DUP1 SWAP2 SUB SWAP1 REVERT JUMPDEST PUSH1 0x2 DUP2 ADD DUP4 SWAP1 SSTORE PUSH1 0x3 DUP2 ADD DUP1 SLOAD PUSH1 0xFF DUP1 DUP3 AND PUSH1 0x1 ADD AND PUSH1 0xFF NOT SWAP1 SWAP2 AND DUP2 OR SWAP1 SWAP2 SSTORE PUSH1 0x40 DUP1 MLOAD DUP6 DUP2 MSTORE PUSH1 0x20 DUP2 ADD SWAP3 SWAP1 SWAP3 MSTORE CALLER SWAP2 DUP7 SWAP2 PUSH32 0xF13A4DF72601C50DAAFF7EBB4317C336455AC45E70CBA3146DB7FFD8104CB17C SWAP2 ADD PUSH1 0x40 MLOAD DUP1 SWAP2 SUB SWAP1 LOG3 POP POP POP POP JUMP JUMPDEST PUSH1 0x0 SWAP2 DUP3 MSTORE PUSH1 0x20 DUP3 DUP2 MSTORE PUSH1 0x40 DUP1 DUP5 KECCAK256 PUSH1 0x1 PUSH1 0x1 PUSH1 0xA0 SHL SUB SWAP4 SWAP1 SWAP4 AND DUP5 MSTORE SWAP2 SWAP1 MSTORE SWAP1 KECCAK256 SLOAD PUSH1 0xFF AND SWAP1 JUMP JUMPDEST PUSH1 0x0 DUP2 DUP2 MSTORE PUSH1 0x4 PUSH1 0x20 MSTORE PUSH1 0x40 DUP2 KECCAK256 PUSH1 0x1 DUP2 ADD SLOAD PUSH1 0xFF AND PUSH1 0x5 EQ ISZERO DUP1 PUSH2 0x2197 JUMPI POP DUP1 SLOAD PUSH1 0x1 PUSH1 0xC0 SHL SWAP1 DIV PUSH1 0x1 PUSH1 0x1 PUSH1 0x40 SHL SUB AND ISZERO JUMPDEST ISZERO PUSH2 0x21A5 JUMPI POP PUSH1 0x0 SWAP3 SWAP2 POP POP JUMP JUMPDEST DUP1 SLOAD PUSH2 0x21C5 SWAP1 PUSH3 0xED4E00 SWAP1 PUSH1 0x1 PUSH1 0xC0 SHL SWAP1 DIV PUSH1 0x1 PUSH1 0x1 PUSH1 0x40 SHL SUB AND PUSH2 0x30E1 JUMP JUMPDEST SWAP4 SWAP3 POP POP POP JUMP JUMPDEST PUSH1 0x0 DUP1 MLOAD PUSH1 0x20 PUSH2 0x3238 DUP4 CODECOPY DUP2 MLOAD SWAP2 MSTORE PUSH2 0x21E4 DUP2 PUSH2 0x26A2 JUMP JUMPDEST PUSH1 0x0 DUP6 DUP2 MSTORE PUSH1 0x4 PUSH1 0x20 MSTORE PUSH1 0x40 SWAP1 KECCAK256 PUSH1 0x1 DUP2 ADD SLOAD PUSH1 0xFF AND PUSH1 0x3 EQ PUSH2 0x221A JUMPI PUSH1 0x40 MLOAD PUSH4 0x3E6881C5 PUSH1 0xE0 SHL DUP2 MSTORE PUSH1 0x4 ADD PUSH1 0x40 MLOAD DUP1 SWAP2 SUB SWAP1 REVERT JUMPDEST DUP5 PUSH2 0x2238 JUMPI PUSH1 0x40 MLOAD PUSH4 0x9DD854D3 PUSH1 0xE0 SHL DUP2 MSTORE PUSH1 0x4 ADD PUSH1 0x40 MLOAD DUP1 SWAP2 SUB SWAP1 REVERT JUMPDEST PUSH1 0x1 PUSH1 0x1 PUSH1 0x80 SHL SUB DUP4 GT ISZERO PUSH2 0x2260 JUMPI PUSH1 0x40 MLOAD PUSH4 0xC56D46D3 PUSH1 0xE0 SHL DUP2 MSTORE PUSH1 0x4 ADD PUSH1 0x40 MLOAD DUP1 SWAP2 SUB SWAP1 REVERT JUMPDEST PUSH1 0x1 DUP2 ADD SLOAD PUSH2 0x100 SWAP1 DIV PUSH1 0x1 PUSH1 0x1 PUSH1 0x80 SHL SUB AND DUP4 GT ISZERO PUSH2 0x2293 JUMPI PUSH1 0x40 MLOAD PUSH4 0x58D620B3 PUSH1 0xE0 SHL DUP2 MSTORE PUSH1 0x4 ADD PUSH1 0x40 MLOAD DUP1 SWAP2 SUB SWAP1 REVERT JUMPDEST PUSH2 0x12DE DUP2 DUP8 DUP8 DUP8 DUP8 PUSH2 0x2A55 JUMP JUMPDEST PUSH1 0x0 DUP1 MLOAD PUSH1 0x20 PUSH2 0x3238 DUP4 CODECOPY DUP2 MLOAD SWAP2 MSTORE PUSH2 0x22B8 DUP2 PUSH2 0x26A2 JUMP JUMPDEST PUSH2 0x22C4 DUP4 PUSH1 0x2 DUP5 PUSH2 0x26AC JUMP JUMPDEST PUSH1 0x0 DUP3 DUP2 MSTORE PUSH1 0x4 PUSH1 0x20 MSTORE PUSH1 0x40 SWAP1 KECCAK256 PUSH1 0x1 DUP1 DUP3 ADD SLOAD PUSH1 0xFF AND EQ PUSH2 0x22F9 JUMPI PUSH1 0x40 MLOAD PUSH4 0x63E0F9CF PUSH1 0xE1 SHL DUP2 MSTORE PUSH1 0x4 ADD PUSH1 0x40 MLOAD DUP1 SWAP2 SUB SWAP1 REVERT JUMPDEST PUSH1 0x1 DUP2 ADD SLOAD PUSH2 0x100 SWAP1 DIV PUSH1 0x1 PUSH1 0x1 PUSH1 0x80 SHL SUB AND PUSH1 0x0 SUB PUSH2 0x232C JUMPI PUSH1 0x40 MLOAD PUSH4 0xF2B6559 PUSH1 0xE4 SHL DUP2 MSTORE PUSH1 0x4 ADD PUSH1 0x40 MLOAD DUP1 SWAP2 SUB SWAP1 REVERT JUMPDEST PUSH1 0x1 DUP2 ADD DUP1 SLOAD PUSH1 0xFF NOT AND PUSH1 0x2 OR SWAP1 SSTORE PUSH1 0x40 MLOAD DUP4 SWAP1 PUSH32 0x4847A6DDBF4C912F1F99F61AA3F7ABD920B5C1D300F4ED628DEE038EF7DDEFCB SWAP1 PUSH1 0x0 SWAP1 LOG2 POP POP POP POP JUMP JUMPDEST PUSH1 0x0 DUP1 MLOAD PUSH1 0x20 PUSH2 0x3238 DUP4 CODECOPY DUP2 MLOAD SWAP2 MSTORE PUSH2 0x2384 DUP2 PUSH2 0x26A2 JUMP JUMPDEST PUSH2 0x2390 DUP7 PUSH1 0x4 DUP8 PUSH2 0x26AC JUMP JUMPDEST PUSH1 0x0 DUP6 DUP2 MSTORE PUSH1 0x4 PUSH1 0x20 MSTORE PUSH1 0x40 SWAP1 KECCAK256 PUSH1 0x1 DUP2 ADD SLOAD PUSH1 0xFF AND PUSH1 0x3 EQ PUSH2 0x23C6 JUMPI PUSH1 0x40 MLOAD PUSH4 0x3E6881C5 PUSH1 0xE0 SHL DUP2 MSTORE PUSH1 0x4 ADD PUSH1 0x40 MLOAD DUP1 SWAP2 SUB SWAP1 REVERT JUMPDEST DUP1 SLOAD PUSH1 0x1 PUSH1 0x80 SHL SWAP1 DIV PUSH1 0x1 PUSH1 0x1 PUSH1 0x40 SHL SUB AND TIMESTAMP LT ISZERO PUSH2 0x19D4 JUMPI PUSH1 0x40 MLOAD PUSH4 0x7CD705B PUSH1 0xE4 SHL DUP2 MSTORE PUSH1 0x4 ADD PUSH1 0x40 MLOAD DUP1 SWAP2 SUB SWAP1 REVERT JUMPDEST PUSH1 0x0 DUP3 DUP2 MSTORE PUSH1 0x20 DUP2 SWAP1 MSTORE PUSH1 0x40 SWAP1 KECCAK256 PUSH1 0x1 ADD SLOAD PUSH2 0x2413 DUP2 PUSH2 0x26A2 JUMP JUMPDEST PUSH2 0xC15 DUP4 DUP4 PUSH2 0x27E6 JUMP JUMPDEST PUSH1 0x0 DUP1 MLOAD PUSH1 0x20 PUSH2 0x3238 DUP4 CODECOPY DUP2 MLOAD SWAP2 MSTORE PUSH2 0x2435 DUP2 PUSH2 0x26A2 JUMP JUMPDEST PUSH1 0x0 DUP6 DUP2 MSTORE PUSH1 0x4 PUSH1 0x20 MSTORE PUSH1 0x40 SWAP1 KECCAK256 PUSH1 0x1 DUP2 ADD SLOAD PUSH1 0xFF AND PUSH1 0x3 EQ PUSH2 0x246B JUMPI PUSH1 0x40 MLOAD PUSH4 0x3E6881C5 PUSH1 0xE0 SHL DUP2 MSTORE PUSH1 0x4 ADD PUSH1 0x40 MLOAD DUP1 SWAP2 SUB SWAP1 REVERT JUMPDEST DUP1 SLOAD PUSH1 0x1 PUSH1 0x80 SHL SWAP1 DIV PUSH1 0x1 PUSH1 0x1 PUSH1 0x40 SHL SUB AND TIMESTAMP LT ISZERO PUSH2 0x221A JUMPI PUSH1 0x40 MLOAD PUSH4 0x7CD705B PUSH1 0xE4 SHL DUP2 MSTORE PUSH1 0x4 ADD PUSH1 0x40 MLOAD DUP1 SWAP2 SUB SWAP1 REVERT JUMPDEST PUSH1 0x0 DUP1 MLOAD PUSH1 0x20 PUSH2 0x3238 DUP4 CODECOPY DUP2 MLOAD SWAP2 MSTORE PUSH2 0x24B5 DUP2 PUSH2 0x26A2 JUMP JUMPDEST PUSH2 0x24C1 DUP7 PUSH1 0x1 DUP8 PUSH2 0x26AC JUMP JUMPDEST PUSH1 0x0 DUP6 DUP2 MSTORE PUSH1 0x4 PUSH1 0x20 MSTORE PUSH1 0x40 SWAP1 KECCAK256 PUSH1 0x1 DUP2 ADD SLOAD PUSH1 0xFF AND ISZERO PUSH2 0x24F5 JUMPI PUSH1 0x40 MLOAD PUSH4 0x25C6D657 PUSH1 0xE1 SHL DUP2 MSTORE PUSH1 0x4 ADD PUSH1 0x40 MLOAD DUP1 SWAP2 SUB SWAP1 REVERT JUMPDEST DUP5 PUSH1 0x1 PUSH1 0x1 PUSH1 0x40 SHL SUB AND DUP5 PUSH1 0x1 PUSH1 0x1 PUSH1 0x40 SHL SUB AND GT DUP1 PUSH2 0x2527 JUMPI POP DUP3 PUSH1 0x1 PUSH1 0x1 PUSH1 0x40 SHL SUB AND DUP6 PUSH1 0x1 PUSH1 0x1 PUSH1 0x40 SHL SUB AND LT ISZERO JUMPDEST ISZERO PUSH2 0x2545 JUMPI PUSH1 0x40 MLOAD PUSH4 0x536A71AF PUSH1 0xE0 SHL DUP2 MSTORE PUSH1 0x4 ADD PUSH1 0x40 MLOAD DUP1 SWAP2 SUB SWAP1 REVERT JUMPDEST DUP1 SLOAD PUSH1 0x1 PUSH1 0x1 PUSH1 0x40 SHL SUB DUP7 DUP2 AND PUSH1 0x1 PUSH1 0x1 PUSH1 0x80 SHL SUB NOT SWAP1 SWAP3 AND DUP3 OR PUSH1 0x1 PUSH1 0x40 SHL DUP8 DUP4 AND SWAP1 DUP2 MUL SWAP2 SWAP1 SWAP2 OR PUSH8 0xFFFFFFFFFFFFFFFF PUSH1 0x80 SHL NOT AND PUSH1 0x1 PUSH1 0x80 SHL SWAP3 DUP8 AND SWAP3 DUP4 MUL OR DUP5 SSTORE PUSH1 0x1 DUP1 DUP6 ADD DUP1 SLOAD PUSH1 0xFF NOT AND SWAP1 SWAP2 OR SWAP1 SSTORE PUSH1 0x40 DUP1 MLOAD SWAP4 DUP5 MSTORE PUSH1 0x20 DUP5 ADD SWAP2 SWAP1 SWAP2 MSTORE DUP3 ADD MSTORE DUP7 SWAP1 PUSH32 0x5D5AAB8AF204A4135004372EB568FB9048BFEA2555B25C1C5DB092B56013EA58 SWAP1 PUSH1 0x60 ADD PUSH1 0x40 MLOAD DUP1 SWAP2 SUB SWAP1 LOG2 POP POP POP POP POP POP POP JUMP JUMPDEST PUSH1 0x0 DUP1 MLOAD PUSH1 0x20 PUSH2 0x3238 DUP4 CODECOPY DUP2 MLOAD SWAP2 MSTORE PUSH2 0x25FD DUP2 PUSH2 0x26A2 JUMP JUMPDEST PUSH2 0x2609 DUP4 PUSH1 0x2 DUP5 PUSH2 0x26AC JUMP JUMPDEST PUSH1 0x0 DUP3 DUP2 MSTORE PUSH1 0x4 PUSH1 0x20 MSTORE PUSH1 0x40 SWAP1 KECCAK256 PUSH1 0x1 DUP1 DUP3 ADD SLOAD PUSH1 0xFF AND EQ PUSH2 0x263E JUMPI PUSH1 0x40 MLOAD PUSH4 0x63E0F9CF PUSH1 0xE1 SHL DUP2 MSTORE PUSH1 0x4 ADD PUSH1 0x40 MLOAD DUP1 SWAP2 SUB SWAP1 REVERT JUMPDEST PUSH1 0x1 DUP2 ADD SLOAD PUSH2 0x100 SWAP1 DIV PUSH1 0x1 PUSH1 0x1 PUSH1 0x80 SHL SUB AND PUSH1 0x0 SUB PUSH2 0x2671 JUMPI PUSH1 0x40 MLOAD PUSH4 0xF2B6559 PUSH1 0xE4 SHL DUP2 MSTORE PUSH1 0x4 ADD PUSH1 0x40 MLOAD DUP1 SWAP2 SUB SWAP1 REVERT JUMPDEST DUP1 SLOAD PUSH1 0x1 PUSH1 0x40 SHL SWAP1 DIV PUSH1 0x1 PUSH1 0x1 PUSH1 0x40 SHL SUB AND TIMESTAMP LT ISZERO PUSH2 0x232C JUMPI PUSH1 0x40 MLOAD PUSH3 0x149309 PUSH1 0xE0 SHL DUP2 MSTORE PUSH1 0x4 ADD PUSH1 0x40 MLOAD DUP1 SWAP2 SUB SWAP1 REVERT JUMPDEST PUSH2 0xE39 DUP2 CALLER PUSH2 0x2B2A JUMP JUMPDEST DUP3 PUSH2 0x26C9 JUMPI PUSH1 0x40 MLOAD PUSH3 0x57C037 PUSH1 0xE5 SHL DUP2 MSTORE PUSH1 0x4 ADD PUSH1 0x40 MLOAD DUP1 SWAP2 SUB SWAP1 REVERT JUMPDEST PUSH1 0x0 DUP4 DUP2 MSTORE PUSH1 0x6 PUSH1 0x20 MSTORE PUSH1 0x40 SWAP1 KECCAK256 SLOAD PUSH1 0xFF AND ISZERO PUSH2 0x26F9 JUMPI PUSH1 0x40 MLOAD PUSH4 0x3B68B0FD PUSH1 0xE0 SHL DUP2 MSTORE PUSH1 0x4 ADD PUSH1 0x40 MLOAD DUP1 SWAP2 SUB SWAP1 REVERT JUMPDEST PUSH1 0x0 DUP4 DUP2 MSTORE PUSH1 0x6 PUSH1 0x20 SWAP1 DUP2 MSTORE PUSH1 0x40 SWAP2 DUP3 SWAP1 KECCAK256 DUP1 SLOAD PUSH1 0xFF NOT AND PUSH1 0x1 OR SWAP1 SSTORE SWAP1 MLOAD CALLER DUP2 MSTORE DUP3 SWAP2 PUSH1 0xFF DUP6 AND SWAP2 DUP7 SWAP2 PUSH32 0x121FD9492D7F257411C5CF9171F742F0647D83CE66809D7B04C249687F4FD0D7 SWAP2 ADD PUSH1 0x40 MLOAD DUP1 SWAP2 SUB SWAP1 LOG4 POP POP POP JUMP JUMPDEST PUSH1 0x0 PUSH2 0x2760 DUP4 DUP4 PUSH2 0x213A JUMP JUMPDEST PUSH2 0x27DE JUMPI PUSH1 0x0 DUP4 DUP2 MSTORE PUSH1 0x20 DUP2 DUP2 MSTORE PUSH1 0x40 DUP1 DUP4 KECCAK256 PUSH1 0x1 PUSH1 0x1 PUSH1 0xA0 SHL SUB DUP7 AND DUP5 MSTORE SWAP1 SWAP2 MSTORE SWAP1 KECCAK256 DUP1 SLOAD PUSH1 0xFF NOT AND PUSH1 0x1 OR SWAP1 SSTORE PUSH2 0x2796 CALLER SWAP1 JUMP JUMPDEST PUSH1 0x1 PUSH1 0x1 PUSH1 0xA0 SHL SUB AND DUP3 PUSH1 0x1 PUSH1 0x1 PUSH1 0xA0 SHL SUB AND DUP5 PUSH32 0x2F8788117E7EFF1D82E926EC794901D17C78024A50270940304540A733656F0D PUSH1 0x40 MLOAD PUSH1 0x40 MLOAD DUP1 SWAP2 SUB SWAP1 LOG4 POP PUSH1 0x1 PUSH2 0x8D5 JUMP JUMPDEST POP PUSH1 0x0 PUSH2 0x8D5 JUMP JUMPDEST PUSH1 0x0 PUSH2 0x27F2 DUP4 DUP4 PUSH2 0x213A JUMP JUMPDEST ISZERO PUSH2 0x27DE JUMPI PUSH1 0x0 DUP4 DUP2 MSTORE PUSH1 0x20 DUP2 DUP2 MSTORE PUSH1 0x40 DUP1 DUP4 KECCAK256 PUSH1 0x1 PUSH1 0x1 PUSH1 0xA0 SHL SUB DUP7 AND DUP1 DUP6 MSTORE SWAP3 MSTORE DUP1 DUP4 KECCAK256 DUP1 SLOAD PUSH1 0xFF NOT AND SWAP1 SSTORE MLOAD CALLER SWAP3 DUP7 SWAP2 PUSH32 0xF6391F5C32D9C69D2A47EA670B442974B53935D1EDC7FD64EB21E047A839171B SWAP2 SWAP1 LOG4 POP PUSH1 0x1 PUSH2 0x8D5 JUMP JUMPDEST PUSH2 0x2859 PUSH2 0x28A3 JUMP JUMPDEST PUSH1 0x1 DUP1 SLOAD PUSH1 0xFF NOT AND SWAP1 SSTORE PUSH32 0x5DB9EE0A495BF2E6FF9C91A7834C1BA4FDD244A5E8AA4E537BD38AEAE4B073AA CALLER JUMPDEST PUSH1 0x40 MLOAD PUSH1 0x1 PUSH1 0x1 PUSH1 0xA0 SHL SUB SWAP1 SWAP2 AND DUP2 MSTORE PUSH1 0x20 ADD PUSH1 0x40 MLOAD DUP1 SWAP2 SUB SWAP1 LOG1 JUMP JUMPDEST PUSH1 0x1 SLOAD PUSH1 0xFF AND PUSH2 0x28C6 JUMPI PUSH1 0x40 MLOAD PUSH4 0x8DFC202B PUSH1 0xE0 SHL DUP2 MSTORE PUSH1 0x4 ADD PUSH1 0x40 MLOAD DUP1 SWAP2 SUB SWAP1 REVERT JUMPDEST JUMP JUMPDEST PUSH1 0x2 DUP1 SLOAD SUB PUSH2 0x28EA JUMPI PUSH1 0x40 MLOAD PUSH4 0x3EE5AEB5 PUSH1 0xE0 SHL DUP2 MSTORE PUSH1 0x4 ADD PUSH1 0x40 MLOAD DUP1 SWAP2 SUB SWAP1 REVERT JUMPDEST PUSH1 0x2 DUP1 SSTORE JUMP JUMPDEST PUSH1 0x40 MLOAD PUSH1 0x1 PUSH1 0x1 PUSH1 0xA0 SHL SUB DUP4 DUP2 AND PUSH1 0x24 DUP4 ADD MSTORE PUSH1 0x44 DUP3 ADD DUP4 SWAP1 MSTORE PUSH2 0xCC7 SWAP2 DUP6 SWAP2 DUP3 AND SWAP1 PUSH4 0xA9059CBB SWAP1 PUSH1 0x64 ADD JUMPDEST PUSH1 0x40 MLOAD PUSH1 0x20 DUP2 DUP4 SUB SUB DUP2 MSTORE SWAP1 PUSH1 0x40 MSTORE SWAP2 POP PUSH1 0xE0 SHL PUSH1 0x20 DUP3 ADD DUP1 MLOAD PUSH1 0x1 PUSH1 0x1 PUSH1 0xE0 SHL SUB DUP4 DUP2 DUP4 AND OR DUP4 MSTORE POP POP POP POP PUSH2 0x2B6C JUMP JUMPDEST PUSH1 0x0 DUP3 PUSH2 0x295C DUP6 DUP5 PUSH2 0x2BCF JUMP JUMPDEST EQ SWAP5 SWAP4 POP POP POP POP JUMP JUMPDEST DUP1 SLOAD PUSH1 0x0 SWAP1 PUSH1 0x1 PUSH1 0xC0 SHL SWAP1 DIV PUSH1 0x1 PUSH1 0x1 PUSH1 0x40 SHL SUB AND DUP2 SUB PUSH2 0x2988 JUMPI POP PUSH1 0x0 SWAP2 SWAP1 POP JUMP JUMPDEST DUP2 SLOAD PUSH2 0x29A8 SWAP1 PUSH3 0xED4E00 SWAP1 PUSH1 0x1 PUSH1 0xC0 SHL SWAP1 DIV PUSH1 0x1 PUSH1 0x1 PUSH1 0x40 SHL SUB AND PUSH2 0x30E1 JUMP JUMPDEST TIMESTAMP LT ISZERO SWAP3 SWAP2 POP POP JUMP JUMPDEST DUP3 SLOAD PUSH1 0x0 SWAP1 DUP2 SWAP1 PUSH2 0x29D2 SWAP1 PUSH1 0x1 PUSH1 0x80 SHL SWAP1 DIV PUSH1 0x1 PUSH1 0x1 PUSH1 0x80 SHL SUB AND DUP6 PUSH2 0x30E1 JUMP JUMPDEST SWAP1 POP DUP1 DUP4 GT PUSH2 0x29E5 JUMPI PUSH1 0x0 SWAP2 POP POP PUSH2 0x21C5 JUMP JUMPDEST PUSH2 0x29EF DUP2 DUP5 PUSH2 0x3169 JUMP JUMPDEST SWAP6 SWAP5 POP POP POP POP POP JUMP JUMPDEST PUSH1 0x1 SLOAD PUSH1 0xFF AND ISZERO PUSH2 0x28C6 JUMPI PUSH1 0x40 MLOAD PUSH4 0xD93C0665 PUSH1 0xE0 SHL DUP2 MSTORE PUSH1 0x4 ADD PUSH1 0x40 MLOAD DUP1 SWAP2 SUB SWAP1 REVERT JUMPDEST PUSH1 0x40 MLOAD PUSH1 0x1 PUSH1 0x1 PUSH1 0xA0 SHL SUB DUP5 DUP2 AND PUSH1 0x24 DUP4 ADD MSTORE DUP4 DUP2 AND PUSH1 0x44 DUP4 ADD MSTORE PUSH1 0x64 DUP3 ADD DUP4 SWAP1 MSTORE PUSH2 0xC15 SWAP2 DUP7 SWAP2 DUP3 AND SWAP1 PUSH4 0x23B872DD SWAP1 PUSH1 0x84 ADD PUSH2 0x291D JUMP JUMPDEST PUSH1 0x1 DUP6 ADD DUP1 SLOAD PUSH1 0x4 PUSH1 0xFF NOT SWAP1 SWAP2 AND DUP2 OR SWAP1 SWAP2 SSTORE DUP6 SLOAD PUSH1 0x1 PUSH1 0x1 PUSH1 0xC0 SHL SUB AND PUSH1 0x1 PUSH1 0xC0 SHL TIMESTAMP PUSH1 0x1 PUSH1 0x1 PUSH1 0x40 SHL SUB AND MUL OR DUP7 SSTORE PUSH1 0x2 DUP7 ADD DUP1 SLOAD PUSH1 0x1 PUSH1 0x1 PUSH1 0x80 SHL SUB NOT AND PUSH1 0x1 PUSH1 0x1 PUSH1 0x80 SHL SUB DUP5 AND OR SWAP1 SSTORE PUSH1 0x3 DUP7 ADD DUP5 SWAP1 SSTORE DUP6 ADD DUP3 SWAP1 SSTORE PUSH1 0x40 DUP1 MLOAD DUP5 DUP2 MSTORE PUSH1 0x20 DUP2 ADD DUP5 SWAP1 MSTORE SWAP1 DUP2 ADD DUP3 SWAP1 MSTORE DUP5 SWAP1 PUSH32 0x6FAA1C6974B01D1466668718128C05788426C37FD3F11667F2CF4BC79A7CB7D6 SWAP1 PUSH1 0x60 ADD PUSH2 0x1524 JUMP JUMPDEST PUSH2 0x2AF7 PUSH2 0x29F8 JUMP JUMPDEST PUSH1 0x1 DUP1 SLOAD PUSH1 0xFF NOT AND DUP2 OR SWAP1 SSTORE PUSH32 0x62E78CEA01BEE320CD4E420270B5EA74000D11B0C9F74754EBDBFC544B05A258 CALLER PUSH2 0x2886 JUMP JUMPDEST PUSH2 0x2B34 DUP3 DUP3 PUSH2 0x213A JUMP JUMPDEST PUSH2 0x2B68 JUMPI PUSH1 0x40 MLOAD PUSH4 0xE2517D3F PUSH1 0xE0 SHL DUP2 MSTORE PUSH1 0x1 PUSH1 0x1 PUSH1 0xA0 SHL SUB DUP3 AND PUSH1 0x4 DUP3 ADD MSTORE PUSH1 0x24 DUP2 ADD DUP4 SWAP1 MSTORE PUSH1 0x44 ADD JUMPDEST PUSH1 0x40 MLOAD DUP1 SWAP2 SUB SWAP1 REVERT JUMPDEST POP POP JUMP JUMPDEST PUSH1 0x0 PUSH2 0x2B81 PUSH1 0x1 PUSH1 0x1 PUSH1 0xA0 SHL SUB DUP5 AND DUP4 PUSH2 0x2C12 JUMP JUMPDEST SWAP1 POP DUP1 MLOAD PUSH1 0x0 EQ ISZERO DUP1 ISZERO PUSH2 0x2BA6 JUMPI POP DUP1 DUP1 PUSH1 0x20 ADD SWAP1 MLOAD DUP2 ADD SWAP1 PUSH2 0x2BA4 SWAP2 SWAP1 PUSH2 0x31D5 JUMP JUMPDEST ISZERO JUMPDEST ISZERO PUSH2 0xCC7 JUMPI PUSH1 0x40 MLOAD PUSH4 0x5274AFE7 PUSH1 0xE0 SHL DUP2 MSTORE PUSH1 0x1 PUSH1 0x1 PUSH1 0xA0 SHL SUB DUP5 AND PUSH1 0x4 DUP3 ADD MSTORE PUSH1 0x24 ADD PUSH2 0x2B5F JUMP JUMPDEST PUSH1 0x0 DUP2 DUP2 JUMPDEST DUP5 MLOAD DUP2 LT ISZERO PUSH2 0x2C0A JUMPI PUSH2 0x2C00 DUP3 DUP7 DUP4 DUP2 MLOAD DUP2 LT PUSH2 0x2BF3 JUMPI PUSH2 0x2BF3 PUSH2 0x31F2 JUMP JUMPDEST PUSH1 0x20 MUL PUSH1 0x20 ADD ADD MLOAD PUSH2 0x2C20 JUMP JUMPDEST SWAP2 POP PUSH1 0x1 ADD PUSH2 0x2BD4 JUMP JUMPDEST POP SWAP4 SWAP3 POP POP POP JUMP JUMPDEST PUSH1 0x60 PUSH2 0x21C5 DUP4 DUP4 PUSH1 0x0 PUSH2 0x2C4F JUMP JUMPDEST PUSH1 0x0 DUP2 DUP4 LT PUSH2 0x2C3C JUMPI PUSH1 0x0 DUP3 DUP2 MSTORE PUSH1 0x20 DUP5 SWAP1 MSTORE PUSH1 0x40 SWAP1 KECCAK256 PUSH2 0x21C5 JUMP JUMPDEST PUSH1 0x0 DUP4 DUP2 MSTORE PUSH1 0x20 DUP4 SWAP1 MSTORE PUSH1 0x40 SWAP1 KECCAK256 PUSH2 0x21C5 JUMP JUMPDEST PUSH1 0x60 DUP2 SELFBALANCE LT ISZERO PUSH2 0x2C74 JUMPI PUSH1 0x40 MLOAD PUSH4 0xCD786059 PUSH1 0xE0 SHL DUP2 MSTORE ADDRESS PUSH1 0x4 DUP3 ADD MSTORE PUSH1 0x24 ADD PUSH2 0x2B5F JUMP JUMPDEST PUSH1 0x0 DUP1 DUP6 PUSH1 0x1 PUSH1 0x1 PUSH1 0xA0 SHL SUB AND DUP5 DUP7 PUSH1 0x40 MLOAD PUSH2 0x2C90 SWAP2 SWAP1 PUSH2 0x3208 JUMP JUMPDEST PUSH1 0x0 PUSH1 0x40 MLOAD DUP1 DUP4 SUB DUP2 DUP6 DUP8 GAS CALL SWAP3 POP POP POP RETURNDATASIZE DUP1 PUSH1 0x0 DUP2 EQ PUSH2 0x2CCD JUMPI PUSH1 0x40 MLOAD SWAP2 POP PUSH1 0x1F NOT PUSH1 0x3F RETURNDATASIZE ADD AND DUP3 ADD PUSH1 0x40 MSTORE RETURNDATASIZE DUP3 MSTORE RETURNDATASIZE PUSH1 0x0 PUSH1 0x20 DUP5 ADD RETURNDATACOPY PUSH2 0x2CD2 JUMP JUMPDEST PUSH1 0x60 SWAP2 POP JUMPDEST POP SWAP2 POP SWAP2 POP PUSH2 0x2CE2 DUP7 DUP4 DUP4 PUSH2 0x2CEC JUMP JUMPDEST SWAP7 SWAP6 POP POP POP POP POP POP JUMP JUMPDEST PUSH1 0x60 DUP3 PUSH2 0x2D01 JUMPI PUSH2 0x2CFC DUP3 PUSH2 0x2D48 JUMP JUMPDEST PUSH2 0x21C5 JUMP JUMPDEST DUP2 MLOAD ISZERO DUP1 ISZERO PUSH2 0x2D18 JUMPI POP PUSH1 0x1 PUSH1 0x1 PUSH1 0xA0 SHL SUB DUP5 AND EXTCODESIZE ISZERO JUMPDEST ISZERO PUSH2 0x2D41 JUMPI PUSH1 0x40 MLOAD PUSH4 0x9996B315 PUSH1 0xE0 SHL DUP2 MSTORE PUSH1 0x1 PUSH1 0x1 PUSH1 0xA0 SHL SUB DUP6 AND PUSH1 0x4 DUP3 ADD MSTORE PUSH1 0x24 ADD PUSH2 0x2B5F JUMP JUMPDEST POP DUP1 PUSH2 0x21C5 JUMP JUMPDEST DUP1 MLOAD ISZERO PUSH2 0x2D58 JUMPI DUP1 MLOAD DUP1 DUP3 PUSH1 0x20 ADD REVERT JUMPDEST PUSH1 0x40 MLOAD PUSH4 0xA12F521 PUSH1 0xE1 SHL DUP2 MSTORE PUSH1 0x4 ADD PUSH1 0x40 MLOAD DUP1 SWAP2 SUB SWAP1 REVERT JUMPDEST PUSH1 0x0 PUSH1 0x20 DUP3 DUP5 SUB SLT ISZERO PUSH2 0x2D83 JUMPI PUSH1 0x0 DUP1 REVERT JUMPDEST DUP2 CALLDATALOAD PUSH1 0x1 PUSH1 0x1 PUSH1 0xE0 SHL SUB NOT DUP2 AND DUP2 EQ PUSH2 0x21C5 JUMPI PUSH1 0x0 DUP1 REVERT JUMPDEST PUSH1 0x0 PUSH1 0x20 DUP3 DUP5 SUB SLT ISZERO PUSH2 0x2DAD JUMPI PUSH1 0x0 DUP1 REVERT JUMPDEST POP CALLDATALOAD SWAP2 SWAP1 POP JUMP JUMPDEST PUSH1 0x0 DUP1 PUSH1 0x40 DUP4 DUP6 SUB SLT ISZERO PUSH2 0x2DC7 JUMPI PUSH1 0x0 DUP1 REVERT JUMPDEST POP POP DUP1 CALLDATALOAD SWAP3 PUSH1 0x20 SWAP1 SWAP2 ADD CALLDATALOAD SWAP2 POP JUMP JUMPDEST DUP1 ISZERO ISZERO DUP2 EQ PUSH2 0xE39 JUMPI PUSH1 0x0 DUP1 REVERT JUMPDEST PUSH1 0x0 PUSH1 0x20 DUP3 DUP5 SUB SLT ISZERO PUSH2 0x2DF6 JUMPI PUSH1 0x0 DUP1 REVERT JUMPDEST DUP2 CALLDATALOAD PUSH2 0x21C5 DUP2 PUSH2 0x2DD6 JUMP JUMPDEST DUP1 CALLDATALOAD PUSH1 0x1 PUSH1 0x1 PUSH1 0xA0 SHL SUB DUP2 AND DUP2 EQ PUSH2 0x2E18 JUMPI PUSH1 0x0 DUP1 REVERT JUMPDEST SWAP2 SWAP1 POP JUMP JUMPDEST PUSH1 0x0 DUP1 PUSH1 0x40 DUP4 DUP6 SUB SLT ISZERO PUSH2 0x2E30 JUMPI PUSH1 0x0 DUP1 REVERT JUMPDEST DUP3 CALLDATALOAD SWAP2 POP PUSH2 0x2E40 PUSH1 0x20 DUP5 ADD PUSH2 0x2E01 JUMP JUMPDEST SWAP1 POP SWAP3 POP SWAP3 SWAP1 POP JUMP JUMPDEST DUP1 CALLDATALOAD PUSH1 0x1 PUSH1 0x1 PUSH1 0x40 SHL SUB DUP2 AND DUP2 EQ PUSH2 0x2E18 JUMPI PUSH1 0x0 DUP1 REVERT JUMPDEST PUSH1 0x0 DUP1 PUSH1 0x0 DUP1 PUSH1 0x80 DUP6 DUP8 SUB SLT ISZERO PUSH2 0x2E76 JUMPI PUSH1 0x0 DUP1 REVERT JUMPDEST DUP5 CALLDATALOAD SWAP4 POP PUSH2 0x2E86 PUSH1 0x20 DUP7 ADD PUSH2 0x2E49 JUMP JUMPDEST SWAP3 POP PUSH2 0x2E94 PUSH1 0x40 DUP7 ADD PUSH2 0x2E49 JUMP JUMPDEST SWAP2 POP PUSH2 0x2EA2 PUSH1 0x60 DUP7 ADD PUSH2 0x2E49 JUMP JUMPDEST SWAP1 POP SWAP3 SWAP6 SWAP2 SWAP5 POP SWAP3 POP JUMP JUMPDEST PUSH1 0x0 DUP1 DUP4 PUSH1 0x1F DUP5 ADD SLT PUSH2 0x2EBF JUMPI PUSH1 0x0 DUP1 REVERT JUMPDEST POP DUP2 CALLDATALOAD PUSH1 0x1 PUSH1 0x1 PUSH1 0x40 SHL SUB DUP2 GT ISZERO PUSH2 0x2ED6 JUMPI PUSH1 0x0 DUP1 REVERT JUMPDEST PUSH1 0x20 DUP4 ADD SWAP2 POP DUP4 PUSH1 0x20 DUP3 PUSH1 0x5 SHL DUP6 ADD ADD GT ISZERO PUSH2 0x2EF1 JUMPI PUSH1 0x0 DUP1 REVERT JUMPDEST SWAP3 POP SWAP3 SWAP1 POP JUMP JUMPDEST PUSH1 0x0 DUP1 PUSH1 0x0 DUP1 PUSH1 0x0 DUP1 PUSH1 0xA0 DUP8 DUP10 SUB SLT ISZERO PUSH2 0x2F11 JUMPI PUSH1 0x0 DUP1 REVERT JUMPDEST DUP7 CALLDATALOAD SWAP6 POP PUSH1 0x20 DUP8 ADD CALLDATALOAD SWAP5 POP PUSH1 0x40 DUP8 ADD CALLDATALOAD SWAP4 POP PUSH1 0x60 DUP8 ADD CALLDATALOAD SWAP3 POP PUSH1 0x80 DUP8 ADD CALLDATALOAD PUSH1 0x1 PUSH1 0x1 PUSH1 0x40 SHL SUB DUP2 GT ISZERO PUSH2 0x2F43 JUMPI PUSH1 0x0 DUP1 REVERT JUMPDEST PUSH2 0x2F4F DUP10 DUP3 DUP11 ADD PUSH2 0x2EAD JUMP JUMPDEST SWAP8 SWAP11 SWAP7 SWAP10 POP SWAP5 SWAP8 POP SWAP3 SWAP6 SWAP4 SWAP5 SWAP3 POP POP POP JUMP JUMPDEST PUSH1 0x0 DUP1 PUSH1 0x0 PUSH1 0x60 DUP5 DUP7 SUB SLT ISZERO PUSH2 0x2F76 JUMPI PUSH1 0x0 DUP1 REVERT JUMPDEST POP POP DUP2 CALLDATALOAD SWAP4 PUSH1 0x20 DUP4 ADD CALLDATALOAD SWAP4 POP PUSH1 0x40 SWAP1 SWAP3 ADD CALLDATALOAD SWAP2 SWAP1 POP JUMP JUMPDEST PUSH1 0x0 DUP1 PUSH1 0x0 DUP1 PUSH1 0x0 PUSH1 0xA0 DUP7 DUP9 SUB SLT ISZERO PUSH2 0x2FA5 JUMPI PUSH1 0x0 DUP1 REVERT JUMPDEST POP POP DUP4 CALLDATALOAD SWAP6 PUSH1 0x20 DUP6 ADD CALLDATALOAD SWAP6 POP PUSH1 0x40 DUP6 ADD CALLDATALOAD SWAP5 PUSH1 0x60 DUP2 ADD CALLDATALOAD SWAP5 POP PUSH1 0x80 ADD CALLDATALOAD SWAP3 POP SWAP1 POP JUMP JUMPDEST PUSH1 0x0 DUP1 PUSH1 0x0 DUP1 PUSH1 0x0 DUP1 PUSH1 0x0 PUSH1 0xC0 DUP9 DUP11 SUB SLT ISZERO PUSH2 0x2FE3 JUMPI PUSH1 0x0 DUP1 REVERT JUMPDEST DUP8 CALLDATALOAD SWAP7 POP PUSH2 0x2FF3 PUSH1 0x20 DUP10 ADD PUSH2 0x2E01 JUMP JUMPDEST SWAP6 POP PUSH1 0x40 DUP9 ADD CALLDATALOAD SWAP5 POP PUSH1 0x60 DUP9 ADD CALLDATALOAD SWAP4 POP PUSH1 0x80 DUP9 ADD CALLDATALOAD SWAP3 POP PUSH1 0xA0 DUP9 ADD CALLDATALOAD PUSH1 0x1 PUSH1 0x1 PUSH1 0x40 SHL SUB DUP2 GT ISZERO PUSH2 0x3023 JUMPI PUSH1 0x0 DUP1 REVERT JUMPDEST PUSH2 0x302F DUP11 DUP3 DUP12 ADD PUSH2 0x2EAD JUMP JUMPDEST SWAP9 SWAP12 SWAP8 SWAP11 POP SWAP6 SWAP9 POP SWAP4 SWAP7 SWAP3 SWAP6 SWAP3 SWAP4 POP POP POP JUMP JUMPDEST PUSH1 0x0 DUP1 PUSH1 0x0 DUP1 PUSH1 0x80 DUP6 DUP8 SUB SLT ISZERO PUSH2 0x3058 JUMPI PUSH1 0x0 DUP1 REVERT JUMPDEST POP POP DUP3 CALLDATALOAD SWAP5 PUSH1 0x20 DUP5 ADD CALLDATALOAD SWAP5 POP PUSH1 0x40 DUP5 ADD CALLDATALOAD SWAP4 PUSH1 0x60 ADD CALLDATALOAD SWAP3 POP SWAP1 POP JUMP JUMPDEST PUSH1 0x0 DUP1 PUSH1 0x0 DUP1 PUSH1 0x0 PUSH1 0xA0 DUP7 DUP9 SUB SLT ISZERO PUSH2 0x308C JUMPI PUSH1 0x0 DUP1 REVERT JUMPDEST DUP6 CALLDATALOAD SWAP5 POP PUSH1 0x20 DUP7 ADD CALLDATALOAD SWAP4 POP PUSH2 0x30A3 PUSH1 0x40 DUP8 ADD PUSH2 0x2E49 JUMP JUMPDEST SWAP3 POP PUSH2 0x30B1 PUSH1 0x60 DUP8 ADD PUSH2 0x2E49 JUMP JUMPDEST SWAP2 POP PUSH2 0x30BF PUSH1 0x80 DUP8 ADD PUSH2 0x2E49 JUMP JUMPDEST SWAP1 POP SWAP3 SWAP6 POP SWAP3 SWAP6 SWAP1 SWAP4 POP JUMP JUMPDEST PUSH4 0x4E487B71 PUSH1 0xE0 SHL PUSH1 0x0 MSTORE PUSH1 0x11 PUSH1 0x4 MSTORE PUSH1 0x24 PUSH1 0x0 REVERT JUMPDEST DUP1 DUP3 ADD DUP1 DUP3 GT ISZERO PUSH2 0x8D5 JUMPI PUSH2 0x8D5 PUSH2 0x30CB JUMP JUMPDEST PUSH1 0x1 PUSH1 0x1 PUSH1 0x80 SHL SUB DUP3 DUP2 AND DUP3 DUP3 AND SUB SWAP1 DUP1 DUP3 GT ISZERO PUSH2 0x3114 JUMPI PUSH2 0x3114 PUSH2 0x30CB JUMP JUMPDEST POP SWAP3 SWAP2 POP POP JUMP JUMPDEST PUSH12 0xFFFFFFFFFFFFFFFFFFFFFFFF NOT PUSH1 0x60 SWAP9 DUP10 SHL DUP2 AND DUP3 MSTORE PUSH1 0x14 DUP3 ADD SWAP8 SWAP1 SWAP8 MSTORE PUSH1 0x34 DUP2 ADD SWAP6 SWAP1 SWAP6 MSTORE SWAP3 SWAP1 SWAP6 SHL SWAP1 SWAP4 AND PUSH1 0x54 DUP4 ADD MSTORE PUSH1 0x68 DUP3 ADD SWAP3 SWAP1 SWAP3 MSTORE PUSH1 0x88 DUP2 ADD SWAP3 SWAP1 SWAP3 MSTORE PUSH1 0xA8 DUP3 ADD MSTORE PUSH1 0xC8 ADD SWAP1 JUMP JUMPDEST DUP2 DUP2 SUB DUP2 DUP2 GT ISZERO PUSH2 0x8D5 JUMPI PUSH2 0x8D5 PUSH2 0x30CB JUMP JUMPDEST DUP1 DUP3 MUL DUP2 ISZERO DUP3 DUP3 DIV DUP5 EQ OR PUSH2 0x8D5 JUMPI PUSH2 0x8D5 PUSH2 0x30CB JUMP JUMPDEST PUSH1 0x0 DUP3 PUSH2 0x31B0 JUMPI PUSH4 0x4E487B71 PUSH1 0xE0 SHL PUSH1 0x0 MSTORE PUSH1 0x12 PUSH1 0x4 MSTORE PUSH1 0x24 PUSH1 0x0 REVERT JUMPDEST POP DIV SWAP1 JUMP JUMPDEST PUSH1 0x1 PUSH1 0x1 PUSH1 0x80 SHL SUB DUP2 DUP2 AND DUP4 DUP3 AND ADD SWAP1 DUP1 DUP3 GT ISZERO PUSH2 0x3114 JUMPI PUSH2 0x3114 PUSH2 0x30CB JUMP JUMPDEST PUSH1 0x0 PUSH1 0x20 DUP3 DUP5 SUB SLT ISZERO PUSH2 0x31E7 JUMPI PUSH1 0x0 DUP1 REVERT JUMPDEST DUP2 MLOAD PUSH2 0x21C5 DUP2 PUSH2 0x2DD6 JUMP JUMPDEST PUSH4 0x4E487B71 PUSH1 0xE0 SHL PUSH1 0x0 MSTORE PUSH1 0x32 PUSH1 0x4 MSTORE PUSH1 0x24 PUSH1 0x0 REVERT JUMPDEST PUSH1 0x0 DUP3 MLOAD PUSH1 0x0 JUMPDEST DUP2 DUP2 LT ISZERO PUSH2 0x3229 JUMPI PUSH1 0x20 DUP2 DUP7 ADD DUP2 ADD MLOAD DUP6 DUP4 ADD MSTORE ADD PUSH2 0x320F JUMP JUMPDEST POP PUSH1 0x0 SWAP3 ADD SWAP2 DUP3 MSTORE POP SWAP2 SWAP1 POP JUMP INVALID PUSH9 0xE79A7BF1E0BC45D0A3 ADDRESS 0xC5 PUSH20 0xBC367F9CF464FD326078812F301165FBDA4EF159 LOG1 0xC4 DUP15 PC CALLDATACOPY 0xAD PUSH27 0x7F3DCEDCBE129BF3249EC4FBF651FD4F5E2600EAD39FE2F5A26469 PUSH17 0x66735822122047AFC1309C81E2F2ADD08E 0xF7 0xCF 0xAB LOG4 0xD4 0xBF SWAP10 SWAP12 0xF6 CREATE2 0xAA XOR EXTCODESIZE 0xD7 0xE9 STOP CALLCODE EQ 0xF7 DUP12 0x2A PUSH5 0x736F6C6343 STOP ADDMOD XOR STOP CALLER "},"methodIdentifiers":{"AUDITOR_ROLE()":"6e1d616e","BPS()":"249d39e9","DEFAULT_ADMIN_ROLE()":"a217fddf","MAX_SWAPS()":"06276121","ORACLE_ROLE()":"07e2cea5","PAUSER_ROLE()":"e63ab1e9","REWARD_SWEEP_DELAY()":"dda062d4","approveFinalization(uint256)":"8197eba8","approveFinalizationWithIntent(bytes32,uint256)":"63a9c0f8","claim(uint256,uint256,uint256,uint256,bytes32[])":"5463c3e8","commitLineup(uint256,bytes32,uint256)":"686c3db4","createWeek(uint256,uint64,uint64,uint64)":"36cb2920","createWeekWithIntent(bytes32,uint256,uint64,uint64,uint64)":"ef8b2af5","emergencyExit(uint256)":"4231b0bd","feeBps()":"24a9d853","finalizeWeek(uint256,bytes32,bytes32,uint256)":"e81248d2","finalizeWeekWithIntent(bytes32,uint256,bytes32,bytes32,uint256)":"d19d1a0a","forceFinalizeWeek(uint256,bytes32,bytes32,uint256)":"c839d8dc","forceFinalizeWeekWithIntent(bytes32,uint256,bytes32,bytes32,uint256)":"68807391","forceLockWeek(uint256)":"161d263e","forceLockWeekWithIntent(bytes32,uint256)":"ca752a82","forceStartWeek(uint256)":"1cd249e6","forceStartWeekWithIntent(bytes32,uint256)":"6eb14d3b","getRoleAdmin(bytes32)":"248a9ca3","grantRole(bytes32,address)":"2f2ff15d","hasRole(bytes32,address)":"91d14854","lifecycleIntentExecuted(bytes32)":"3160c081","lockWeek(uint256)":"24891c55","lockWeekWithIntent(bytes32,uint256)":"f0a5e143","minDeposit()":"41b3d185","pause()":"8456cb59","paused()":"5c975abb","positions(uint256,address)":"e684d718","principalRatioBps()":"421e3cd6","rejectFinalization(uint256)":"601ee229","rejectFinalizationWithIntent(bytes32,uint256)":"8016a108","renounceRole(bytes32,address)":"36568abe","revokeRole(bytes32,address)":"d547741f","rewardSweepAvailableAt(uint256)":"b692d265","setTestMode(bool)":"1ff1292f","stablecoin()":"e9cbd822","startWeek(uint256)":"3145c3cd","startWeekWithIntent(bytes32,uint256)":"1baa77f2","supportsInterface(bytes4)":"01ffc9a7","swapLineup(uint256,bytes32)":"8cd3b5e8","sweepExpiredReward(uint256,address,uint256,uint256,uint256,bytes32[])":"6e4322e5","testMode()":"cd9ea342","treasury()":"61d027b3","unpause()":"3f4ba83a","weekStates(uint256)":"316a65e5"}}}}}