{"contracts/ValcoreReactiveReceiver.sol":{"ValcoreReactiveReceiver":{"abi":[{"inputs":[{"internalType":"address","name":"callbackProxyAddress","type":"address"},{"internalType":"address","name":"valcoreAddress","type":"address"},{"internalType":"address","name":"initialReactiveSender","type":"address"}],"stateMutability":"payable","type":"constructor"},{"inputs":[],"name":"InvalidAddress","type":"error"},{"inputs":[],"name":"UnauthorizedOwner","type":"error"},{"anonymous":false,"inputs":[{"indexed":true,"internalType":"address","name":"sender","type":"address"},{"indexed":false,"internalType":"bool","name":"allowed","type":"bool"}],"name":"AuthorizedSenderUpdated","type":"event"},{"anonymous":false,"inputs":[{"indexed":true,"internalType":"address","name":"previousOwner","type":"address"},{"indexed":true,"internalType":"address","name":"newOwner","type":"address"}],"name":"OwnershipTransferred","type":"event"},{"anonymous":false,"inputs":[{"indexed":true,"internalType":"bytes32","name":"intentId","type":"bytes32"},{"indexed":true,"internalType":"uint8","name":"action","type":"uint8"},{"indexed":true,"internalType":"uint256","name":"weekId","type":"uint256"}],"name":"ReactiveLifecycleExecuted","type":"event"},{"anonymous":false,"inputs":[{"indexed":true,"internalType":"address","name":"previousSender","type":"address"},{"indexed":true,"internalType":"address","name":"newSender","type":"address"}],"name":"ReactiveSenderUpdated","type":"event"},{"inputs":[],"name":"coverDebt","outputs":[],"stateMutability":"nonpayable","type":"function"},{"inputs":[],"name":"owner","outputs":[{"internalType":"address","name":"","type":"address"}],"stateMutability":"view","type":"function"},{"inputs":[{"internalType":"uint256","name":"amount","type":"uint256"}],"name":"pay","outputs":[],"stateMutability":"nonpayable","type":"function"},{"inputs":[],"name":"reactiveSender","outputs":[{"internalType":"address","name":"","type":"address"}],"stateMutability":"view","type":"function"},{"inputs":[{"internalType":"address","name":"sender","type":"address"},{"internalType":"bytes32","name":"intentId","type":"bytes32"},{"internalType":"uint256","name":"weekId","type":"uint256"}],"name":"rxApprove","outputs":[],"stateMutability":"nonpayable","type":"function"},{"inputs":[{"internalType":"address","name":"sender","type":"address"},{"internalType":"bytes32","name":"intentId","type":"bytes32"},{"internalType":"uint256","name":"weekId","type":"uint256"},{"internalType":"uint64","name":"startAt","type":"uint64"},{"internalType":"uint64","name":"lockAt","type":"uint64"},{"internalType":"uint64","name":"endAt","type":"uint64"}],"name":"rxCreateWeek","outputs":[],"stateMutability":"nonpayable","type":"function"},{"inputs":[{"internalType":"address","name":"sender","type":"address"},{"internalType":"bytes32","name":"intentId","type":"bytes32"},{"internalType":"uint256","name":"weekId","type":"uint256"},{"internalType":"bytes32","name":"merkleRoot","type":"bytes32"},{"internalType":"bytes32","name":"metadataHash","type":"bytes32"},{"internalType":"uint256","name":"retainedFee","type":"uint256"},{"internalType":"bool","name":"useForce","type":"bool"}],"name":"rxFinalize","outputs":[],"stateMutability":"nonpayable","type":"function"},{"inputs":[{"internalType":"address","name":"sender","type":"address"},{"internalType":"bytes32","name":"intentId","type":"bytes32"},{"internalType":"uint256","name":"weekId","type":"uint256"}],"name":"rxReject","outputs":[],"stateMutability":"nonpayable","type":"function"},{"inputs":[{"internalType":"address","name":"sender","type":"address"},{"internalType":"bytes32","name":"intentId","type":"bytes32"},{"internalType":"uint8","name":"action","type":"uint8"},{"internalType":"uint256","name":"weekId","type":"uint256"},{"internalType":"bool","name":"useForce","type":"bool"}],"name":"rxTransition","outputs":[],"stateMutability":"nonpayable","type":"function"},{"inputs":[{"internalType":"address","name":"sender","type":"address"},{"internalType":"bool","name":"allowed","type":"bool"}],"name":"setAuthorizedSender","outputs":[],"stateMutability":"nonpayable","type":"function"},{"inputs":[{"internalType":"address","name":"newReactiveSender","type":"address"}],"name":"setReactiveSender","outputs":[],"stateMutability":"nonpayable","type":"function"},{"inputs":[{"internalType":"address","name":"newOwner","type":"address"}],"name":"transferOwnership","outputs":[],"stateMutability":"nonpayable","type":"function"},{"inputs":[],"name":"valcore","outputs":[{"internalType":"contract IValcoreLifecycle","name":"","type":"address"}],"stateMutability":"view","type":"function"},{"stateMutability":"payable","type":"receive"}],"evm":{"bytecode":{"linkReferences":{},"object":"60a060405260405161134038038061134083398101604081905261002291610199565b600280546001600160a01b03199081163317909155600080546001600160a01b038616921682178155908152600160208190526040909120805460ff191690911790556001600160a01b038316158061008257506001600160a01b038216155b156100a05760405163e6c4247b60e01b815260040160405180910390fd5b6001600160a01b0382811660805260038054336001600160a01b0319918216811790925560028054909116928416929092179091556040516000907f8be0079c531659141344cd1fd0a4f28419497f9722a3daafe3b4186f6b6457e0908290a36040516001600160a01b038216906000907f53daf07ee0d544a6f1351b3ffd1ae53c39ab35c7dbe66d472bf8ecfb1036c9cf908290a3604051600181526001600160a01b038416907f9316df45c3226259b8d7f2d32687edb5a88141d5f47d0d6b67b927f3030c66d19060200160405180910390a25050506101dc565b80516001600160a01b038116811461019457600080fd5b919050565b6000806000606084860312156101ae57600080fd5b6101b78461017d565b92506101c56020850161017d565b91506101d36040850161017d565b90509250925092565b60805161110a61023660003960008181610146015281816103bf015281816104d40152818161055b015281816105c101528181610615015281816107c0015281816108e301528181610a3d0152610ad8015261110a6000f3fe6080604052600436106100c65760003560e01c806395e09b011161007f578063c290d69111610059578063c290d69114610217578063c8a1265114610237578063f2fde38b14610257578063f3dfc2a91461027757600080fd5b806395e09b01146101b9578063a502e62d146101d7578063be0fa6d4146101f757600080fd5b806356f20512146100d25780635d73d02a146100f4578063668b3a4a1461011457806376351266146101345780637a90b990146101845780638da5cb5b1461019957600080fd5b366100cd57005b600080fd5b3480156100de57600080fd5b506100f26100ed366004610e1b565b610297565b005b34801561010057600080fd5b506100f261010f366004610e3d565b61033b565b34801561012057600080fd5b506100f261012f366004610e80565b610447565b34801561014057600080fd5b506101687f000000000000000000000000000000000000000000000000000000000000000081565b6040516001600160a01b03909116815260200160405180910390f35b34801561019057600080fd5b506100f26106bc565b3480156101a557600080fd5b50600354610168906001600160a01b031681565b3480156101c557600080fd5b506002546001600160a01b0316610168565b3480156101e357600080fd5b506100f26101f2366004610e3d565b610745565b34801561020357600080fd5b506100f2610212366004610ef7565b610848565b34801561022357600080fd5b506100f2610232366004610f5d565b61096e565b34801561024357600080fd5b506100f2610252366004610f76565b6109a7565b34801561026357600080fd5b506100f2610272366004610e1b565b610b65565b34801561028357600080fd5b506100f2610292366004610fd9565b610c09565b6003546001600160a01b031633146102c25760405163de271cf560e01b815260040160405180910390fd5b6001600160a01b0381166102e95760405163e6c4247b60e01b815260040160405180910390fd5b600280546001600160a01b038381166001600160a01b0319831681179093556040519116919082907f53daf07ee0d544a6f1351b3ffd1ae53c39ab35c7dbe66d472bf8ecfb1036c9cf90600090a35050565b3360009081526001602052604090205460ff166103735760405162461bcd60e51b815260040161036a9061100c565b60405180910390fd5b60025483906001600160a01b038083169116146103a25760405162461bcd60e51b815260040161036a9061103c565b604051630c75381f60e31b815260048101849052602481018390527f00000000000000000000000000000000000000000000000000000000000000006001600160a01b0316906363a9c0f890604401600060405180830381600087803b15801561040b57600080fd5b505af115801561041f573d6000803e3d6000fd5b50506040518492506005915085906000805160206110b583398151915290600090a450505050565b3360009081526001602052604090205460ff166104765760405162461bcd60e51b815260040161036a9061100c565b60025485906001600160a01b038083169116146104a55760405162461bcd60e51b815260040161036a9061103c565b60011960ff85160161059257811561053e5760405163653a954160e11b815260048101869052602481018490527f00000000000000000000000000000000000000000000000000000000000000006001600160a01b03169063ca752a82906044015b600060405180830381600087803b15801561052157600080fd5b505af1158015610535573d6000803e3d6000fd5b50505050610694565b60405163f0a5e14360e01b815260048101869052602481018490527f00000000000000000000000000000000000000000000000000000000000000006001600160a01b03169063f0a5e14390604401610507565b60021960ff85160161064c5781156105f857604051636eb14d3b60e01b815260048101869052602481018490527f00000000000000000000000000000000000000000000000000000000000000006001600160a01b031690636eb14d3b90604401610507565b604051630dd53bf960e11b815260048101869052602481018490527f00000000000000000000000000000000000000000000000000000000000000006001600160a01b031690631baa77f290604401610507565b60405162461bcd60e51b815260206004820152601960248201527f496e76616c6964207472616e736974696f6e20616374696f6e00000000000000604482015260640161036a565b828460ff16866000805160206110b583398151915260405160405180910390a4505050505050565b600080546040516326db15bb60e21b81523060048201526001600160a01b0390911690639b6c56ec90602401602060405180830381865afa158015610705573d6000803e3d6000fd5b505050506040513d601f19601f82011682018060405250810190610729919061106c565b600054909150610742906001600160a01b031682610cff565b50565b3360009081526001602052604090205460ff166107745760405162461bcd60e51b815260040161036a9061100c565b60025483906001600160a01b038083169116146107a35760405162461bcd60e51b815260040161036a9061103c565b604051631002d42160e31b815260048101849052602481018390527f00000000000000000000000000000000000000000000000000000000000000006001600160a01b031690638016a10890604401600060405180830381600087803b15801561080c57600080fd5b505af1158015610820573d6000803e3d6000fd5b50506040518492506006915085906000805160206110b583398151915290600090a450505050565b3360009081526001602052604090205460ff166108775760405162461bcd60e51b815260040161036a9061100c565b60025486906001600160a01b038083169116146108a65760405162461bcd60e51b815260040161036a9061103c565b60405163ef8b2af560e01b8152600481018790526024810186905267ffffffffffffffff80861660448301528085166064830152831660848201527f00000000000000000000000000000000000000000000000000000000000000006001600160a01b03169063ef8b2af59060a401600060405180830381600087803b15801561092f57600080fd5b505af1158015610943573d6000803e3d6000fd5b50506040518792506001915088906000805160206110b583398151915290600090a450505050505050565b3360009081526001602052604090205460ff1661099d5760405162461bcd60e51b815260040161036a9061100c565b6107423382610cff565b3360009081526001602052604090205460ff166109d65760405162461bcd60e51b815260040161036a9061100c565b60025487906001600160a01b03808316911614610a055760405162461bcd60e51b815260040161036a9061103c565b8115610aa657604051636880739160e01b815260048101889052602481018790526044810186905260648101859052608481018490527f00000000000000000000000000000000000000000000000000000000000000006001600160a01b03169063688073919060a401600060405180830381600087803b158015610a8957600080fd5b505af1158015610a9d573d6000803e3d6000fd5b50505050610b3d565b6040516368ce8d0560e11b815260048101889052602481018790526044810186905260648101859052608481018490527f00000000000000000000000000000000000000000000000000000000000000006001600160a01b03169063d19d1a0a9060a401600060405180830381600087803b158015610b2457600080fd5b505af1158015610b38573d6000803e3d6000fd5b505050505b604051869060049089906000805160206110b583398151915290600090a45050505050505050565b6003546001600160a01b03163314610b905760405163de271cf560e01b815260040160405180910390fd5b6001600160a01b038116610bb75760405163e6c4247b60e01b815260040160405180910390fd5b600380546001600160a01b038381166001600160a01b0319831681179093556040519116919082907f8be0079c531659141344cd1fd0a4f28419497f9722a3daafe3b4186f6b6457e090600090a35050565b6003546001600160a01b03163314610c345760405163de271cf560e01b815260040160405180910390fd5b6001600160a01b038216610c5b5760405163e6c4247b60e01b815260040160405180910390fd5b8015610c9157610c8c826001600160a01b03166000908152600160208190526040909120805460ff19169091179055565b610cb6565b610cb6826001600160a01b03166000908152600160205260409020805460ff19169055565b816001600160a01b03167f9316df45c3226259b8d7f2d32687edb5a88141d5f47d0d6b67b927f3030c66d182604051610cf3911515815260200190565b60405180910390a25050565b80471015610d445760405162461bcd60e51b8152602060048201526012602482015271496e73756666696369656e742066756e647360701b604482015260640161036a565b8015610dfb57604080516000808252602082019092526001600160a01b038416908390604051610d749190611085565b60006040518083038185875af1925050503d8060008114610db1576040519150601f19603f3d011682016040523d82523d6000602084013e610db6565b606091505b5050905080610df95760405162461bcd60e51b815260206004820152600f60248201526e151c985b9cd9995c8819985a5b1959608a1b604482015260640161036a565b505b5050565b80356001600160a01b0381168114610e1657600080fd5b919050565b600060208284031215610e2d57600080fd5b610e3682610dff565b9392505050565b600080600060608486031215610e5257600080fd5b610e5b84610dff565b95602085013595506040909401359392505050565b80358015158114610e1657600080fd5b600080600080600060a08688031215610e9857600080fd5b610ea186610dff565b945060208601359350604086013560ff81168114610ebe57600080fd5b925060608601359150610ed360808701610e70565b90509295509295909350565b803567ffffffffffffffff81168114610e1657600080fd5b60008060008060008060c08789031215610f1057600080fd5b610f1987610dff565b95506020870135945060408701359350610f3560608801610edf565b9250610f4360808801610edf565b9150610f5160a08801610edf565b90509295509295509295565b600060208284031215610f6f57600080fd5b5035919050565b600080600080600080600060e0888a031215610f9157600080fd5b610f9a88610dff565b96506020880135955060408801359450606088013593506080880135925060a08801359150610fcb60c08901610e70565b905092959891949750929550565b60008060408385031215610fec57600080fd5b610ff583610dff565b915061100360208401610e70565b90509250929050565b602080825260169082015275417574686f72697a65642073656e646572206f6e6c7960501b604082015260600190565b602080825260169082015275417574686f72697a65642052564d204944206f6e6c7960501b604082015260600190565b60006020828403121561107e57600080fd5b5051919050565b6000825160005b818110156110a6576020818601810151858301520161108c565b50600092019182525091905056fef7f5258b38db13c1ad898b91bc1259c309c09d1cdb37314a125400d4c3240fe2a26469706673582212202bb5d5565a181e769f11b0127540b42838bdc9bd0e1a8d9cef64ff90451bce1c64736f6c63430008180033","opcodes":"PUSH1 0xA0 PUSH1 0x40 MSTORE PUSH1 0x40 MLOAD PUSH2 0x1340 CODESIZE SUB DUP1 PUSH2 0x1340 DUP4 CODECOPY DUP2 ADD PUSH1 0x40 DUP2 SWAP1 MSTORE PUSH2 0x22 SWAP2 PUSH2 0x199 JUMP JUMPDEST PUSH1 0x2 DUP1 SLOAD PUSH1 0x1 PUSH1 0x1 PUSH1 0xA0 SHL SUB NOT SWAP1 DUP2 AND CALLER OR SWAP1 SWAP2 SSTORE PUSH1 0x0 DUP1 SLOAD PUSH1 0x1 PUSH1 0x1 PUSH1 0xA0 SHL SUB DUP7 AND SWAP3 AND DUP3 OR DUP2 SSTORE SWAP1 DUP2 MSTORE PUSH1 0x1 PUSH1 0x20 DUP2 SWAP1 MSTORE PUSH1 0x40 SWAP1 SWAP2 KECCAK256 DUP1 SLOAD PUSH1 0xFF NOT AND SWAP1 SWAP2 OR SWAP1 SSTORE PUSH1 0x1 PUSH1 0x1 PUSH1 0xA0 SHL SUB DUP4 AND ISZERO DUP1 PUSH2 0x82 JUMPI POP PUSH1 0x1 PUSH1 0x1 PUSH1 0xA0 SHL SUB DUP3 AND ISZERO JUMPDEST ISZERO PUSH2 0xA0 JUMPI PUSH1 0x40 MLOAD PUSH4 0xE6C4247B PUSH1 0xE0 SHL DUP2 MSTORE PUSH1 0x4 ADD PUSH1 0x40 MLOAD DUP1 SWAP2 SUB SWAP1 REVERT JUMPDEST PUSH1 0x1 PUSH1 0x1 PUSH1 0xA0 SHL SUB DUP3 DUP2 AND PUSH1 0x80 MSTORE PUSH1 0x3 DUP1 SLOAD CALLER PUSH1 0x1 PUSH1 0x1 PUSH1 0xA0 SHL SUB NOT SWAP2 DUP3 AND DUP2 OR SWAP1 SWAP3 SSTORE PUSH1 0x2 DUP1 SLOAD SWAP1 SWAP2 AND SWAP3 DUP5 AND SWAP3 SWAP1 SWAP3 OR SWAP1 SWAP2 SSTORE PUSH1 0x40 MLOAD PUSH1 0x0 SWAP1 PUSH32 0x8BE0079C531659141344CD1FD0A4F28419497F9722A3DAAFE3B4186F6B6457E0 SWAP1 DUP3 SWAP1 LOG3 PUSH1 0x40 MLOAD PUSH1 0x1 PUSH1 0x1 PUSH1 0xA0 SHL SUB DUP3 AND SWAP1 PUSH1 0x0 SWAP1 PUSH32 0x53DAF07EE0D544A6F1351B3FFD1AE53C39AB35C7DBE66D472BF8ECFB1036C9CF SWAP1 DUP3 SWAP1 LOG3 PUSH1 0x40 MLOAD PUSH1 0x1 DUP2 MSTORE PUSH1 0x1 PUSH1 0x1 PUSH1 0xA0 SHL SUB DUP5 AND SWAP1 PUSH32 0x9316DF45C3226259B8D7F2D32687EDB5A88141D5F47D0D6B67B927F3030C66D1 SWAP1 PUSH1 0x20 ADD PUSH1 0x40 MLOAD DUP1 SWAP2 SUB SWAP1 LOG2 POP POP POP PUSH2 0x1DC JUMP JUMPDEST DUP1 MLOAD PUSH1 0x1 PUSH1 0x1 PUSH1 0xA0 SHL SUB DUP2 AND DUP2 EQ PUSH2 0x194 JUMPI PUSH1 0x0 DUP1 REVERT JUMPDEST SWAP2 SWAP1 POP JUMP JUMPDEST PUSH1 0x0 DUP1 PUSH1 0x0 PUSH1 0x60 DUP5 DUP7 SUB SLT ISZERO PUSH2 0x1AE JUMPI PUSH1 0x0 DUP1 REVERT JUMPDEST PUSH2 0x1B7 DUP5 PUSH2 0x17D JUMP JUMPDEST SWAP3 POP PUSH2 0x1C5 PUSH1 0x20 DUP6 ADD PUSH2 0x17D JUMP JUMPDEST SWAP2 POP PUSH2 0x1D3 PUSH1 0x40 DUP6 ADD PUSH2 0x17D JUMP JUMPDEST SWAP1 POP SWAP3 POP SWAP3 POP SWAP3 JUMP JUMPDEST PUSH1 0x80 MLOAD PUSH2 0x110A PUSH2 0x236 PUSH1 0x0 CODECOPY PUSH1 0x0 DUP2 DUP2 PUSH2 0x146 ADD MSTORE DUP2 DUP2 PUSH2 0x3BF ADD MSTORE DUP2 DUP2 PUSH2 0x4D4 ADD MSTORE DUP2 DUP2 PUSH2 0x55B ADD MSTORE DUP2 DUP2 PUSH2 0x5C1 ADD MSTORE DUP2 DUP2 PUSH2 0x615 ADD MSTORE DUP2 DUP2 PUSH2 0x7C0 ADD MSTORE DUP2 DUP2 PUSH2 0x8E3 ADD MSTORE DUP2 DUP2 PUSH2 0xA3D ADD MSTORE PUSH2 0xAD8 ADD MSTORE PUSH2 0x110A PUSH1 0x0 RETURN INVALID PUSH1 0x80 PUSH1 0x40 MSTORE PUSH1 0x4 CALLDATASIZE LT PUSH2 0xC6 JUMPI PUSH1 0x0 CALLDATALOAD PUSH1 0xE0 SHR DUP1 PUSH4 0x95E09B01 GT PUSH2 0x7F JUMPI DUP1 PUSH4 0xC290D691 GT PUSH2 0x59 JUMPI DUP1 PUSH4 0xC290D691 EQ PUSH2 0x217 JUMPI DUP1 PUSH4 0xC8A12651 EQ PUSH2 0x237 JUMPI DUP1 PUSH4 0xF2FDE38B EQ PUSH2 0x257 JUMPI DUP1 PUSH4 0xF3DFC2A9 EQ PUSH2 0x277 JUMPI PUSH1 0x0 DUP1 REVERT JUMPDEST DUP1 PUSH4 0x95E09B01 EQ PUSH2 0x1B9 JUMPI DUP1 PUSH4 0xA502E62D EQ PUSH2 0x1D7 JUMPI DUP1 PUSH4 0xBE0FA6D4 EQ PUSH2 0x1F7 JUMPI PUSH1 0x0 DUP1 REVERT JUMPDEST DUP1 PUSH4 0x56F20512 EQ PUSH2 0xD2 JUMPI DUP1 PUSH4 0x5D73D02A EQ PUSH2 0xF4 JUMPI DUP1 PUSH4 0x668B3A4A EQ PUSH2 0x114 JUMPI DUP1 PUSH4 0x76351266 EQ PUSH2 0x134 JUMPI DUP1 PUSH4 0x7A90B990 EQ PUSH2 0x184 JUMPI DUP1 PUSH4 0x8DA5CB5B EQ PUSH2 0x199 JUMPI PUSH1 0x0 DUP1 REVERT JUMPDEST CALLDATASIZE PUSH2 0xCD JUMPI STOP JUMPDEST PUSH1 0x0 DUP1 REVERT JUMPDEST CALLVALUE DUP1 ISZERO PUSH2 0xDE JUMPI PUSH1 0x0 DUP1 REVERT JUMPDEST POP PUSH2 0xF2 PUSH2 0xED CALLDATASIZE PUSH1 0x4 PUSH2 0xE1B JUMP JUMPDEST PUSH2 0x297 JUMP JUMPDEST STOP JUMPDEST CALLVALUE DUP1 ISZERO PUSH2 0x100 JUMPI PUSH1 0x0 DUP1 REVERT JUMPDEST POP PUSH2 0xF2 PUSH2 0x10F CALLDATASIZE PUSH1 0x4 PUSH2 0xE3D JUMP JUMPDEST PUSH2 0x33B JUMP JUMPDEST CALLVALUE DUP1 ISZERO PUSH2 0x120 JUMPI PUSH1 0x0 DUP1 REVERT JUMPDEST POP PUSH2 0xF2 PUSH2 0x12F CALLDATASIZE PUSH1 0x4 PUSH2 0xE80 JUMP JUMPDEST PUSH2 0x447 JUMP JUMPDEST CALLVALUE DUP1 ISZERO PUSH2 0x140 JUMPI PUSH1 0x0 DUP1 REVERT JUMPDEST POP PUSH2 0x168 PUSH32 0x0 DUP2 JUMP JUMPDEST PUSH1 0x40 MLOAD PUSH1 0x1 PUSH1 0x1 PUSH1 0xA0 SHL SUB SWAP1 SWAP2 AND DUP2 MSTORE PUSH1 0x20 ADD PUSH1 0x40 MLOAD DUP1 SWAP2 SUB SWAP1 RETURN JUMPDEST CALLVALUE DUP1 ISZERO PUSH2 0x190 JUMPI PUSH1 0x0 DUP1 REVERT JUMPDEST POP PUSH2 0xF2 PUSH2 0x6BC JUMP JUMPDEST CALLVALUE DUP1 ISZERO PUSH2 0x1A5 JUMPI PUSH1 0x0 DUP1 REVERT JUMPDEST POP PUSH1 0x3 SLOAD PUSH2 0x168 SWAP1 PUSH1 0x1 PUSH1 0x1 PUSH1 0xA0 SHL SUB AND DUP2 JUMP JUMPDEST CALLVALUE DUP1 ISZERO PUSH2 0x1C5 JUMPI PUSH1 0x0 DUP1 REVERT JUMPDEST POP PUSH1 0x2 SLOAD PUSH1 0x1 PUSH1 0x1 PUSH1 0xA0 SHL SUB AND PUSH2 0x168 JUMP JUMPDEST CALLVALUE DUP1 ISZERO PUSH2 0x1E3 JUMPI PUSH1 0x0 DUP1 REVERT JUMPDEST POP PUSH2 0xF2 PUSH2 0x1F2 CALLDATASIZE PUSH1 0x4 PUSH2 0xE3D JUMP JUMPDEST PUSH2 0x745 JUMP JUMPDEST CALLVALUE DUP1 ISZERO PUSH2 0x203 JUMPI PUSH1 0x0 DUP1 REVERT JUMPDEST POP PUSH2 0xF2 PUSH2 0x212 CALLDATASIZE PUSH1 0x4 PUSH2 0xEF7 JUMP JUMPDEST PUSH2 0x848 JUMP JUMPDEST CALLVALUE DUP1 ISZERO PUSH2 0x223 JUMPI PUSH1 0x0 DUP1 REVERT JUMPDEST POP PUSH2 0xF2 PUSH2 0x232 CALLDATASIZE PUSH1 0x4 PUSH2 0xF5D JUMP JUMPDEST PUSH2 0x96E JUMP JUMPDEST CALLVALUE DUP1 ISZERO PUSH2 0x243 JUMPI PUSH1 0x0 DUP1 REVERT JUMPDEST POP PUSH2 0xF2 PUSH2 0x252 CALLDATASIZE PUSH1 0x4 PUSH2 0xF76 JUMP JUMPDEST PUSH2 0x9A7 JUMP JUMPDEST CALLVALUE DUP1 ISZERO PUSH2 0x263 JUMPI PUSH1 0x0 DUP1 REVERT JUMPDEST POP PUSH2 0xF2 PUSH2 0x272 CALLDATASIZE PUSH1 0x4 PUSH2 0xE1B JUMP JUMPDEST PUSH2 0xB65 JUMP JUMPDEST CALLVALUE DUP1 ISZERO PUSH2 0x283 JUMPI PUSH1 0x0 DUP1 REVERT JUMPDEST POP PUSH2 0xF2 PUSH2 0x292 CALLDATASIZE PUSH1 0x4 PUSH2 0xFD9 JUMP JUMPDEST PUSH2 0xC09 JUMP JUMPDEST PUSH1 0x3 SLOAD PUSH1 0x1 PUSH1 0x1 PUSH1 0xA0 SHL SUB AND CALLER EQ PUSH2 0x2C2 JUMPI PUSH1 0x40 MLOAD PUSH4 0xDE271CF5 PUSH1 0xE0 SHL DUP2 MSTORE PUSH1 0x4 ADD PUSH1 0x40 MLOAD DUP1 SWAP2 SUB SWAP1 REVERT JUMPDEST PUSH1 0x1 PUSH1 0x1 PUSH1 0xA0 SHL SUB DUP2 AND PUSH2 0x2E9 JUMPI PUSH1 0x40 MLOAD PUSH4 0xE6C4247B PUSH1 0xE0 SHL DUP2 MSTORE PUSH1 0x4 ADD PUSH1 0x40 MLOAD DUP1 SWAP2 SUB SWAP1 REVERT JUMPDEST PUSH1 0x2 DUP1 SLOAD PUSH1 0x1 PUSH1 0x1 PUSH1 0xA0 SHL SUB DUP4 DUP2 AND PUSH1 0x1 PUSH1 0x1 PUSH1 0xA0 SHL SUB NOT DUP4 AND DUP2 OR SWAP1 SWAP4 SSTORE PUSH1 0x40 MLOAD SWAP2 AND SWAP2 SWAP1 DUP3 SWAP1 PUSH32 0x53DAF07EE0D544A6F1351B3FFD1AE53C39AB35C7DBE66D472BF8ECFB1036C9CF SWAP1 PUSH1 0x0 SWAP1 LOG3 POP POP JUMP JUMPDEST CALLER PUSH1 0x0 SWAP1 DUP2 MSTORE PUSH1 0x1 PUSH1 0x20 MSTORE PUSH1 0x40 SWAP1 KECCAK256 SLOAD PUSH1 0xFF AND PUSH2 0x373 JUMPI PUSH1 0x40 MLOAD PUSH3 0x461BCD PUSH1 0xE5 SHL DUP2 MSTORE PUSH1 0x4 ADD PUSH2 0x36A SWAP1 PUSH2 0x100C JUMP JUMPDEST PUSH1 0x40 MLOAD DUP1 SWAP2 SUB SWAP1 REVERT JUMPDEST PUSH1 0x2 SLOAD DUP4 SWAP1 PUSH1 0x1 PUSH1 0x1 PUSH1 0xA0 SHL SUB DUP1 DUP4 AND SWAP2 AND EQ PUSH2 0x3A2 JUMPI PUSH1 0x40 MLOAD PUSH3 0x461BCD PUSH1 0xE5 SHL DUP2 MSTORE PUSH1 0x4 ADD PUSH2 0x36A SWAP1 PUSH2 0x103C JUMP JUMPDEST PUSH1 0x40 MLOAD PUSH4 0xC75381F PUSH1 0xE3 SHL DUP2 MSTORE PUSH1 0x4 DUP2 ADD DUP5 SWAP1 MSTORE PUSH1 0x24 DUP2 ADD DUP4 SWAP1 MSTORE PUSH32 0x0 PUSH1 0x1 PUSH1 0x1 PUSH1 0xA0 SHL SUB AND SWAP1 PUSH4 0x63A9C0F8 SWAP1 PUSH1 0x44 ADD PUSH1 0x0 PUSH1 0x40 MLOAD DUP1 DUP4 SUB DUP2 PUSH1 0x0 DUP8 DUP1 EXTCODESIZE ISZERO DUP1 ISZERO PUSH2 0x40B JUMPI PUSH1 0x0 DUP1 REVERT JUMPDEST POP GAS CALL ISZERO DUP1 ISZERO PUSH2 0x41F JUMPI RETURNDATASIZE PUSH1 0x0 DUP1 RETURNDATACOPY RETURNDATASIZE PUSH1 0x0 REVERT JUMPDEST POP POP PUSH1 0x40 MLOAD DUP5 SWAP3 POP PUSH1 0x5 SWAP2 POP DUP6 SWAP1 PUSH1 0x0 DUP1 MLOAD PUSH1 0x20 PUSH2 0x10B5 DUP4 CODECOPY DUP2 MLOAD SWAP2 MSTORE SWAP1 PUSH1 0x0 SWAP1 LOG4 POP POP POP POP JUMP JUMPDEST CALLER PUSH1 0x0 SWAP1 DUP2 MSTORE PUSH1 0x1 PUSH1 0x20 MSTORE PUSH1 0x40 SWAP1 KECCAK256 SLOAD PUSH1 0xFF AND PUSH2 0x476 JUMPI PUSH1 0x40 MLOAD PUSH3 0x461BCD PUSH1 0xE5 SHL DUP2 MSTORE PUSH1 0x4 ADD PUSH2 0x36A SWAP1 PUSH2 0x100C JUMP JUMPDEST PUSH1 0x2 SLOAD DUP6 SWAP1 PUSH1 0x1 PUSH1 0x1 PUSH1 0xA0 SHL SUB DUP1 DUP4 AND SWAP2 AND EQ PUSH2 0x4A5 JUMPI PUSH1 0x40 MLOAD PUSH3 0x461BCD PUSH1 0xE5 SHL DUP2 MSTORE PUSH1 0x4 ADD PUSH2 0x36A SWAP1 PUSH2 0x103C JUMP JUMPDEST PUSH1 0x1 NOT PUSH1 0xFF DUP6 AND ADD PUSH2 0x592 JUMPI DUP2 ISZERO PUSH2 0x53E JUMPI PUSH1 0x40 MLOAD PUSH4 0x653A9541 PUSH1 0xE1 SHL DUP2 MSTORE PUSH1 0x4 DUP2 ADD DUP7 SWAP1 MSTORE PUSH1 0x24 DUP2 ADD DUP5 SWAP1 MSTORE PUSH32 0x0 PUSH1 0x1 PUSH1 0x1 PUSH1 0xA0 SHL SUB AND SWAP1 PUSH4 0xCA752A82 SWAP1 PUSH1 0x44 ADD JUMPDEST PUSH1 0x0 PUSH1 0x40 MLOAD DUP1 DUP4 SUB DUP2 PUSH1 0x0 DUP8 DUP1 EXTCODESIZE ISZERO DUP1 ISZERO PUSH2 0x521 JUMPI PUSH1 0x0 DUP1 REVERT JUMPDEST POP GAS CALL ISZERO DUP1 ISZERO PUSH2 0x535 JUMPI RETURNDATASIZE PUSH1 0x0 DUP1 RETURNDATACOPY RETURNDATASIZE PUSH1 0x0 REVERT JUMPDEST POP POP POP POP PUSH2 0x694 JUMP JUMPDEST PUSH1 0x40 MLOAD PUSH4 0xF0A5E143 PUSH1 0xE0 SHL DUP2 MSTORE PUSH1 0x4 DUP2 ADD DUP7 SWAP1 MSTORE PUSH1 0x24 DUP2 ADD DUP5 SWAP1 MSTORE PUSH32 0x0 PUSH1 0x1 PUSH1 0x1 PUSH1 0xA0 SHL SUB AND SWAP1 PUSH4 0xF0A5E143 SWAP1 PUSH1 0x44 ADD PUSH2 0x507 JUMP JUMPDEST PUSH1 0x2 NOT PUSH1 0xFF DUP6 AND ADD PUSH2 0x64C JUMPI DUP2 ISZERO PUSH2 0x5F8 JUMPI PUSH1 0x40 MLOAD PUSH4 0x6EB14D3B PUSH1 0xE0 SHL DUP2 MSTORE PUSH1 0x4 DUP2 ADD DUP7 SWAP1 MSTORE PUSH1 0x24 DUP2 ADD DUP5 SWAP1 MSTORE PUSH32 0x0 PUSH1 0x1 PUSH1 0x1 PUSH1 0xA0 SHL SUB AND SWAP1 PUSH4 0x6EB14D3B SWAP1 PUSH1 0x44 ADD PUSH2 0x507 JUMP JUMPDEST PUSH1 0x40 MLOAD PUSH4 0xDD53BF9 PUSH1 0xE1 SHL DUP2 MSTORE PUSH1 0x4 DUP2 ADD DUP7 SWAP1 MSTORE PUSH1 0x24 DUP2 ADD DUP5 SWAP1 MSTORE PUSH32 0x0 PUSH1 0x1 PUSH1 0x1 PUSH1 0xA0 SHL SUB AND SWAP1 PUSH4 0x1BAA77F2 SWAP1 PUSH1 0x44 ADD PUSH2 0x507 JUMP JUMPDEST PUSH1 0x40 MLOAD PUSH3 0x461BCD PUSH1 0xE5 SHL DUP2 MSTORE PUSH1 0x20 PUSH1 0x4 DUP3 ADD MSTORE PUSH1 0x19 PUSH1 0x24 DUP3 ADD MSTORE PUSH32 0x496E76616C6964207472616E736974696F6E20616374696F6E00000000000000 PUSH1 0x44 DUP3 ADD MSTORE PUSH1 0x64 ADD PUSH2 0x36A JUMP JUMPDEST DUP3 DUP5 PUSH1 0xFF AND DUP7 PUSH1 0x0 DUP1 MLOAD PUSH1 0x20 PUSH2 0x10B5 DUP4 CODECOPY DUP2 MLOAD SWAP2 MSTORE PUSH1 0x40 MLOAD PUSH1 0x40 MLOAD DUP1 SWAP2 SUB SWAP1 LOG4 POP POP POP POP POP POP JUMP JUMPDEST PUSH1 0x0 DUP1 SLOAD PUSH1 0x40 MLOAD PUSH4 0x26DB15BB PUSH1 0xE2 SHL DUP2 MSTORE ADDRESS PUSH1 0x4 DUP3 ADD MSTORE PUSH1 0x1 PUSH1 0x1 PUSH1 0xA0 SHL SUB SWAP1 SWAP2 AND SWAP1 PUSH4 0x9B6C56EC SWAP1 PUSH1 0x24 ADD PUSH1 0x20 PUSH1 0x40 MLOAD DUP1 DUP4 SUB DUP2 DUP7 GAS STATICCALL ISZERO DUP1 ISZERO PUSH2 0x705 JUMPI RETURNDATASIZE PUSH1 0x0 DUP1 RETURNDATACOPY RETURNDATASIZE PUSH1 0x0 REVERT JUMPDEST POP POP POP POP PUSH1 0x40 MLOAD RETURNDATASIZE PUSH1 0x1F NOT PUSH1 0x1F DUP3 ADD AND DUP3 ADD DUP1 PUSH1 0x40 MSTORE POP DUP2 ADD SWAP1 PUSH2 0x729 SWAP2 SWAP1 PUSH2 0x106C JUMP JUMPDEST PUSH1 0x0 SLOAD SWAP1 SWAP2 POP PUSH2 0x742 SWAP1 PUSH1 0x1 PUSH1 0x1 PUSH1 0xA0 SHL SUB AND DUP3 PUSH2 0xCFF JUMP JUMPDEST POP JUMP JUMPDEST CALLER PUSH1 0x0 SWAP1 DUP2 MSTORE PUSH1 0x1 PUSH1 0x20 MSTORE PUSH1 0x40 SWAP1 KECCAK256 SLOAD PUSH1 0xFF AND PUSH2 0x774 JUMPI PUSH1 0x40 MLOAD PUSH3 0x461BCD PUSH1 0xE5 SHL DUP2 MSTORE PUSH1 0x4 ADD PUSH2 0x36A SWAP1 PUSH2 0x100C JUMP JUMPDEST PUSH1 0x2 SLOAD DUP4 SWAP1 PUSH1 0x1 PUSH1 0x1 PUSH1 0xA0 SHL SUB DUP1 DUP4 AND SWAP2 AND EQ PUSH2 0x7A3 JUMPI PUSH1 0x40 MLOAD PUSH3 0x461BCD PUSH1 0xE5 SHL DUP2 MSTORE PUSH1 0x4 ADD PUSH2 0x36A SWAP1 PUSH2 0x103C JUMP JUMPDEST PUSH1 0x40 MLOAD PUSH4 0x1002D421 PUSH1 0xE3 SHL DUP2 MSTORE PUSH1 0x4 DUP2 ADD DUP5 SWAP1 MSTORE PUSH1 0x24 DUP2 ADD DUP4 SWAP1 MSTORE PUSH32 0x0 PUSH1 0x1 PUSH1 0x1 PUSH1 0xA0 SHL SUB AND SWAP1 PUSH4 0x8016A108 SWAP1 PUSH1 0x44 ADD PUSH1 0x0 PUSH1 0x40 MLOAD DUP1 DUP4 SUB DUP2 PUSH1 0x0 DUP8 DUP1 EXTCODESIZE ISZERO DUP1 ISZERO PUSH2 0x80C JUMPI PUSH1 0x0 DUP1 REVERT JUMPDEST POP GAS CALL ISZERO DUP1 ISZERO PUSH2 0x820 JUMPI RETURNDATASIZE PUSH1 0x0 DUP1 RETURNDATACOPY RETURNDATASIZE PUSH1 0x0 REVERT JUMPDEST POP POP PUSH1 0x40 MLOAD DUP5 SWAP3 POP PUSH1 0x6 SWAP2 POP DUP6 SWAP1 PUSH1 0x0 DUP1 MLOAD PUSH1 0x20 PUSH2 0x10B5 DUP4 CODECOPY DUP2 MLOAD SWAP2 MSTORE SWAP1 PUSH1 0x0 SWAP1 LOG4 POP POP POP POP JUMP JUMPDEST CALLER PUSH1 0x0 SWAP1 DUP2 MSTORE PUSH1 0x1 PUSH1 0x20 MSTORE PUSH1 0x40 SWAP1 KECCAK256 SLOAD PUSH1 0xFF AND PUSH2 0x877 JUMPI PUSH1 0x40 MLOAD PUSH3 0x461BCD PUSH1 0xE5 SHL DUP2 MSTORE PUSH1 0x4 ADD PUSH2 0x36A SWAP1 PUSH2 0x100C JUMP JUMPDEST PUSH1 0x2 SLOAD DUP7 SWAP1 PUSH1 0x1 PUSH1 0x1 PUSH1 0xA0 SHL SUB DUP1 DUP4 AND SWAP2 AND EQ PUSH2 0x8A6 JUMPI PUSH1 0x40 MLOAD PUSH3 0x461BCD PUSH1 0xE5 SHL DUP2 MSTORE PUSH1 0x4 ADD PUSH2 0x36A SWAP1 PUSH2 0x103C JUMP JUMPDEST PUSH1 0x40 MLOAD PUSH4 0xEF8B2AF5 PUSH1 0xE0 SHL DUP2 MSTORE PUSH1 0x4 DUP2 ADD DUP8 SWAP1 MSTORE PUSH1 0x24 DUP2 ADD DUP7 SWAP1 MSTORE PUSH8 0xFFFFFFFFFFFFFFFF DUP1 DUP7 AND PUSH1 0x44 DUP4 ADD MSTORE DUP1 DUP6 AND PUSH1 0x64 DUP4 ADD MSTORE DUP4 AND PUSH1 0x84 DUP3 ADD MSTORE PUSH32 0x0 PUSH1 0x1 PUSH1 0x1 PUSH1 0xA0 SHL SUB AND SWAP1 PUSH4 0xEF8B2AF5 SWAP1 PUSH1 0xA4 ADD PUSH1 0x0 PUSH1 0x40 MLOAD DUP1 DUP4 SUB DUP2 PUSH1 0x0 DUP8 DUP1 EXTCODESIZE ISZERO DUP1 ISZERO PUSH2 0x92F JUMPI PUSH1 0x0 DUP1 REVERT JUMPDEST POP GAS CALL ISZERO DUP1 ISZERO PUSH2 0x943 JUMPI RETURNDATASIZE PUSH1 0x0 DUP1 RETURNDATACOPY RETURNDATASIZE PUSH1 0x0 REVERT JUMPDEST POP POP PUSH1 0x40 MLOAD DUP8 SWAP3 POP PUSH1 0x1 SWAP2 POP DUP9 SWAP1 PUSH1 0x0 DUP1 MLOAD PUSH1 0x20 PUSH2 0x10B5 DUP4 CODECOPY DUP2 MLOAD SWAP2 MSTORE SWAP1 PUSH1 0x0 SWAP1 LOG4 POP POP POP POP POP POP POP JUMP JUMPDEST CALLER PUSH1 0x0 SWAP1 DUP2 MSTORE PUSH1 0x1 PUSH1 0x20 MSTORE PUSH1 0x40 SWAP1 KECCAK256 SLOAD PUSH1 0xFF AND PUSH2 0x99D JUMPI PUSH1 0x40 MLOAD PUSH3 0x461BCD PUSH1 0xE5 SHL DUP2 MSTORE PUSH1 0x4 ADD PUSH2 0x36A SWAP1 PUSH2 0x100C JUMP JUMPDEST PUSH2 0x742 CALLER DUP3 PUSH2 0xCFF JUMP JUMPDEST CALLER PUSH1 0x0 SWAP1 DUP2 MSTORE PUSH1 0x1 PUSH1 0x20 MSTORE PUSH1 0x40 SWAP1 KECCAK256 SLOAD PUSH1 0xFF AND PUSH2 0x9D6 JUMPI PUSH1 0x40 MLOAD PUSH3 0x461BCD PUSH1 0xE5 SHL DUP2 MSTORE PUSH1 0x4 ADD PUSH2 0x36A SWAP1 PUSH2 0x100C JUMP JUMPDEST PUSH1 0x2 SLOAD DUP8 SWAP1 PUSH1 0x1 PUSH1 0x1 PUSH1 0xA0 SHL SUB DUP1 DUP4 AND SWAP2 AND EQ PUSH2 0xA05 JUMPI PUSH1 0x40 MLOAD PUSH3 0x461BCD PUSH1 0xE5 SHL DUP2 MSTORE PUSH1 0x4 ADD PUSH2 0x36A SWAP1 PUSH2 0x103C JUMP JUMPDEST DUP2 ISZERO PUSH2 0xAA6 JUMPI PUSH1 0x40 MLOAD PUSH4 0x68807391 PUSH1 0xE0 SHL DUP2 MSTORE PUSH1 0x4 DUP2 ADD DUP9 SWAP1 MSTORE PUSH1 0x24 DUP2 ADD DUP8 SWAP1 MSTORE PUSH1 0x44 DUP2 ADD DUP7 SWAP1 MSTORE PUSH1 0x64 DUP2 ADD DUP6 SWAP1 MSTORE PUSH1 0x84 DUP2 ADD DUP5 SWAP1 MSTORE PUSH32 0x0 PUSH1 0x1 PUSH1 0x1 PUSH1 0xA0 SHL SUB AND SWAP1 PUSH4 0x68807391 SWAP1 PUSH1 0xA4 ADD PUSH1 0x0 PUSH1 0x40 MLOAD DUP1 DUP4 SUB DUP2 PUSH1 0x0 DUP8 DUP1 EXTCODESIZE ISZERO DUP1 ISZERO PUSH2 0xA89 JUMPI PUSH1 0x0 DUP1 REVERT JUMPDEST POP GAS CALL ISZERO DUP1 ISZERO PUSH2 0xA9D JUMPI RETURNDATASIZE PUSH1 0x0 DUP1 RETURNDATACOPY RETURNDATASIZE PUSH1 0x0 REVERT JUMPDEST POP POP POP POP PUSH2 0xB3D JUMP JUMPDEST PUSH1 0x40 MLOAD PUSH4 0x68CE8D05 PUSH1 0xE1 SHL DUP2 MSTORE PUSH1 0x4 DUP2 ADD DUP9 SWAP1 MSTORE PUSH1 0x24 DUP2 ADD DUP8 SWAP1 MSTORE PUSH1 0x44 DUP2 ADD DUP7 SWAP1 MSTORE PUSH1 0x64 DUP2 ADD DUP6 SWAP1 MSTORE PUSH1 0x84 DUP2 ADD DUP5 SWAP1 MSTORE PUSH32 0x0 PUSH1 0x1 PUSH1 0x1 PUSH1 0xA0 SHL SUB AND SWAP1 PUSH4 0xD19D1A0A SWAP1 PUSH1 0xA4 ADD PUSH1 0x0 PUSH1 0x40 MLOAD DUP1 DUP4 SUB DUP2 PUSH1 0x0 DUP8 DUP1 EXTCODESIZE ISZERO DUP1 ISZERO PUSH2 0xB24 JUMPI PUSH1 0x0 DUP1 REVERT JUMPDEST POP GAS CALL ISZERO DUP1 ISZERO PUSH2 0xB38 JUMPI RETURNDATASIZE PUSH1 0x0 DUP1 RETURNDATACOPY RETURNDATASIZE PUSH1 0x0 REVERT JUMPDEST POP POP POP POP JUMPDEST PUSH1 0x40 MLOAD DUP7 SWAP1 PUSH1 0x4 SWAP1 DUP10 SWAP1 PUSH1 0x0 DUP1 MLOAD PUSH1 0x20 PUSH2 0x10B5 DUP4 CODECOPY DUP2 MLOAD SWAP2 MSTORE SWAP1 PUSH1 0x0 SWAP1 LOG4 POP POP POP POP POP POP POP POP JUMP JUMPDEST PUSH1 0x3 SLOAD PUSH1 0x1 PUSH1 0x1 PUSH1 0xA0 SHL SUB AND CALLER EQ PUSH2 0xB90 JUMPI PUSH1 0x40 MLOAD PUSH4 0xDE271CF5 PUSH1 0xE0 SHL DUP2 MSTORE PUSH1 0x4 ADD PUSH1 0x40 MLOAD DUP1 SWAP2 SUB SWAP1 REVERT JUMPDEST PUSH1 0x1 PUSH1 0x1 PUSH1 0xA0 SHL SUB DUP2 AND PUSH2 0xBB7 JUMPI PUSH1 0x40 MLOAD PUSH4 0xE6C4247B PUSH1 0xE0 SHL DUP2 MSTORE PUSH1 0x4 ADD PUSH1 0x40 MLOAD DUP1 SWAP2 SUB SWAP1 REVERT JUMPDEST PUSH1 0x3 DUP1 SLOAD PUSH1 0x1 PUSH1 0x1 PUSH1 0xA0 SHL SUB DUP4 DUP2 AND PUSH1 0x1 PUSH1 0x1 PUSH1 0xA0 SHL SUB NOT DUP4 AND DUP2 OR SWAP1 SWAP4 SSTORE PUSH1 0x40 MLOAD SWAP2 AND SWAP2 SWAP1 DUP3 SWAP1 PUSH32 0x8BE0079C531659141344CD1FD0A4F28419497F9722A3DAAFE3B4186F6B6457E0 SWAP1 PUSH1 0x0 SWAP1 LOG3 POP POP JUMP JUMPDEST PUSH1 0x3 SLOAD PUSH1 0x1 PUSH1 0x1 PUSH1 0xA0 SHL SUB AND CALLER EQ PUSH2 0xC34 JUMPI PUSH1 0x40 MLOAD PUSH4 0xDE271CF5 PUSH1 0xE0 SHL DUP2 MSTORE PUSH1 0x4 ADD PUSH1 0x40 MLOAD DUP1 SWAP2 SUB SWAP1 REVERT JUMPDEST PUSH1 0x1 PUSH1 0x1 PUSH1 0xA0 SHL SUB DUP3 AND PUSH2 0xC5B JUMPI PUSH1 0x40 MLOAD PUSH4 0xE6C4247B PUSH1 0xE0 SHL DUP2 MSTORE PUSH1 0x4 ADD PUSH1 0x40 MLOAD DUP1 SWAP2 SUB SWAP1 REVERT JUMPDEST DUP1 ISZERO PUSH2 0xC91 JUMPI PUSH2 0xC8C DUP3 PUSH1 0x1 PUSH1 0x1 PUSH1 0xA0 SHL SUB AND PUSH1 0x0 SWAP1 DUP2 MSTORE PUSH1 0x1 PUSH1 0x20 DUP2 SWAP1 MSTORE PUSH1 0x40 SWAP1 SWAP2 KECCAK256 DUP1 SLOAD PUSH1 0xFF NOT AND SWAP1 SWAP2 OR SWAP1 SSTORE JUMP JUMPDEST PUSH2 0xCB6 JUMP JUMPDEST PUSH2 0xCB6 DUP3 PUSH1 0x1 PUSH1 0x1 PUSH1 0xA0 SHL SUB AND PUSH1 0x0 SWAP1 DUP2 MSTORE PUSH1 0x1 PUSH1 0x20 MSTORE PUSH1 0x40 SWAP1 KECCAK256 DUP1 SLOAD PUSH1 0xFF NOT AND SWAP1 SSTORE JUMP JUMPDEST DUP2 PUSH1 0x1 PUSH1 0x1 PUSH1 0xA0 SHL SUB AND PUSH32 0x9316DF45C3226259B8D7F2D32687EDB5A88141D5F47D0D6B67B927F3030C66D1 DUP3 PUSH1 0x40 MLOAD PUSH2 0xCF3 SWAP2 ISZERO ISZERO DUP2 MSTORE PUSH1 0x20 ADD SWAP1 JUMP JUMPDEST PUSH1 0x40 MLOAD DUP1 SWAP2 SUB SWAP1 LOG2 POP POP JUMP JUMPDEST DUP1 SELFBALANCE LT ISZERO PUSH2 0xD44 JUMPI PUSH1 0x40 MLOAD PUSH3 0x461BCD PUSH1 0xE5 SHL DUP2 MSTORE PUSH1 0x20 PUSH1 0x4 DUP3 ADD MSTORE PUSH1 0x12 PUSH1 0x24 DUP3 ADD MSTORE PUSH18 0x496E73756666696369656E742066756E6473 PUSH1 0x70 SHL PUSH1 0x44 DUP3 ADD MSTORE PUSH1 0x64 ADD PUSH2 0x36A JUMP JUMPDEST DUP1 ISZERO PUSH2 0xDFB JUMPI PUSH1 0x40 DUP1 MLOAD PUSH1 0x0 DUP1 DUP3 MSTORE PUSH1 0x20 DUP3 ADD SWAP1 SWAP3 MSTORE PUSH1 0x1 PUSH1 0x1 PUSH1 0xA0 SHL SUB DUP5 AND SWAP1 DUP4 SWAP1 PUSH1 0x40 MLOAD PUSH2 0xD74 SWAP2 SWAP1 PUSH2 0x1085 JUMP JUMPDEST PUSH1 0x0 PUSH1 0x40 MLOAD DUP1 DUP4 SUB DUP2 DUP6 DUP8 GAS CALL SWAP3 POP POP POP RETURNDATASIZE DUP1 PUSH1 0x0 DUP2 EQ PUSH2 0xDB1 JUMPI PUSH1 0x40 MLOAD SWAP2 POP PUSH1 0x1F NOT PUSH1 0x3F RETURNDATASIZE ADD AND DUP3 ADD PUSH1 0x40 MSTORE RETURNDATASIZE DUP3 MSTORE RETURNDATASIZE PUSH1 0x0 PUSH1 0x20 DUP5 ADD RETURNDATACOPY PUSH2 0xDB6 JUMP JUMPDEST PUSH1 0x60 SWAP2 POP JUMPDEST POP POP SWAP1 POP DUP1 PUSH2 0xDF9 JUMPI PUSH1 0x40 MLOAD PUSH3 0x461BCD PUSH1 0xE5 SHL DUP2 MSTORE PUSH1 0x20 PUSH1 0x4 DUP3 ADD MSTORE PUSH1 0xF PUSH1 0x24 DUP3 ADD MSTORE PUSH15 0x151C985B9CD9995C8819985A5B1959 PUSH1 0x8A SHL PUSH1 0x44 DUP3 ADD MSTORE PUSH1 0x64 ADD PUSH2 0x36A JUMP JUMPDEST POP JUMPDEST POP POP JUMP JUMPDEST DUP1 CALLDATALOAD PUSH1 0x1 PUSH1 0x1 PUSH1 0xA0 SHL SUB DUP2 AND DUP2 EQ PUSH2 0xE16 JUMPI PUSH1 0x0 DUP1 REVERT JUMPDEST SWAP2 SWAP1 POP JUMP JUMPDEST PUSH1 0x0 PUSH1 0x20 DUP3 DUP5 SUB SLT ISZERO PUSH2 0xE2D JUMPI PUSH1 0x0 DUP1 REVERT JUMPDEST PUSH2 0xE36 DUP3 PUSH2 0xDFF JUMP JUMPDEST SWAP4 SWAP3 POP POP POP JUMP JUMPDEST PUSH1 0x0 DUP1 PUSH1 0x0 PUSH1 0x60 DUP5 DUP7 SUB SLT ISZERO PUSH2 0xE52 JUMPI PUSH1 0x0 DUP1 REVERT JUMPDEST PUSH2 0xE5B DUP5 PUSH2 0xDFF JUMP JUMPDEST SWAP6 PUSH1 0x20 DUP6 ADD CALLDATALOAD SWAP6 POP PUSH1 0x40 SWAP1 SWAP5 ADD CALLDATALOAD SWAP4 SWAP3 POP POP POP JUMP JUMPDEST DUP1 CALLDATALOAD DUP1 ISZERO ISZERO DUP2 EQ PUSH2 0xE16 JUMPI PUSH1 0x0 DUP1 REVERT JUMPDEST PUSH1 0x0 DUP1 PUSH1 0x0 DUP1 PUSH1 0x0 PUSH1 0xA0 DUP7 DUP9 SUB SLT ISZERO PUSH2 0xE98 JUMPI PUSH1 0x0 DUP1 REVERT JUMPDEST PUSH2 0xEA1 DUP7 PUSH2 0xDFF JUMP JUMPDEST SWAP5 POP PUSH1 0x20 DUP7 ADD CALLDATALOAD SWAP4 POP PUSH1 0x40 DUP7 ADD CALLDATALOAD PUSH1 0xFF DUP2 AND DUP2 EQ PUSH2 0xEBE JUMPI PUSH1 0x0 DUP1 REVERT JUMPDEST SWAP3 POP PUSH1 0x60 DUP7 ADD CALLDATALOAD SWAP2 POP PUSH2 0xED3 PUSH1 0x80 DUP8 ADD PUSH2 0xE70 JUMP JUMPDEST SWAP1 POP SWAP3 SWAP6 POP SWAP3 SWAP6 SWAP1 SWAP4 POP JUMP JUMPDEST DUP1 CALLDATALOAD PUSH8 0xFFFFFFFFFFFFFFFF DUP2 AND DUP2 EQ PUSH2 0xE16 JUMPI PUSH1 0x0 DUP1 REVERT JUMPDEST PUSH1 0x0 DUP1 PUSH1 0x0 DUP1 PUSH1 0x0 DUP1 PUSH1 0xC0 DUP8 DUP10 SUB SLT ISZERO PUSH2 0xF10 JUMPI PUSH1 0x0 DUP1 REVERT JUMPDEST PUSH2 0xF19 DUP8 PUSH2 0xDFF JUMP JUMPDEST SWAP6 POP PUSH1 0x20 DUP8 ADD CALLDATALOAD SWAP5 POP PUSH1 0x40 DUP8 ADD CALLDATALOAD SWAP4 POP PUSH2 0xF35 PUSH1 0x60 DUP9 ADD PUSH2 0xEDF JUMP JUMPDEST SWAP3 POP PUSH2 0xF43 PUSH1 0x80 DUP9 ADD PUSH2 0xEDF JUMP JUMPDEST SWAP2 POP PUSH2 0xF51 PUSH1 0xA0 DUP9 ADD PUSH2 0xEDF JUMP JUMPDEST SWAP1 POP SWAP3 SWAP6 POP SWAP3 SWAP6 POP SWAP3 SWAP6 JUMP JUMPDEST PUSH1 0x0 PUSH1 0x20 DUP3 DUP5 SUB SLT ISZERO PUSH2 0xF6F JUMPI PUSH1 0x0 DUP1 REVERT JUMPDEST POP CALLDATALOAD SWAP2 SWAP1 POP JUMP JUMPDEST PUSH1 0x0 DUP1 PUSH1 0x0 DUP1 PUSH1 0x0 DUP1 PUSH1 0x0 PUSH1 0xE0 DUP9 DUP11 SUB SLT ISZERO PUSH2 0xF91 JUMPI PUSH1 0x0 DUP1 REVERT JUMPDEST PUSH2 0xF9A DUP9 PUSH2 0xDFF JUMP JUMPDEST SWAP7 POP PUSH1 0x20 DUP9 ADD CALLDATALOAD SWAP6 POP PUSH1 0x40 DUP9 ADD CALLDATALOAD SWAP5 POP PUSH1 0x60 DUP9 ADD CALLDATALOAD SWAP4 POP PUSH1 0x80 DUP9 ADD CALLDATALOAD SWAP3 POP PUSH1 0xA0 DUP9 ADD CALLDATALOAD SWAP2 POP PUSH2 0xFCB PUSH1 0xC0 DUP10 ADD PUSH2 0xE70 JUMP JUMPDEST SWAP1 POP SWAP3 SWAP6 SWAP9 SWAP2 SWAP5 SWAP8 POP SWAP3 SWAP6 POP JUMP JUMPDEST PUSH1 0x0 DUP1 PUSH1 0x40 DUP4 DUP6 SUB SLT ISZERO PUSH2 0xFEC JUMPI PUSH1 0x0 DUP1 REVERT JUMPDEST PUSH2 0xFF5 DUP4 PUSH2 0xDFF JUMP JUMPDEST SWAP2 POP PUSH2 0x1003 PUSH1 0x20 DUP5 ADD PUSH2 0xE70 JUMP JUMPDEST SWAP1 POP SWAP3 POP SWAP3 SWAP1 POP JUMP JUMPDEST PUSH1 0x20 DUP1 DUP3 MSTORE PUSH1 0x16 SWAP1 DUP3 ADD MSTORE PUSH22 0x417574686F72697A65642073656E646572206F6E6C79 PUSH1 0x50 SHL PUSH1 0x40 DUP3 ADD MSTORE PUSH1 0x60 ADD SWAP1 JUMP JUMPDEST PUSH1 0x20 DUP1 DUP3 MSTORE PUSH1 0x16 SWAP1 DUP3 ADD MSTORE PUSH22 0x417574686F72697A65642052564D204944206F6E6C79 PUSH1 0x50 SHL PUSH1 0x40 DUP3 ADD MSTORE PUSH1 0x60 ADD SWAP1 JUMP JUMPDEST PUSH1 0x0 PUSH1 0x20 DUP3 DUP5 SUB SLT ISZERO PUSH2 0x107E JUMPI PUSH1 0x0 DUP1 REVERT JUMPDEST POP MLOAD SWAP2 SWAP1 POP JUMP JUMPDEST PUSH1 0x0 DUP3 MLOAD PUSH1 0x0 JUMPDEST DUP2 DUP2 LT ISZERO PUSH2 0x10A6 JUMPI PUSH1 0x20 DUP2 DUP7 ADD DUP2 ADD MLOAD DUP6 DUP4 ADD MSTORE ADD PUSH2 0x108C JUMP JUMPDEST POP PUSH1 0x0 SWAP3 ADD SWAP2 DUP3 MSTORE POP SWAP2 SWAP1 POP JUMP INVALID 0xF7 CREATE2 0x25 DUP12 CODESIZE 0xDB SGT 0xC1 0xAD DUP10 DUP12 SWAP2 0xBC SLT MSIZE 0xC3 MULMOD 0xC0 SWAP14 SHR 0xDB CALLDATACOPY BALANCE BLOBBASEFEE SLT SLOAD STOP 0xD4 0xC3 0x24 0xF 0xE2 LOG2 PUSH5 0x6970667358 0x22 SLT KECCAK256 0x2B 0xB5 0xD5 JUMP GAS XOR 0x1E PUSH23 0x9F11B0127540B42838BDC9BD0E1A8D9CEF64FF90451BCE SHR PUSH5 0x736F6C6343 STOP ADDMOD XOR STOP CALLER "},"methodIdentifiers":{"coverDebt()":"7a90b990","owner()":"8da5cb5b","pay(uint256)":"c290d691","reactiveSender()":"95e09b01","rxApprove(address,bytes32,uint256)":"5d73d02a","rxCreateWeek(address,bytes32,uint256,uint64,uint64,uint64)":"be0fa6d4","rxFinalize(address,bytes32,uint256,bytes32,bytes32,uint256,bool)":"c8a12651","rxReject(address,bytes32,uint256)":"a502e62d","rxTransition(address,bytes32,uint8,uint256,bool)":"668b3a4a","setAuthorizedSender(address,bool)":"f3dfc2a9","setReactiveSender(address)":"56f20512","transferOwnership(address)":"f2fde38b","valcore()":"76351266"}}}}}