{
  "_format": "hh-sol-artifact-1",
  "contractName": "ValcoreReactiveDispatcher",
  "sourceName": "contracts/ValcoreReactiveDispatcher.sol",
  "abi": [
    {
      "inputs": [
        {
          "internalType": "uint256",
          "name": "targetChainId",
          "type": "uint256"
        },
        {
          "internalType": "address",
          "name": "targetReceiver",
          "type": "address"
        },
        {
          "internalType": "address",
          "name": "initialOperator",
          "type": "address"
        },
        {
          "internalType": "address",
          "name": "triggerAddress",
          "type": "address"
        }
      ],
      "stateMutability": "payable",
      "type": "constructor"
    },
    {
      "inputs": [],
      "name": "InvalidAddress",
      "type": "error"
    },
    {
      "inputs": [],
      "name": "InvalidDispatchPayload",
      "type": "error"
    },
    {
      "inputs": [],
      "name": "Unauthorized",
      "type": "error"
    },
    {
      "anonymous": false,
      "inputs": [
        {
          "indexed": true,
          "internalType": "uint256",
          "name": "chain_id",
          "type": "uint256"
        },
        {
          "indexed": true,
          "internalType": "address",
          "name": "_contract",
          "type": "address"
        },
        {
          "indexed": true,
          "internalType": "uint64",
          "name": "gas_limit",
          "type": "uint64"
        },
        {
          "indexed": false,
          "internalType": "bytes",
          "name": "payload",
          "type": "bytes"
        }
      ],
      "name": "Callback",
      "type": "event"
    },
    {
      "anonymous": false,
      "inputs": [
        {
          "indexed": true,
          "internalType": "bytes32",
          "name": "payloadHash",
          "type": "bytes32"
        },
        {
          "indexed": false,
          "internalType": "uint64",
          "name": "gasLimit",
          "type": "uint64"
        }
      ],
      "name": "DispatchForwarded",
      "type": "event"
    },
    {
      "anonymous": false,
      "inputs": [
        {
          "indexed": true,
          "internalType": "bytes32",
          "name": "payloadHash",
          "type": "bytes32"
        },
        {
          "indexed": false,
          "internalType": "uint64",
          "name": "gasLimit",
          "type": "uint64"
        }
      ],
      "name": "DispatchRequested",
      "type": "event"
    },
    {
      "anonymous": false,
      "inputs": [
        {
          "indexed": true,
          "internalType": "address",
          "name": "previousOperator",
          "type": "address"
        },
        {
          "indexed": true,
          "internalType": "address",
          "name": "newOperator",
          "type": "address"
        }
      ],
      "name": "OperatorUpdated",
      "type": "event"
    },
    {
      "anonymous": false,
      "inputs": [
        {
          "indexed": true,
          "internalType": "uint256",
          "name": "chainId",
          "type": "uint256"
        },
        {
          "indexed": true,
          "internalType": "address",
          "name": "sourceContract",
          "type": "address"
        },
        {
          "indexed": true,
          "internalType": "uint256",
          "name": "topic0",
          "type": "uint256"
        }
      ],
      "name": "SubscriptionActivated",
      "type": "event"
    },
    {
      "inputs": [],
      "name": "activateSubscription",
      "outputs": [],
      "stateMutability": "nonpayable",
      "type": "function"
    },
    {
      "inputs": [],
      "name": "coverDebt",
      "outputs": [],
      "stateMutability": "nonpayable",
      "type": "function"
    },
    {
      "inputs": [],
      "name": "destinationChainId",
      "outputs": [
        {
          "internalType": "uint256",
          "name": "",
          "type": "uint256"
        }
      ],
      "stateMutability": "view",
      "type": "function"
    },
    {
      "inputs": [],
      "name": "destinationReceiver",
      "outputs": [
        {
          "internalType": "address",
          "name": "",
          "type": "address"
        }
      ],
      "stateMutability": "view",
      "type": "function"
    },
    {
      "inputs": [
        {
          "internalType": "bytes",
          "name": "payload",
          "type": "bytes"
        },
        {
          "internalType": "uint64",
          "name": "gasLimit",
          "type": "uint64"
        }
      ],
      "name": "dispatch",
      "outputs": [],
      "stateMutability": "nonpayable",
      "type": "function"
    },
    {
      "inputs": [],
      "name": "operator",
      "outputs": [
        {
          "internalType": "address",
          "name": "",
          "type": "address"
        }
      ],
      "stateMutability": "view",
      "type": "function"
    },
    {
      "inputs": [
        {
          "internalType": "uint256",
          "name": "amount",
          "type": "uint256"
        }
      ],
      "name": "pay",
      "outputs": [],
      "stateMutability": "nonpayable",
      "type": "function"
    },
    {
      "inputs": [
        {
          "components": [
            {
              "internalType": "uint256",
              "name": "chain_id",
              "type": "uint256"
            },
            {
              "internalType": "address",
              "name": "_contract",
              "type": "address"
            },
            {
              "internalType": "uint256",
              "name": "topic_0",
              "type": "uint256"
            },
            {
              "internalType": "uint256",
              "name": "topic_1",
              "type": "uint256"
            },
            {
              "internalType": "uint256",
              "name": "topic_2",
              "type": "uint256"
            },
            {
              "internalType": "uint256",
              "name": "topic_3",
              "type": "uint256"
            },
            {
              "internalType": "bytes",
              "name": "data",
              "type": "bytes"
            },
            {
              "internalType": "uint256",
              "name": "block_number",
              "type": "uint256"
            },
            {
              "internalType": "uint256",
              "name": "op_code",
              "type": "uint256"
            },
            {
              "internalType": "uint256",
              "name": "block_hash",
              "type": "uint256"
            },
            {
              "internalType": "uint256",
              "name": "tx_hash",
              "type": "uint256"
            },
            {
              "internalType": "uint256",
              "name": "log_index",
              "type": "uint256"
            }
          ],
          "internalType": "struct IReactive.LogRecord",
          "name": "log",
          "type": "tuple"
        }
      ],
      "name": "react",
      "outputs": [],
      "stateMutability": "nonpayable",
      "type": "function"
    },
    {
      "inputs": [
        {
          "internalType": "address",
          "name": "newOperator",
          "type": "address"
        }
      ],
      "name": "setOperator",
      "outputs": [],
      "stateMutability": "nonpayable",
      "type": "function"
    },
    {
      "inputs": [],
      "name": "subscriptionActive",
      "outputs": [
        {
          "internalType": "bool",
          "name": "",
          "type": "bool"
        }
      ],
      "stateMutability": "view",
      "type": "function"
    },
    {
      "inputs": [],
      "name": "triggerContract",
      "outputs": [
        {
          "internalType": "address",
          "name": "",
          "type": "address"
        }
      ],
      "stateMutability": "view",
      "type": "function"
    },
    {
      "inputs": [
        {
          "internalType": "address payable",
          "name": "recipient",
          "type": "address"
        },
        {
          "internalType": "uint256",
          "name": "amount",
          "type": "uint256"
        }
      ],
      "name": "withdraw",
      "outputs": [],
      "stateMutability": "nonpayable",
      "type": "function"
    },
    {
      "stateMutability": "payable",
      "type": "receive"
    }
  ],
  "bytecode": "0x60e060405260405161102638038061102683398101604081905261002291610160565b60028054600080546001600160a01b03191662ffffff908117825590819052600160208190527f82ea04094b91fdbcc6bc700815069948943553fb456ac308389bf83006127735805460ff191690911790553b156001600160a81b03199091161763ffffff0017905583158061009f57506001600160a01b038316155b806100b157506001600160a01b038216155b806100c357506001600160a01b038116155b156100e15760405163e6c4247b60e01b815260040160405180910390fd5b60808490526001600160a01b0383811660a05281811660c052600380546001600160a01b03191691841691821790556040516000907ffbe5b6cbafb274f445d7fed869dc77a838d8243a22c460de156560e8857cad03908290a3505050506101ad565b80516001600160a01b038116811461015b57600080fd5b919050565b6000806000806080858703121561017657600080fd5b8451935061018660208601610144565b925061019460408601610144565b91506101a260608601610144565b905092959194509250565b60805160a05160c051610e206102066000396000818161022501528181610311015281816105130152818161061a0152610733015260008181610259015261039f0152600081816101a301526103c90152610e206000f3fe6080604052600436106100ab5760003560e01c8063b075061111610064578063b075061114610191578063b3ab15fb146101d3578063c290d691146101f3578063d2b799ad14610213578063e4fb4abe14610247578063f3fef3a31461027b57600080fd5b80630d152c2c146100b75780634c9b27fb146100d95780635304d22f1461010f578063570ca735146101245780637212dc191461015c5780637a90b9901461017c57600080fd5b366100b257005b600080fd5b3480156100c357600080fd5b506100d76100d2366004610a8d565b61029b565b005b3480156100e557600080fd5b506003546100fa90600160a01b900460ff1681565b60405190151581526020015b60405180910390f35b34801561011b57600080fd5b506100d761046d565b34801561013057600080fd5b50600354610144906001600160a01b031681565b6040516001600160a01b039091168152602001610106565b34801561016857600080fd5b506100d7610177366004610aed565b610666565b34801561018857600080fd5b506100d76107a4565b34801561019d57600080fd5b506101c57f000000000000000000000000000000000000000000000000000000000000000081565b604051908152602001610106565b3480156101df57600080fd5b506100d76101ee366004610b83565b61082a565b3480156101ff57600080fd5b506100d761020e366004610ba0565b6108cd565b34801561021f57600080fd5b506101447f000000000000000000000000000000000000000000000000000000000000000081565b34801561025357600080fd5b506101447f000000000000000000000000000000000000000000000000000000000000000081565b34801561028757600080fd5b506100d7610296366004610bb9565b61092f565b60025460ff166102dc5760405162461bcd60e51b8152602060048201526007602482015266564d206f6e6c7960c81b60448201526064015b60405180910390fd5b7fe9571211f675faca5a4ccf2f1e50addd011e9c693dc42c5ae64872129620f6b560408201350161046a576001600160a01b037f0000000000000000000000000000000000000000000000000000000000000000166103416040830160208401610b83565b6001600160a01b03160361046a5760008061035f60c0840184610be5565b81019061036c9190610c49565b91509150815160001480610388575067ffffffffffffffff8116155b1561039257505050565b8067ffffffffffffffff167f00000000000000000000000000000000000000000000000000000000000000006001600160a01b03167f00000000000000000000000000000000000000000000000000000000000000007f8dd725fa9d6cd150017ab9e60318d40616439424e2fade9c1c58854950917dfc856040516104179190610d2f565b60405180910390a4815160208084019190912060405167ffffffffffffffff8416815290917f0fdfdd27a993a4e0dda1c00b987866f25aaa66447b2f623f0677317fdafc77f3910160405180910390a250505b50565b6003546001600160a01b03163314610497576040516282b42960e81b815260040160405180910390fd5b60025460ff16156104e25760405162461bcd60e51b81526020600482015260156024820152745265616374697665204e6574776f726b206f6e6c7960581b60448201526064016102d3565b600354600160a01b900460ff16610664576002546040516305a6aced60e41b81524660048201526001600160a01b037f0000000000000000000000000000000000000000000000000000000000000000811660248301527f16a8edee098a0535a5b330d0e1af5222fee16396c23bd3a519b78ded69df094b60448301527fa65f96fc951c35ead38878e0f0b7a3c744a6f5ccc1476b313353ce31712313ad606483018190526084830181905260a483015261010090920490911690635a6aced09060c401600060405180830381600087803b1580156105c057600080fd5b505af11580156105d4573d6000803e3d6000fd5b50506003805460ff60a01b1916600160a01b17905550506040517f16a8edee098a0535a5b330d0e1af5222fee16396c23bd3a519b78ded69df094b906001600160a01b037f0000000000000000000000000000000000000000000000000000000000000000169046907f831c90ccadb3162eb2d199be86a635035fdfa15099c9d36984c24e4e162a0aaa90600090a45b565b6003546001600160a01b03163314610690576040516282b42960e81b815260040160405180910390fd5b8115806106a5575067ffffffffffffffff8116155b156106c3576040516335e8069560e21b815260040160405180910390fd5b600083836040516106d5929190610d62565b60405190819003812067ffffffffffffffff84168252915081907f554b744402af8b2f2bb7653970a5d7c7c0615ca47ba36815861971710e18bdc19060200160405180910390a260405163730fa6d160e01b81526001600160a01b037f0000000000000000000000000000000000000000000000000000000000000000169063730fa6d19061076c90879087908790600401610d72565b600060405180830381600087803b15801561078657600080fd5b505af115801561079a573d6000803e3d6000fd5b5050505050505050565b600080546040516326db15bb60e21b81523060048201526001600160a01b0390911690639b6c56ec90602401602060405180830381865afa1580156107ed573d6000803e3d6000fd5b505050506040513d601f19601f820116820180604052508101906108119190610db5565b60005490915061046a906001600160a01b03168261098e565b6003546001600160a01b03163314610854576040516282b42960e81b815260040160405180910390fd5b6001600160a01b03811661087b5760405163e6c4247b60e01b815260040160405180910390fd5b600380546001600160a01b038381166001600160a01b0319831681179093556040519116919082907ffbe5b6cbafb274f445d7fed869dc77a838d8243a22c460de156560e8857cad0390600090a35050565b3360009081526001602052604090205460ff166109255760405162461bcd60e51b8152602060048201526016602482015275417574686f72697a65642073656e646572206f6e6c7960501b60448201526064016102d3565b61046a338261098e565b6003546001600160a01b03163314610959576040516282b42960e81b815260040160405180910390fd5b6001600160a01b0382166109805760405163e6c4247b60e01b815260040160405180910390fd5b61098a828261098e565b5050565b804710156109d35760405162461bcd60e51b8152602060048201526012602482015271496e73756666696369656e742066756e647360701b60448201526064016102d3565b801561098a57604080516000808252602082019092526001600160a01b038416908390604051610a039190610dce565b60006040518083038185875af1925050503d8060008114610a40576040519150601f19603f3d011682016040523d82523d6000602084013e610a45565b606091505b5050905080610a885760405162461bcd60e51b815260206004820152600f60248201526e151c985b9cd9995c8819985a5b1959608a1b60448201526064016102d3565b505050565b600060208284031215610a9f57600080fd5b813567ffffffffffffffff811115610ab657600080fd5b82016101808185031215610ac957600080fd5b9392505050565b803567ffffffffffffffff81168114610ae857600080fd5b919050565b600080600060408486031215610b0257600080fd5b833567ffffffffffffffff80821115610b1a57600080fd5b818601915086601f830112610b2e57600080fd5b813581811115610b3d57600080fd5b876020828501011115610b4f57600080fd5b602092830195509350610b659186019050610ad0565b90509250925092565b6001600160a01b038116811461046a57600080fd5b600060208284031215610b9557600080fd5b8135610ac981610b6e565b600060208284031215610bb257600080fd5b5035919050565b60008060408385031215610bcc57600080fd5b8235610bd781610b6e565b946020939093013593505050565b6000808335601e19843603018112610bfc57600080fd5b83018035915067ffffffffffffffff821115610c1757600080fd5b602001915036819003821315610c2c57600080fd5b9250929050565b634e487b7160e01b600052604160045260246000fd5b60008060408385031215610c5c57600080fd5b823567ffffffffffffffff80821115610c7457600080fd5b818501915085601f830112610c8857600080fd5b813581811115610c9a57610c9a610c33565b604051601f8201601f19908116603f01168101908382118183101715610cc257610cc2610c33565b81604052828152886020848701011115610cdb57600080fd5b826020860160208301376000602084830101528096505050505050610d0260208401610ad0565b90509250929050565b60005b83811015610d26578181015183820152602001610d0e565b50506000910152565b6020815260008251806020840152610d4e816040850160208701610d0b565b601f01601f19169190910160400192915050565b8183823760009101908152919050565b604081528260408201528284606083013760006060848301015260006060601f19601f860116830101905067ffffffffffffffff83166020830152949350505050565b600060208284031215610dc757600080fd5b5051919050565b60008251610de0818460208701610d0b565b919091019291505056fea264697066735822122014ee872bd84fd8fa8f9ba49255be74cd99959d411762442c7f6df54b602dd68064736f6c63430008180033",
  "linkReferences": {},
  "deployedLinkReferences": {}
}